{
	"data": {
		"bytecode": {
			"linkReferences": {
				"remix_accounts.sol": {
					"TestsAccounts": [
						{
							"length": 20,
							"start": 1289
						},
						{
							"length": 20,
							"start": 1475
						}
					]
				},
				"remix_tests.sol": {
					"Assert": [
						{
							"length": 20,
							"start": 115
						},
						{
							"length": 20,
							"start": 416
						},
						{
							"length": 20,
							"start": 717
						},
						{
							"length": 20,
							"start": 1018
						}
					]
				}
			},
			"object": "608060405234801561000f575f80fd5b506150128061001d5f395ff3fe608060405234801562000010575f80fd5b506004361062000038575f3560e01c806361250cc3146200003c5780637fea0d4b1462000048575b5f80fd5b6200004662000054565b005b62000052620004ea565b005b73__$acbfb1c35000d78352310b16a054a6b106$__63bfba5dd65f8054906101000a900473ffffffffffffffffffffffffffffffffffffffff1673ffffffffffffffffffffffffffffffffffffffff16638da5cb5b6040518163ffffffff1660e01b8152600401602060405180830381865afa158015620000d7573d5f803e3d5ffd5b505050506040513d601f19601f82011682018060405250810190620000fd91906200091a565b60035f9054906101000a900473ffffffffffffffffffffffffffffffffffffffff166040518363ffffffff1660e01b81526004016200013e929190620009b9565b602060405180830381865af41580156200015a573d5f803e3d5ffd5b505050506040513d601f19601f8201168201806040525081019062000180919062000a33565b5073__$acbfb1c35000d78352310b16a054a6b106$__63bfba5dd65f8054906101000a900473ffffffffffffffffffffffffffffffffffffffff1673ffffffffffffffffffffffffffffffffffffffff166355a373d66040518163ffffffff1660e01b8152600401602060405180830381865afa15801562000204573d5f803e3d5ffd5b505050506040513d601f19601f820116820180604052508101906200022a919062000aa5565b60015f9054906101000a900473ffffffffffffffffffffffffffffffffffffffff166040518363ffffffff1660e01b81526004016200026b92919062000b49565b602060405180830381865af415801562000287573d5f803e3d5ffd5b505050506040513d601f19601f82011682018060405250810190620002ad919062000a33565b5073__$acbfb1c35000d78352310b16a054a6b106$__63bfba5dd65f8054906101000a900473ffffffffffffffffffffffffffffffffffffffff1673ffffffffffffffffffffffffffffffffffffffff1663d9f103cc6040518163ffffffff1660e01b8152600401602060405180830381865afa15801562000331573d5f803e3d5ffd5b505050506040513d601f19601f8201168201806040525081019062000357919062000bcb565b60025f9054906101000a900473ffffffffffffffffffffffffffffffffffffffff166040518363ffffffff1660e01b81526004016200039892919062000c6f565b602060405180830381865af4158015620003b4573d5f803e3d5ffd5b505050506040513d601f19601f82011682018060405250810190620003da919062000a33565b5073__$acbfb1c35000d78352310b16a054a6b106$__63abcd79605f8054906101000a900473ffffffffffffffffffffffffffffffffffffffff1673ffffffffffffffffffffffffffffffffffffffff1663b2bef9916040518163ffffffff1660e01b8152600401602060405180830381865afa1580156200045e573d5f803e3d5ffd5b505050506040513d601f19601f8201168201806040525081019062000484919062000ce7565b60646040518363ffffffff1660e01b8152600401620004a592919062000de6565b602060405180830381865af4158015620004c1573d5f803e3d5ffd5b505050506040513d601f19601f82011682018060405250810190620004e7919062000a33565b50565b73__$1068a87eb54ed04c4e435de35b2ebf536f$__63ce88b1455f6040518263ffffffff1660e01b815260040162000523919062000e67565b602060405180830381865af41580156200053f573d5f803e3d5ffd5b505050506040513d601f19601f820116820180604052508101906200056591906200091a565b60035f6101000a81548173ffffffffffffffffffffffffffffffffffffffff021916908373ffffffffffffffffffffffffffffffffffffffff16021790555073__$1068a87eb54ed04c4e435de35b2ebf536f$__63ce88b14560016040518263ffffffff1660e01b8152600401620005de919062000ec3565b602060405180830381865af4158015620005fa573d5f803e3d5ffd5b505050506040513d601f19601f820116820180604052508101906200062091906200091a565b60045f6101000a81548173ffffffffffffffffffffffffffffffffffffffff021916908373ffffffffffffffffffffffffffffffffffffffff1602179055506040516200066d906200088b565b604051809103905ff08015801562000687573d5f803e3d5ffd5b5060015f6101000a81548173ffffffffffffffffffffffffffffffffffffffff021916908373ffffffffffffffffffffffffffffffffffffffff160217905550604051620006d59062000899565b604051809103905ff080158015620006ef573d5f803e3d5ffd5b5060025f6101000a81548173ffffffffffffffffffffffffffffffffffffffff021916908373ffffffffffffffffffffffffffffffffffffffff1602179055506040516200073d90620008a7565b604051809103905ff08015801562000757573d5f803e3d5ffd5b505f806101000a81548173ffffffffffffffffffffffffffffffffffffffff021916908373ffffffffffffffffffffffffffffffffffffffff1602179055505f8054906101000a900473ffffffffffffffffffffffffffffffffffffffff1673ffffffffffffffffffffffffffffffffffffffff1663cf756fdf60035f9054906101000a900473ffffffffffffffffffffffffffffffffffffffff1660015f9054906101000a900473ffffffffffffffffffffffffffffffffffffffff1660025f9054906101000a900473ffffffffffffffffffffffffffffffffffffffff1660646040518563ffffffff1660e01b81526004016200085a949392919062000f00565b5f604051808303815f87803b15801562000872575f80fd5b505af115801562000885573d5f803e3d5ffd5b50505050565b61048e8062000f4c83390190565b61095280620013da83390190565b6132b18062001d2c83390190565b5f80fd5b5f73ffffffffffffffffffffffffffffffffffffffff82169050919050565b5f620008e482620008b9565b9050919050565b620008f681620008d8565b811462000901575f80fd5b50565b5f815190506200091481620008eb565b92915050565b5f60208284031215620009325762000931620008b5565b5b5f620009418482850162000904565b91505092915050565b6200095581620008d8565b82525050565b5f82825260208201905092915050565b7f4f776e65722073686f756c642062652073657420636f72726563746c790000005f82015250565b5f620009a1601d836200095b565b9150620009ae826200096b565b602082019050919050565b5f606082019050620009ce5f8301856200094a565b620009dd60208301846200094a565b8181036040830152620009f08162000993565b90509392505050565b5f8115159050919050565b62000a0f81620009f9565b811462000a1a575f80fd5b50565b5f8151905062000a2d8162000a04565b92915050565b5f6020828403121562000a4b5762000a4a620008b5565b5b5f62000a5a8482850162000a1d565b91505092915050565b5f62000a6f82620008d8565b9050919050565b62000a818162000a63565b811462000a8c575f80fd5b50565b5f8151905062000a9f8162000a76565b92915050565b5f6020828403121562000abd5762000abc620008b5565b5b5f62000acc8482850162000a8f565b91505092915050565b7f546f6b656e20636f6e74726163742073686f756c642062652073657420636f725f8201527f726563746c790000000000000000000000000000000000000000000000000000602082015250565b5f62000b316026836200095b565b915062000b3e8262000ad5565b604082019050919050565b5f60608201905062000b5e5f8301856200094a565b62000b6d60208301846200094a565b818103604083015262000b808162000b23565b90509392505050565b5f62000b9582620008d8565b9050919050565b62000ba78162000b89565b811462000bb2575f80fd5b50565b5f8151905062000bc58162000b9c565b92915050565b5f6020828403121562000be35762000be2620008b5565b5b5f62000bf28482850162000bb5565b91505092915050565b7f504f415020636f6e74726163742073686f756c642062652073657420636f72725f8201527f6563746c79000000000000000000000000000000000000000000000000000000602082015250565b5f62000c576025836200095b565b915062000c648262000bfb565b604082019050919050565b5f60608201905062000c845f8301856200094a565b62000c9360208301846200094a565b818103604083015262000ca68162000c49565b90509392505050565b5f819050919050565b62000cc38162000caf565b811462000cce575f80fd5b50565b5f8151905062000ce18162000cb8565b92915050565b5f6020828403121562000cff5762000cfe620008b5565b5b5f62000d0e8482850162000cd1565b91505092915050565b62000d228162000caf565b82525050565b5f819050919050565b5f819050919050565b5f62000d5a62000d5462000d4e8462000d28565b62000d31565b62000caf565b9050919050565b62000d6c8162000d3a565b82525050565b7f4d6178206576656e7473207065722075706b6565702073686f756c64206265205f8201527f73657420636f72726563746c7900000000000000000000000000000000000000602082015250565b5f62000dce602d836200095b565b915062000ddb8262000d72565b604082019050919050565b5f60608201905062000dfb5f83018562000d17565b62000e0a602083018462000d61565b818103604083015262000e1d8162000dc0565b90509392505050565b5f819050919050565b5f62000e4f62000e4962000e438462000e26565b62000d31565b62000caf565b9050919050565b62000e618162000e2f565b82525050565b5f60208201905062000e7c5f83018462000e56565b92915050565b5f819050919050565b5f62000eab62000ea562000e9f8462000e82565b62000d31565b62000caf565b9050919050565b62000ebd8162000e8b565b82525050565b5f60208201905062000ed85f83018462000eb2565b92915050565b62000ee981620008d8565b82525050565b62000efa8162000d3a565b82525050565b5f60808201905062000f155f83018762000ede565b62000f24602083018662000ede565b62000f33604083018562000ede565b62000f42606083018462000eef565b9594505050505056fe608060405234801561000f575f80fd5b506104718061001d5f395ff3fe608060405234801561000f575f80fd5b5060043610610060575f3560e01c806327e235e31461006457806340c10f191461009457806370a08231146100b05780639659867e146100e0578063d4e7fdd4146100fe578063d826f88f1461011c575b5f80fd5b61007e6004803603810190610079919061029d565b610126565b60405161008b91906102e0565b60405180910390f35b6100ae60048036038101906100a99190610323565b61013b565b005b6100ca60048036038101906100c5919061029d565b6101c2565b6040516100d791906102e0565b60405180910390f35b6100e8610208565b6040516100f591906102e0565b60405180910390f35b61010661020e565b604051610113919061037b565b60405180910390f35b61012461021e565b005b6002602052805f5260405f205f915090505481565b60015f806101000a81548160ff02191690831515021790555060015f815480929190610166906103c1565b91905055508060025f8473ffffffffffffffffffffffffffffffffffffffff1673ffffffffffffffffffffffffffffffffffffffff1681526020019081526020015f205f8282546101b79190610408565b925050819055505050565b5f60025f8373ffffffffffffffffffffffffffffffffffffffff1673ffffffffffffffffffffffffffffffffffffffff1681526020019081526020015f20549050919050565b60015481565b5f8054906101000a900460ff1681565b5f805f6101000a81548160ff0219169083151502179055505f600181905550565b5f80fd5b5f73ffffffffffffffffffffffffffffffffffffffff82169050919050565b5f61026c82610243565b9050919050565b61027c81610262565b8114610286575f80fd5b50565b5f8135905061029781610273565b92915050565b5f602082840312156102b2576102b161023f565b5b5f6102bf84828501610289565b91505092915050565b5f819050919050565b6102da816102c8565b82525050565b5f6020820190506102f35f8301846102d1565b92915050565b610302816102c8565b811461030c575f80fd5b50565b5f8135905061031d816102f9565b92915050565b5f80604083850312156103395761033861023f565b5b5f61034685828601610289565b92505060206103578582860161030f565b9150509250929050565b5f8115159050919050565b61037581610361565b82525050565b5f60208201905061038e5f83018461036c565b92915050565b7f4e487b71000000000000000000000000000000000000000000000000000000005f52601160045260245ffd5b5f6103cb826102c8565b91507fffffffffffffffffffffffffffffffffffffffffffffffffffffffffffffffff82036103fd576103fc610394565b5b600182019050919050565b5f610412826102c8565b915061041d836102c8565b925082820190508082111561043557610434610394565b5b9291505056fea26469706673582212205a13e0877ac962ef42be44add582876e8ff88369fd6293f4e3ac11e9d127967b64736f6c63430008140033608060405234801561000f575f80fd5b506109358061001d5f395ff3fe608060405234801561000f575f80fd5b506004361061007b575f3560e01c806374f65eb61161005957806374f65eb6146100d7578063aa1da927146100e1578063b703393314610111578063d826f88f1461012f5761007b565b8063036fcd0f1461007f57806341dd44dc1461009b578063589fc48e146100b9575b5f80fd5b610099600480360381019061009491906104a5565b610139565b005b6100a361018b565b6040516100b09190610504565b60405180910390f35b6100c16101b0565b6040516100ce919061052c565b60405180910390f35b6100df6101b6565b005b6100fb60048036038101906100f69190610681565b610267565b6040516101089190610822565b60405180910390f35b6101196103b3565b604051610126919061052c565b60405180910390f35b6101376103b8565b005b825f81905550816001819055508060025f6101000a81548173ffffffffffffffffffffffffffffffffffffffff021916908373ffffffffffffffffffffffffffffffffffffffff160217905550505050565b60025f9054906101000a900473ffffffffffffffffffffffffffffffffffffffff1681565b60015481565b60015460025f9054906101000a900473ffffffffffffffffffffffffffffffffffffffff1673ffffffffffffffffffffffffffffffffffffffff165f73ffffffffffffffffffffffffffffffffffffffff167fddf252ad1be2c89b69c2b068fc378daa952ba7f163c4a11628f55a4df523b3ef60405160405180910390a46001545f547f4b3711cd7ece062b0828c1b6e08d814a72d4c003383a016c833cbb1b45956e3460405160405180910390a3565b60605f600267ffffffffffffffff8111156102855761028461055d565b5b6040519080825280602002602001820160405280156102b857816020015b60608152602001906001900390816102a35790505b5090507fddf252ad1be2c89b69c2b068fc378daa952ba7f163c4a11628f55a4df523b3ef5f60025f9054906101000a900473ffffffffffffffffffffffffffffffffffffffff16600154604051602001610315949392919061085a565b604051602081830303815290604052815f815181106103375761033661089d565b5b60200260200101819052507f4b3711cd7ece062b0828c1b6e08d814a72d4c003383a016c833cbb1b45956e345f5460015460405160200161037a939291906108ca565b6040516020818303038152906040528160018151811061039d5761039c61089d565b5b6020026020010181905250809150509392505050565b5f5481565b5f80819055505f6001819055505f60025f6101000a81548173ffffffffffffffffffffffffffffffffffffffff021916908373ffffffffffffffffffffffffffffffffffffffff160217905550565b5f604051905090565b5f80fd5b5f80fd5b5f819050919050565b61042a81610418565b8114610434575f80fd5b50565b5f8135905061044581610421565b92915050565b5f73ffffffffffffffffffffffffffffffffffffffff82169050919050565b5f6104748261044b565b9050919050565b6104848161046a565b811461048e575f80fd5b50565b5f8135905061049f8161047b565b92915050565b5f805f606084860312156104bc576104bb610410565b5b5f6104c986828701610437565b93505060206104da86828701610437565b92505060406104eb86828701610491565b9150509250925092565b6104fe8161046a565b82525050565b5f6020820190506105175f8301846104f5565b92915050565b61052681610418565b82525050565b5f60208201905061053f5f83018461051d565b92915050565b5f80fd5b5f80fd5b5f601f19601f8301169050919050565b7f4e487b71000000000000000000000000000000000000000000000000000000005f52604160045260245ffd5b6105938261054d565b810181811067ffffffffffffffff821117156105b2576105b161055d565b5b80604052505050565b5f6105c4610407565b90506105d0828261058a565b919050565b5f67ffffffffffffffff8211156105ef576105ee61055d565b5b6105f88261054d565b9050602081019050919050565b828183375f83830152505050565b5f610625610620846105d5565b6105bb565b90508281526020810184848401111561064157610640610549565b5b61064c848285610605565b509392505050565b5f82601f83011261066857610667610545565b5b8135610678848260208601610613565b91505092915050565b5f805f6060848603121561069857610697610410565b5b5f84013567ffffffffffffffff8111156106b5576106b4610414565b5b6106c186828701610654565b93505060206106d286828701610437565b92505060406106e386828701610437565b9150509250925092565b5f81519050919050565b5f82825260208201905092915050565b5f819050602082019050919050565b5f81519050919050565b5f82825260208201905092915050565b5f5b8381101561074d578082015181840152602081019050610732565b5f8484015250505050565b5f61076282610716565b61076c8185610720565b935061077c818560208601610730565b6107858161054d565b840191505092915050565b5f61079b8383610758565b905092915050565b5f602082019050919050565b5f6107b9826106ed565b6107c381856106f7565b9350836020820285016107d585610707565b805f5b8581101561081057848403895281516107f18582610790565b94506107fc836107a3565b925060208a019950506001810190506107d8565b50829750879550505050505092915050565b5f6020820190508181035f83015261083a81846107af565b905092915050565b5f819050919050565b61085481610842565b82525050565b5f60808201905061086d5f83018761084b565b61087a60208301866104f5565b61088760408301856104f5565b610894606083018461051d565b95945050505050565b7f4e487b71000000000000000000000000000000000000000000000000000000005f52603260045260245ffd5b5f6060820190506108dd5f83018661084b565b6108ea602083018561051d565b6108f7604083018461051d565b94935050505056fea2646970667358221220867781e0536e4deeca12aa263ecb38eae01fb33cba4d2dfe8ead2ea72a72c07764736f6c6343000814003360a06040523073ffffffffffffffffffffffffffffffffffffffff1660809073ffffffffffffffffffffffffffffffffffffffff1681525034801562000043575f80fd5b50620000546200005a60201b60201c565b620001c4565b5f6200006b6200015e60201b60201c565b9050805f0160089054906101000a900460ff1615620000b6576040517ff92ee8a900000000000000000000000000000000000000000000000000000000815260040160405180910390fd5b67ffffffffffffffff8016815f015f9054906101000a900467ffffffffffffffff1667ffffffffffffffff16146200015b5767ffffffffffffffff815f015f6101000a81548167ffffffffffffffff021916908367ffffffffffffffff1602179055507fc7f505b2f371ae2175ee4913f4499e1f2633a7b5936321eed1cdaeb6115181d267ffffffffffffffff604051620001529190620001a9565b60405180910390a15b50565b5f7ff0c57e16840df040f15088dc2f81fe391c3923bec73e23a9662efc9c229c6a00905090565b5f67ffffffffffffffff82169050919050565b620001a38162000185565b82525050565b5f602082019050620001be5f83018462000198565b92915050565b6080516130c6620001eb5f395f8181611592015281816115e701526117a101526130c65ff3fe60806040526004361061012d575f3560e01c8063715018a6116100aa57806391df48371161006e57806391df4837146103a7578063ad3cb1cc146103cf578063b2bef991146103f9578063cf756fdf14610423578063d9f103cc1461044b578063f2fde38b1461047557610134565b8063715018a6146102d95780637d526123146102ef57806384d36eb81461032b5780638da5cb5b146103555780638f0a4e791461037f57610134565b80634af70ac1116100f15780634af70ac1146102045780634f1ef2861461022c57806352d1902d1461024857806355a373d6146102725780636e04ff0d1461029c57610134565b80630a8595b01461013857806325f2ac0c1461017457806333de61d21461019c5780633ccfd60b146101c65780634585e33b146101dc57610134565b3661013457005b5f80fd5b348015610143575f80fd5b5061015e60048036038101906101599190611eb3565b61049d565b60405161016b9190611ef8565b60405180910390f35b34801561017f575f80fd5b5061019a60048036038101906101959190611eb3565b6104ba565b005b3480156101a7575f80fd5b506101b0610524565b6040516101bd9190611f20565b60405180910390f35b3480156101d1575f80fd5b506101da61052a565b005b3480156101e7575f80fd5b5061020260048036038101906101fd9190611f9a565b6105e9565b005b34801561020f575f80fd5b5061022a60048036038101906102259190611eb3565b610a42565b005b61024660048036038101906102419190612177565b610a4c565b005b348015610253575f80fd5b5061025c610a6b565b60405161026991906121e9565b60405180910390f35b34801561027d575f80fd5b50610286610a9c565b604051610293919061225d565b60405180910390f35b3480156102a7575f80fd5b506102c260048036038101906102bd9190611f9a565b610abf565b6040516102d09291906122f0565b60405180910390f35b3480156102e4575f80fd5b506102ed610c17565b005b3480156102fa575f80fd5b5061031560048036038101906103109190611eb3565b610c2a565b6040516103229190611ef8565b60405180910390f35b348015610336575f80fd5b5061033f610c47565b60405161034c9190611f20565b60405180910390f35b348015610360575f80fd5b50610369610c53565b604051610376919061232d565b60405180910390f35b34801561038a575f80fd5b506103a560048036038101906103a09190611eb3565b610c88565b005b3480156103b2575f80fd5b506103cd60048036038101906103c89190611eb3565b610cf3565b005b3480156103da575f80fd5b506103e3610d05565b6040516103f09190612398565b60405180910390f35b348015610404575f80fd5b5061040d610d3e565b60405161041a9190611f20565b60405180910390f35b34801561042e575f80fd5b50610449600480360381019061044491906123b8565b610d44565b005b348015610456575f80fd5b5061045f610f5d565b60405161046c919061243c565b60405180910390f35b348015610480575f80fd5b5061049b60048036038101906104969190612455565b610f82565b005b6003602052805f5260405f205f915054906101000a900460ff1681565b6104c2611006565b5f60025f8381526020019081526020015f205f6101000a81548160ff0219169083151502179055507f6ca79568a4fbc7c3d5258a888eba43abb327a7e69413d79fb33246892a2005c6816040516105199190611f20565b60405180910390a150565b60045481565b610532611006565b5f4790505f61053f610c53565b73ffffffffffffffffffffffffffffffffffffffff1682604051610562906124ad565b5f6040518083038185875af1925050503d805f811461059c576040519150601f19603f3d011682016040523d82523d5f602084013e6105a1565b606091505b50509050806105e5576040517f08c379a00000000000000000000000000000000000000000000000000000000081526004016105dc9061250b565b60405180910390fd5b5050565b5f82828101906105f9919061263e565b90505f80848481019061060c9190612685565b91509150808210610652576040517f08c379a00000000000000000000000000000000000000000000000000000000081526004016106499061270d565b60405180910390fd5b61065b8361108d565b7fe249469f7b39aded395977d72aada6eb8d180163777e9cf2a77eadb63178c6a7828260405161068c92919061272b565b60405180910390a15f8290505f808490505b8381111580156106af575060055482105b156109f6575f8060015f9054906101000a900473ffffffffffffffffffffffffffffffffffffffff1673ffffffffffffffffffffffffffffffffffffffff16838460405160240161070192919061279c565b6040516020818303038152906040527faa1da927000000000000000000000000000000000000000000000000000000007bffffffffffffffffffffffffffffffffffffffffffffffffffffffff19166020820180517bffffffffffffffffffffffffffffffffffffffffffffffffffffffff838183161783525050505060405161078b9190612806565b5f60405180830381855afa9150503d805f81146107c3576040519150601f19603f3d011682016040523d82523d5f602084013e6107c8565b606091505b50915091508161080d576040517f08c379a000000000000000000000000000000000000000000000000000000000815260040161080490612866565b60405180910390fd5b5f815111156109de575f8180602001905181019061082b91906129d0565b90505f610837826110c7565b90505f5b81518110156109da5760025f83838151811061085a57610859612a17565b5b60200260200101515f015181526020019081526020015f205f9054906101000a900460ff1680156108c4575060035f83838151811061089c5761089b612a17565b5b60200260200101516020015181526020019081526020015f205f9054906101000a900460ff16155b156109c757600160035f8484815181106108e1576108e0612a17565b5b60200260200101516020015181526020019081526020015f205f6101000a81548160ff0219169083151502179055505f61097583838151811061092757610926612a17565b5b60200260200101516040015184848151811061094657610945612a17565b5b60200260200101515f015185858151811061096457610963612a17565b5b6020026020010151602001516113ae565b9050806109b7576040517f08c379a00000000000000000000000000000000000000000000000000000000081526004016109ae90612a8e565b60405180910390fd5b87806109c290612ad9565b985050505b80806109d290612ad9565b91505061083b565b5050505b829450505080806109ee90612ad9565b91505061069e565b50816004819055507fb3dae2836ec417155d7cb49974327ba141b98a4b1e259b26a3929e3f6aa2a985848383604051610a3193929190612b20565b60405180910390a150505050505050565b8060048190555050565b610a54611590565b610a5d82611676565b610a678282611681565b5050565b5f610a7461179f565b7f360894a13ba1a3210667c828492db98dca3e2076cc3735a920a3ca505d382bbc5f1b905090565b5f8054906101000a900473ffffffffffffffffffffffffffffffffffffffff1681565b5f60605f4390505f6001600454610ad69190612b55565b905061c35082610ae69190612b88565b811015610afe5761c35082610afb9190612b88565b90505b5f610b22600160055484610b129190612b55565b610b1c9190612b88565b84611826565b90505f60045484610b339190612b88565b90508383111595505f6040518061010001604052803373ffffffffffffffffffffffffffffffffffffffff1681526020013073ffffffffffffffffffffffffffffffffffffffff1681526020018a8a8080601f0160208091040260200160405190810160405280939291908181526020018383808284375f81840152601f19601f820116905080830192505050505050508152602001868152602001858152602001848152602001838152602001881515815250905080604051602001610bfa9190612cdd565b604051602081830303815290604052955050505050509250929050565b610c1f611006565b610c285f61183e565b565b6002602052805f5260405f205f915054906101000a900460ff1681565b6729a2241af62c000081565b5f80610c5d61190f565b9050805f015f9054906101000a900473ffffffffffffffffffffffffffffffffffffffff1691505090565b610c90611006565b600160025f8381526020019081526020015f205f6101000a81548160ff0219169083151502179055507f814df98756119fab646d8a3f4596857bc1c0918d67a622eb8ccc11b34a7202f181604051610ce89190611f20565b60405180910390a150565b610cfb611006565b8060058190555050565b6040518060400160405280600581526020017f352e302e3000000000000000000000000000000000000000000000000000000081525081565b60055481565b5f610d4d611936565b90505f815f0160089054906101000a900460ff161590505f825f015f9054906101000a900467ffffffffffffffff1690505f808267ffffffffffffffff16148015610d955750825b90505f60018367ffffffffffffffff16148015610dc857505f3073ffffffffffffffffffffffffffffffffffffffff163b145b905081158015610dd6575080155b15610e0d576040517ff92ee8a900000000000000000000000000000000000000000000000000000000815260040160405180910390fd5b6001855f015f6101000a81548167ffffffffffffffff021916908367ffffffffffffffff1602179055508315610e5a576001855f0160086101000a81548160ff0219169083151502179055505b610e638961195d565b610e6b611971565b875f806101000a81548173ffffffffffffffffffffffffffffffffffffffff021916908373ffffffffffffffffffffffffffffffffffffffff1602179055508660015f6101000a81548173ffffffffffffffffffffffffffffffffffffffff021916908373ffffffffffffffffffffffffffffffffffffffff16021790555043600481905550856005819055508315610f52575f855f0160086101000a81548160ff0219169083151502179055507fc7f505b2f371ae2175ee4913f4499e1f2633a7b5936321eed1cdaeb6115181d26001604051610f499190612d49565b60405180910390a15b505050505050505050565b60015f9054906101000a900473ffffffffffffffffffffffffffffffffffffffff1681565b610f8a611006565b5f73ffffffffffffffffffffffffffffffffffffffff168173ffffffffffffffffffffffffffffffffffffffff1603610ffa575f6040517f1e4fbdf7000000000000000000000000000000000000000000000000000000008152600401610ff1919061232d565b60405180910390fd5b6110038161183e565b50565b61100e61197b565b73ffffffffffffffffffffffffffffffffffffffff1661102c610c53565b73ffffffffffffffffffffffffffffffffffffffff161461108b5761104f61197b565b6040517f118cdaa7000000000000000000000000000000000000000000000000000000008152600401611082919061232d565b60405180910390fd5b565b7fe77ce703f600aed72790f32f6c8ab33204233ae19abec2df986f777b640a451a816040516110bc9190612cdd565b60405180910390a150565b6060600282516110d79190612d8f565b67ffffffffffffffff8111156110f0576110ef612053565b5b60405190808252806020026020018201604052801561112957816020015b611116611e3b565b81526020019060019003908161110e5790505b5090505f805b83518110156113a4575f61116761116286848151811061115257611151612a17565b5b60200260200101515f6020611982565b6119ff565b90507fddf252ad1be2c89b69c2b068fc378daa952ba7f163c4a11628f55a4df523b3ef8103611271575f6111c06111bb8785815181106111aa576111a9612a17565b5b602002602001015160206014611982565b611a11565b90505f6111f26111ed8886815181106111dc576111db612a17565b5b602002602001015160406020611982565b611a23565b90508186868151811061120857611207612a17565b5b60200260200101516040019073ffffffffffffffffffffffffffffffffffffffff16908173ffffffffffffffffffffffffffffffffffffffff16815250508086868151811061125a57611259612a17565b5b602002602001015160200181815250505050611390565b7f4b3711cd7ece062b0828c1b6e08d814a72d4c003383a016c833cbb1b45956e34810361138f575f6112c76112c28785815181106112b2576112b1612a17565b5b6020026020010151602080611982565b611a23565b90505f6112f96112f48886815181106112e3576112e2612a17565b5b602002602001015160406020611982565b611a23565b90508186868151811061130f5761130e612a17565b5b60200260200101515f0181815250508086868151811061133257611331612a17565b5b6020026020010151602001511461137e576040517f08c379a000000000000000000000000000000000000000000000000000000000815260040161137590612e09565b60405180910390fd5b848061138990612ad9565b95505050505b5b50808061139c90612ad9565b91505061112f565b5080825250919050565b5f805f9054906101000a900473ffffffffffffffffffffffffffffffffffffffff1673ffffffffffffffffffffffffffffffffffffffff166340c10f19856729a2241af62c00006040518363ffffffff1660e01b8152600401611412929190612e27565b5f604051808303815f87803b158015611429575f80fd5b505af192505050801561143a575060015b61153457611446612e5a565b806308c379a0036114c4575061145a612e79565b8061146557506114c6565b7fa39c7eb3715d64e66fea8bbd1c52cae8eb91325e4de74e9e07cb7592fc25711e816040516020016114979190612f8c565b6040516020818303038152906040526040516114b39190612398565b60405180910390a15f915050611589565b505b3d805f81146114f0576040519150601f19603f3d011682016040523d82523d5f602084013e6114f5565b606091505b507fa39c7eb3715d64e66fea8bbd1c52cae8eb91325e4de74e9e07cb7592fc25711e6040516115239061301d565b60405180910390a15f915050611589565b8373ffffffffffffffffffffffffffffffffffffffff167f5ef3bd3c823875bc38df6c327ef163659ef15ff1e9898230df18cc50316a91c1848460405161157c92919061272b565b60405180910390a2600190505b9392505050565b7f000000000000000000000000000000000000000000000000000000000000000073ffffffffffffffffffffffffffffffffffffffff163073ffffffffffffffffffffffffffffffffffffffff16148061163d57507f000000000000000000000000000000000000000000000000000000000000000073ffffffffffffffffffffffffffffffffffffffff16611624611a35565b73ffffffffffffffffffffffffffffffffffffffff1614155b15611674576040517fe07c8dba00000000000000000000000000000000000000000000000000000000815260040160405180910390fd5b565b61167e611006565b50565b8173ffffffffffffffffffffffffffffffffffffffff166352d1902d6040518163ffffffff1660e01b8152600401602060405180830381865afa9250505080156116e957506040513d601f19601f820116820180604052508101906116e69190613065565b60015b61172a57816040517f4c9c8ce3000000000000000000000000000000000000000000000000000000008152600401611721919061232d565b60405180910390fd5b7f360894a13ba1a3210667c828492db98dca3e2076cc3735a920a3ca505d382bbc5f1b811461179057806040517faa1d49a400000000000000000000000000000000000000000000000000000000815260040161178791906121e9565b60405180910390fd5b61179a8383611a88565b505050565b7f000000000000000000000000000000000000000000000000000000000000000073ffffffffffffffffffffffffffffffffffffffff163073ffffffffffffffffffffffffffffffffffffffff1614611824576040517fe07c8dba00000000000000000000000000000000000000000000000000000000815260040160405180910390fd5b565b5f8183106118345781611836565b825b905092915050565b5f61184761190f565b90505f815f015f9054906101000a900473ffffffffffffffffffffffffffffffffffffffff16905082825f015f6101000a81548173ffffffffffffffffffffffffffffffffffffffff021916908373ffffffffffffffffffffffffffffffffffffffff1602179055508273ffffffffffffffffffffffffffffffffffffffff168173ffffffffffffffffffffffffffffffffffffffff167f8be0079c531659141344cd1fd0a4f28419497f9722a3daafe3b4186f6b6457e060405160405180910390a3505050565b5f7f9016d09d72d40fdae2fd8ceac6b6234c7706214fd39c1cd1e609a0528c199300905090565b5f7ff0c57e16840df040f15088dc2f81fe391c3923bec73e23a9662efc9c229c6a00905090565b611965611afa565b61196e81611b3a565b50565b611979611afa565b565b5f33905090565b60608082155f81146119a25760405191505f8252602082016040526119f3565b6040519150601f8416602081150281840101858101876020841502848b0101015b818310156119e057805183526020830192506020810190506119c3565b50868552601f19601f8301166040525050505b50809150509392505050565b5f806020830151905080915050919050565b5f806014830151905080915050919050565b5f806020830151905080915050919050565b5f611a617f360894a13ba1a3210667c828492db98dca3e2076cc3735a920a3ca505d382bbc5f1b611bbe565b5f015f9054906101000a900473ffffffffffffffffffffffffffffffffffffffff16905090565b611a9182611bc7565b8173ffffffffffffffffffffffffffffffffffffffff167fbc7cd75a20ee27fd9adebab32041f755214dbc6bffa90cc0225b39da2e5c2d3b60405160405180910390a25f81511115611aed57611ae78282611c90565b50611af6565b611af5611d10565b5b5050565b611b02611d4c565b611b38576040517fd7e6bcf800000000000000000000000000000000000000000000000000000000815260040160405180910390fd5b565b611b42611afa565b5f73ffffffffffffffffffffffffffffffffffffffff168173ffffffffffffffffffffffffffffffffffffffff1603611bb2575f6040517f1e4fbdf7000000000000000000000000000000000000000000000000000000008152600401611ba9919061232d565b60405180910390fd5b611bbb8161183e565b50565b5f819050919050565b5f8173ffffffffffffffffffffffffffffffffffffffff163b03611c2257806040517f4c9c8ce3000000000000000000000000000000000000000000000000000000008152600401611c19919061232d565b60405180910390fd5b80611c4e7f360894a13ba1a3210667c828492db98dca3e2076cc3735a920a3ca505d382bbc5f1b611bbe565b5f015f6101000a81548173ffffffffffffffffffffffffffffffffffffffff021916908373ffffffffffffffffffffffffffffffffffffffff16021790555050565b60605f808473ffffffffffffffffffffffffffffffffffffffff1684604051611cb99190612806565b5f60405180830381855af49150503d805f8114611cf1576040519150601f19603f3d011682016040523d82523d5f602084013e611cf6565b606091505b5091509150611d06858383611d6a565b9250505092915050565b5f341115611d4a576040517fb398979f00000000000000000000000000000000000000000000000000000000815260040160405180910390fd5b565b5f611d55611936565b5f0160089054906101000a900460ff16905090565b606082611d7f57611d7a82611df7565b611def565b5f8251148015611da557505f8473ffffffffffffffffffffffffffffffffffffffff163b145b15611de757836040517f9996b315000000000000000000000000000000000000000000000000000000008152600401611dde919061232d565b60405180910390fd5b819050611df0565b5b9392505050565b5f81511115611e095780518082602001fd5b6040517f1425ea4200000000000000000000000000000000000000000000000000000000815260040160405180910390fd5b60405180606001604052805f81526020015f81526020015f73ffffffffffffffffffffffffffffffffffffffff1681525090565b5f604051905090565b5f80fd5b5f80fd5b5f819050919050565b611e9281611e80565b8114611e9c575f80fd5b50565b5f81359050611ead81611e89565b92915050565b5f60208284031215611ec857611ec7611e78565b5b5f611ed584828501611e9f565b91505092915050565b5f8115159050919050565b611ef281611ede565b82525050565b5f602082019050611f0b5f830184611ee9565b92915050565b611f1a81611e80565b82525050565b5f602082019050611f335f830184611f11565b92915050565b5f80fd5b5f80fd5b5f80fd5b5f8083601f840112611f5a57611f59611f39565b5b8235905067ffffffffffffffff811115611f7757611f76611f3d565b5b602083019150836001820283011115611f9357611f92611f41565b5b9250929050565b5f8060208385031215611fb057611faf611e78565b5b5f83013567ffffffffffffffff811115611fcd57611fcc611e7c565b5b611fd985828601611f45565b92509250509250929050565b5f73ffffffffffffffffffffffffffffffffffffffff82169050919050565b5f61200e82611fe5565b9050919050565b61201e81612004565b8114612028575f80fd5b50565b5f8135905061203981612015565b92915050565b5f80fd5b5f601f19601f8301169050919050565b7f4e487b71000000000000000000000000000000000000000000000000000000005f52604160045260245ffd5b61208982612043565b810181811067ffffffffffffffff821117156120a8576120a7612053565b5b80604052505050565b5f6120ba611e6f565b90506120c68282612080565b919050565b5f67ffffffffffffffff8211156120e5576120e4612053565b5b6120ee82612043565b9050602081019050919050565b828183375f83830152505050565b5f61211b612116846120cb565b6120b1565b9050828152602081018484840111156121375761213661203f565b5b6121428482856120fb565b509392505050565b5f82601f83011261215e5761215d611f39565b5b813561216e848260208601612109565b91505092915050565b5f806040838503121561218d5761218c611e78565b5b5f61219a8582860161202b565b925050602083013567ffffffffffffffff8111156121bb576121ba611e7c565b5b6121c78582860161214a565b9150509250929050565b5f819050919050565b6121e3816121d1565b82525050565b5f6020820190506121fc5f8301846121da565b92915050565b5f819050919050565b5f61222561222061221b84611fe5565b612202565b611fe5565b9050919050565b5f6122368261220b565b9050919050565b5f6122478261222c565b9050919050565b6122578161223d565b82525050565b5f6020820190506122705f83018461224e565b92915050565b5f81519050919050565b5f82825260208201905092915050565b5f5b838110156122ad578082015181840152602081019050612292565b5f8484015250505050565b5f6122c282612276565b6122cc8185612280565b93506122dc818560208601612290565b6122e581612043565b840191505092915050565b5f6040820190506123035f830185611ee9565b818103602083015261231581846122b8565b90509392505050565b61232781612004565b82525050565b5f6020820190506123405f83018461231e565b92915050565b5f81519050919050565b5f82825260208201905092915050565b5f61236a82612346565b6123748185612350565b9350612384818560208601612290565b61238d81612043565b840191505092915050565b5f6020820190508181035f8301526123b08184612360565b905092915050565b5f805f80608085870312156123d0576123cf611e78565b5b5f6123dd8782880161202b565b94505060206123ee8782880161202b565b93505060406123ff8782880161202b565b925050606061241087828801611e9f565b91505092959194509250565b5f6124268261222c565b9050919050565b6124368161241c565b82525050565b5f60208201905061244f5f83018461242d565b92915050565b5f6020828403121561246a57612469611e78565b5b5f6124778482850161202b565b91505092915050565b5f81905092915050565b50565b5f6124985f83612480565b91506124a38261248a565b5f82019050919050565b5f6124b78261248d565b9150819050919050565b7f5472616e73666572206661696c656400000000000000000000000000000000005f82015250565b5f6124f5600f83612350565b9150612500826124c1565b602082019050919050565b5f6020820190508181035f830152612522816124e9565b9050919050565b5f80fd5b5f80fd5b61253a81611ede565b8114612544575f80fd5b50565b5f8135905061255581612531565b92915050565b5f610100828403121561257157612570612529565b5b61257c6101006120b1565b90505f61258b8482850161202b565b5f83015250602061259e8482850161202b565b602083015250604082013567ffffffffffffffff8111156125c2576125c161252d565b5b6125ce8482850161214a565b60408301525060606125e284828501611e9f565b60608301525060806125f684828501611e9f565b60808301525060a061260a84828501611e9f565b60a08301525060c061261e84828501611e9f565b60c08301525060e061263284828501612547565b60e08301525092915050565b5f6020828403121561265357612652611e78565b5b5f82013567ffffffffffffffff8111156126705761266f611e7c565b5b61267c8482850161255b565b91505092915050565b5f806040838503121561269b5761269a611e78565b5b5f6126a885828601611e9f565b92505060206126b985828601611e9f565b9150509250929050565b7f496e76616c696420626c6f636b2072616e6765000000000000000000000000005f82015250565b5f6126f7601383612350565b9150612702826126c3565b602082019050919050565b5f6020820190508181035f830152612724816126eb565b9050919050565b5f60408201905061273e5f830185611f11565b61274b6020830184611f11565b9392505050565b7f4576656e74546f6b656e000000000000000000000000000000000000000000005f82015250565b5f612786600a83612350565b915061279182612752565b602082019050919050565b5f6060820190508181035f8301526127b38161277a565b90506127c26020830185611f11565b6127cf6040830184611f11565b9392505050565b5f6127e082612276565b6127ea8185612480565b93506127fa818560208601612290565b80840191505092915050565b5f61281182846127d6565b915081905092915050565b7f504f415020636f6e74726163742063616c6c206661696c6564000000000000005f82015250565b5f612850601983612350565b915061285b8261281c565b602082019050919050565b5f6020820190508181035f83015261287d81612844565b9050919050565b5f67ffffffffffffffff82111561289e5761289d612053565b5b602082029050602081019050919050565b5f6128c16128bc846120cb565b6120b1565b9050828152602081018484840111156128dd576128dc61203f565b5b6128e8848285612290565b509392505050565b5f82601f83011261290457612903611f39565b5b81516129148482602086016128af565b91505092915050565b5f61292f61292a84612884565b6120b1565b9050808382526020820190506020840283018581111561295257612951611f41565b5b835b8181101561299957805167ffffffffffffffff81111561297757612976611f39565b5b80860161298489826128f0565b85526020850194505050602081019050612954565b5050509392505050565b5f82601f8301126129b7576129b6611f39565b5b81516129c784826020860161291d565b91505092915050565b5f602082840312156129e5576129e4611e78565b5b5f82015167ffffffffffffffff811115612a0257612a01611e7c565b5b612a0e848285016129a3565b91505092915050565b7f4e487b71000000000000000000000000000000000000000000000000000000005f52603260045260245ffd5b7f4661696c656420746f2068616e646c6520746172676574206576656e740000005f82015250565b5f612a78601d83612350565b9150612a8382612a44565b602082019050919050565b5f6020820190508181035f830152612aa581612a6c565b9050919050565b7f4e487b71000000000000000000000000000000000000000000000000000000005f52601160045260245ffd5b5f612ae382611e80565b91507fffffffffffffffffffffffffffffffffffffffffffffffffffffffffffffffff8203612b1557612b14612aac565b5b600182019050919050565b5f606082019050612b335f830186611f11565b612b406020830185611f11565b612b4d6040830184611f11565b949350505050565b5f612b5f82611e80565b9150612b6a83611e80565b9250828201905080821115612b8257612b81612aac565b5b92915050565b5f612b9282611e80565b9150612b9d83611e80565b9250828203905081811115612bb557612bb4612aac565b5b92915050565b612bc481612004565b82525050565b5f82825260208201905092915050565b5f612be482612276565b612bee8185612bca565b9350612bfe818560208601612290565b612c0781612043565b840191505092915050565b612c1b81611e80565b82525050565b612c2a81611ede565b82525050565b5f61010083015f830151612c465f860182612bbb565b506020830151612c596020860182612bbb565b5060408301518482036040860152612c718282612bda565b9150506060830151612c866060860182612c12565b506080830151612c996080860182612c12565b5060a0830151612cac60a0860182612c12565b5060c0830151612cbf60c0860182612c12565b5060e0830151612cd260e0860182612c21565b508091505092915050565b5f6020820190508181035f830152612cf58184612c30565b905092915050565b5f819050919050565b5f67ffffffffffffffff82169050919050565b5f612d33612d2e612d2984612cfd565b612202565b612d06565b9050919050565b612d4381612d19565b82525050565b5f602082019050612d5c5f830184612d3a565b92915050565b7f4e487b71000000000000000000000000000000000000000000000000000000005f52601260045260245ffd5b5f612d9982611e80565b9150612da483611e80565b925082612db457612db3612d62565b5b828204905092915050565b7f546f6b656e4964206d69736d61746368000000000000000000000000000000005f82015250565b5f612df3601083612350565b9150612dfe82612dbf565b602082019050919050565b5f6020820190508181035f830152612e2081612de7565b9050919050565b5f604082019050612e3a5f83018561231e565b612e476020830184611f11565b9392505050565b5f8160e01c9050919050565b5f60033d1115612e765760045f803e612e735f51612e4e565b90505b90565b5f60443d10612f0557612e8a611e6f565b60043d036004823e80513d602482011167ffffffffffffffff82111715612eb2575050612f05565b808201805167ffffffffffffffff811115612ed05750505050612f05565b80602083010160043d038501811115612eed575050505050612f05565b612efc82602001850186612080565b82955050505050505b90565b5f81905092915050565b7f546f6b656e206d696e74206661696c65643a20000000000000000000000000005f82015250565b5f612f46601383612f08565b9150612f5182612f12565b601382019050919050565b5f612f6682612346565b612f708185612f08565b9350612f80818560208601612290565b80840191505092915050565b5f612f9682612f3a565b9150612fa28284612f5c565b915081905092915050565b7f546f6b656e206d696e74206661696c6564207769746820756e6b6e6f776e20655f8201527f72726f7200000000000000000000000000000000000000000000000000000000602082015250565b5f613007602483612350565b915061301282612fad565b604082019050919050565b5f6020820190508181035f83015261303481612ffb565b9050919050565b613044816121d1565b811461304e575f80fd5b50565b5f8151905061305f8161303b565b92915050565b5f6020828403121561307a57613079611e78565b5b5f61308784828501613051565b9150509291505056fea2646970667358221220a78d0fe0b64d348cb68b8f29361adab78cd36d13f365888519625bddf38a159c64736f6c63430008140033a26469706673582212209a14a03278bb8b87664a57781e9e73f7e3f41fc373a02f34a0d7a3b0681567cc64736f6c63430008140033",
			"opcodes": "PUSH1 0x80 PUSH1 0x40 MSTORE CALLVALUE DUP1 ISZERO PUSH2 0xF JUMPI PUSH0 DUP1 REVERT JUMPDEST POP PUSH2 0x5012 DUP1 PUSH2 0x1D PUSH0 CODECOPY PUSH0 RETURN INVALID PUSH1 0x80 PUSH1 0x40 MSTORE CALLVALUE DUP1 ISZERO PUSH3 0x10 JUMPI PUSH0 DUP1 REVERT JUMPDEST POP PUSH1 0x4 CALLDATASIZE LT PUSH3 0x38 JUMPI PUSH0 CALLDATALOAD PUSH1 0xE0 SHR DUP1 PUSH4 0x61250CC3 EQ PUSH3 0x3C JUMPI DUP1 PUSH4 0x7FEA0D4B EQ PUSH3 0x48 JUMPI JUMPDEST PUSH0 DUP1 REVERT JUMPDEST PUSH3 0x46 PUSH3 0x54 JUMP JUMPDEST STOP JUMPDEST PUSH3 0x52 PUSH3 0x4EA JUMP JUMPDEST STOP JUMPDEST PUSH20 0x0 PUSH4 0xBFBA5DD6 PUSH0 DUP1 SLOAD SWAP1 PUSH2 0x100 EXP SWAP1 DIV PUSH20 0xFFFFFFFFFFFFFFFFFFFFFFFFFFFFFFFFFFFFFFFF AND PUSH20 0xFFFFFFFFFFFFFFFFFFFFFFFFFFFFFFFFFFFFFFFF AND PUSH4 0x8DA5CB5B PUSH1 0x40 MLOAD DUP2 PUSH4 0xFFFFFFFF AND PUSH1 0xE0 SHL DUP2 MSTORE PUSH1 0x4 ADD PUSH1 0x20 PUSH1 0x40 MLOAD DUP1 DUP4 SUB DUP2 DUP7 GAS STATICCALL ISZERO DUP1 ISZERO PUSH3 0xD7 JUMPI RETURNDATASIZE PUSH0 DUP1 RETURNDATACOPY RETURNDATASIZE PUSH0 REVERT JUMPDEST POP POP POP POP PUSH1 0x40 MLOAD RETURNDATASIZE PUSH1 0x1F NOT PUSH1 0x1F DUP3 ADD AND DUP3 ADD DUP1 PUSH1 0x40 MSTORE POP DUP2 ADD SWAP1 PUSH3 0xFD SWAP2 SWAP1 PUSH3 0x91A JUMP JUMPDEST PUSH1 0x3 PUSH0 SWAP1 SLOAD SWAP1 PUSH2 0x100 EXP SWAP1 DIV PUSH20 0xFFFFFFFFFFFFFFFFFFFFFFFFFFFFFFFFFFFFFFFF AND PUSH1 0x40 MLOAD DUP4 PUSH4 0xFFFFFFFF AND PUSH1 0xE0 SHL DUP2 MSTORE PUSH1 0x4 ADD PUSH3 0x13E SWAP3 SWAP2 SWAP1 PUSH3 0x9B9 JUMP JUMPDEST PUSH1 0x20 PUSH1 0x40 MLOAD DUP1 DUP4 SUB DUP2 DUP7 GAS DELEGATECALL ISZERO DUP1 ISZERO PUSH3 0x15A JUMPI RETURNDATASIZE PUSH0 DUP1 RETURNDATACOPY RETURNDATASIZE PUSH0 REVERT JUMPDEST POP POP POP POP PUSH1 0x40 MLOAD RETURNDATASIZE PUSH1 0x1F NOT PUSH1 0x1F DUP3 ADD AND DUP3 ADD DUP1 PUSH1 0x40 MSTORE POP DUP2 ADD SWAP1 PUSH3 0x180 SWAP2 SWAP1 PUSH3 0xA33 JUMP JUMPDEST POP PUSH20 0x0 PUSH4 0xBFBA5DD6 PUSH0 DUP1 SLOAD SWAP1 PUSH2 0x100 EXP SWAP1 DIV PUSH20 0xFFFFFFFFFFFFFFFFFFFFFFFFFFFFFFFFFFFFFFFF AND PUSH20 0xFFFFFFFFFFFFFFFFFFFFFFFFFFFFFFFFFFFFFFFF AND PUSH4 0x55A373D6 PUSH1 0x40 MLOAD DUP2 PUSH4 0xFFFFFFFF AND PUSH1 0xE0 SHL DUP2 MSTORE PUSH1 0x4 ADD PUSH1 0x20 PUSH1 0x40 MLOAD DUP1 DUP4 SUB DUP2 DUP7 GAS STATICCALL ISZERO DUP1 ISZERO PUSH3 0x204 JUMPI RETURNDATASIZE PUSH0 DUP1 RETURNDATACOPY RETURNDATASIZE PUSH0 REVERT JUMPDEST POP POP POP POP PUSH1 0x40 MLOAD RETURNDATASIZE PUSH1 0x1F NOT PUSH1 0x1F DUP3 ADD AND DUP3 ADD DUP1 PUSH1 0x40 MSTORE POP DUP2 ADD SWAP1 PUSH3 0x22A SWAP2 SWAP1 PUSH3 0xAA5 JUMP JUMPDEST PUSH1 0x1 PUSH0 SWAP1 SLOAD SWAP1 PUSH2 0x100 EXP SWAP1 DIV PUSH20 0xFFFFFFFFFFFFFFFFFFFFFFFFFFFFFFFFFFFFFFFF AND PUSH1 0x40 MLOAD DUP4 PUSH4 0xFFFFFFFF AND PUSH1 0xE0 SHL DUP2 MSTORE PUSH1 0x4 ADD PUSH3 0x26B SWAP3 SWAP2 SWAP1 PUSH3 0xB49 JUMP JUMPDEST PUSH1 0x20 PUSH1 0x40 MLOAD DUP1 DUP4 SUB DUP2 DUP7 GAS DELEGATECALL ISZERO DUP1 ISZERO PUSH3 0x287 JUMPI RETURNDATASIZE PUSH0 DUP1 RETURNDATACOPY RETURNDATASIZE PUSH0 REVERT JUMPDEST POP POP POP POP PUSH1 0x40 MLOAD RETURNDATASIZE PUSH1 0x1F NOT PUSH1 0x1F DUP3 ADD AND DUP3 ADD DUP1 PUSH1 0x40 MSTORE POP DUP2 ADD SWAP1 PUSH3 0x2AD SWAP2 SWAP1 PUSH3 0xA33 JUMP JUMPDEST POP PUSH20 0x0 PUSH4 0xBFBA5DD6 PUSH0 DUP1 SLOAD SWAP1 PUSH2 0x100 EXP SWAP1 DIV PUSH20 0xFFFFFFFFFFFFFFFFFFFFFFFFFFFFFFFFFFFFFFFF AND PUSH20 0xFFFFFFFFFFFFFFFFFFFFFFFFFFFFFFFFFFFFFFFF AND PUSH4 0xD9F103CC PUSH1 0x40 MLOAD DUP2 PUSH4 0xFFFFFFFF AND PUSH1 0xE0 SHL DUP2 MSTORE PUSH1 0x4 ADD PUSH1 0x20 PUSH1 0x40 MLOAD DUP1 DUP4 SUB DUP2 DUP7 GAS STATICCALL ISZERO DUP1 ISZERO PUSH3 0x331 JUMPI RETURNDATASIZE PUSH0 DUP1 RETURNDATACOPY RETURNDATASIZE PUSH0 REVERT JUMPDEST POP POP POP POP PUSH1 0x40 MLOAD RETURNDATASIZE PUSH1 0x1F NOT PUSH1 0x1F DUP3 ADD AND DUP3 ADD DUP1 PUSH1 0x40 MSTORE POP DUP2 ADD SWAP1 PUSH3 0x357 SWAP2 SWAP1 PUSH3 0xBCB JUMP JUMPDEST PUSH1 0x2 PUSH0 SWAP1 SLOAD SWAP1 PUSH2 0x100 EXP SWAP1 DIV PUSH20 0xFFFFFFFFFFFFFFFFFFFFFFFFFFFFFFFFFFFFFFFF AND PUSH1 0x40 MLOAD DUP4 PUSH4 0xFFFFFFFF AND PUSH1 0xE0 SHL DUP2 MSTORE PUSH1 0x4 ADD PUSH3 0x398 SWAP3 SWAP2 SWAP1 PUSH3 0xC6F JUMP JUMPDEST PUSH1 0x20 PUSH1 0x40 MLOAD DUP1 DUP4 SUB DUP2 DUP7 GAS DELEGATECALL ISZERO DUP1 ISZERO PUSH3 0x3B4 JUMPI RETURNDATASIZE PUSH0 DUP1 RETURNDATACOPY RETURNDATASIZE PUSH0 REVERT JUMPDEST POP POP POP POP PUSH1 0x40 MLOAD RETURNDATASIZE PUSH1 0x1F NOT PUSH1 0x1F DUP3 ADD AND DUP3 ADD DUP1 PUSH1 0x40 MSTORE POP DUP2 ADD SWAP1 PUSH3 0x3DA SWAP2 SWAP1 PUSH3 0xA33 JUMP JUMPDEST POP PUSH20 0x0 PUSH4 0xABCD7960 PUSH0 DUP1 SLOAD SWAP1 PUSH2 0x100 EXP SWAP1 DIV PUSH20 0xFFFFFFFFFFFFFFFFFFFFFFFFFFFFFFFFFFFFFFFF AND PUSH20 0xFFFFFFFFFFFFFFFFFFFFFFFFFFFFFFFFFFFFFFFF AND PUSH4 0xB2BEF991 PUSH1 0x40 MLOAD DUP2 PUSH4 0xFFFFFFFF AND PUSH1 0xE0 SHL DUP2 MSTORE PUSH1 0x4 ADD PUSH1 0x20 PUSH1 0x40 MLOAD DUP1 DUP4 SUB DUP2 DUP7 GAS STATICCALL ISZERO DUP1 ISZERO PUSH3 0x45E JUMPI RETURNDATASIZE PUSH0 DUP1 RETURNDATACOPY RETURNDATASIZE PUSH0 REVERT JUMPDEST POP POP POP POP PUSH1 0x40 MLOAD RETURNDATASIZE PUSH1 0x1F NOT PUSH1 0x1F DUP3 ADD AND DUP3 ADD DUP1 PUSH1 0x40 MSTORE POP DUP2 ADD SWAP1 PUSH3 0x484 SWAP2 SWAP1 PUSH3 0xCE7 JUMP JUMPDEST PUSH1 0x64 PUSH1 0x40 MLOAD DUP4 PUSH4 0xFFFFFFFF AND PUSH1 0xE0 SHL DUP2 MSTORE PUSH1 0x4 ADD PUSH3 0x4A5 SWAP3 SWAP2 SWAP1 PUSH3 0xDE6 JUMP JUMPDEST PUSH1 0x20 PUSH1 0x40 MLOAD DUP1 DUP4 SUB DUP2 DUP7 GAS DELEGATECALL ISZERO DUP1 ISZERO PUSH3 0x4C1 JUMPI RETURNDATASIZE PUSH0 DUP1 RETURNDATACOPY RETURNDATASIZE PUSH0 REVERT JUMPDEST POP POP POP POP PUSH1 0x40 MLOAD RETURNDATASIZE PUSH1 0x1F NOT PUSH1 0x1F DUP3 ADD AND DUP3 ADD DUP1 PUSH1 0x40 MSTORE POP DUP2 ADD SWAP1 PUSH3 0x4E7 SWAP2 SWAP1 PUSH3 0xA33 JUMP JUMPDEST POP JUMP JUMPDEST PUSH20 0x0 PUSH4 0xCE88B145 PUSH0 PUSH1 0x40 MLOAD DUP3 PUSH4 0xFFFFFFFF AND PUSH1 0xE0 SHL DUP2 MSTORE PUSH1 0x4 ADD PUSH3 0x523 SWAP2 SWAP1 PUSH3 0xE67 JUMP JUMPDEST PUSH1 0x20 PUSH1 0x40 MLOAD DUP1 DUP4 SUB DUP2 DUP7 GAS DELEGATECALL ISZERO DUP1 ISZERO PUSH3 0x53F JUMPI RETURNDATASIZE PUSH0 DUP1 RETURNDATACOPY RETURNDATASIZE PUSH0 REVERT JUMPDEST POP POP POP POP PUSH1 0x40 MLOAD RETURNDATASIZE PUSH1 0x1F NOT PUSH1 0x1F DUP3 ADD AND DUP3 ADD DUP1 PUSH1 0x40 MSTORE POP DUP2 ADD SWAP1 PUSH3 0x565 SWAP2 SWAP1 PUSH3 0x91A JUMP JUMPDEST PUSH1 0x3 PUSH0 PUSH2 0x100 EXP DUP2 SLOAD DUP2 PUSH20 0xFFFFFFFFFFFFFFFFFFFFFFFFFFFFFFFFFFFFFFFF MUL NOT AND SWAP1 DUP4 PUSH20 0xFFFFFFFFFFFFFFFFFFFFFFFFFFFFFFFFFFFFFFFF AND MUL OR SWAP1 SSTORE POP PUSH20 0x0 PUSH4 0xCE88B145 PUSH1 0x1 PUSH1 0x40 MLOAD DUP3 PUSH4 0xFFFFFFFF AND PUSH1 0xE0 SHL DUP2 MSTORE PUSH1 0x4 ADD PUSH3 0x5DE SWAP2 SWAP1 PUSH3 0xEC3 JUMP JUMPDEST PUSH1 0x20 PUSH1 0x40 MLOAD DUP1 DUP4 SUB DUP2 DUP7 GAS DELEGATECALL ISZERO DUP1 ISZERO PUSH3 0x5FA JUMPI RETURNDATASIZE PUSH0 DUP1 RETURNDATACOPY RETURNDATASIZE PUSH0 REVERT JUMPDEST POP POP POP POP PUSH1 0x40 MLOAD RETURNDATASIZE PUSH1 0x1F NOT PUSH1 0x1F DUP3 ADD AND DUP3 ADD DUP1 PUSH1 0x40 MSTORE POP DUP2 ADD SWAP1 PUSH3 0x620 SWAP2 SWAP1 PUSH3 0x91A JUMP JUMPDEST PUSH1 0x4 PUSH0 PUSH2 0x100 EXP DUP2 SLOAD DUP2 PUSH20 0xFFFFFFFFFFFFFFFFFFFFFFFFFFFFFFFFFFFFFFFF MUL NOT AND SWAP1 DUP4 PUSH20 0xFFFFFFFFFFFFFFFFFFFFFFFFFFFFFFFFFFFFFFFF AND MUL OR SWAP1 SSTORE POP PUSH1 0x40 MLOAD PUSH3 0x66D SWAP1 PUSH3 0x88B JUMP JUMPDEST PUSH1 0x40 MLOAD DUP1 SWAP2 SUB SWAP1 PUSH0 CREATE DUP1 ISZERO DUP1 ISZERO PUSH3 0x687 JUMPI RETURNDATASIZE PUSH0 DUP1 RETURNDATACOPY RETURNDATASIZE PUSH0 REVERT JUMPDEST POP PUSH1 0x1 PUSH0 PUSH2 0x100 EXP DUP2 SLOAD DUP2 PUSH20 0xFFFFFFFFFFFFFFFFFFFFFFFFFFFFFFFFFFFFFFFF MUL NOT AND SWAP1 DUP4 PUSH20 0xFFFFFFFFFFFFFFFFFFFFFFFFFFFFFFFFFFFFFFFF AND MUL OR SWAP1 SSTORE POP PUSH1 0x40 MLOAD PUSH3 0x6D5 SWAP1 PUSH3 0x899 JUMP JUMPDEST PUSH1 0x40 MLOAD DUP1 SWAP2 SUB SWAP1 PUSH0 CREATE DUP1 ISZERO DUP1 ISZERO PUSH3 0x6EF JUMPI RETURNDATASIZE PUSH0 DUP1 RETURNDATACOPY RETURNDATASIZE PUSH0 REVERT JUMPDEST POP PUSH1 0x2 PUSH0 PUSH2 0x100 EXP DUP2 SLOAD DUP2 PUSH20 0xFFFFFFFFFFFFFFFFFFFFFFFFFFFFFFFFFFFFFFFF MUL NOT AND SWAP1 DUP4 PUSH20 0xFFFFFFFFFFFFFFFFFFFFFFFFFFFFFFFFFFFFFFFF AND MUL OR SWAP1 SSTORE POP PUSH1 0x40 MLOAD PUSH3 0x73D SWAP1 PUSH3 0x8A7 JUMP JUMPDEST PUSH1 0x40 MLOAD DUP1 SWAP2 SUB SWAP1 PUSH0 CREATE DUP1 ISZERO DUP1 ISZERO PUSH3 0x757 JUMPI RETURNDATASIZE PUSH0 DUP1 RETURNDATACOPY RETURNDATASIZE PUSH0 REVERT JUMPDEST POP PUSH0 DUP1 PUSH2 0x100 EXP DUP2 SLOAD DUP2 PUSH20 0xFFFFFFFFFFFFFFFFFFFFFFFFFFFFFFFFFFFFFFFF MUL NOT AND SWAP1 DUP4 PUSH20 0xFFFFFFFFFFFFFFFFFFFFFFFFFFFFFFFFFFFFFFFF AND MUL OR SWAP1 SSTORE POP PUSH0 DUP1 SLOAD SWAP1 PUSH2 0x100 EXP SWAP1 DIV PUSH20 0xFFFFFFFFFFFFFFFFFFFFFFFFFFFFFFFFFFFFFFFF AND PUSH20 0xFFFFFFFFFFFFFFFFFFFFFFFFFFFFFFFFFFFFFFFF AND PUSH4 0xCF756FDF PUSH1 0x3 PUSH0 SWAP1 SLOAD SWAP1 PUSH2 0x100 EXP SWAP1 DIV PUSH20 0xFFFFFFFFFFFFFFFFFFFFFFFFFFFFFFFFFFFFFFFF AND PUSH1 0x1 PUSH0 SWAP1 SLOAD SWAP1 PUSH2 0x100 EXP SWAP1 DIV PUSH20 0xFFFFFFFFFFFFFFFFFFFFFFFFFFFFFFFFFFFFFFFF AND PUSH1 0x2 PUSH0 SWAP1 SLOAD SWAP1 PUSH2 0x100 EXP SWAP1 DIV PUSH20 0xFFFFFFFFFFFFFFFFFFFFFFFFFFFFFFFFFFFFFFFF AND PUSH1 0x64 PUSH1 0x40 MLOAD DUP6 PUSH4 0xFFFFFFFF AND PUSH1 0xE0 SHL DUP2 MSTORE PUSH1 0x4 ADD PUSH3 0x85A SWAP5 SWAP4 SWAP3 SWAP2 SWAP1 PUSH3 0xF00 JUMP JUMPDEST PUSH0 PUSH1 0x40 MLOAD DUP1 DUP4 SUB DUP2 PUSH0 DUP8 DUP1 EXTCODESIZE ISZERO DUP1 ISZERO PUSH3 0x872 JUMPI PUSH0 DUP1 REVERT JUMPDEST POP GAS CALL ISZERO DUP1 ISZERO PUSH3 0x885 JUMPI RETURNDATASIZE PUSH0 DUP1 RETURNDATACOPY RETURNDATASIZE PUSH0 REVERT JUMPDEST POP POP POP POP JUMP JUMPDEST PUSH2 0x48E DUP1 PUSH3 0xF4C DUP4 CODECOPY ADD SWAP1 JUMP JUMPDEST PUSH2 0x952 DUP1 PUSH3 0x13DA DUP4 CODECOPY ADD SWAP1 JUMP JUMPDEST PUSH2 0x32B1 DUP1 PUSH3 0x1D2C DUP4 CODECOPY ADD SWAP1 JUMP JUMPDEST PUSH0 DUP1 REVERT JUMPDEST PUSH0 PUSH20 0xFFFFFFFFFFFFFFFFFFFFFFFFFFFFFFFFFFFFFFFF DUP3 AND SWAP1 POP SWAP2 SWAP1 POP JUMP JUMPDEST PUSH0 PUSH3 0x8E4 DUP3 PUSH3 0x8B9 JUMP JUMPDEST SWAP1 POP SWAP2 SWAP1 POP JUMP JUMPDEST PUSH3 0x8F6 DUP2 PUSH3 0x8D8 JUMP JUMPDEST DUP2 EQ PUSH3 0x901 JUMPI PUSH0 DUP1 REVERT JUMPDEST POP JUMP JUMPDEST PUSH0 DUP2 MLOAD SWAP1 POP PUSH3 0x914 DUP2 PUSH3 0x8EB JUMP JUMPDEST SWAP3 SWAP2 POP POP JUMP JUMPDEST PUSH0 PUSH1 0x20 DUP3 DUP5 SUB SLT ISZERO PUSH3 0x932 JUMPI PUSH3 0x931 PUSH3 0x8B5 JUMP JUMPDEST JUMPDEST PUSH0 PUSH3 0x941 DUP5 DUP3 DUP6 ADD PUSH3 0x904 JUMP JUMPDEST SWAP2 POP POP SWAP3 SWAP2 POP POP JUMP JUMPDEST PUSH3 0x955 DUP2 PUSH3 0x8D8 JUMP JUMPDEST DUP3 MSTORE POP POP JUMP JUMPDEST PUSH0 DUP3 DUP3 MSTORE PUSH1 0x20 DUP3 ADD SWAP1 POP SWAP3 SWAP2 POP POP JUMP JUMPDEST PUSH32 0x4F776E65722073686F756C642062652073657420636F72726563746C79000000 PUSH0 DUP3 ADD MSTORE POP JUMP JUMPDEST PUSH0 PUSH3 0x9A1 PUSH1 0x1D DUP4 PUSH3 0x95B JUMP JUMPDEST SWAP2 POP PUSH3 0x9AE DUP3 PUSH3 0x96B JUMP JUMPDEST PUSH1 0x20 DUP3 ADD SWAP1 POP SWAP2 SWAP1 POP JUMP JUMPDEST PUSH0 PUSH1 0x60 DUP3 ADD SWAP1 POP PUSH3 0x9CE PUSH0 DUP4 ADD DUP6 PUSH3 0x94A JUMP JUMPDEST PUSH3 0x9DD PUSH1 0x20 DUP4 ADD DUP5 PUSH3 0x94A JUMP JUMPDEST DUP2 DUP2 SUB PUSH1 0x40 DUP4 ADD MSTORE PUSH3 0x9F0 DUP2 PUSH3 0x993 JUMP JUMPDEST SWAP1 POP SWAP4 SWAP3 POP POP POP JUMP JUMPDEST PUSH0 DUP2 ISZERO ISZERO SWAP1 POP SWAP2 SWAP1 POP JUMP JUMPDEST PUSH3 0xA0F DUP2 PUSH3 0x9F9 JUMP JUMPDEST DUP2 EQ PUSH3 0xA1A JUMPI PUSH0 DUP1 REVERT JUMPDEST POP JUMP JUMPDEST PUSH0 DUP2 MLOAD SWAP1 POP PUSH3 0xA2D DUP2 PUSH3 0xA04 JUMP JUMPDEST SWAP3 SWAP2 POP POP JUMP JUMPDEST PUSH0 PUSH1 0x20 DUP3 DUP5 SUB SLT ISZERO PUSH3 0xA4B JUMPI PUSH3 0xA4A PUSH3 0x8B5 JUMP JUMPDEST JUMPDEST PUSH0 PUSH3 0xA5A DUP5 DUP3 DUP6 ADD PUSH3 0xA1D JUMP JUMPDEST SWAP2 POP POP SWAP3 SWAP2 POP POP JUMP JUMPDEST PUSH0 PUSH3 0xA6F DUP3 PUSH3 0x8D8 JUMP JUMPDEST SWAP1 POP SWAP2 SWAP1 POP JUMP JUMPDEST PUSH3 0xA81 DUP2 PUSH3 0xA63 JUMP JUMPDEST DUP2 EQ PUSH3 0xA8C JUMPI PUSH0 DUP1 REVERT JUMPDEST POP JUMP JUMPDEST PUSH0 DUP2 MLOAD SWAP1 POP PUSH3 0xA9F DUP2 PUSH3 0xA76 JUMP JUMPDEST SWAP3 SWAP2 POP POP JUMP JUMPDEST PUSH0 PUSH1 0x20 DUP3 DUP5 SUB SLT ISZERO PUSH3 0xABD JUMPI PUSH3 0xABC PUSH3 0x8B5 JUMP JUMPDEST JUMPDEST PUSH0 PUSH3 0xACC DUP5 DUP3 DUP6 ADD PUSH3 0xA8F JUMP JUMPDEST SWAP2 POP POP SWAP3 SWAP2 POP POP JUMP JUMPDEST PUSH32 0x546F6B656E20636F6E74726163742073686F756C642062652073657420636F72 PUSH0 DUP3 ADD MSTORE PUSH32 0x726563746C790000000000000000000000000000000000000000000000000000 PUSH1 0x20 DUP3 ADD MSTORE POP JUMP JUMPDEST PUSH0 PUSH3 0xB31 PUSH1 0x26 DUP4 PUSH3 0x95B JUMP JUMPDEST SWAP2 POP PUSH3 0xB3E DUP3 PUSH3 0xAD5 JUMP JUMPDEST PUSH1 0x40 DUP3 ADD SWAP1 POP SWAP2 SWAP1 POP JUMP JUMPDEST PUSH0 PUSH1 0x60 DUP3 ADD SWAP1 POP PUSH3 0xB5E PUSH0 DUP4 ADD DUP6 PUSH3 0x94A JUMP JUMPDEST PUSH3 0xB6D PUSH1 0x20 DUP4 ADD DUP5 PUSH3 0x94A JUMP JUMPDEST DUP2 DUP2 SUB PUSH1 0x40 DUP4 ADD MSTORE PUSH3 0xB80 DUP2 PUSH3 0xB23 JUMP JUMPDEST SWAP1 POP SWAP4 SWAP3 POP POP POP JUMP JUMPDEST PUSH0 PUSH3 0xB95 DUP3 PUSH3 0x8D8 JUMP JUMPDEST SWAP1 POP SWAP2 SWAP1 POP JUMP JUMPDEST PUSH3 0xBA7 DUP2 PUSH3 0xB89 JUMP JUMPDEST DUP2 EQ PUSH3 0xBB2 JUMPI PUSH0 DUP1 REVERT JUMPDEST POP JUMP JUMPDEST PUSH0 DUP2 MLOAD SWAP1 POP PUSH3 0xBC5 DUP2 PUSH3 0xB9C JUMP JUMPDEST SWAP3 SWAP2 POP POP JUMP JUMPDEST PUSH0 PUSH1 0x20 DUP3 DUP5 SUB SLT ISZERO PUSH3 0xBE3 JUMPI PUSH3 0xBE2 PUSH3 0x8B5 JUMP JUMPDEST JUMPDEST PUSH0 PUSH3 0xBF2 DUP5 DUP3 DUP6 ADD PUSH3 0xBB5 JUMP JUMPDEST SWAP2 POP POP SWAP3 SWAP2 POP POP JUMP JUMPDEST PUSH32 0x504F415020636F6E74726163742073686F756C642062652073657420636F7272 PUSH0 DUP3 ADD MSTORE PUSH32 0x6563746C79000000000000000000000000000000000000000000000000000000 PUSH1 0x20 DUP3 ADD MSTORE POP JUMP JUMPDEST PUSH0 PUSH3 0xC57 PUSH1 0x25 DUP4 PUSH3 0x95B JUMP JUMPDEST SWAP2 POP PUSH3 0xC64 DUP3 PUSH3 0xBFB JUMP JUMPDEST PUSH1 0x40 DUP3 ADD SWAP1 POP SWAP2 SWAP1 POP JUMP JUMPDEST PUSH0 PUSH1 0x60 DUP3 ADD SWAP1 POP PUSH3 0xC84 PUSH0 DUP4 ADD DUP6 PUSH3 0x94A JUMP JUMPDEST PUSH3 0xC93 PUSH1 0x20 DUP4 ADD DUP5 PUSH3 0x94A JUMP JUMPDEST DUP2 DUP2 SUB PUSH1 0x40 DUP4 ADD MSTORE PUSH3 0xCA6 DUP2 PUSH3 0xC49 JUMP JUMPDEST SWAP1 POP SWAP4 SWAP3 POP POP POP JUMP JUMPDEST PUSH0 DUP2 SWAP1 POP SWAP2 SWAP1 POP JUMP JUMPDEST PUSH3 0xCC3 DUP2 PUSH3 0xCAF JUMP JUMPDEST DUP2 EQ PUSH3 0xCCE JUMPI PUSH0 DUP1 REVERT JUMPDEST POP JUMP JUMPDEST PUSH0 DUP2 MLOAD SWAP1 POP PUSH3 0xCE1 DUP2 PUSH3 0xCB8 JUMP JUMPDEST SWAP3 SWAP2 POP POP JUMP JUMPDEST PUSH0 PUSH1 0x20 DUP3 DUP5 SUB SLT ISZERO PUSH3 0xCFF JUMPI PUSH3 0xCFE PUSH3 0x8B5 JUMP JUMPDEST JUMPDEST PUSH0 PUSH3 0xD0E DUP5 DUP3 DUP6 ADD PUSH3 0xCD1 JUMP JUMPDEST SWAP2 POP POP SWAP3 SWAP2 POP POP JUMP JUMPDEST PUSH3 0xD22 DUP2 PUSH3 0xCAF JUMP JUMPDEST DUP3 MSTORE POP POP JUMP JUMPDEST PUSH0 DUP2 SWAP1 POP SWAP2 SWAP1 POP JUMP JUMPDEST PUSH0 DUP2 SWAP1 POP SWAP2 SWAP1 POP JUMP JUMPDEST PUSH0 PUSH3 0xD5A PUSH3 0xD54 PUSH3 0xD4E DUP5 PUSH3 0xD28 JUMP JUMPDEST PUSH3 0xD31 JUMP JUMPDEST PUSH3 0xCAF JUMP JUMPDEST SWAP1 POP SWAP2 SWAP1 POP JUMP JUMPDEST PUSH3 0xD6C DUP2 PUSH3 0xD3A JUMP JUMPDEST DUP3 MSTORE POP POP JUMP JUMPDEST PUSH32 0x4D6178206576656E7473207065722075706B6565702073686F756C6420626520 PUSH0 DUP3 ADD MSTORE PUSH32 0x73657420636F72726563746C7900000000000000000000000000000000000000 PUSH1 0x20 DUP3 ADD MSTORE POP JUMP JUMPDEST PUSH0 PUSH3 0xDCE PUSH1 0x2D DUP4 PUSH3 0x95B JUMP JUMPDEST SWAP2 POP PUSH3 0xDDB DUP3 PUSH3 0xD72 JUMP JUMPDEST PUSH1 0x40 DUP3 ADD SWAP1 POP SWAP2 SWAP1 POP JUMP JUMPDEST PUSH0 PUSH1 0x60 DUP3 ADD SWAP1 POP PUSH3 0xDFB PUSH0 DUP4 ADD DUP6 PUSH3 0xD17 JUMP JUMPDEST PUSH3 0xE0A PUSH1 0x20 DUP4 ADD DUP5 PUSH3 0xD61 JUMP JUMPDEST DUP2 DUP2 SUB PUSH1 0x40 DUP4 ADD MSTORE PUSH3 0xE1D DUP2 PUSH3 0xDC0 JUMP JUMPDEST SWAP1 POP SWAP4 SWAP3 POP POP POP JUMP JUMPDEST PUSH0 DUP2 SWAP1 POP SWAP2 SWAP1 POP JUMP JUMPDEST PUSH0 PUSH3 0xE4F PUSH3 0xE49 PUSH3 0xE43 DUP5 PUSH3 0xE26 JUMP JUMPDEST PUSH3 0xD31 JUMP JUMPDEST PUSH3 0xCAF JUMP JUMPDEST SWAP1 POP SWAP2 SWAP1 POP JUMP JUMPDEST PUSH3 0xE61 DUP2 PUSH3 0xE2F JUMP JUMPDEST DUP3 MSTORE POP POP JUMP JUMPDEST PUSH0 PUSH1 0x20 DUP3 ADD SWAP1 POP PUSH3 0xE7C PUSH0 DUP4 ADD DUP5 PUSH3 0xE56 JUMP JUMPDEST SWAP3 SWAP2 POP POP JUMP JUMPDEST PUSH0 DUP2 SWAP1 POP SWAP2 SWAP1 POP JUMP JUMPDEST PUSH0 PUSH3 0xEAB PUSH3 0xEA5 PUSH3 0xE9F DUP5 PUSH3 0xE82 JUMP JUMPDEST PUSH3 0xD31 JUMP JUMPDEST PUSH3 0xCAF JUMP JUMPDEST SWAP1 POP SWAP2 SWAP1 POP JUMP JUMPDEST PUSH3 0xEBD DUP2 PUSH3 0xE8B JUMP JUMPDEST DUP3 MSTORE POP POP JUMP JUMPDEST PUSH0 PUSH1 0x20 DUP3 ADD SWAP1 POP PUSH3 0xED8 PUSH0 DUP4 ADD DUP5 PUSH3 0xEB2 JUMP JUMPDEST SWAP3 SWAP2 POP POP JUMP JUMPDEST PUSH3 0xEE9 DUP2 PUSH3 0x8D8 JUMP JUMPDEST DUP3 MSTORE POP POP JUMP JUMPDEST PUSH3 0xEFA DUP2 PUSH3 0xD3A JUMP JUMPDEST DUP3 MSTORE POP POP JUMP JUMPDEST PUSH0 PUSH1 0x80 DUP3 ADD SWAP1 POP PUSH3 0xF15 PUSH0 DUP4 ADD DUP8 PUSH3 0xEDE JUMP JUMPDEST PUSH3 0xF24 PUSH1 0x20 DUP4 ADD DUP7 PUSH3 0xEDE JUMP JUMPDEST PUSH3 0xF33 PUSH1 0x40 DUP4 ADD DUP6 PUSH3 0xEDE JUMP JUMPDEST PUSH3 0xF42 PUSH1 0x60 DUP4 ADD DUP5 PUSH3 0xEEF JUMP JUMPDEST SWAP6 SWAP5 POP POP POP POP POP JUMP INVALID PUSH1 0x80 PUSH1 0x40 MSTORE CALLVALUE DUP1 ISZERO PUSH2 0xF JUMPI PUSH0 DUP1 REVERT JUMPDEST POP PUSH2 0x471 DUP1 PUSH2 0x1D PUSH0 CODECOPY PUSH0 RETURN INVALID PUSH1 0x80 PUSH1 0x40 MSTORE CALLVALUE DUP1 ISZERO PUSH2 0xF JUMPI PUSH0 DUP1 REVERT JUMPDEST POP PUSH1 0x4 CALLDATASIZE LT PUSH2 0x60 JUMPI PUSH0 CALLDATALOAD PUSH1 0xE0 SHR DUP1 PUSH4 0x27E235E3 EQ PUSH2 0x64 JUMPI DUP1 PUSH4 0x40C10F19 EQ PUSH2 0x94 JUMPI DUP1 PUSH4 0x70A08231 EQ PUSH2 0xB0 JUMPI DUP1 PUSH4 0x9659867E EQ PUSH2 0xE0 JUMPI DUP1 PUSH4 0xD4E7FDD4 EQ PUSH2 0xFE JUMPI DUP1 PUSH4 0xD826F88F EQ PUSH2 0x11C JUMPI JUMPDEST PUSH0 DUP1 REVERT JUMPDEST PUSH2 0x7E PUSH1 0x4 DUP1 CALLDATASIZE SUB DUP2 ADD SWAP1 PUSH2 0x79 SWAP2 SWAP1 PUSH2 0x29D JUMP JUMPDEST PUSH2 0x126 JUMP JUMPDEST PUSH1 0x40 MLOAD PUSH2 0x8B SWAP2 SWAP1 PUSH2 0x2E0 JUMP JUMPDEST PUSH1 0x40 MLOAD DUP1 SWAP2 SUB SWAP1 RETURN JUMPDEST PUSH2 0xAE PUSH1 0x4 DUP1 CALLDATASIZE SUB DUP2 ADD SWAP1 PUSH2 0xA9 SWAP2 SWAP1 PUSH2 0x323 JUMP JUMPDEST PUSH2 0x13B JUMP JUMPDEST STOP JUMPDEST PUSH2 0xCA PUSH1 0x4 DUP1 CALLDATASIZE SUB DUP2 ADD SWAP1 PUSH2 0xC5 SWAP2 SWAP1 PUSH2 0x29D JUMP JUMPDEST PUSH2 0x1C2 JUMP JUMPDEST PUSH1 0x40 MLOAD PUSH2 0xD7 SWAP2 SWAP1 PUSH2 0x2E0 JUMP JUMPDEST PUSH1 0x40 MLOAD DUP1 SWAP2 SUB SWAP1 RETURN JUMPDEST PUSH2 0xE8 PUSH2 0x208 JUMP JUMPDEST PUSH1 0x40 MLOAD PUSH2 0xF5 SWAP2 SWAP1 PUSH2 0x2E0 JUMP JUMPDEST PUSH1 0x40 MLOAD DUP1 SWAP2 SUB SWAP1 RETURN JUMPDEST PUSH2 0x106 PUSH2 0x20E JUMP JUMPDEST PUSH1 0x40 MLOAD PUSH2 0x113 SWAP2 SWAP1 PUSH2 0x37B JUMP JUMPDEST PUSH1 0x40 MLOAD DUP1 SWAP2 SUB SWAP1 RETURN JUMPDEST PUSH2 0x124 PUSH2 0x21E JUMP JUMPDEST STOP JUMPDEST PUSH1 0x2 PUSH1 0x20 MSTORE DUP1 PUSH0 MSTORE PUSH1 0x40 PUSH0 KECCAK256 PUSH0 SWAP2 POP SWAP1 POP SLOAD DUP2 JUMP JUMPDEST PUSH1 0x1 PUSH0 DUP1 PUSH2 0x100 EXP DUP2 SLOAD DUP2 PUSH1 0xFF MUL NOT AND SWAP1 DUP4 ISZERO ISZERO MUL OR SWAP1 SSTORE POP PUSH1 0x1 PUSH0 DUP2 SLOAD DUP1 SWAP3 SWAP2 SWAP1 PUSH2 0x166 SWAP1 PUSH2 0x3C1 JUMP JUMPDEST SWAP2 SWAP1 POP SSTORE POP DUP1 PUSH1 0x2 PUSH0 DUP5 PUSH20 0xFFFFFFFFFFFFFFFFFFFFFFFFFFFFFFFFFFFFFFFF AND PUSH20 0xFFFFFFFFFFFFFFFFFFFFFFFFFFFFFFFFFFFFFFFF AND DUP2 MSTORE PUSH1 0x20 ADD SWAP1 DUP2 MSTORE PUSH1 0x20 ADD PUSH0 KECCAK256 PUSH0 DUP3 DUP3 SLOAD PUSH2 0x1B7 SWAP2 SWAP1 PUSH2 0x408 JUMP JUMPDEST SWAP3 POP POP DUP2 SWAP1 SSTORE POP POP POP JUMP JUMPDEST PUSH0 PUSH1 0x2 PUSH0 DUP4 PUSH20 0xFFFFFFFFFFFFFFFFFFFFFFFFFFFFFFFFFFFFFFFF AND PUSH20 0xFFFFFFFFFFFFFFFFFFFFFFFFFFFFFFFFFFFFFFFF AND DUP2 MSTORE PUSH1 0x20 ADD SWAP1 DUP2 MSTORE PUSH1 0x20 ADD PUSH0 KECCAK256 SLOAD SWAP1 POP SWAP2 SWAP1 POP JUMP JUMPDEST PUSH1 0x1 SLOAD DUP2 JUMP JUMPDEST PUSH0 DUP1 SLOAD SWAP1 PUSH2 0x100 EXP SWAP1 DIV PUSH1 0xFF AND DUP2 JUMP JUMPDEST PUSH0 DUP1 PUSH0 PUSH2 0x100 EXP DUP2 SLOAD DUP2 PUSH1 0xFF MUL NOT AND SWAP1 DUP4 ISZERO ISZERO MUL OR SWAP1 SSTORE POP PUSH0 PUSH1 0x1 DUP2 SWAP1 SSTORE POP JUMP JUMPDEST PUSH0 DUP1 REVERT JUMPDEST PUSH0 PUSH20 0xFFFFFFFFFFFFFFFFFFFFFFFFFFFFFFFFFFFFFFFF DUP3 AND SWAP1 POP SWAP2 SWAP1 POP JUMP JUMPDEST PUSH0 PUSH2 0x26C DUP3 PUSH2 0x243 JUMP JUMPDEST SWAP1 POP SWAP2 SWAP1 POP JUMP JUMPDEST PUSH2 0x27C DUP2 PUSH2 0x262 JUMP JUMPDEST DUP2 EQ PUSH2 0x286 JUMPI PUSH0 DUP1 REVERT JUMPDEST POP JUMP JUMPDEST PUSH0 DUP2 CALLDATALOAD SWAP1 POP PUSH2 0x297 DUP2 PUSH2 0x273 JUMP JUMPDEST SWAP3 SWAP2 POP POP JUMP JUMPDEST PUSH0 PUSH1 0x20 DUP3 DUP5 SUB SLT ISZERO PUSH2 0x2B2 JUMPI PUSH2 0x2B1 PUSH2 0x23F JUMP JUMPDEST JUMPDEST PUSH0 PUSH2 0x2BF DUP5 DUP3 DUP6 ADD PUSH2 0x289 JUMP JUMPDEST SWAP2 POP POP SWAP3 SWAP2 POP POP JUMP JUMPDEST PUSH0 DUP2 SWAP1 POP SWAP2 SWAP1 POP JUMP JUMPDEST PUSH2 0x2DA DUP2 PUSH2 0x2C8 JUMP JUMPDEST DUP3 MSTORE POP POP JUMP JUMPDEST PUSH0 PUSH1 0x20 DUP3 ADD SWAP1 POP PUSH2 0x2F3 PUSH0 DUP4 ADD DUP5 PUSH2 0x2D1 JUMP JUMPDEST SWAP3 SWAP2 POP POP JUMP JUMPDEST PUSH2 0x302 DUP2 PUSH2 0x2C8 JUMP JUMPDEST DUP2 EQ PUSH2 0x30C JUMPI PUSH0 DUP1 REVERT JUMPDEST POP JUMP JUMPDEST PUSH0 DUP2 CALLDATALOAD SWAP1 POP PUSH2 0x31D DUP2 PUSH2 0x2F9 JUMP JUMPDEST SWAP3 SWAP2 POP POP JUMP JUMPDEST PUSH0 DUP1 PUSH1 0x40 DUP4 DUP6 SUB SLT ISZERO PUSH2 0x339 JUMPI PUSH2 0x338 PUSH2 0x23F JUMP JUMPDEST JUMPDEST PUSH0 PUSH2 0x346 DUP6 DUP3 DUP7 ADD PUSH2 0x289 JUMP JUMPDEST SWAP3 POP POP PUSH1 0x20 PUSH2 0x357 DUP6 DUP3 DUP7 ADD PUSH2 0x30F JUMP JUMPDEST SWAP2 POP POP SWAP3 POP SWAP3 SWAP1 POP JUMP JUMPDEST PUSH0 DUP2 ISZERO ISZERO SWAP1 POP SWAP2 SWAP1 POP JUMP JUMPDEST PUSH2 0x375 DUP2 PUSH2 0x361 JUMP JUMPDEST DUP3 MSTORE POP POP JUMP JUMPDEST PUSH0 PUSH1 0x20 DUP3 ADD SWAP1 POP PUSH2 0x38E PUSH0 DUP4 ADD DUP5 PUSH2 0x36C JUMP JUMPDEST SWAP3 SWAP2 POP POP JUMP JUMPDEST PUSH32 0x4E487B7100000000000000000000000000000000000000000000000000000000 PUSH0 MSTORE PUSH1 0x11 PUSH1 0x4 MSTORE PUSH1 0x24 PUSH0 REVERT JUMPDEST PUSH0 PUSH2 0x3CB DUP3 PUSH2 0x2C8 JUMP JUMPDEST SWAP2 POP PUSH32 0xFFFFFFFFFFFFFFFFFFFFFFFFFFFFFFFFFFFFFFFFFFFFFFFFFFFFFFFFFFFFFFFF DUP3 SUB PUSH2 0x3FD JUMPI PUSH2 0x3FC PUSH2 0x394 JUMP JUMPDEST JUMPDEST PUSH1 0x1 DUP3 ADD SWAP1 POP SWAP2 SWAP1 POP JUMP JUMPDEST PUSH0 PUSH2 0x412 DUP3 PUSH2 0x2C8 JUMP JUMPDEST SWAP2 POP PUSH2 0x41D DUP4 PUSH2 0x2C8 JUMP JUMPDEST SWAP3 POP DUP3 DUP3 ADD SWAP1 POP DUP1 DUP3 GT ISZERO PUSH2 0x435 JUMPI PUSH2 0x434 PUSH2 0x394 JUMP JUMPDEST JUMPDEST SWAP3 SWAP2 POP POP JUMP INVALID LOG2 PUSH5 0x6970667358 0x22 SLT KECCAK256 GAS SGT 0xE0 DUP8 PUSH27 0xC962EF42BE44ADD582876E8FF88369FD6293F4E3AC11E9D127967B PUSH5 0x736F6C6343 STOP ADDMOD EQ STOP CALLER PUSH1 0x80 PUSH1 0x40 MSTORE CALLVALUE DUP1 ISZERO PUSH2 0xF JUMPI PUSH0 DUP1 REVERT JUMPDEST POP PUSH2 0x935 DUP1 PUSH2 0x1D PUSH0 CODECOPY PUSH0 RETURN INVALID PUSH1 0x80 PUSH1 0x40 MSTORE CALLVALUE DUP1 ISZERO PUSH2 0xF JUMPI PUSH0 DUP1 REVERT JUMPDEST POP PUSH1 0x4 CALLDATASIZE LT PUSH2 0x7B JUMPI PUSH0 CALLDATALOAD PUSH1 0xE0 SHR DUP1 PUSH4 0x74F65EB6 GT PUSH2 0x59 JUMPI DUP1 PUSH4 0x74F65EB6 EQ PUSH2 0xD7 JUMPI DUP1 PUSH4 0xAA1DA927 EQ PUSH2 0xE1 JUMPI DUP1 PUSH4 0xB7033933 EQ PUSH2 0x111 JUMPI DUP1 PUSH4 0xD826F88F EQ PUSH2 0x12F JUMPI PUSH2 0x7B JUMP JUMPDEST DUP1 PUSH4 0x36FCD0F EQ PUSH2 0x7F JUMPI DUP1 PUSH4 0x41DD44DC EQ PUSH2 0x9B JUMPI DUP1 PUSH4 0x589FC48E EQ PUSH2 0xB9 JUMPI JUMPDEST PUSH0 DUP1 REVERT JUMPDEST PUSH2 0x99 PUSH1 0x4 DUP1 CALLDATASIZE SUB DUP2 ADD SWAP1 PUSH2 0x94 SWAP2 SWAP1 PUSH2 0x4A5 JUMP JUMPDEST PUSH2 0x139 JUMP JUMPDEST STOP JUMPDEST PUSH2 0xA3 PUSH2 0x18B JUMP JUMPDEST PUSH1 0x40 MLOAD PUSH2 0xB0 SWAP2 SWAP1 PUSH2 0x504 JUMP JUMPDEST PUSH1 0x40 MLOAD DUP1 SWAP2 SUB SWAP1 RETURN JUMPDEST PUSH2 0xC1 PUSH2 0x1B0 JUMP JUMPDEST PUSH1 0x40 MLOAD PUSH2 0xCE SWAP2 SWAP1 PUSH2 0x52C JUMP JUMPDEST PUSH1 0x40 MLOAD DUP1 SWAP2 SUB SWAP1 RETURN JUMPDEST PUSH2 0xDF PUSH2 0x1B6 JUMP JUMPDEST STOP JUMPDEST PUSH2 0xFB PUSH1 0x4 DUP1 CALLDATASIZE SUB DUP2 ADD SWAP1 PUSH2 0xF6 SWAP2 SWAP1 PUSH2 0x681 JUMP JUMPDEST PUSH2 0x267 JUMP JUMPDEST PUSH1 0x40 MLOAD PUSH2 0x108 SWAP2 SWAP1 PUSH2 0x822 JUMP JUMPDEST PUSH1 0x40 MLOAD DUP1 SWAP2 SUB SWAP1 RETURN JUMPDEST PUSH2 0x119 PUSH2 0x3B3 JUMP JUMPDEST PUSH1 0x40 MLOAD PUSH2 0x126 SWAP2 SWAP1 PUSH2 0x52C JUMP JUMPDEST PUSH1 0x40 MLOAD DUP1 SWAP2 SUB SWAP1 RETURN JUMPDEST PUSH2 0x137 PUSH2 0x3B8 JUMP JUMPDEST STOP JUMPDEST DUP3 PUSH0 DUP2 SWAP1 SSTORE POP DUP2 PUSH1 0x1 DUP2 SWAP1 SSTORE POP DUP1 PUSH1 0x2 PUSH0 PUSH2 0x100 EXP DUP2 SLOAD DUP2 PUSH20 0xFFFFFFFFFFFFFFFFFFFFFFFFFFFFFFFFFFFFFFFF MUL NOT AND SWAP1 DUP4 PUSH20 0xFFFFFFFFFFFFFFFFFFFFFFFFFFFFFFFFFFFFFFFF AND MUL OR SWAP1 SSTORE POP POP POP POP JUMP JUMPDEST PUSH1 0x2 PUSH0 SWAP1 SLOAD SWAP1 PUSH2 0x100 EXP SWAP1 DIV PUSH20 0xFFFFFFFFFFFFFFFFFFFFFFFFFFFFFFFFFFFFFFFF AND DUP2 JUMP JUMPDEST PUSH1 0x1 SLOAD DUP2 JUMP JUMPDEST PUSH1 0x1 SLOAD PUSH1 0x2 PUSH0 SWAP1 SLOAD SWAP1 PUSH2 0x100 EXP SWAP1 DIV PUSH20 0xFFFFFFFFFFFFFFFFFFFFFFFFFFFFFFFFFFFFFFFF AND PUSH20 0xFFFFFFFFFFFFFFFFFFFFFFFFFFFFFFFFFFFFFFFF AND PUSH0 PUSH20 0xFFFFFFFFFFFFFFFFFFFFFFFFFFFFFFFFFFFFFFFF AND PUSH32 0xDDF252AD1BE2C89B69C2B068FC378DAA952BA7F163C4A11628F55A4DF523B3EF PUSH1 0x40 MLOAD PUSH1 0x40 MLOAD DUP1 SWAP2 SUB SWAP1 LOG4 PUSH1 0x1 SLOAD PUSH0 SLOAD PUSH32 0x4B3711CD7ECE062B0828C1B6E08D814A72D4C003383A016C833CBB1B45956E34 PUSH1 0x40 MLOAD PUSH1 0x40 MLOAD DUP1 SWAP2 SUB SWAP1 LOG3 JUMP JUMPDEST PUSH1 0x60 PUSH0 PUSH1 0x2 PUSH8 0xFFFFFFFFFFFFFFFF DUP2 GT ISZERO PUSH2 0x285 JUMPI PUSH2 0x284 PUSH2 0x55D JUMP JUMPDEST JUMPDEST PUSH1 0x40 MLOAD SWAP1 DUP1 DUP3 MSTORE DUP1 PUSH1 0x20 MUL PUSH1 0x20 ADD DUP3 ADD PUSH1 0x40 MSTORE DUP1 ISZERO PUSH2 0x2B8 JUMPI DUP2 PUSH1 0x20 ADD JUMPDEST PUSH1 0x60 DUP2 MSTORE PUSH1 0x20 ADD SWAP1 PUSH1 0x1 SWAP1 SUB SWAP1 DUP2 PUSH2 0x2A3 JUMPI SWAP1 POP JUMPDEST POP SWAP1 POP PUSH32 0xDDF252AD1BE2C89B69C2B068FC378DAA952BA7F163C4A11628F55A4DF523B3EF PUSH0 PUSH1 0x2 PUSH0 SWAP1 SLOAD SWAP1 PUSH2 0x100 EXP SWAP1 DIV PUSH20 0xFFFFFFFFFFFFFFFFFFFFFFFFFFFFFFFFFFFFFFFF AND PUSH1 0x1 SLOAD PUSH1 0x40 MLOAD PUSH1 0x20 ADD PUSH2 0x315 SWAP5 SWAP4 SWAP3 SWAP2 SWAP1 PUSH2 0x85A JUMP JUMPDEST PUSH1 0x40 MLOAD PUSH1 0x20 DUP2 DUP4 SUB SUB DUP2 MSTORE SWAP1 PUSH1 0x40 MSTORE DUP2 PUSH0 DUP2 MLOAD DUP2 LT PUSH2 0x337 JUMPI PUSH2 0x336 PUSH2 0x89D JUMP JUMPDEST JUMPDEST PUSH1 0x20 MUL PUSH1 0x20 ADD ADD DUP2 SWAP1 MSTORE POP PUSH32 0x4B3711CD7ECE062B0828C1B6E08D814A72D4C003383A016C833CBB1B45956E34 PUSH0 SLOAD PUSH1 0x1 SLOAD PUSH1 0x40 MLOAD PUSH1 0x20 ADD PUSH2 0x37A SWAP4 SWAP3 SWAP2 SWAP1 PUSH2 0x8CA JUMP JUMPDEST PUSH1 0x40 MLOAD PUSH1 0x20 DUP2 DUP4 SUB SUB DUP2 MSTORE SWAP1 PUSH1 0x40 MSTORE DUP2 PUSH1 0x1 DUP2 MLOAD DUP2 LT PUSH2 0x39D JUMPI PUSH2 0x39C PUSH2 0x89D JUMP JUMPDEST JUMPDEST PUSH1 0x20 MUL PUSH1 0x20 ADD ADD DUP2 SWAP1 MSTORE POP DUP1 SWAP2 POP POP SWAP4 SWAP3 POP POP POP JUMP JUMPDEST PUSH0 SLOAD DUP2 JUMP JUMPDEST PUSH0 DUP1 DUP2 SWAP1 SSTORE POP PUSH0 PUSH1 0x1 DUP2 SWAP1 SSTORE POP PUSH0 PUSH1 0x2 PUSH0 PUSH2 0x100 EXP DUP2 SLOAD DUP2 PUSH20 0xFFFFFFFFFFFFFFFFFFFFFFFFFFFFFFFFFFFFFFFF MUL NOT AND SWAP1 DUP4 PUSH20 0xFFFFFFFFFFFFFFFFFFFFFFFFFFFFFFFFFFFFFFFF AND MUL OR SWAP1 SSTORE POP JUMP JUMPDEST PUSH0 PUSH1 0x40 MLOAD SWAP1 POP SWAP1 JUMP JUMPDEST PUSH0 DUP1 REVERT JUMPDEST PUSH0 DUP1 REVERT JUMPDEST PUSH0 DUP2 SWAP1 POP SWAP2 SWAP1 POP JUMP JUMPDEST PUSH2 0x42A DUP2 PUSH2 0x418 JUMP JUMPDEST DUP2 EQ PUSH2 0x434 JUMPI PUSH0 DUP1 REVERT JUMPDEST POP JUMP JUMPDEST PUSH0 DUP2 CALLDATALOAD SWAP1 POP PUSH2 0x445 DUP2 PUSH2 0x421 JUMP JUMPDEST SWAP3 SWAP2 POP POP JUMP JUMPDEST PUSH0 PUSH20 0xFFFFFFFFFFFFFFFFFFFFFFFFFFFFFFFFFFFFFFFF DUP3 AND SWAP1 POP SWAP2 SWAP1 POP JUMP JUMPDEST PUSH0 PUSH2 0x474 DUP3 PUSH2 0x44B JUMP JUMPDEST SWAP1 POP SWAP2 SWAP1 POP JUMP JUMPDEST PUSH2 0x484 DUP2 PUSH2 0x46A JUMP JUMPDEST DUP2 EQ PUSH2 0x48E JUMPI PUSH0 DUP1 REVERT JUMPDEST POP JUMP JUMPDEST PUSH0 DUP2 CALLDATALOAD SWAP1 POP PUSH2 0x49F DUP2 PUSH2 0x47B JUMP JUMPDEST SWAP3 SWAP2 POP POP JUMP JUMPDEST PUSH0 DUP1 PUSH0 PUSH1 0x60 DUP5 DUP7 SUB SLT ISZERO PUSH2 0x4BC JUMPI PUSH2 0x4BB PUSH2 0x410 JUMP JUMPDEST JUMPDEST PUSH0 PUSH2 0x4C9 DUP7 DUP3 DUP8 ADD PUSH2 0x437 JUMP JUMPDEST SWAP4 POP POP PUSH1 0x20 PUSH2 0x4DA DUP7 DUP3 DUP8 ADD PUSH2 0x437 JUMP JUMPDEST SWAP3 POP POP PUSH1 0x40 PUSH2 0x4EB DUP7 DUP3 DUP8 ADD PUSH2 0x491 JUMP JUMPDEST SWAP2 POP POP SWAP3 POP SWAP3 POP SWAP3 JUMP JUMPDEST PUSH2 0x4FE DUP2 PUSH2 0x46A JUMP JUMPDEST DUP3 MSTORE POP POP JUMP JUMPDEST PUSH0 PUSH1 0x20 DUP3 ADD SWAP1 POP PUSH2 0x517 PUSH0 DUP4 ADD DUP5 PUSH2 0x4F5 JUMP JUMPDEST SWAP3 SWAP2 POP POP JUMP JUMPDEST PUSH2 0x526 DUP2 PUSH2 0x418 JUMP JUMPDEST DUP3 MSTORE POP POP JUMP JUMPDEST PUSH0 PUSH1 0x20 DUP3 ADD SWAP1 POP PUSH2 0x53F PUSH0 DUP4 ADD DUP5 PUSH2 0x51D JUMP JUMPDEST SWAP3 SWAP2 POP POP JUMP JUMPDEST PUSH0 DUP1 REVERT JUMPDEST PUSH0 DUP1 REVERT JUMPDEST PUSH0 PUSH1 0x1F NOT PUSH1 0x1F DUP4 ADD AND SWAP1 POP SWAP2 SWAP1 POP JUMP JUMPDEST PUSH32 0x4E487B7100000000000000000000000000000000000000000000000000000000 PUSH0 MSTORE PUSH1 0x41 PUSH1 0x4 MSTORE PUSH1 0x24 PUSH0 REVERT JUMPDEST PUSH2 0x593 DUP3 PUSH2 0x54D JUMP JUMPDEST DUP2 ADD DUP2 DUP2 LT PUSH8 0xFFFFFFFFFFFFFFFF DUP3 GT OR ISZERO PUSH2 0x5B2 JUMPI PUSH2 0x5B1 PUSH2 0x55D JUMP JUMPDEST JUMPDEST DUP1 PUSH1 0x40 MSTORE POP POP POP JUMP JUMPDEST PUSH0 PUSH2 0x5C4 PUSH2 0x407 JUMP JUMPDEST SWAP1 POP PUSH2 0x5D0 DUP3 DUP3 PUSH2 0x58A JUMP JUMPDEST SWAP2 SWAP1 POP JUMP JUMPDEST PUSH0 PUSH8 0xFFFFFFFFFFFFFFFF DUP3 GT ISZERO PUSH2 0x5EF JUMPI PUSH2 0x5EE PUSH2 0x55D JUMP JUMPDEST JUMPDEST PUSH2 0x5F8 DUP3 PUSH2 0x54D JUMP JUMPDEST SWAP1 POP PUSH1 0x20 DUP2 ADD SWAP1 POP SWAP2 SWAP1 POP JUMP JUMPDEST DUP3 DUP2 DUP4 CALLDATACOPY PUSH0 DUP4 DUP4 ADD MSTORE POP POP POP JUMP JUMPDEST PUSH0 PUSH2 0x625 PUSH2 0x620 DUP5 PUSH2 0x5D5 JUMP JUMPDEST PUSH2 0x5BB JUMP JUMPDEST SWAP1 POP DUP3 DUP2 MSTORE PUSH1 0x20 DUP2 ADD DUP5 DUP5 DUP5 ADD GT ISZERO PUSH2 0x641 JUMPI PUSH2 0x640 PUSH2 0x549 JUMP JUMPDEST JUMPDEST PUSH2 0x64C DUP5 DUP3 DUP6 PUSH2 0x605 JUMP JUMPDEST POP SWAP4 SWAP3 POP POP POP JUMP JUMPDEST PUSH0 DUP3 PUSH1 0x1F DUP4 ADD SLT PUSH2 0x668 JUMPI PUSH2 0x667 PUSH2 0x545 JUMP JUMPDEST JUMPDEST DUP2 CALLDATALOAD PUSH2 0x678 DUP5 DUP3 PUSH1 0x20 DUP7 ADD PUSH2 0x613 JUMP JUMPDEST SWAP2 POP POP SWAP3 SWAP2 POP POP JUMP JUMPDEST PUSH0 DUP1 PUSH0 PUSH1 0x60 DUP5 DUP7 SUB SLT ISZERO PUSH2 0x698 JUMPI PUSH2 0x697 PUSH2 0x410 JUMP JUMPDEST JUMPDEST PUSH0 DUP5 ADD CALLDATALOAD PUSH8 0xFFFFFFFFFFFFFFFF DUP2 GT ISZERO PUSH2 0x6B5 JUMPI PUSH2 0x6B4 PUSH2 0x414 JUMP JUMPDEST JUMPDEST PUSH2 0x6C1 DUP7 DUP3 DUP8 ADD PUSH2 0x654 JUMP JUMPDEST SWAP4 POP POP PUSH1 0x20 PUSH2 0x6D2 DUP7 DUP3 DUP8 ADD PUSH2 0x437 JUMP JUMPDEST SWAP3 POP POP PUSH1 0x40 PUSH2 0x6E3 DUP7 DUP3 DUP8 ADD PUSH2 0x437 JUMP JUMPDEST SWAP2 POP POP SWAP3 POP SWAP3 POP SWAP3 JUMP JUMPDEST PUSH0 DUP2 MLOAD SWAP1 POP SWAP2 SWAP1 POP JUMP JUMPDEST PUSH0 DUP3 DUP3 MSTORE PUSH1 0x20 DUP3 ADD SWAP1 POP SWAP3 SWAP2 POP POP JUMP JUMPDEST PUSH0 DUP2 SWAP1 POP PUSH1 0x20 DUP3 ADD SWAP1 POP SWAP2 SWAP1 POP JUMP JUMPDEST PUSH0 DUP2 MLOAD SWAP1 POP SWAP2 SWAP1 POP JUMP JUMPDEST PUSH0 DUP3 DUP3 MSTORE PUSH1 0x20 DUP3 ADD SWAP1 POP SWAP3 SWAP2 POP POP JUMP JUMPDEST PUSH0 JUMPDEST DUP4 DUP2 LT ISZERO PUSH2 0x74D JUMPI DUP1 DUP3 ADD MLOAD DUP2 DUP5 ADD MSTORE PUSH1 0x20 DUP2 ADD SWAP1 POP PUSH2 0x732 JUMP JUMPDEST PUSH0 DUP5 DUP5 ADD MSTORE POP POP POP POP JUMP JUMPDEST PUSH0 PUSH2 0x762 DUP3 PUSH2 0x716 JUMP JUMPDEST PUSH2 0x76C DUP2 DUP6 PUSH2 0x720 JUMP JUMPDEST SWAP4 POP PUSH2 0x77C DUP2 DUP6 PUSH1 0x20 DUP7 ADD PUSH2 0x730 JUMP JUMPDEST PUSH2 0x785 DUP2 PUSH2 0x54D JUMP JUMPDEST DUP5 ADD SWAP2 POP POP SWAP3 SWAP2 POP POP JUMP JUMPDEST PUSH0 PUSH2 0x79B DUP4 DUP4 PUSH2 0x758 JUMP JUMPDEST SWAP1 POP SWAP3 SWAP2 POP POP JUMP JUMPDEST PUSH0 PUSH1 0x20 DUP3 ADD SWAP1 POP SWAP2 SWAP1 POP JUMP JUMPDEST PUSH0 PUSH2 0x7B9 DUP3 PUSH2 0x6ED JUMP JUMPDEST PUSH2 0x7C3 DUP2 DUP6 PUSH2 0x6F7 JUMP JUMPDEST SWAP4 POP DUP4 PUSH1 0x20 DUP3 MUL DUP6 ADD PUSH2 0x7D5 DUP6 PUSH2 0x707 JUMP JUMPDEST DUP1 PUSH0 JUMPDEST DUP6 DUP2 LT ISZERO PUSH2 0x810 JUMPI DUP5 DUP5 SUB DUP10 MSTORE DUP2 MLOAD PUSH2 0x7F1 DUP6 DUP3 PUSH2 0x790 JUMP JUMPDEST SWAP5 POP PUSH2 0x7FC DUP4 PUSH2 0x7A3 JUMP JUMPDEST SWAP3 POP PUSH1 0x20 DUP11 ADD SWAP10 POP POP PUSH1 0x1 DUP2 ADD SWAP1 POP PUSH2 0x7D8 JUMP JUMPDEST POP DUP3 SWAP8 POP DUP8 SWAP6 POP POP POP POP POP POP SWAP3 SWAP2 POP POP JUMP JUMPDEST PUSH0 PUSH1 0x20 DUP3 ADD SWAP1 POP DUP2 DUP2 SUB PUSH0 DUP4 ADD MSTORE PUSH2 0x83A DUP2 DUP5 PUSH2 0x7AF JUMP JUMPDEST SWAP1 POP SWAP3 SWAP2 POP POP JUMP JUMPDEST PUSH0 DUP2 SWAP1 POP SWAP2 SWAP1 POP JUMP JUMPDEST PUSH2 0x854 DUP2 PUSH2 0x842 JUMP JUMPDEST DUP3 MSTORE POP POP JUMP JUMPDEST PUSH0 PUSH1 0x80 DUP3 ADD SWAP1 POP PUSH2 0x86D PUSH0 DUP4 ADD DUP8 PUSH2 0x84B JUMP JUMPDEST PUSH2 0x87A PUSH1 0x20 DUP4 ADD DUP7 PUSH2 0x4F5 JUMP JUMPDEST PUSH2 0x887 PUSH1 0x40 DUP4 ADD DUP6 PUSH2 0x4F5 JUMP JUMPDEST PUSH2 0x894 PUSH1 0x60 DUP4 ADD DUP5 PUSH2 0x51D JUMP JUMPDEST SWAP6 SWAP5 POP POP POP POP POP JUMP JUMPDEST PUSH32 0x4E487B7100000000000000000000000000000000000000000000000000000000 PUSH0 MSTORE PUSH1 0x32 PUSH1 0x4 MSTORE PUSH1 0x24 PUSH0 REVERT JUMPDEST PUSH0 PUSH1 0x60 DUP3 ADD SWAP1 POP PUSH2 0x8DD PUSH0 DUP4 ADD DUP7 PUSH2 0x84B JUMP JUMPDEST PUSH2 0x8EA PUSH1 0x20 DUP4 ADD DUP6 PUSH2 0x51D JUMP JUMPDEST PUSH2 0x8F7 PUSH1 0x40 DUP4 ADD DUP5 PUSH2 0x51D JUMP JUMPDEST SWAP5 SWAP4 POP POP POP POP JUMP INVALID LOG2 PUSH5 0x6970667358 0x22 SLT KECCAK256 DUP7 PUSH24 0x81E0536E4DEECA12AA263ECB38EAE01FB33CBA4D2DFE8EAD 0x2E 0xA7 0x2A PUSH19 0xC07764736F6C6343000814003360A060405230 PUSH20 0xFFFFFFFFFFFFFFFFFFFFFFFFFFFFFFFFFFFFFFFF AND PUSH1 0x80 SWAP1 PUSH20 0xFFFFFFFFFFFFFFFFFFFFFFFFFFFFFFFFFFFFFFFF AND DUP2 MSTORE POP CALLVALUE DUP1 ISZERO PUSH3 0x43 JUMPI PUSH0 DUP1 REVERT JUMPDEST POP PUSH3 0x54 PUSH3 0x5A PUSH1 0x20 SHL PUSH1 0x20 SHR JUMP JUMPDEST PUSH3 0x1C4 JUMP JUMPDEST PUSH0 PUSH3 0x6B PUSH3 0x15E PUSH1 0x20 SHL PUSH1 0x20 SHR JUMP JUMPDEST SWAP1 POP DUP1 PUSH0 ADD PUSH1 0x8 SWAP1 SLOAD SWAP1 PUSH2 0x100 EXP SWAP1 DIV PUSH1 0xFF AND ISZERO PUSH3 0xB6 JUMPI PUSH1 0x40 MLOAD PUSH32 0xF92EE8A900000000000000000000000000000000000000000000000000000000 DUP2 MSTORE PUSH1 0x4 ADD PUSH1 0x40 MLOAD DUP1 SWAP2 SUB SWAP1 REVERT JUMPDEST PUSH8 0xFFFFFFFFFFFFFFFF DUP1 AND DUP2 PUSH0 ADD PUSH0 SWAP1 SLOAD SWAP1 PUSH2 0x100 EXP SWAP1 DIV PUSH8 0xFFFFFFFFFFFFFFFF AND PUSH8 0xFFFFFFFFFFFFFFFF AND EQ PUSH3 0x15B JUMPI PUSH8 0xFFFFFFFFFFFFFFFF DUP2 PUSH0 ADD PUSH0 PUSH2 0x100 EXP DUP2 SLOAD DUP2 PUSH8 0xFFFFFFFFFFFFFFFF MUL NOT AND SWAP1 DUP4 PUSH8 0xFFFFFFFFFFFFFFFF AND MUL OR SWAP1 SSTORE POP PUSH32 0xC7F505B2F371AE2175EE4913F4499E1F2633A7B5936321EED1CDAEB6115181D2 PUSH8 0xFFFFFFFFFFFFFFFF PUSH1 0x40 MLOAD PUSH3 0x152 SWAP2 SWAP1 PUSH3 0x1A9 JUMP JUMPDEST PUSH1 0x40 MLOAD DUP1 SWAP2 SUB SWAP1 LOG1 JUMPDEST POP JUMP JUMPDEST PUSH0 PUSH32 0xF0C57E16840DF040F15088DC2F81FE391C3923BEC73E23A9662EFC9C229C6A00 SWAP1 POP SWAP1 JUMP JUMPDEST PUSH0 PUSH8 0xFFFFFFFFFFFFFFFF DUP3 AND SWAP1 POP SWAP2 SWAP1 POP JUMP JUMPDEST PUSH3 0x1A3 DUP2 PUSH3 0x185 JUMP JUMPDEST DUP3 MSTORE POP POP JUMP JUMPDEST PUSH0 PUSH1 0x20 DUP3 ADD SWAP1 POP PUSH3 0x1BE PUSH0 DUP4 ADD DUP5 PUSH3 0x198 JUMP JUMPDEST SWAP3 SWAP2 POP POP JUMP JUMPDEST PUSH1 0x80 MLOAD PUSH2 0x30C6 PUSH3 0x1EB PUSH0 CODECOPY PUSH0 DUP2 DUP2 PUSH2 0x1592 ADD MSTORE DUP2 DUP2 PUSH2 0x15E7 ADD MSTORE PUSH2 0x17A1 ADD MSTORE PUSH2 0x30C6 PUSH0 RETURN INVALID PUSH1 0x80 PUSH1 0x40 MSTORE PUSH1 0x4 CALLDATASIZE LT PUSH2 0x12D JUMPI PUSH0 CALLDATALOAD PUSH1 0xE0 SHR DUP1 PUSH4 0x715018A6 GT PUSH2 0xAA JUMPI DUP1 PUSH4 0x91DF4837 GT PUSH2 0x6E JUMPI DUP1 PUSH4 0x91DF4837 EQ PUSH2 0x3A7 JUMPI DUP1 PUSH4 0xAD3CB1CC EQ PUSH2 0x3CF JUMPI DUP1 PUSH4 0xB2BEF991 EQ PUSH2 0x3F9 JUMPI DUP1 PUSH4 0xCF756FDF EQ PUSH2 0x423 JUMPI DUP1 PUSH4 0xD9F103CC EQ PUSH2 0x44B JUMPI DUP1 PUSH4 0xF2FDE38B EQ PUSH2 0x475 JUMPI PUSH2 0x134 JUMP JUMPDEST DUP1 PUSH4 0x715018A6 EQ PUSH2 0x2D9 JUMPI DUP1 PUSH4 0x7D526123 EQ PUSH2 0x2EF JUMPI DUP1 PUSH4 0x84D36EB8 EQ PUSH2 0x32B JUMPI DUP1 PUSH4 0x8DA5CB5B EQ PUSH2 0x355 JUMPI DUP1 PUSH4 0x8F0A4E79 EQ PUSH2 0x37F JUMPI PUSH2 0x134 JUMP JUMPDEST DUP1 PUSH4 0x4AF70AC1 GT PUSH2 0xF1 JUMPI DUP1 PUSH4 0x4AF70AC1 EQ PUSH2 0x204 JUMPI DUP1 PUSH4 0x4F1EF286 EQ PUSH2 0x22C JUMPI DUP1 PUSH4 0x52D1902D EQ PUSH2 0x248 JUMPI DUP1 PUSH4 0x55A373D6 EQ PUSH2 0x272 JUMPI DUP1 PUSH4 0x6E04FF0D EQ PUSH2 0x29C JUMPI PUSH2 0x134 JUMP JUMPDEST DUP1 PUSH4 0xA8595B0 EQ PUSH2 0x138 JUMPI DUP1 PUSH4 0x25F2AC0C EQ PUSH2 0x174 JUMPI DUP1 PUSH4 0x33DE61D2 EQ PUSH2 0x19C JUMPI DUP1 PUSH4 0x3CCFD60B EQ PUSH2 0x1C6 JUMPI DUP1 PUSH4 0x4585E33B EQ PUSH2 0x1DC JUMPI PUSH2 0x134 JUMP JUMPDEST CALLDATASIZE PUSH2 0x134 JUMPI STOP JUMPDEST PUSH0 DUP1 REVERT JUMPDEST CALLVALUE DUP1 ISZERO PUSH2 0x143 JUMPI PUSH0 DUP1 REVERT JUMPDEST POP PUSH2 0x15E PUSH1 0x4 DUP1 CALLDATASIZE SUB DUP2 ADD SWAP1 PUSH2 0x159 SWAP2 SWAP1 PUSH2 0x1EB3 JUMP JUMPDEST PUSH2 0x49D JUMP JUMPDEST PUSH1 0x40 MLOAD PUSH2 0x16B SWAP2 SWAP1 PUSH2 0x1EF8 JUMP JUMPDEST PUSH1 0x40 MLOAD DUP1 SWAP2 SUB SWAP1 RETURN JUMPDEST CALLVALUE DUP1 ISZERO PUSH2 0x17F JUMPI PUSH0 DUP1 REVERT JUMPDEST POP PUSH2 0x19A PUSH1 0x4 DUP1 CALLDATASIZE SUB DUP2 ADD SWAP1 PUSH2 0x195 SWAP2 SWAP1 PUSH2 0x1EB3 JUMP JUMPDEST PUSH2 0x4BA JUMP JUMPDEST STOP JUMPDEST CALLVALUE DUP1 ISZERO PUSH2 0x1A7 JUMPI PUSH0 DUP1 REVERT JUMPDEST POP PUSH2 0x1B0 PUSH2 0x524 JUMP JUMPDEST PUSH1 0x40 MLOAD PUSH2 0x1BD SWAP2 SWAP1 PUSH2 0x1F20 JUMP JUMPDEST PUSH1 0x40 MLOAD DUP1 SWAP2 SUB SWAP1 RETURN JUMPDEST CALLVALUE DUP1 ISZERO PUSH2 0x1D1 JUMPI PUSH0 DUP1 REVERT JUMPDEST POP PUSH2 0x1DA PUSH2 0x52A JUMP JUMPDEST STOP JUMPDEST CALLVALUE DUP1 ISZERO PUSH2 0x1E7 JUMPI PUSH0 DUP1 REVERT JUMPDEST POP PUSH2 0x202 PUSH1 0x4 DUP1 CALLDATASIZE SUB DUP2 ADD SWAP1 PUSH2 0x1FD SWAP2 SWAP1 PUSH2 0x1F9A JUMP JUMPDEST PUSH2 0x5E9 JUMP JUMPDEST STOP JUMPDEST CALLVALUE DUP1 ISZERO PUSH2 0x20F JUMPI PUSH0 DUP1 REVERT JUMPDEST POP PUSH2 0x22A PUSH1 0x4 DUP1 CALLDATASIZE SUB DUP2 ADD SWAP1 PUSH2 0x225 SWAP2 SWAP1 PUSH2 0x1EB3 JUMP JUMPDEST PUSH2 0xA42 JUMP JUMPDEST STOP JUMPDEST PUSH2 0x246 PUSH1 0x4 DUP1 CALLDATASIZE SUB DUP2 ADD SWAP1 PUSH2 0x241 SWAP2 SWAP1 PUSH2 0x2177 JUMP JUMPDEST PUSH2 0xA4C JUMP JUMPDEST STOP JUMPDEST CALLVALUE DUP1 ISZERO PUSH2 0x253 JUMPI PUSH0 DUP1 REVERT JUMPDEST POP PUSH2 0x25C PUSH2 0xA6B JUMP JUMPDEST PUSH1 0x40 MLOAD PUSH2 0x269 SWAP2 SWAP1 PUSH2 0x21E9 JUMP JUMPDEST PUSH1 0x40 MLOAD DUP1 SWAP2 SUB SWAP1 RETURN JUMPDEST CALLVALUE DUP1 ISZERO PUSH2 0x27D JUMPI PUSH0 DUP1 REVERT JUMPDEST POP PUSH2 0x286 PUSH2 0xA9C JUMP JUMPDEST PUSH1 0x40 MLOAD PUSH2 0x293 SWAP2 SWAP1 PUSH2 0x225D JUMP JUMPDEST PUSH1 0x40 MLOAD DUP1 SWAP2 SUB SWAP1 RETURN JUMPDEST CALLVALUE DUP1 ISZERO PUSH2 0x2A7 JUMPI PUSH0 DUP1 REVERT JUMPDEST POP PUSH2 0x2C2 PUSH1 0x4 DUP1 CALLDATASIZE SUB DUP2 ADD SWAP1 PUSH2 0x2BD SWAP2 SWAP1 PUSH2 0x1F9A JUMP JUMPDEST PUSH2 0xABF JUMP JUMPDEST PUSH1 0x40 MLOAD PUSH2 0x2D0 SWAP3 SWAP2 SWAP1 PUSH2 0x22F0 JUMP JUMPDEST PUSH1 0x40 MLOAD DUP1 SWAP2 SUB SWAP1 RETURN JUMPDEST CALLVALUE DUP1 ISZERO PUSH2 0x2E4 JUMPI PUSH0 DUP1 REVERT JUMPDEST POP PUSH2 0x2ED PUSH2 0xC17 JUMP JUMPDEST STOP JUMPDEST CALLVALUE DUP1 ISZERO PUSH2 0x2FA JUMPI PUSH0 DUP1 REVERT JUMPDEST POP PUSH2 0x315 PUSH1 0x4 DUP1 CALLDATASIZE SUB DUP2 ADD SWAP1 PUSH2 0x310 SWAP2 SWAP1 PUSH2 0x1EB3 JUMP JUMPDEST PUSH2 0xC2A JUMP JUMPDEST PUSH1 0x40 MLOAD PUSH2 0x322 SWAP2 SWAP1 PUSH2 0x1EF8 JUMP JUMPDEST PUSH1 0x40 MLOAD DUP1 SWAP2 SUB SWAP1 RETURN JUMPDEST CALLVALUE DUP1 ISZERO PUSH2 0x336 JUMPI PUSH0 DUP1 REVERT JUMPDEST POP PUSH2 0x33F PUSH2 0xC47 JUMP JUMPDEST PUSH1 0x40 MLOAD PUSH2 0x34C SWAP2 SWAP1 PUSH2 0x1F20 JUMP JUMPDEST PUSH1 0x40 MLOAD DUP1 SWAP2 SUB SWAP1 RETURN JUMPDEST CALLVALUE DUP1 ISZERO PUSH2 0x360 JUMPI PUSH0 DUP1 REVERT JUMPDEST POP PUSH2 0x369 PUSH2 0xC53 JUMP JUMPDEST PUSH1 0x40 MLOAD PUSH2 0x376 SWAP2 SWAP1 PUSH2 0x232D JUMP JUMPDEST PUSH1 0x40 MLOAD DUP1 SWAP2 SUB SWAP1 RETURN JUMPDEST CALLVALUE DUP1 ISZERO PUSH2 0x38A JUMPI PUSH0 DUP1 REVERT JUMPDEST POP PUSH2 0x3A5 PUSH1 0x4 DUP1 CALLDATASIZE SUB DUP2 ADD SWAP1 PUSH2 0x3A0 SWAP2 SWAP1 PUSH2 0x1EB3 JUMP JUMPDEST PUSH2 0xC88 JUMP JUMPDEST STOP JUMPDEST CALLVALUE DUP1 ISZERO PUSH2 0x3B2 JUMPI PUSH0 DUP1 REVERT JUMPDEST POP PUSH2 0x3CD PUSH1 0x4 DUP1 CALLDATASIZE SUB DUP2 ADD SWAP1 PUSH2 0x3C8 SWAP2 SWAP1 PUSH2 0x1EB3 JUMP JUMPDEST PUSH2 0xCF3 JUMP JUMPDEST STOP JUMPDEST CALLVALUE DUP1 ISZERO PUSH2 0x3DA JUMPI PUSH0 DUP1 REVERT JUMPDEST POP PUSH2 0x3E3 PUSH2 0xD05 JUMP JUMPDEST PUSH1 0x40 MLOAD PUSH2 0x3F0 SWAP2 SWAP1 PUSH2 0x2398 JUMP JUMPDEST PUSH1 0x40 MLOAD DUP1 SWAP2 SUB SWAP1 RETURN JUMPDEST CALLVALUE DUP1 ISZERO PUSH2 0x404 JUMPI PUSH0 DUP1 REVERT JUMPDEST POP PUSH2 0x40D PUSH2 0xD3E JUMP JUMPDEST PUSH1 0x40 MLOAD PUSH2 0x41A SWAP2 SWAP1 PUSH2 0x1F20 JUMP JUMPDEST PUSH1 0x40 MLOAD DUP1 SWAP2 SUB SWAP1 RETURN JUMPDEST CALLVALUE DUP1 ISZERO PUSH2 0x42E JUMPI PUSH0 DUP1 REVERT JUMPDEST POP PUSH2 0x449 PUSH1 0x4 DUP1 CALLDATASIZE SUB DUP2 ADD SWAP1 PUSH2 0x444 SWAP2 SWAP1 PUSH2 0x23B8 JUMP JUMPDEST PUSH2 0xD44 JUMP JUMPDEST STOP JUMPDEST CALLVALUE DUP1 ISZERO PUSH2 0x456 JUMPI PUSH0 DUP1 REVERT JUMPDEST POP PUSH2 0x45F PUSH2 0xF5D JUMP JUMPDEST PUSH1 0x40 MLOAD PUSH2 0x46C SWAP2 SWAP1 PUSH2 0x243C JUMP JUMPDEST PUSH1 0x40 MLOAD DUP1 SWAP2 SUB SWAP1 RETURN JUMPDEST CALLVALUE DUP1 ISZERO PUSH2 0x480 JUMPI PUSH0 DUP1 REVERT JUMPDEST POP PUSH2 0x49B PUSH1 0x4 DUP1 CALLDATASIZE SUB DUP2 ADD SWAP1 PUSH2 0x496 SWAP2 SWAP1 PUSH2 0x2455 JUMP JUMPDEST PUSH2 0xF82 JUMP JUMPDEST STOP JUMPDEST PUSH1 0x3 PUSH1 0x20 MSTORE DUP1 PUSH0 MSTORE PUSH1 0x40 PUSH0 KECCAK256 PUSH0 SWAP2 POP SLOAD SWAP1 PUSH2 0x100 EXP SWAP1 DIV PUSH1 0xFF AND DUP2 JUMP JUMPDEST PUSH2 0x4C2 PUSH2 0x1006 JUMP JUMPDEST PUSH0 PUSH1 0x2 PUSH0 DUP4 DUP2 MSTORE PUSH1 0x20 ADD SWAP1 DUP2 MSTORE PUSH1 0x20 ADD PUSH0 KECCAK256 PUSH0 PUSH2 0x100 EXP DUP2 SLOAD DUP2 PUSH1 0xFF MUL NOT AND SWAP1 DUP4 ISZERO ISZERO MUL OR SWAP1 SSTORE POP PUSH32 0x6CA79568A4FBC7C3D5258A888EBA43ABB327A7E69413D79FB33246892A2005C6 DUP2 PUSH1 0x40 MLOAD PUSH2 0x519 SWAP2 SWAP1 PUSH2 0x1F20 JUMP JUMPDEST PUSH1 0x40 MLOAD DUP1 SWAP2 SUB SWAP1 LOG1 POP JUMP JUMPDEST PUSH1 0x4 SLOAD DUP2 JUMP JUMPDEST PUSH2 0x532 PUSH2 0x1006 JUMP JUMPDEST PUSH0 SELFBALANCE SWAP1 POP PUSH0 PUSH2 0x53F PUSH2 0xC53 JUMP JUMPDEST PUSH20 0xFFFFFFFFFFFFFFFFFFFFFFFFFFFFFFFFFFFFFFFF AND DUP3 PUSH1 0x40 MLOAD PUSH2 0x562 SWAP1 PUSH2 0x24AD JUMP JUMPDEST PUSH0 PUSH1 0x40 MLOAD DUP1 DUP4 SUB DUP2 DUP6 DUP8 GAS CALL SWAP3 POP POP POP RETURNDATASIZE DUP1 PUSH0 DUP2 EQ PUSH2 0x59C JUMPI PUSH1 0x40 MLOAD SWAP2 POP PUSH1 0x1F NOT PUSH1 0x3F RETURNDATASIZE ADD AND DUP3 ADD PUSH1 0x40 MSTORE RETURNDATASIZE DUP3 MSTORE RETURNDATASIZE PUSH0 PUSH1 0x20 DUP5 ADD RETURNDATACOPY PUSH2 0x5A1 JUMP JUMPDEST PUSH1 0x60 SWAP2 POP JUMPDEST POP POP SWAP1 POP DUP1 PUSH2 0x5E5 JUMPI PUSH1 0x40 MLOAD PUSH32 0x8C379A000000000000000000000000000000000000000000000000000000000 DUP2 MSTORE PUSH1 0x4 ADD PUSH2 0x5DC SWAP1 PUSH2 0x250B JUMP JUMPDEST PUSH1 0x40 MLOAD DUP1 SWAP2 SUB SWAP1 REVERT JUMPDEST POP POP JUMP JUMPDEST PUSH0 DUP3 DUP3 DUP2 ADD SWAP1 PUSH2 0x5F9 SWAP2 SWAP1 PUSH2 0x263E JUMP JUMPDEST SWAP1 POP PUSH0 DUP1 DUP5 DUP5 DUP2 ADD SWAP1 PUSH2 0x60C SWAP2 SWAP1 PUSH2 0x2685 JUMP JUMPDEST SWAP2 POP SWAP2 POP DUP1 DUP3 LT PUSH2 0x652 JUMPI PUSH1 0x40 MLOAD PUSH32 0x8C379A000000000000000000000000000000000000000000000000000000000 DUP2 MSTORE PUSH1 0x4 ADD PUSH2 0x649 SWAP1 PUSH2 0x270D JUMP JUMPDEST PUSH1 0x40 MLOAD DUP1 SWAP2 SUB SWAP1 REVERT JUMPDEST PUSH2 0x65B DUP4 PUSH2 0x108D JUMP JUMPDEST PUSH32 0xE249469F7B39ADED395977D72AADA6EB8D180163777E9CF2A77EADB63178C6A7 DUP3 DUP3 PUSH1 0x40 MLOAD PUSH2 0x68C SWAP3 SWAP2 SWAP1 PUSH2 0x272B JUMP JUMPDEST PUSH1 0x40 MLOAD DUP1 SWAP2 SUB SWAP1 LOG1 PUSH0 DUP3 SWAP1 POP PUSH0 DUP1 DUP5 SWAP1 POP JUMPDEST DUP4 DUP2 GT ISZERO DUP1 ISZERO PUSH2 0x6AF JUMPI POP PUSH1 0x5 SLOAD DUP3 LT JUMPDEST ISZERO PUSH2 0x9F6 JUMPI PUSH0 DUP1 PUSH1 0x1 PUSH0 SWAP1 SLOAD SWAP1 PUSH2 0x100 EXP SWAP1 DIV PUSH20 0xFFFFFFFFFFFFFFFFFFFFFFFFFFFFFFFFFFFFFFFF AND PUSH20 0xFFFFFFFFFFFFFFFFFFFFFFFFFFFFFFFFFFFFFFFF AND DUP4 DUP5 PUSH1 0x40 MLOAD PUSH1 0x24 ADD PUSH2 0x701 SWAP3 SWAP2 SWAP1 PUSH2 0x279C JUMP JUMPDEST PUSH1 0x40 MLOAD PUSH1 0x20 DUP2 DUP4 SUB SUB DUP2 MSTORE SWAP1 PUSH1 0x40 MSTORE PUSH32 0xAA1DA92700000000000000000000000000000000000000000000000000000000 PUSH28 0xFFFFFFFFFFFFFFFFFFFFFFFFFFFFFFFFFFFFFFFFFFFFFFFFFFFFFFFF NOT AND PUSH1 0x20 DUP3 ADD DUP1 MLOAD PUSH28 0xFFFFFFFFFFFFFFFFFFFFFFFFFFFFFFFFFFFFFFFFFFFFFFFFFFFFFFFF DUP4 DUP2 DUP4 AND OR DUP4 MSTORE POP POP POP POP PUSH1 0x40 MLOAD PUSH2 0x78B SWAP2 SWAP1 PUSH2 0x2806 JUMP JUMPDEST PUSH0 PUSH1 0x40 MLOAD DUP1 DUP4 SUB DUP2 DUP6 GAS STATICCALL SWAP2 POP POP RETURNDATASIZE DUP1 PUSH0 DUP2 EQ PUSH2 0x7C3 JUMPI PUSH1 0x40 MLOAD SWAP2 POP PUSH1 0x1F NOT PUSH1 0x3F RETURNDATASIZE ADD AND DUP3 ADD PUSH1 0x40 MSTORE RETURNDATASIZE DUP3 MSTORE RETURNDATASIZE PUSH0 PUSH1 0x20 DUP5 ADD RETURNDATACOPY PUSH2 0x7C8 JUMP JUMPDEST PUSH1 0x60 SWAP2 POP JUMPDEST POP SWAP2 POP SWAP2 POP DUP2 PUSH2 0x80D JUMPI PUSH1 0x40 MLOAD PUSH32 0x8C379A000000000000000000000000000000000000000000000000000000000 DUP2 MSTORE PUSH1 0x4 ADD PUSH2 0x804 SWAP1 PUSH2 0x2866 JUMP JUMPDEST PUSH1 0x40 MLOAD DUP1 SWAP2 SUB SWAP1 REVERT JUMPDEST PUSH0 DUP2 MLOAD GT ISZERO PUSH2 0x9DE JUMPI PUSH0 DUP2 DUP1 PUSH1 0x20 ADD SWAP1 MLOAD DUP2 ADD SWAP1 PUSH2 0x82B SWAP2 SWAP1 PUSH2 0x29D0 JUMP JUMPDEST SWAP1 POP PUSH0 PUSH2 0x837 DUP3 PUSH2 0x10C7 JUMP JUMPDEST SWAP1 POP PUSH0 JUMPDEST DUP2 MLOAD DUP2 LT ISZERO PUSH2 0x9DA JUMPI PUSH1 0x2 PUSH0 DUP4 DUP4 DUP2 MLOAD DUP2 LT PUSH2 0x85A JUMPI PUSH2 0x859 PUSH2 0x2A17 JUMP JUMPDEST JUMPDEST PUSH1 0x20 MUL PUSH1 0x20 ADD ADD MLOAD PUSH0 ADD MLOAD DUP2 MSTORE PUSH1 0x20 ADD SWAP1 DUP2 MSTORE PUSH1 0x20 ADD PUSH0 KECCAK256 PUSH0 SWAP1 SLOAD SWAP1 PUSH2 0x100 EXP SWAP1 DIV PUSH1 0xFF AND DUP1 ISZERO PUSH2 0x8C4 JUMPI POP PUSH1 0x3 PUSH0 DUP4 DUP4 DUP2 MLOAD DUP2 LT PUSH2 0x89C JUMPI PUSH2 0x89B PUSH2 0x2A17 JUMP JUMPDEST JUMPDEST PUSH1 0x20 MUL PUSH1 0x20 ADD ADD MLOAD PUSH1 0x20 ADD MLOAD DUP2 MSTORE PUSH1 0x20 ADD SWAP1 DUP2 MSTORE PUSH1 0x20 ADD PUSH0 KECCAK256 PUSH0 SWAP1 SLOAD SWAP1 PUSH2 0x100 EXP SWAP1 DIV PUSH1 0xFF AND ISZERO JUMPDEST ISZERO PUSH2 0x9C7 JUMPI PUSH1 0x1 PUSH1 0x3 PUSH0 DUP5 DUP5 DUP2 MLOAD DUP2 LT PUSH2 0x8E1 JUMPI PUSH2 0x8E0 PUSH2 0x2A17 JUMP JUMPDEST JUMPDEST PUSH1 0x20 MUL PUSH1 0x20 ADD ADD MLOAD PUSH1 0x20 ADD MLOAD DUP2 MSTORE PUSH1 0x20 ADD SWAP1 DUP2 MSTORE PUSH1 0x20 ADD PUSH0 KECCAK256 PUSH0 PUSH2 0x100 EXP DUP2 SLOAD DUP2 PUSH1 0xFF MUL NOT AND SWAP1 DUP4 ISZERO ISZERO MUL OR SWAP1 SSTORE POP PUSH0 PUSH2 0x975 DUP4 DUP4 DUP2 MLOAD DUP2 LT PUSH2 0x927 JUMPI PUSH2 0x926 PUSH2 0x2A17 JUMP JUMPDEST JUMPDEST PUSH1 0x20 MUL PUSH1 0x20 ADD ADD MLOAD PUSH1 0x40 ADD MLOAD DUP5 DUP5 DUP2 MLOAD DUP2 LT PUSH2 0x946 JUMPI PUSH2 0x945 PUSH2 0x2A17 JUMP JUMPDEST JUMPDEST PUSH1 0x20 MUL PUSH1 0x20 ADD ADD MLOAD PUSH0 ADD MLOAD DUP6 DUP6 DUP2 MLOAD DUP2 LT PUSH2 0x964 JUMPI PUSH2 0x963 PUSH2 0x2A17 JUMP JUMPDEST JUMPDEST PUSH1 0x20 MUL PUSH1 0x20 ADD ADD MLOAD PUSH1 0x20 ADD MLOAD PUSH2 0x13AE JUMP JUMPDEST SWAP1 POP DUP1 PUSH2 0x9B7 JUMPI PUSH1 0x40 MLOAD PUSH32 0x8C379A000000000000000000000000000000000000000000000000000000000 DUP2 MSTORE PUSH1 0x4 ADD PUSH2 0x9AE SWAP1 PUSH2 0x2A8E JUMP JUMPDEST PUSH1 0x40 MLOAD DUP1 SWAP2 SUB SWAP1 REVERT JUMPDEST DUP8 DUP1 PUSH2 0x9C2 SWAP1 PUSH2 0x2AD9 JUMP JUMPDEST SWAP9 POP POP POP JUMPDEST DUP1 DUP1 PUSH2 0x9D2 SWAP1 PUSH2 0x2AD9 JUMP JUMPDEST SWAP2 POP POP PUSH2 0x83B JUMP JUMPDEST POP POP POP JUMPDEST DUP3 SWAP5 POP POP POP DUP1 DUP1 PUSH2 0x9EE SWAP1 PUSH2 0x2AD9 JUMP JUMPDEST SWAP2 POP POP PUSH2 0x69E JUMP JUMPDEST POP DUP2 PUSH1 0x4 DUP2 SWAP1 SSTORE POP PUSH32 0xB3DAE2836EC417155D7CB49974327BA141B98A4B1E259B26A3929E3F6AA2A985 DUP5 DUP4 DUP4 PUSH1 0x40 MLOAD PUSH2 0xA31 SWAP4 SWAP3 SWAP2 SWAP1 PUSH2 0x2B20 JUMP JUMPDEST PUSH1 0x40 MLOAD DUP1 SWAP2 SUB SWAP1 LOG1 POP POP POP POP POP POP POP JUMP JUMPDEST DUP1 PUSH1 0x4 DUP2 SWAP1 SSTORE POP POP JUMP JUMPDEST PUSH2 0xA54 PUSH2 0x1590 JUMP JUMPDEST PUSH2 0xA5D DUP3 PUSH2 0x1676 JUMP JUMPDEST PUSH2 0xA67 DUP3 DUP3 PUSH2 0x1681 JUMP JUMPDEST POP POP JUMP JUMPDEST PUSH0 PUSH2 0xA74 PUSH2 0x179F JUMP JUMPDEST PUSH32 0x360894A13BA1A3210667C828492DB98DCA3E2076CC3735A920A3CA505D382BBC PUSH0 SHL SWAP1 POP SWAP1 JUMP JUMPDEST PUSH0 DUP1 SLOAD SWAP1 PUSH2 0x100 EXP SWAP1 DIV PUSH20 0xFFFFFFFFFFFFFFFFFFFFFFFFFFFFFFFFFFFFFFFF AND DUP2 JUMP JUMPDEST PUSH0 PUSH1 0x60 PUSH0 NUMBER SWAP1 POP PUSH0 PUSH1 0x1 PUSH1 0x4 SLOAD PUSH2 0xAD6 SWAP2 SWAP1 PUSH2 0x2B55 JUMP JUMPDEST SWAP1 POP PUSH2 0xC350 DUP3 PUSH2 0xAE6 SWAP2 SWAP1 PUSH2 0x2B88 JUMP JUMPDEST DUP2 LT ISZERO PUSH2 0xAFE JUMPI PUSH2 0xC350 DUP3 PUSH2 0xAFB SWAP2 SWAP1 PUSH2 0x2B88 JUMP JUMPDEST SWAP1 POP JUMPDEST PUSH0 PUSH2 0xB22 PUSH1 0x1 PUSH1 0x5 SLOAD DUP5 PUSH2 0xB12 SWAP2 SWAP1 PUSH2 0x2B55 JUMP JUMPDEST PUSH2 0xB1C SWAP2 SWAP1 PUSH2 0x2B88 JUMP JUMPDEST DUP5 PUSH2 0x1826 JUMP JUMPDEST SWAP1 POP PUSH0 PUSH1 0x4 SLOAD DUP5 PUSH2 0xB33 SWAP2 SWAP1 PUSH2 0x2B88 JUMP JUMPDEST SWAP1 POP DUP4 DUP4 GT ISZERO SWAP6 POP PUSH0 PUSH1 0x40 MLOAD DUP1 PUSH2 0x100 ADD PUSH1 0x40 MSTORE DUP1 CALLER PUSH20 0xFFFFFFFFFFFFFFFFFFFFFFFFFFFFFFFFFFFFFFFF AND DUP2 MSTORE PUSH1 0x20 ADD ADDRESS PUSH20 0xFFFFFFFFFFFFFFFFFFFFFFFFFFFFFFFFFFFFFFFF AND DUP2 MSTORE PUSH1 0x20 ADD DUP11 DUP11 DUP1 DUP1 PUSH1 0x1F ADD PUSH1 0x20 DUP1 SWAP2 DIV MUL PUSH1 0x20 ADD PUSH1 0x40 MLOAD SWAP1 DUP2 ADD PUSH1 0x40 MSTORE DUP1 SWAP4 SWAP3 SWAP2 SWAP1 DUP2 DUP2 MSTORE PUSH1 0x20 ADD DUP4 DUP4 DUP1 DUP3 DUP5 CALLDATACOPY PUSH0 DUP2 DUP5 ADD MSTORE PUSH1 0x1F NOT PUSH1 0x1F DUP3 ADD AND SWAP1 POP DUP1 DUP4 ADD SWAP3 POP POP POP POP POP POP POP DUP2 MSTORE PUSH1 0x20 ADD DUP7 DUP2 MSTORE PUSH1 0x20 ADD DUP6 DUP2 MSTORE PUSH1 0x20 ADD DUP5 DUP2 MSTORE PUSH1 0x20 ADD DUP4 DUP2 MSTORE PUSH1 0x20 ADD DUP9 ISZERO ISZERO DUP2 MSTORE POP SWAP1 POP DUP1 PUSH1 0x40 MLOAD PUSH1 0x20 ADD PUSH2 0xBFA SWAP2 SWAP1 PUSH2 0x2CDD JUMP JUMPDEST PUSH1 0x40 MLOAD PUSH1 0x20 DUP2 DUP4 SUB SUB DUP2 MSTORE SWAP1 PUSH1 0x40 MSTORE SWAP6 POP POP POP POP POP POP SWAP3 POP SWAP3 SWAP1 POP JUMP JUMPDEST PUSH2 0xC1F PUSH2 0x1006 JUMP JUMPDEST PUSH2 0xC28 PUSH0 PUSH2 0x183E JUMP JUMPDEST JUMP JUMPDEST PUSH1 0x2 PUSH1 0x20 MSTORE DUP1 PUSH0 MSTORE PUSH1 0x40 PUSH0 KECCAK256 PUSH0 SWAP2 POP SLOAD SWAP1 PUSH2 0x100 EXP SWAP1 DIV PUSH1 0xFF AND DUP2 JUMP JUMPDEST PUSH8 0x29A2241AF62C0000 DUP2 JUMP JUMPDEST PUSH0 DUP1 PUSH2 0xC5D PUSH2 0x190F JUMP JUMPDEST SWAP1 POP DUP1 PUSH0 ADD PUSH0 SWAP1 SLOAD SWAP1 PUSH2 0x100 EXP SWAP1 DIV PUSH20 0xFFFFFFFFFFFFFFFFFFFFFFFFFFFFFFFFFFFFFFFF AND SWAP2 POP POP SWAP1 JUMP JUMPDEST PUSH2 0xC90 PUSH2 0x1006 JUMP JUMPDEST PUSH1 0x1 PUSH1 0x2 PUSH0 DUP4 DUP2 MSTORE PUSH1 0x20 ADD SWAP1 DUP2 MSTORE PUSH1 0x20 ADD PUSH0 KECCAK256 PUSH0 PUSH2 0x100 EXP DUP2 SLOAD DUP2 PUSH1 0xFF MUL NOT AND SWAP1 DUP4 ISZERO ISZERO MUL OR SWAP1 SSTORE POP PUSH32 0x814DF98756119FAB646D8A3F4596857BC1C0918D67A622EB8CCC11B34A7202F1 DUP2 PUSH1 0x40 MLOAD PUSH2 0xCE8 SWAP2 SWAP1 PUSH2 0x1F20 JUMP JUMPDEST PUSH1 0x40 MLOAD DUP1 SWAP2 SUB SWAP1 LOG1 POP JUMP JUMPDEST PUSH2 0xCFB PUSH2 0x1006 JUMP JUMPDEST DUP1 PUSH1 0x5 DUP2 SWAP1 SSTORE POP POP JUMP JUMPDEST PUSH1 0x40 MLOAD DUP1 PUSH1 0x40 ADD PUSH1 0x40 MSTORE DUP1 PUSH1 0x5 DUP2 MSTORE PUSH1 0x20 ADD PUSH32 0x352E302E30000000000000000000000000000000000000000000000000000000 DUP2 MSTORE POP DUP2 JUMP JUMPDEST PUSH1 0x5 SLOAD DUP2 JUMP JUMPDEST PUSH0 PUSH2 0xD4D PUSH2 0x1936 JUMP JUMPDEST SWAP1 POP PUSH0 DUP2 PUSH0 ADD PUSH1 0x8 SWAP1 SLOAD SWAP1 PUSH2 0x100 EXP SWAP1 DIV PUSH1 0xFF AND ISZERO SWAP1 POP PUSH0 DUP3 PUSH0 ADD PUSH0 SWAP1 SLOAD SWAP1 PUSH2 0x100 EXP SWAP1 DIV PUSH8 0xFFFFFFFFFFFFFFFF AND SWAP1 POP PUSH0 DUP1 DUP3 PUSH8 0xFFFFFFFFFFFFFFFF AND EQ DUP1 ISZERO PUSH2 0xD95 JUMPI POP DUP3 JUMPDEST SWAP1 POP PUSH0 PUSH1 0x1 DUP4 PUSH8 0xFFFFFFFFFFFFFFFF AND EQ DUP1 ISZERO PUSH2 0xDC8 JUMPI POP PUSH0 ADDRESS PUSH20 0xFFFFFFFFFFFFFFFFFFFFFFFFFFFFFFFFFFFFFFFF AND EXTCODESIZE EQ JUMPDEST SWAP1 POP DUP2 ISZERO DUP1 ISZERO PUSH2 0xDD6 JUMPI POP DUP1 ISZERO JUMPDEST ISZERO PUSH2 0xE0D JUMPI PUSH1 0x40 MLOAD PUSH32 0xF92EE8A900000000000000000000000000000000000000000000000000000000 DUP2 MSTORE PUSH1 0x4 ADD PUSH1 0x40 MLOAD DUP1 SWAP2 SUB SWAP1 REVERT JUMPDEST PUSH1 0x1 DUP6 PUSH0 ADD PUSH0 PUSH2 0x100 EXP DUP2 SLOAD DUP2 PUSH8 0xFFFFFFFFFFFFFFFF MUL NOT AND SWAP1 DUP4 PUSH8 0xFFFFFFFFFFFFFFFF AND MUL OR SWAP1 SSTORE POP DUP4 ISZERO PUSH2 0xE5A JUMPI PUSH1 0x1 DUP6 PUSH0 ADD PUSH1 0x8 PUSH2 0x100 EXP DUP2 SLOAD DUP2 PUSH1 0xFF MUL NOT AND SWAP1 DUP4 ISZERO ISZERO MUL OR SWAP1 SSTORE POP JUMPDEST PUSH2 0xE63 DUP10 PUSH2 0x195D JUMP JUMPDEST PUSH2 0xE6B PUSH2 0x1971 JUMP JUMPDEST DUP8 PUSH0 DUP1 PUSH2 0x100 EXP DUP2 SLOAD DUP2 PUSH20 0xFFFFFFFFFFFFFFFFFFFFFFFFFFFFFFFFFFFFFFFF MUL NOT AND SWAP1 DUP4 PUSH20 0xFFFFFFFFFFFFFFFFFFFFFFFFFFFFFFFFFFFFFFFF AND MUL OR SWAP1 SSTORE POP DUP7 PUSH1 0x1 PUSH0 PUSH2 0x100 EXP DUP2 SLOAD DUP2 PUSH20 0xFFFFFFFFFFFFFFFFFFFFFFFFFFFFFFFFFFFFFFFF MUL NOT AND SWAP1 DUP4 PUSH20 0xFFFFFFFFFFFFFFFFFFFFFFFFFFFFFFFFFFFFFFFF AND MUL OR SWAP1 SSTORE POP NUMBER PUSH1 0x4 DUP2 SWAP1 SSTORE POP DUP6 PUSH1 0x5 DUP2 SWAP1 SSTORE POP DUP4 ISZERO PUSH2 0xF52 JUMPI PUSH0 DUP6 PUSH0 ADD PUSH1 0x8 PUSH2 0x100 EXP DUP2 SLOAD DUP2 PUSH1 0xFF MUL NOT AND SWAP1 DUP4 ISZERO ISZERO MUL OR SWAP1 SSTORE POP PUSH32 0xC7F505B2F371AE2175EE4913F4499E1F2633A7B5936321EED1CDAEB6115181D2 PUSH1 0x1 PUSH1 0x40 MLOAD PUSH2 0xF49 SWAP2 SWAP1 PUSH2 0x2D49 JUMP JUMPDEST PUSH1 0x40 MLOAD DUP1 SWAP2 SUB SWAP1 LOG1 JUMPDEST POP POP POP POP POP POP POP POP POP JUMP JUMPDEST PUSH1 0x1 PUSH0 SWAP1 SLOAD SWAP1 PUSH2 0x100 EXP SWAP1 DIV PUSH20 0xFFFFFFFFFFFFFFFFFFFFFFFFFFFFFFFFFFFFFFFF AND DUP2 JUMP JUMPDEST PUSH2 0xF8A PUSH2 0x1006 JUMP JUMPDEST PUSH0 PUSH20 0xFFFFFFFFFFFFFFFFFFFFFFFFFFFFFFFFFFFFFFFF AND DUP2 PUSH20 0xFFFFFFFFFFFFFFFFFFFFFFFFFFFFFFFFFFFFFFFF AND SUB PUSH2 0xFFA JUMPI PUSH0 PUSH1 0x40 MLOAD PUSH32 0x1E4FBDF700000000000000000000000000000000000000000000000000000000 DUP2 MSTORE PUSH1 0x4 ADD PUSH2 0xFF1 SWAP2 SWAP1 PUSH2 0x232D JUMP JUMPDEST PUSH1 0x40 MLOAD DUP1 SWAP2 SUB SWAP1 REVERT JUMPDEST PUSH2 0x1003 DUP2 PUSH2 0x183E JUMP JUMPDEST POP JUMP JUMPDEST PUSH2 0x100E PUSH2 0x197B JUMP JUMPDEST PUSH20 0xFFFFFFFFFFFFFFFFFFFFFFFFFFFFFFFFFFFFFFFF AND PUSH2 0x102C PUSH2 0xC53 JUMP JUMPDEST PUSH20 0xFFFFFFFFFFFFFFFFFFFFFFFFFFFFFFFFFFFFFFFF AND EQ PUSH2 0x108B JUMPI PUSH2 0x104F PUSH2 0x197B JUMP JUMPDEST PUSH1 0x40 MLOAD PUSH32 0x118CDAA700000000000000000000000000000000000000000000000000000000 DUP2 MSTORE PUSH1 0x4 ADD PUSH2 0x1082 SWAP2 SWAP1 PUSH2 0x232D JUMP JUMPDEST PUSH1 0x40 MLOAD DUP1 SWAP2 SUB SWAP1 REVERT JUMPDEST JUMP JUMPDEST PUSH32 0xE77CE703F600AED72790F32F6C8AB33204233AE19ABEC2DF986F777B640A451A DUP2 PUSH1 0x40 MLOAD PUSH2 0x10BC SWAP2 SWAP1 PUSH2 0x2CDD JUMP JUMPDEST PUSH1 0x40 MLOAD DUP1 SWAP2 SUB SWAP1 LOG1 POP JUMP JUMPDEST PUSH1 0x60 PUSH1 0x2 DUP3 MLOAD PUSH2 0x10D7 SWAP2 SWAP1 PUSH2 0x2D8F JUMP JUMPDEST PUSH8 0xFFFFFFFFFFFFFFFF DUP2 GT ISZERO PUSH2 0x10F0 JUMPI PUSH2 0x10EF PUSH2 0x2053 JUMP JUMPDEST JUMPDEST PUSH1 0x40 MLOAD SWAP1 DUP1 DUP3 MSTORE DUP1 PUSH1 0x20 MUL PUSH1 0x20 ADD DUP3 ADD PUSH1 0x40 MSTORE DUP1 ISZERO PUSH2 0x1129 JUMPI DUP2 PUSH1 0x20 ADD JUMPDEST PUSH2 0x1116 PUSH2 0x1E3B JUMP JUMPDEST DUP2 MSTORE PUSH1 0x20 ADD SWAP1 PUSH1 0x1 SWAP1 SUB SWAP1 DUP2 PUSH2 0x110E JUMPI SWAP1 POP JUMPDEST POP SWAP1 POP PUSH0 DUP1 JUMPDEST DUP4 MLOAD DUP2 LT ISZERO PUSH2 0x13A4 JUMPI PUSH0 PUSH2 0x1167 PUSH2 0x1162 DUP7 DUP5 DUP2 MLOAD DUP2 LT PUSH2 0x1152 JUMPI PUSH2 0x1151 PUSH2 0x2A17 JUMP JUMPDEST JUMPDEST PUSH1 0x20 MUL PUSH1 0x20 ADD ADD MLOAD PUSH0 PUSH1 0x20 PUSH2 0x1982 JUMP JUMPDEST PUSH2 0x19FF JUMP JUMPDEST SWAP1 POP PUSH32 0xDDF252AD1BE2C89B69C2B068FC378DAA952BA7F163C4A11628F55A4DF523B3EF DUP2 SUB PUSH2 0x1271 JUMPI PUSH0 PUSH2 0x11C0 PUSH2 0x11BB DUP8 DUP6 DUP2 MLOAD DUP2 LT PUSH2 0x11AA JUMPI PUSH2 0x11A9 PUSH2 0x2A17 JUMP JUMPDEST JUMPDEST PUSH1 0x20 MUL PUSH1 0x20 ADD ADD MLOAD PUSH1 0x20 PUSH1 0x14 PUSH2 0x1982 JUMP JUMPDEST PUSH2 0x1A11 JUMP JUMPDEST SWAP1 POP PUSH0 PUSH2 0x11F2 PUSH2 0x11ED DUP9 DUP7 DUP2 MLOAD DUP2 LT PUSH2 0x11DC JUMPI PUSH2 0x11DB PUSH2 0x2A17 JUMP JUMPDEST JUMPDEST PUSH1 0x20 MUL PUSH1 0x20 ADD ADD MLOAD PUSH1 0x40 PUSH1 0x20 PUSH2 0x1982 JUMP JUMPDEST PUSH2 0x1A23 JUMP JUMPDEST SWAP1 POP DUP2 DUP7 DUP7 DUP2 MLOAD DUP2 LT PUSH2 0x1208 JUMPI PUSH2 0x1207 PUSH2 0x2A17 JUMP JUMPDEST JUMPDEST PUSH1 0x20 MUL PUSH1 0x20 ADD ADD MLOAD PUSH1 0x40 ADD SWAP1 PUSH20 0xFFFFFFFFFFFFFFFFFFFFFFFFFFFFFFFFFFFFFFFF AND SWAP1 DUP2 PUSH20 0xFFFFFFFFFFFFFFFFFFFFFFFFFFFFFFFFFFFFFFFF AND DUP2 MSTORE POP POP DUP1 DUP7 DUP7 DUP2 MLOAD DUP2 LT PUSH2 0x125A JUMPI PUSH2 0x1259 PUSH2 0x2A17 JUMP JUMPDEST JUMPDEST PUSH1 0x20 MUL PUSH1 0x20 ADD ADD MLOAD PUSH1 0x20 ADD DUP2 DUP2 MSTORE POP POP POP POP PUSH2 0x1390 JUMP JUMPDEST PUSH32 0x4B3711CD7ECE062B0828C1B6E08D814A72D4C003383A016C833CBB1B45956E34 DUP2 SUB PUSH2 0x138F JUMPI PUSH0 PUSH2 0x12C7 PUSH2 0x12C2 DUP8 DUP6 DUP2 MLOAD DUP2 LT PUSH2 0x12B2 JUMPI PUSH2 0x12B1 PUSH2 0x2A17 JUMP JUMPDEST JUMPDEST PUSH1 0x20 MUL PUSH1 0x20 ADD ADD MLOAD PUSH1 0x20 DUP1 PUSH2 0x1982 JUMP JUMPDEST PUSH2 0x1A23 JUMP JUMPDEST SWAP1 POP PUSH0 PUSH2 0x12F9 PUSH2 0x12F4 DUP9 DUP7 DUP2 MLOAD DUP2 LT PUSH2 0x12E3 JUMPI PUSH2 0x12E2 PUSH2 0x2A17 JUMP JUMPDEST JUMPDEST PUSH1 0x20 MUL PUSH1 0x20 ADD ADD MLOAD PUSH1 0x40 PUSH1 0x20 PUSH2 0x1982 JUMP JUMPDEST PUSH2 0x1A23 JUMP JUMPDEST SWAP1 POP DUP2 DUP7 DUP7 DUP2 MLOAD DUP2 LT PUSH2 0x130F JUMPI PUSH2 0x130E PUSH2 0x2A17 JUMP JUMPDEST JUMPDEST PUSH1 0x20 MUL PUSH1 0x20 ADD ADD MLOAD PUSH0 ADD DUP2 DUP2 MSTORE POP POP DUP1 DUP7 DUP7 DUP2 MLOAD DUP2 LT PUSH2 0x1332 JUMPI PUSH2 0x1331 PUSH2 0x2A17 JUMP JUMPDEST JUMPDEST PUSH1 0x20 MUL PUSH1 0x20 ADD ADD MLOAD PUSH1 0x20 ADD MLOAD EQ PUSH2 0x137E JUMPI PUSH1 0x40 MLOAD PUSH32 0x8C379A000000000000000000000000000000000000000000000000000000000 DUP2 MSTORE PUSH1 0x4 ADD PUSH2 0x1375 SWAP1 PUSH2 0x2E09 JUMP JUMPDEST PUSH1 0x40 MLOAD DUP1 SWAP2 SUB SWAP1 REVERT JUMPDEST DUP5 DUP1 PUSH2 0x1389 SWAP1 PUSH2 0x2AD9 JUMP JUMPDEST SWAP6 POP POP POP POP JUMPDEST JUMPDEST POP DUP1 DUP1 PUSH2 0x139C SWAP1 PUSH2 0x2AD9 JUMP JUMPDEST SWAP2 POP POP PUSH2 0x112F JUMP JUMPDEST POP DUP1 DUP3 MSTORE POP SWAP2 SWAP1 POP JUMP JUMPDEST PUSH0 DUP1 PUSH0 SWAP1 SLOAD SWAP1 PUSH2 0x100 EXP SWAP1 DIV PUSH20 0xFFFFFFFFFFFFFFFFFFFFFFFFFFFFFFFFFFFFFFFF AND PUSH20 0xFFFFFFFFFFFFFFFFFFFFFFFFFFFFFFFFFFFFFFFF AND PUSH4 0x40C10F19 DUP6 PUSH8 0x29A2241AF62C0000 PUSH1 0x40 MLOAD DUP4 PUSH4 0xFFFFFFFF AND PUSH1 0xE0 SHL DUP2 MSTORE PUSH1 0x4 ADD PUSH2 0x1412 SWAP3 SWAP2 SWAP1 PUSH2 0x2E27 JUMP JUMPDEST PUSH0 PUSH1 0x40 MLOAD DUP1 DUP4 SUB DUP2 PUSH0 DUP8 DUP1 EXTCODESIZE ISZERO DUP1 ISZERO PUSH2 0x1429 JUMPI PUSH0 DUP1 REVERT JUMPDEST POP GAS CALL SWAP3 POP POP POP DUP1 ISZERO PUSH2 0x143A JUMPI POP PUSH1 0x1 JUMPDEST PUSH2 0x1534 JUMPI PUSH2 0x1446 PUSH2 0x2E5A JUMP JUMPDEST DUP1 PUSH4 0x8C379A0 SUB PUSH2 0x14C4 JUMPI POP PUSH2 0x145A PUSH2 0x2E79 JUMP JUMPDEST DUP1 PUSH2 0x1465 JUMPI POP PUSH2 0x14C6 JUMP JUMPDEST PUSH32 0xA39C7EB3715D64E66FEA8BBD1C52CAE8EB91325E4DE74E9E07CB7592FC25711E DUP2 PUSH1 0x40 MLOAD PUSH1 0x20 ADD PUSH2 0x1497 SWAP2 SWAP1 PUSH2 0x2F8C JUMP JUMPDEST PUSH1 0x40 MLOAD PUSH1 0x20 DUP2 DUP4 SUB SUB DUP2 MSTORE SWAP1 PUSH1 0x40 MSTORE PUSH1 0x40 MLOAD PUSH2 0x14B3 SWAP2 SWAP1 PUSH2 0x2398 JUMP JUMPDEST PUSH1 0x40 MLOAD DUP1 SWAP2 SUB SWAP1 LOG1 PUSH0 SWAP2 POP POP PUSH2 0x1589 JUMP JUMPDEST POP JUMPDEST RETURNDATASIZE DUP1 PUSH0 DUP2 EQ PUSH2 0x14F0 JUMPI PUSH1 0x40 MLOAD SWAP2 POP PUSH1 0x1F NOT PUSH1 0x3F RETURNDATASIZE ADD AND DUP3 ADD PUSH1 0x40 MSTORE RETURNDATASIZE DUP3 MSTORE RETURNDATASIZE PUSH0 PUSH1 0x20 DUP5 ADD RETURNDATACOPY PUSH2 0x14F5 JUMP JUMPDEST PUSH1 0x60 SWAP2 POP JUMPDEST POP PUSH32 0xA39C7EB3715D64E66FEA8BBD1C52CAE8EB91325E4DE74E9E07CB7592FC25711E PUSH1 0x40 MLOAD PUSH2 0x1523 SWAP1 PUSH2 0x301D JUMP JUMPDEST PUSH1 0x40 MLOAD DUP1 SWAP2 SUB SWAP1 LOG1 PUSH0 SWAP2 POP POP PUSH2 0x1589 JUMP JUMPDEST DUP4 PUSH20 0xFFFFFFFFFFFFFFFFFFFFFFFFFFFFFFFFFFFFFFFF AND PUSH32 0x5EF3BD3C823875BC38DF6C327EF163659EF15FF1E9898230DF18CC50316A91C1 DUP5 DUP5 PUSH1 0x40 MLOAD PUSH2 0x157C SWAP3 SWAP2 SWAP1 PUSH2 0x272B JUMP JUMPDEST PUSH1 0x40 MLOAD DUP1 SWAP2 SUB SWAP1 LOG2 PUSH1 0x1 SWAP1 POP JUMPDEST SWAP4 SWAP3 POP POP POP JUMP JUMPDEST PUSH32 0x0 PUSH20 0xFFFFFFFFFFFFFFFFFFFFFFFFFFFFFFFFFFFFFFFF AND ADDRESS PUSH20 0xFFFFFFFFFFFFFFFFFFFFFFFFFFFFFFFFFFFFFFFF AND EQ DUP1 PUSH2 0x163D JUMPI POP PUSH32 0x0 PUSH20 0xFFFFFFFFFFFFFFFFFFFFFFFFFFFFFFFFFFFFFFFF AND PUSH2 0x1624 PUSH2 0x1A35 JUMP JUMPDEST PUSH20 0xFFFFFFFFFFFFFFFFFFFFFFFFFFFFFFFFFFFFFFFF AND EQ ISZERO JUMPDEST ISZERO PUSH2 0x1674 JUMPI PUSH1 0x40 MLOAD PUSH32 0xE07C8DBA00000000000000000000000000000000000000000000000000000000 DUP2 MSTORE PUSH1 0x4 ADD PUSH1 0x40 MLOAD DUP1 SWAP2 SUB SWAP1 REVERT JUMPDEST JUMP JUMPDEST PUSH2 0x167E PUSH2 0x1006 JUMP JUMPDEST POP JUMP JUMPDEST DUP2 PUSH20 0xFFFFFFFFFFFFFFFFFFFFFFFFFFFFFFFFFFFFFFFF AND PUSH4 0x52D1902D PUSH1 0x40 MLOAD DUP2 PUSH4 0xFFFFFFFF AND PUSH1 0xE0 SHL DUP2 MSTORE PUSH1 0x4 ADD PUSH1 0x20 PUSH1 0x40 MLOAD DUP1 DUP4 SUB DUP2 DUP7 GAS STATICCALL SWAP3 POP POP POP DUP1 ISZERO PUSH2 0x16E9 JUMPI POP PUSH1 0x40 MLOAD RETURNDATASIZE PUSH1 0x1F NOT PUSH1 0x1F DUP3 ADD AND DUP3 ADD DUP1 PUSH1 0x40 MSTORE POP DUP2 ADD SWAP1 PUSH2 0x16E6 SWAP2 SWAP1 PUSH2 0x3065 JUMP JUMPDEST PUSH1 0x1 JUMPDEST PUSH2 0x172A JUMPI DUP2 PUSH1 0x40 MLOAD PUSH32 0x4C9C8CE300000000000000000000000000000000000000000000000000000000 DUP2 MSTORE PUSH1 0x4 ADD PUSH2 0x1721 SWAP2 SWAP1 PUSH2 0x232D JUMP JUMPDEST PUSH1 0x40 MLOAD DUP1 SWAP2 SUB SWAP1 REVERT JUMPDEST PUSH32 0x360894A13BA1A3210667C828492DB98DCA3E2076CC3735A920A3CA505D382BBC PUSH0 SHL DUP2 EQ PUSH2 0x1790 JUMPI DUP1 PUSH1 0x40 MLOAD PUSH32 0xAA1D49A400000000000000000000000000000000000000000000000000000000 DUP2 MSTORE PUSH1 0x4 ADD PUSH2 0x1787 SWAP2 SWAP1 PUSH2 0x21E9 JUMP JUMPDEST PUSH1 0x40 MLOAD DUP1 SWAP2 SUB SWAP1 REVERT JUMPDEST PUSH2 0x179A DUP4 DUP4 PUSH2 0x1A88 JUMP JUMPDEST POP POP POP JUMP JUMPDEST PUSH32 0x0 PUSH20 0xFFFFFFFFFFFFFFFFFFFFFFFFFFFFFFFFFFFFFFFF AND ADDRESS PUSH20 0xFFFFFFFFFFFFFFFFFFFFFFFFFFFFFFFFFFFFFFFF AND EQ PUSH2 0x1824 JUMPI PUSH1 0x40 MLOAD PUSH32 0xE07C8DBA00000000000000000000000000000000000000000000000000000000 DUP2 MSTORE PUSH1 0x4 ADD PUSH1 0x40 MLOAD DUP1 SWAP2 SUB SWAP1 REVERT JUMPDEST JUMP JUMPDEST PUSH0 DUP2 DUP4 LT PUSH2 0x1834 JUMPI DUP2 PUSH2 0x1836 JUMP JUMPDEST DUP3 JUMPDEST SWAP1 POP SWAP3 SWAP2 POP POP JUMP JUMPDEST PUSH0 PUSH2 0x1847 PUSH2 0x190F JUMP JUMPDEST SWAP1 POP PUSH0 DUP2 PUSH0 ADD PUSH0 SWAP1 SLOAD SWAP1 PUSH2 0x100 EXP SWAP1 DIV PUSH20 0xFFFFFFFFFFFFFFFFFFFFFFFFFFFFFFFFFFFFFFFF AND SWAP1 POP DUP3 DUP3 PUSH0 ADD PUSH0 PUSH2 0x100 EXP DUP2 SLOAD DUP2 PUSH20 0xFFFFFFFFFFFFFFFFFFFFFFFFFFFFFFFFFFFFFFFF MUL NOT AND SWAP1 DUP4 PUSH20 0xFFFFFFFFFFFFFFFFFFFFFFFFFFFFFFFFFFFFFFFF AND MUL OR SWAP1 SSTORE POP DUP3 PUSH20 0xFFFFFFFFFFFFFFFFFFFFFFFFFFFFFFFFFFFFFFFF AND DUP2 PUSH20 0xFFFFFFFFFFFFFFFFFFFFFFFFFFFFFFFFFFFFFFFF AND PUSH32 0x8BE0079C531659141344CD1FD0A4F28419497F9722A3DAAFE3B4186F6B6457E0 PUSH1 0x40 MLOAD PUSH1 0x40 MLOAD DUP1 SWAP2 SUB SWAP1 LOG3 POP POP POP JUMP JUMPDEST PUSH0 PUSH32 0x9016D09D72D40FDAE2FD8CEAC6B6234C7706214FD39C1CD1E609A0528C199300 SWAP1 POP SWAP1 JUMP JUMPDEST PUSH0 PUSH32 0xF0C57E16840DF040F15088DC2F81FE391C3923BEC73E23A9662EFC9C229C6A00 SWAP1 POP SWAP1 JUMP JUMPDEST PUSH2 0x1965 PUSH2 0x1AFA JUMP JUMPDEST PUSH2 0x196E DUP2 PUSH2 0x1B3A JUMP JUMPDEST POP JUMP JUMPDEST PUSH2 0x1979 PUSH2 0x1AFA JUMP JUMPDEST JUMP JUMPDEST PUSH0 CALLER SWAP1 POP SWAP1 JUMP JUMPDEST PUSH1 0x60 DUP1 DUP3 ISZERO PUSH0 DUP2 EQ PUSH2 0x19A2 JUMPI PUSH1 0x40 MLOAD SWAP2 POP PUSH0 DUP3 MSTORE PUSH1 0x20 DUP3 ADD PUSH1 0x40 MSTORE PUSH2 0x19F3 JUMP JUMPDEST PUSH1 0x40 MLOAD SWAP2 POP PUSH1 0x1F DUP5 AND PUSH1 0x20 DUP2 ISZERO MUL DUP2 DUP5 ADD ADD DUP6 DUP2 ADD DUP8 PUSH1 0x20 DUP5 ISZERO MUL DUP5 DUP12 ADD ADD ADD JUMPDEST DUP2 DUP4 LT ISZERO PUSH2 0x19E0 JUMPI DUP1 MLOAD DUP4 MSTORE PUSH1 0x20 DUP4 ADD SWAP3 POP PUSH1 0x20 DUP2 ADD SWAP1 POP PUSH2 0x19C3 JUMP JUMPDEST POP DUP7 DUP6 MSTORE PUSH1 0x1F NOT PUSH1 0x1F DUP4 ADD AND PUSH1 0x40 MSTORE POP POP POP JUMPDEST POP DUP1 SWAP2 POP POP SWAP4 SWAP3 POP POP POP JUMP JUMPDEST PUSH0 DUP1 PUSH1 0x20 DUP4 ADD MLOAD SWAP1 POP DUP1 SWAP2 POP POP SWAP2 SWAP1 POP JUMP JUMPDEST PUSH0 DUP1 PUSH1 0x14 DUP4 ADD MLOAD SWAP1 POP DUP1 SWAP2 POP POP SWAP2 SWAP1 POP JUMP JUMPDEST PUSH0 DUP1 PUSH1 0x20 DUP4 ADD MLOAD SWAP1 POP DUP1 SWAP2 POP POP SWAP2 SWAP1 POP JUMP JUMPDEST PUSH0 PUSH2 0x1A61 PUSH32 0x360894A13BA1A3210667C828492DB98DCA3E2076CC3735A920A3CA505D382BBC PUSH0 SHL PUSH2 0x1BBE JUMP JUMPDEST PUSH0 ADD PUSH0 SWAP1 SLOAD SWAP1 PUSH2 0x100 EXP SWAP1 DIV PUSH20 0xFFFFFFFFFFFFFFFFFFFFFFFFFFFFFFFFFFFFFFFF AND SWAP1 POP SWAP1 JUMP JUMPDEST PUSH2 0x1A91 DUP3 PUSH2 0x1BC7 JUMP JUMPDEST DUP2 PUSH20 0xFFFFFFFFFFFFFFFFFFFFFFFFFFFFFFFFFFFFFFFF AND PUSH32 0xBC7CD75A20EE27FD9ADEBAB32041F755214DBC6BFFA90CC0225B39DA2E5C2D3B PUSH1 0x40 MLOAD PUSH1 0x40 MLOAD DUP1 SWAP2 SUB SWAP1 LOG2 PUSH0 DUP2 MLOAD GT ISZERO PUSH2 0x1AED JUMPI PUSH2 0x1AE7 DUP3 DUP3 PUSH2 0x1C90 JUMP JUMPDEST POP PUSH2 0x1AF6 JUMP JUMPDEST PUSH2 0x1AF5 PUSH2 0x1D10 JUMP JUMPDEST JUMPDEST POP POP JUMP JUMPDEST PUSH2 0x1B02 PUSH2 0x1D4C JUMP JUMPDEST PUSH2 0x1B38 JUMPI PUSH1 0x40 MLOAD PUSH32 0xD7E6BCF800000000000000000000000000000000000000000000000000000000 DUP2 MSTORE PUSH1 0x4 ADD PUSH1 0x40 MLOAD DUP1 SWAP2 SUB SWAP1 REVERT JUMPDEST JUMP JUMPDEST PUSH2 0x1B42 PUSH2 0x1AFA JUMP JUMPDEST PUSH0 PUSH20 0xFFFFFFFFFFFFFFFFFFFFFFFFFFFFFFFFFFFFFFFF AND DUP2 PUSH20 0xFFFFFFFFFFFFFFFFFFFFFFFFFFFFFFFFFFFFFFFF AND SUB PUSH2 0x1BB2 JUMPI PUSH0 PUSH1 0x40 MLOAD PUSH32 0x1E4FBDF700000000000000000000000000000000000000000000000000000000 DUP2 MSTORE PUSH1 0x4 ADD PUSH2 0x1BA9 SWAP2 SWAP1 PUSH2 0x232D JUMP JUMPDEST PUSH1 0x40 MLOAD DUP1 SWAP2 SUB SWAP1 REVERT JUMPDEST PUSH2 0x1BBB DUP2 PUSH2 0x183E JUMP JUMPDEST POP JUMP JUMPDEST PUSH0 DUP2 SWAP1 POP SWAP2 SWAP1 POP JUMP JUMPDEST PUSH0 DUP2 PUSH20 0xFFFFFFFFFFFFFFFFFFFFFFFFFFFFFFFFFFFFFFFF AND EXTCODESIZE SUB PUSH2 0x1C22 JUMPI DUP1 PUSH1 0x40 MLOAD PUSH32 0x4C9C8CE300000000000000000000000000000000000000000000000000000000 DUP2 MSTORE PUSH1 0x4 ADD PUSH2 0x1C19 SWAP2 SWAP1 PUSH2 0x232D JUMP JUMPDEST PUSH1 0x40 MLOAD DUP1 SWAP2 SUB SWAP1 REVERT JUMPDEST DUP1 PUSH2 0x1C4E PUSH32 0x360894A13BA1A3210667C828492DB98DCA3E2076CC3735A920A3CA505D382BBC PUSH0 SHL PUSH2 0x1BBE JUMP JUMPDEST PUSH0 ADD PUSH0 PUSH2 0x100 EXP DUP2 SLOAD DUP2 PUSH20 0xFFFFFFFFFFFFFFFFFFFFFFFFFFFFFFFFFFFFFFFF MUL NOT AND SWAP1 DUP4 PUSH20 0xFFFFFFFFFFFFFFFFFFFFFFFFFFFFFFFFFFFFFFFF AND MUL OR SWAP1 SSTORE POP POP JUMP JUMPDEST PUSH1 0x60 PUSH0 DUP1 DUP5 PUSH20 0xFFFFFFFFFFFFFFFFFFFFFFFFFFFFFFFFFFFFFFFF AND DUP5 PUSH1 0x40 MLOAD PUSH2 0x1CB9 SWAP2 SWAP1 PUSH2 0x2806 JUMP JUMPDEST PUSH0 PUSH1 0x40 MLOAD DUP1 DUP4 SUB DUP2 DUP6 GAS DELEGATECALL SWAP2 POP POP RETURNDATASIZE DUP1 PUSH0 DUP2 EQ PUSH2 0x1CF1 JUMPI PUSH1 0x40 MLOAD SWAP2 POP PUSH1 0x1F NOT PUSH1 0x3F RETURNDATASIZE ADD AND DUP3 ADD PUSH1 0x40 MSTORE RETURNDATASIZE DUP3 MSTORE RETURNDATASIZE PUSH0 PUSH1 0x20 DUP5 ADD RETURNDATACOPY PUSH2 0x1CF6 JUMP JUMPDEST PUSH1 0x60 SWAP2 POP JUMPDEST POP SWAP2 POP SWAP2 POP PUSH2 0x1D06 DUP6 DUP4 DUP4 PUSH2 0x1D6A JUMP JUMPDEST SWAP3 POP POP POP SWAP3 SWAP2 POP POP JUMP JUMPDEST PUSH0 CALLVALUE GT ISZERO PUSH2 0x1D4A JUMPI PUSH1 0x40 MLOAD PUSH32 0xB398979F00000000000000000000000000000000000000000000000000000000 DUP2 MSTORE PUSH1 0x4 ADD PUSH1 0x40 MLOAD DUP1 SWAP2 SUB SWAP1 REVERT JUMPDEST JUMP JUMPDEST PUSH0 PUSH2 0x1D55 PUSH2 0x1936 JUMP JUMPDEST PUSH0 ADD PUSH1 0x8 SWAP1 SLOAD SWAP1 PUSH2 0x100 EXP SWAP1 DIV PUSH1 0xFF AND SWAP1 POP SWAP1 JUMP JUMPDEST PUSH1 0x60 DUP3 PUSH2 0x1D7F JUMPI PUSH2 0x1D7A DUP3 PUSH2 0x1DF7 JUMP JUMPDEST PUSH2 0x1DEF JUMP JUMPDEST PUSH0 DUP3 MLOAD EQ DUP1 ISZERO PUSH2 0x1DA5 JUMPI POP PUSH0 DUP5 PUSH20 0xFFFFFFFFFFFFFFFFFFFFFFFFFFFFFFFFFFFFFFFF AND EXTCODESIZE EQ JUMPDEST ISZERO PUSH2 0x1DE7 JUMPI DUP4 PUSH1 0x40 MLOAD PUSH32 0x9996B31500000000000000000000000000000000000000000000000000000000 DUP2 MSTORE PUSH1 0x4 ADD PUSH2 0x1DDE SWAP2 SWAP1 PUSH2 0x232D JUMP JUMPDEST PUSH1 0x40 MLOAD DUP1 SWAP2 SUB SWAP1 REVERT JUMPDEST DUP2 SWAP1 POP PUSH2 0x1DF0 JUMP JUMPDEST JUMPDEST SWAP4 SWAP3 POP POP POP JUMP JUMPDEST PUSH0 DUP2 MLOAD GT ISZERO PUSH2 0x1E09 JUMPI DUP1 MLOAD DUP1 DUP3 PUSH1 0x20 ADD REVERT JUMPDEST PUSH1 0x40 MLOAD PUSH32 0x1425EA4200000000000000000000000000000000000000000000000000000000 DUP2 MSTORE PUSH1 0x4 ADD PUSH1 0x40 MLOAD DUP1 SWAP2 SUB SWAP1 REVERT JUMPDEST PUSH1 0x40 MLOAD DUP1 PUSH1 0x60 ADD PUSH1 0x40 MSTORE DUP1 PUSH0 DUP2 MSTORE PUSH1 0x20 ADD PUSH0 DUP2 MSTORE PUSH1 0x20 ADD PUSH0 PUSH20 0xFFFFFFFFFFFFFFFFFFFFFFFFFFFFFFFFFFFFFFFF AND DUP2 MSTORE POP SWAP1 JUMP JUMPDEST PUSH0 PUSH1 0x40 MLOAD SWAP1 POP SWAP1 JUMP JUMPDEST PUSH0 DUP1 REVERT JUMPDEST PUSH0 DUP1 REVERT JUMPDEST PUSH0 DUP2 SWAP1 POP SWAP2 SWAP1 POP JUMP JUMPDEST PUSH2 0x1E92 DUP2 PUSH2 0x1E80 JUMP JUMPDEST DUP2 EQ PUSH2 0x1E9C JUMPI PUSH0 DUP1 REVERT JUMPDEST POP JUMP JUMPDEST PUSH0 DUP2 CALLDATALOAD SWAP1 POP PUSH2 0x1EAD DUP2 PUSH2 0x1E89 JUMP JUMPDEST SWAP3 SWAP2 POP POP JUMP JUMPDEST PUSH0 PUSH1 0x20 DUP3 DUP5 SUB SLT ISZERO PUSH2 0x1EC8 JUMPI PUSH2 0x1EC7 PUSH2 0x1E78 JUMP JUMPDEST JUMPDEST PUSH0 PUSH2 0x1ED5 DUP5 DUP3 DUP6 ADD PUSH2 0x1E9F JUMP JUMPDEST SWAP2 POP POP SWAP3 SWAP2 POP POP JUMP JUMPDEST PUSH0 DUP2 ISZERO ISZERO SWAP1 POP SWAP2 SWAP1 POP JUMP JUMPDEST PUSH2 0x1EF2 DUP2 PUSH2 0x1EDE JUMP JUMPDEST DUP3 MSTORE POP POP JUMP JUMPDEST PUSH0 PUSH1 0x20 DUP3 ADD SWAP1 POP PUSH2 0x1F0B PUSH0 DUP4 ADD DUP5 PUSH2 0x1EE9 JUMP JUMPDEST SWAP3 SWAP2 POP POP JUMP JUMPDEST PUSH2 0x1F1A DUP2 PUSH2 0x1E80 JUMP JUMPDEST DUP3 MSTORE POP POP JUMP JUMPDEST PUSH0 PUSH1 0x20 DUP3 ADD SWAP1 POP PUSH2 0x1F33 PUSH0 DUP4 ADD DUP5 PUSH2 0x1F11 JUMP JUMPDEST SWAP3 SWAP2 POP POP JUMP JUMPDEST PUSH0 DUP1 REVERT JUMPDEST PUSH0 DUP1 REVERT JUMPDEST PUSH0 DUP1 REVERT JUMPDEST PUSH0 DUP1 DUP4 PUSH1 0x1F DUP5 ADD SLT PUSH2 0x1F5A JUMPI PUSH2 0x1F59 PUSH2 0x1F39 JUMP JUMPDEST JUMPDEST DUP3 CALLDATALOAD SWAP1 POP PUSH8 0xFFFFFFFFFFFFFFFF DUP2 GT ISZERO PUSH2 0x1F77 JUMPI PUSH2 0x1F76 PUSH2 0x1F3D JUMP JUMPDEST JUMPDEST PUSH1 0x20 DUP4 ADD SWAP2 POP DUP4 PUSH1 0x1 DUP3 MUL DUP4 ADD GT ISZERO PUSH2 0x1F93 JUMPI PUSH2 0x1F92 PUSH2 0x1F41 JUMP JUMPDEST JUMPDEST SWAP3 POP SWAP3 SWAP1 POP JUMP JUMPDEST PUSH0 DUP1 PUSH1 0x20 DUP4 DUP6 SUB SLT ISZERO PUSH2 0x1FB0 JUMPI PUSH2 0x1FAF PUSH2 0x1E78 JUMP JUMPDEST JUMPDEST PUSH0 DUP4 ADD CALLDATALOAD PUSH8 0xFFFFFFFFFFFFFFFF DUP2 GT ISZERO PUSH2 0x1FCD JUMPI PUSH2 0x1FCC PUSH2 0x1E7C JUMP JUMPDEST JUMPDEST PUSH2 0x1FD9 DUP6 DUP3 DUP7 ADD PUSH2 0x1F45 JUMP JUMPDEST SWAP3 POP SWAP3 POP POP SWAP3 POP SWAP3 SWAP1 POP JUMP JUMPDEST PUSH0 PUSH20 0xFFFFFFFFFFFFFFFFFFFFFFFFFFFFFFFFFFFFFFFF DUP3 AND SWAP1 POP SWAP2 SWAP1 POP JUMP JUMPDEST PUSH0 PUSH2 0x200E DUP3 PUSH2 0x1FE5 JUMP JUMPDEST SWAP1 POP SWAP2 SWAP1 POP JUMP JUMPDEST PUSH2 0x201E DUP2 PUSH2 0x2004 JUMP JUMPDEST DUP2 EQ PUSH2 0x2028 JUMPI PUSH0 DUP1 REVERT JUMPDEST POP JUMP JUMPDEST PUSH0 DUP2 CALLDATALOAD SWAP1 POP PUSH2 0x2039 DUP2 PUSH2 0x2015 JUMP JUMPDEST SWAP3 SWAP2 POP POP JUMP JUMPDEST PUSH0 DUP1 REVERT JUMPDEST PUSH0 PUSH1 0x1F NOT PUSH1 0x1F DUP4 ADD AND SWAP1 POP SWAP2 SWAP1 POP JUMP JUMPDEST PUSH32 0x4E487B7100000000000000000000000000000000000000000000000000000000 PUSH0 MSTORE PUSH1 0x41 PUSH1 0x4 MSTORE PUSH1 0x24 PUSH0 REVERT JUMPDEST PUSH2 0x2089 DUP3 PUSH2 0x2043 JUMP JUMPDEST DUP2 ADD DUP2 DUP2 LT PUSH8 0xFFFFFFFFFFFFFFFF DUP3 GT OR ISZERO PUSH2 0x20A8 JUMPI PUSH2 0x20A7 PUSH2 0x2053 JUMP JUMPDEST JUMPDEST DUP1 PUSH1 0x40 MSTORE POP POP POP JUMP JUMPDEST PUSH0 PUSH2 0x20BA PUSH2 0x1E6F JUMP JUMPDEST SWAP1 POP PUSH2 0x20C6 DUP3 DUP3 PUSH2 0x2080 JUMP JUMPDEST SWAP2 SWAP1 POP JUMP JUMPDEST PUSH0 PUSH8 0xFFFFFFFFFFFFFFFF DUP3 GT ISZERO PUSH2 0x20E5 JUMPI PUSH2 0x20E4 PUSH2 0x2053 JUMP JUMPDEST JUMPDEST PUSH2 0x20EE DUP3 PUSH2 0x2043 JUMP JUMPDEST SWAP1 POP PUSH1 0x20 DUP2 ADD SWAP1 POP SWAP2 SWAP1 POP JUMP JUMPDEST DUP3 DUP2 DUP4 CALLDATACOPY PUSH0 DUP4 DUP4 ADD MSTORE POP POP POP JUMP JUMPDEST PUSH0 PUSH2 0x211B PUSH2 0x2116 DUP5 PUSH2 0x20CB JUMP JUMPDEST PUSH2 0x20B1 JUMP JUMPDEST SWAP1 POP DUP3 DUP2 MSTORE PUSH1 0x20 DUP2 ADD DUP5 DUP5 DUP5 ADD GT ISZERO PUSH2 0x2137 JUMPI PUSH2 0x2136 PUSH2 0x203F JUMP JUMPDEST JUMPDEST PUSH2 0x2142 DUP5 DUP3 DUP6 PUSH2 0x20FB JUMP JUMPDEST POP SWAP4 SWAP3 POP POP POP JUMP JUMPDEST PUSH0 DUP3 PUSH1 0x1F DUP4 ADD SLT PUSH2 0x215E JUMPI PUSH2 0x215D PUSH2 0x1F39 JUMP JUMPDEST JUMPDEST DUP2 CALLDATALOAD PUSH2 0x216E DUP5 DUP3 PUSH1 0x20 DUP7 ADD PUSH2 0x2109 JUMP JUMPDEST SWAP2 POP POP SWAP3 SWAP2 POP POP JUMP JUMPDEST PUSH0 DUP1 PUSH1 0x40 DUP4 DUP6 SUB SLT ISZERO PUSH2 0x218D JUMPI PUSH2 0x218C PUSH2 0x1E78 JUMP JUMPDEST JUMPDEST PUSH0 PUSH2 0x219A DUP6 DUP3 DUP7 ADD PUSH2 0x202B JUMP JUMPDEST SWAP3 POP POP PUSH1 0x20 DUP4 ADD CALLDATALOAD PUSH8 0xFFFFFFFFFFFFFFFF DUP2 GT ISZERO PUSH2 0x21BB JUMPI PUSH2 0x21BA PUSH2 0x1E7C JUMP JUMPDEST JUMPDEST PUSH2 0x21C7 DUP6 DUP3 DUP7 ADD PUSH2 0x214A JUMP JUMPDEST SWAP2 POP POP SWAP3 POP SWAP3 SWAP1 POP JUMP JUMPDEST PUSH0 DUP2 SWAP1 POP SWAP2 SWAP1 POP JUMP JUMPDEST PUSH2 0x21E3 DUP2 PUSH2 0x21D1 JUMP JUMPDEST DUP3 MSTORE POP POP JUMP JUMPDEST PUSH0 PUSH1 0x20 DUP3 ADD SWAP1 POP PUSH2 0x21FC PUSH0 DUP4 ADD DUP5 PUSH2 0x21DA JUMP JUMPDEST SWAP3 SWAP2 POP POP JUMP JUMPDEST PUSH0 DUP2 SWAP1 POP SWAP2 SWAP1 POP JUMP JUMPDEST PUSH0 PUSH2 0x2225 PUSH2 0x2220 PUSH2 0x221B DUP5 PUSH2 0x1FE5 JUMP JUMPDEST PUSH2 0x2202 JUMP JUMPDEST PUSH2 0x1FE5 JUMP JUMPDEST SWAP1 POP SWAP2 SWAP1 POP JUMP JUMPDEST PUSH0 PUSH2 0x2236 DUP3 PUSH2 0x220B JUMP JUMPDEST SWAP1 POP SWAP2 SWAP1 POP JUMP JUMPDEST PUSH0 PUSH2 0x2247 DUP3 PUSH2 0x222C JUMP JUMPDEST SWAP1 POP SWAP2 SWAP1 POP JUMP JUMPDEST PUSH2 0x2257 DUP2 PUSH2 0x223D JUMP JUMPDEST DUP3 MSTORE POP POP JUMP JUMPDEST PUSH0 PUSH1 0x20 DUP3 ADD SWAP1 POP PUSH2 0x2270 PUSH0 DUP4 ADD DUP5 PUSH2 0x224E JUMP JUMPDEST SWAP3 SWAP2 POP POP JUMP JUMPDEST PUSH0 DUP2 MLOAD SWAP1 POP SWAP2 SWAP1 POP JUMP JUMPDEST PUSH0 DUP3 DUP3 MSTORE PUSH1 0x20 DUP3 ADD SWAP1 POP SWAP3 SWAP2 POP POP JUMP JUMPDEST PUSH0 JUMPDEST DUP4 DUP2 LT ISZERO PUSH2 0x22AD JUMPI DUP1 DUP3 ADD MLOAD DUP2 DUP5 ADD MSTORE PUSH1 0x20 DUP2 ADD SWAP1 POP PUSH2 0x2292 JUMP JUMPDEST PUSH0 DUP5 DUP5 ADD MSTORE POP POP POP POP JUMP JUMPDEST PUSH0 PUSH2 0x22C2 DUP3 PUSH2 0x2276 JUMP JUMPDEST PUSH2 0x22CC DUP2 DUP6 PUSH2 0x2280 JUMP JUMPDEST SWAP4 POP PUSH2 0x22DC DUP2 DUP6 PUSH1 0x20 DUP7 ADD PUSH2 0x2290 JUMP JUMPDEST PUSH2 0x22E5 DUP2 PUSH2 0x2043 JUMP JUMPDEST DUP5 ADD SWAP2 POP POP SWAP3 SWAP2 POP POP JUMP JUMPDEST PUSH0 PUSH1 0x40 DUP3 ADD SWAP1 POP PUSH2 0x2303 PUSH0 DUP4 ADD DUP6 PUSH2 0x1EE9 JUMP JUMPDEST DUP2 DUP2 SUB PUSH1 0x20 DUP4 ADD MSTORE PUSH2 0x2315 DUP2 DUP5 PUSH2 0x22B8 JUMP JUMPDEST SWAP1 POP SWAP4 SWAP3 POP POP POP JUMP JUMPDEST PUSH2 0x2327 DUP2 PUSH2 0x2004 JUMP JUMPDEST DUP3 MSTORE POP POP JUMP JUMPDEST PUSH0 PUSH1 0x20 DUP3 ADD SWAP1 POP PUSH2 0x2340 PUSH0 DUP4 ADD DUP5 PUSH2 0x231E JUMP JUMPDEST SWAP3 SWAP2 POP POP JUMP JUMPDEST PUSH0 DUP2 MLOAD SWAP1 POP SWAP2 SWAP1 POP JUMP JUMPDEST PUSH0 DUP3 DUP3 MSTORE PUSH1 0x20 DUP3 ADD SWAP1 POP SWAP3 SWAP2 POP POP JUMP JUMPDEST PUSH0 PUSH2 0x236A DUP3 PUSH2 0x2346 JUMP JUMPDEST PUSH2 0x2374 DUP2 DUP6 PUSH2 0x2350 JUMP JUMPDEST SWAP4 POP PUSH2 0x2384 DUP2 DUP6 PUSH1 0x20 DUP7 ADD PUSH2 0x2290 JUMP JUMPDEST PUSH2 0x238D DUP2 PUSH2 0x2043 JUMP JUMPDEST DUP5 ADD SWAP2 POP POP SWAP3 SWAP2 POP POP JUMP JUMPDEST PUSH0 PUSH1 0x20 DUP3 ADD SWAP1 POP DUP2 DUP2 SUB PUSH0 DUP4 ADD MSTORE PUSH2 0x23B0 DUP2 DUP5 PUSH2 0x2360 JUMP JUMPDEST SWAP1 POP SWAP3 SWAP2 POP POP JUMP JUMPDEST PUSH0 DUP1 PUSH0 DUP1 PUSH1 0x80 DUP6 DUP8 SUB SLT ISZERO PUSH2 0x23D0 JUMPI PUSH2 0x23CF PUSH2 0x1E78 JUMP JUMPDEST JUMPDEST PUSH0 PUSH2 0x23DD DUP8 DUP3 DUP9 ADD PUSH2 0x202B JUMP JUMPDEST SWAP5 POP POP PUSH1 0x20 PUSH2 0x23EE DUP8 DUP3 DUP9 ADD PUSH2 0x202B JUMP JUMPDEST SWAP4 POP POP PUSH1 0x40 PUSH2 0x23FF DUP8 DUP3 DUP9 ADD PUSH2 0x202B JUMP JUMPDEST SWAP3 POP POP PUSH1 0x60 PUSH2 0x2410 DUP8 DUP3 DUP9 ADD PUSH2 0x1E9F JUMP JUMPDEST SWAP2 POP POP SWAP3 SWAP6 SWAP2 SWAP5 POP SWAP3 POP JUMP JUMPDEST PUSH0 PUSH2 0x2426 DUP3 PUSH2 0x222C JUMP JUMPDEST SWAP1 POP SWAP2 SWAP1 POP JUMP JUMPDEST PUSH2 0x2436 DUP2 PUSH2 0x241C JUMP JUMPDEST DUP3 MSTORE POP POP JUMP JUMPDEST PUSH0 PUSH1 0x20 DUP3 ADD SWAP1 POP PUSH2 0x244F PUSH0 DUP4 ADD DUP5 PUSH2 0x242D JUMP JUMPDEST SWAP3 SWAP2 POP POP JUMP JUMPDEST PUSH0 PUSH1 0x20 DUP3 DUP5 SUB SLT ISZERO PUSH2 0x246A JUMPI PUSH2 0x2469 PUSH2 0x1E78 JUMP JUMPDEST JUMPDEST PUSH0 PUSH2 0x2477 DUP5 DUP3 DUP6 ADD PUSH2 0x202B JUMP JUMPDEST SWAP2 POP POP SWAP3 SWAP2 POP POP JUMP JUMPDEST PUSH0 DUP2 SWAP1 POP SWAP3 SWAP2 POP POP JUMP JUMPDEST POP JUMP JUMPDEST PUSH0 PUSH2 0x2498 PUSH0 DUP4 PUSH2 0x2480 JUMP JUMPDEST SWAP2 POP PUSH2 0x24A3 DUP3 PUSH2 0x248A JUMP JUMPDEST PUSH0 DUP3 ADD SWAP1 POP SWAP2 SWAP1 POP JUMP JUMPDEST PUSH0 PUSH2 0x24B7 DUP3 PUSH2 0x248D JUMP JUMPDEST SWAP2 POP DUP2 SWAP1 POP SWAP2 SWAP1 POP JUMP JUMPDEST PUSH32 0x5472616E73666572206661696C65640000000000000000000000000000000000 PUSH0 DUP3 ADD MSTORE POP JUMP JUMPDEST PUSH0 PUSH2 0x24F5 PUSH1 0xF DUP4 PUSH2 0x2350 JUMP JUMPDEST SWAP2 POP PUSH2 0x2500 DUP3 PUSH2 0x24C1 JUMP JUMPDEST PUSH1 0x20 DUP3 ADD SWAP1 POP SWAP2 SWAP1 POP JUMP JUMPDEST PUSH0 PUSH1 0x20 DUP3 ADD SWAP1 POP DUP2 DUP2 SUB PUSH0 DUP4 ADD MSTORE PUSH2 0x2522 DUP2 PUSH2 0x24E9 JUMP JUMPDEST SWAP1 POP SWAP2 SWAP1 POP JUMP JUMPDEST PUSH0 DUP1 REVERT JUMPDEST PUSH0 DUP1 REVERT JUMPDEST PUSH2 0x253A DUP2 PUSH2 0x1EDE JUMP JUMPDEST DUP2 EQ PUSH2 0x2544 JUMPI PUSH0 DUP1 REVERT JUMPDEST POP JUMP JUMPDEST PUSH0 DUP2 CALLDATALOAD SWAP1 POP PUSH2 0x2555 DUP2 PUSH2 0x2531 JUMP JUMPDEST SWAP3 SWAP2 POP POP JUMP JUMPDEST PUSH0 PUSH2 0x100 DUP3 DUP5 SUB SLT ISZERO PUSH2 0x2571 JUMPI PUSH2 0x2570 PUSH2 0x2529 JUMP JUMPDEST JUMPDEST PUSH2 0x257C PUSH2 0x100 PUSH2 0x20B1 JUMP JUMPDEST SWAP1 POP PUSH0 PUSH2 0x258B DUP5 DUP3 DUP6 ADD PUSH2 0x202B JUMP JUMPDEST PUSH0 DUP4 ADD MSTORE POP PUSH1 0x20 PUSH2 0x259E DUP5 DUP3 DUP6 ADD PUSH2 0x202B JUMP JUMPDEST PUSH1 0x20 DUP4 ADD MSTORE POP PUSH1 0x40 DUP3 ADD CALLDATALOAD PUSH8 0xFFFFFFFFFFFFFFFF DUP2 GT ISZERO PUSH2 0x25C2 JUMPI PUSH2 0x25C1 PUSH2 0x252D JUMP JUMPDEST JUMPDEST PUSH2 0x25CE DUP5 DUP3 DUP6 ADD PUSH2 0x214A JUMP JUMPDEST PUSH1 0x40 DUP4 ADD MSTORE POP PUSH1 0x60 PUSH2 0x25E2 DUP5 DUP3 DUP6 ADD PUSH2 0x1E9F JUMP JUMPDEST PUSH1 0x60 DUP4 ADD MSTORE POP PUSH1 0x80 PUSH2 0x25F6 DUP5 DUP3 DUP6 ADD PUSH2 0x1E9F JUMP JUMPDEST PUSH1 0x80 DUP4 ADD MSTORE POP PUSH1 0xA0 PUSH2 0x260A DUP5 DUP3 DUP6 ADD PUSH2 0x1E9F JUMP JUMPDEST PUSH1 0xA0 DUP4 ADD MSTORE POP PUSH1 0xC0 PUSH2 0x261E DUP5 DUP3 DUP6 ADD PUSH2 0x1E9F JUMP JUMPDEST PUSH1 0xC0 DUP4 ADD MSTORE POP PUSH1 0xE0 PUSH2 0x2632 DUP5 DUP3 DUP6 ADD PUSH2 0x2547 JUMP JUMPDEST PUSH1 0xE0 DUP4 ADD MSTORE POP SWAP3 SWAP2 POP POP JUMP JUMPDEST PUSH0 PUSH1 0x20 DUP3 DUP5 SUB SLT ISZERO PUSH2 0x2653 JUMPI PUSH2 0x2652 PUSH2 0x1E78 JUMP JUMPDEST JUMPDEST PUSH0 DUP3 ADD CALLDATALOAD PUSH8 0xFFFFFFFFFFFFFFFF DUP2 GT ISZERO PUSH2 0x2670 JUMPI PUSH2 0x266F PUSH2 0x1E7C JUMP JUMPDEST JUMPDEST PUSH2 0x267C DUP5 DUP3 DUP6 ADD PUSH2 0x255B JUMP JUMPDEST SWAP2 POP POP SWAP3 SWAP2 POP POP JUMP JUMPDEST PUSH0 DUP1 PUSH1 0x40 DUP4 DUP6 SUB SLT ISZERO PUSH2 0x269B JUMPI PUSH2 0x269A PUSH2 0x1E78 JUMP JUMPDEST JUMPDEST PUSH0 PUSH2 0x26A8 DUP6 DUP3 DUP7 ADD PUSH2 0x1E9F JUMP JUMPDEST SWAP3 POP POP PUSH1 0x20 PUSH2 0x26B9 DUP6 DUP3 DUP7 ADD PUSH2 0x1E9F JUMP JUMPDEST SWAP2 POP POP SWAP3 POP SWAP3 SWAP1 POP JUMP JUMPDEST PUSH32 0x496E76616C696420626C6F636B2072616E676500000000000000000000000000 PUSH0 DUP3 ADD MSTORE POP JUMP JUMPDEST PUSH0 PUSH2 0x26F7 PUSH1 0x13 DUP4 PUSH2 0x2350 JUMP JUMPDEST SWAP2 POP PUSH2 0x2702 DUP3 PUSH2 0x26C3 JUMP JUMPDEST PUSH1 0x20 DUP3 ADD SWAP1 POP SWAP2 SWAP1 POP JUMP JUMPDEST PUSH0 PUSH1 0x20 DUP3 ADD SWAP1 POP DUP2 DUP2 SUB PUSH0 DUP4 ADD MSTORE PUSH2 0x2724 DUP2 PUSH2 0x26EB JUMP JUMPDEST SWAP1 POP SWAP2 SWAP1 POP JUMP JUMPDEST PUSH0 PUSH1 0x40 DUP3 ADD SWAP1 POP PUSH2 0x273E PUSH0 DUP4 ADD DUP6 PUSH2 0x1F11 JUMP JUMPDEST PUSH2 0x274B PUSH1 0x20 DUP4 ADD DUP5 PUSH2 0x1F11 JUMP JUMPDEST SWAP4 SWAP3 POP POP POP JUMP JUMPDEST PUSH32 0x4576656E74546F6B656E00000000000000000000000000000000000000000000 PUSH0 DUP3 ADD MSTORE POP JUMP JUMPDEST PUSH0 PUSH2 0x2786 PUSH1 0xA DUP4 PUSH2 0x2350 JUMP JUMPDEST SWAP2 POP PUSH2 0x2791 DUP3 PUSH2 0x2752 JUMP JUMPDEST PUSH1 0x20 DUP3 ADD SWAP1 POP SWAP2 SWAP1 POP JUMP JUMPDEST PUSH0 PUSH1 0x60 DUP3 ADD SWAP1 POP DUP2 DUP2 SUB PUSH0 DUP4 ADD MSTORE PUSH2 0x27B3 DUP2 PUSH2 0x277A JUMP JUMPDEST SWAP1 POP PUSH2 0x27C2 PUSH1 0x20 DUP4 ADD DUP6 PUSH2 0x1F11 JUMP JUMPDEST PUSH2 0x27CF PUSH1 0x40 DUP4 ADD DUP5 PUSH2 0x1F11 JUMP JUMPDEST SWAP4 SWAP3 POP POP POP JUMP JUMPDEST PUSH0 PUSH2 0x27E0 DUP3 PUSH2 0x2276 JUMP JUMPDEST PUSH2 0x27EA DUP2 DUP6 PUSH2 0x2480 JUMP JUMPDEST SWAP4 POP PUSH2 0x27FA DUP2 DUP6 PUSH1 0x20 DUP7 ADD PUSH2 0x2290 JUMP JUMPDEST DUP1 DUP5 ADD SWAP2 POP POP SWAP3 SWAP2 POP POP JUMP JUMPDEST PUSH0 PUSH2 0x2811 DUP3 DUP5 PUSH2 0x27D6 JUMP JUMPDEST SWAP2 POP DUP2 SWAP1 POP SWAP3 SWAP2 POP POP JUMP JUMPDEST PUSH32 0x504F415020636F6E74726163742063616C6C206661696C656400000000000000 PUSH0 DUP3 ADD MSTORE POP JUMP JUMPDEST PUSH0 PUSH2 0x2850 PUSH1 0x19 DUP4 PUSH2 0x2350 JUMP JUMPDEST SWAP2 POP PUSH2 0x285B DUP3 PUSH2 0x281C JUMP JUMPDEST PUSH1 0x20 DUP3 ADD SWAP1 POP SWAP2 SWAP1 POP JUMP JUMPDEST PUSH0 PUSH1 0x20 DUP3 ADD SWAP1 POP DUP2 DUP2 SUB PUSH0 DUP4 ADD MSTORE PUSH2 0x287D DUP2 PUSH2 0x2844 JUMP JUMPDEST SWAP1 POP SWAP2 SWAP1 POP JUMP JUMPDEST PUSH0 PUSH8 0xFFFFFFFFFFFFFFFF DUP3 GT ISZERO PUSH2 0x289E JUMPI PUSH2 0x289D PUSH2 0x2053 JUMP JUMPDEST JUMPDEST PUSH1 0x20 DUP3 MUL SWAP1 POP PUSH1 0x20 DUP2 ADD SWAP1 POP SWAP2 SWAP1 POP JUMP JUMPDEST PUSH0 PUSH2 0x28C1 PUSH2 0x28BC DUP5 PUSH2 0x20CB JUMP JUMPDEST PUSH2 0x20B1 JUMP JUMPDEST SWAP1 POP DUP3 DUP2 MSTORE PUSH1 0x20 DUP2 ADD DUP5 DUP5 DUP5 ADD GT ISZERO PUSH2 0x28DD JUMPI PUSH2 0x28DC PUSH2 0x203F JUMP JUMPDEST JUMPDEST PUSH2 0x28E8 DUP5 DUP3 DUP6 PUSH2 0x2290 JUMP JUMPDEST POP SWAP4 SWAP3 POP POP POP JUMP JUMPDEST PUSH0 DUP3 PUSH1 0x1F DUP4 ADD SLT PUSH2 0x2904 JUMPI PUSH2 0x2903 PUSH2 0x1F39 JUMP JUMPDEST JUMPDEST DUP2 MLOAD PUSH2 0x2914 DUP5 DUP3 PUSH1 0x20 DUP7 ADD PUSH2 0x28AF JUMP JUMPDEST SWAP2 POP POP SWAP3 SWAP2 POP POP JUMP JUMPDEST PUSH0 PUSH2 0x292F PUSH2 0x292A DUP5 PUSH2 0x2884 JUMP JUMPDEST PUSH2 0x20B1 JUMP JUMPDEST SWAP1 POP DUP1 DUP4 DUP3 MSTORE PUSH1 0x20 DUP3 ADD SWAP1 POP PUSH1 0x20 DUP5 MUL DUP4 ADD DUP6 DUP2 GT ISZERO PUSH2 0x2952 JUMPI PUSH2 0x2951 PUSH2 0x1F41 JUMP JUMPDEST JUMPDEST DUP4 JUMPDEST DUP2 DUP2 LT ISZERO PUSH2 0x2999 JUMPI DUP1 MLOAD PUSH8 0xFFFFFFFFFFFFFFFF DUP2 GT ISZERO PUSH2 0x2977 JUMPI PUSH2 0x2976 PUSH2 0x1F39 JUMP JUMPDEST JUMPDEST DUP1 DUP7 ADD PUSH2 0x2984 DUP10 DUP3 PUSH2 0x28F0 JUMP JUMPDEST DUP6 MSTORE PUSH1 0x20 DUP6 ADD SWAP5 POP POP POP PUSH1 0x20 DUP2 ADD SWAP1 POP PUSH2 0x2954 JUMP JUMPDEST POP POP POP SWAP4 SWAP3 POP POP POP JUMP JUMPDEST PUSH0 DUP3 PUSH1 0x1F DUP4 ADD SLT PUSH2 0x29B7 JUMPI PUSH2 0x29B6 PUSH2 0x1F39 JUMP JUMPDEST JUMPDEST DUP2 MLOAD PUSH2 0x29C7 DUP5 DUP3 PUSH1 0x20 DUP7 ADD PUSH2 0x291D JUMP JUMPDEST SWAP2 POP POP SWAP3 SWAP2 POP POP JUMP JUMPDEST PUSH0 PUSH1 0x20 DUP3 DUP5 SUB SLT ISZERO PUSH2 0x29E5 JUMPI PUSH2 0x29E4 PUSH2 0x1E78 JUMP JUMPDEST JUMPDEST PUSH0 DUP3 ADD MLOAD PUSH8 0xFFFFFFFFFFFFFFFF DUP2 GT ISZERO PUSH2 0x2A02 JUMPI PUSH2 0x2A01 PUSH2 0x1E7C JUMP JUMPDEST JUMPDEST PUSH2 0x2A0E DUP5 DUP3 DUP6 ADD PUSH2 0x29A3 JUMP JUMPDEST SWAP2 POP POP SWAP3 SWAP2 POP POP JUMP JUMPDEST PUSH32 0x4E487B7100000000000000000000000000000000000000000000000000000000 PUSH0 MSTORE PUSH1 0x32 PUSH1 0x4 MSTORE PUSH1 0x24 PUSH0 REVERT JUMPDEST PUSH32 0x4661696C656420746F2068616E646C6520746172676574206576656E74000000 PUSH0 DUP3 ADD MSTORE POP JUMP JUMPDEST PUSH0 PUSH2 0x2A78 PUSH1 0x1D DUP4 PUSH2 0x2350 JUMP JUMPDEST SWAP2 POP PUSH2 0x2A83 DUP3 PUSH2 0x2A44 JUMP JUMPDEST PUSH1 0x20 DUP3 ADD SWAP1 POP SWAP2 SWAP1 POP JUMP JUMPDEST PUSH0 PUSH1 0x20 DUP3 ADD SWAP1 POP DUP2 DUP2 SUB PUSH0 DUP4 ADD MSTORE PUSH2 0x2AA5 DUP2 PUSH2 0x2A6C JUMP JUMPDEST SWAP1 POP SWAP2 SWAP1 POP JUMP JUMPDEST PUSH32 0x4E487B7100000000000000000000000000000000000000000000000000000000 PUSH0 MSTORE PUSH1 0x11 PUSH1 0x4 MSTORE PUSH1 0x24 PUSH0 REVERT JUMPDEST PUSH0 PUSH2 0x2AE3 DUP3 PUSH2 0x1E80 JUMP JUMPDEST SWAP2 POP PUSH32 0xFFFFFFFFFFFFFFFFFFFFFFFFFFFFFFFFFFFFFFFFFFFFFFFFFFFFFFFFFFFFFFFF DUP3 SUB PUSH2 0x2B15 JUMPI PUSH2 0x2B14 PUSH2 0x2AAC JUMP JUMPDEST JUMPDEST PUSH1 0x1 DUP3 ADD SWAP1 POP SWAP2 SWAP1 POP JUMP JUMPDEST PUSH0 PUSH1 0x60 DUP3 ADD SWAP1 POP PUSH2 0x2B33 PUSH0 DUP4 ADD DUP7 PUSH2 0x1F11 JUMP JUMPDEST PUSH2 0x2B40 PUSH1 0x20 DUP4 ADD DUP6 PUSH2 0x1F11 JUMP JUMPDEST PUSH2 0x2B4D PUSH1 0x40 DUP4 ADD DUP5 PUSH2 0x1F11 JUMP JUMPDEST SWAP5 SWAP4 POP POP POP POP JUMP JUMPDEST PUSH0 PUSH2 0x2B5F DUP3 PUSH2 0x1E80 JUMP JUMPDEST SWAP2 POP PUSH2 0x2B6A DUP4 PUSH2 0x1E80 JUMP JUMPDEST SWAP3 POP DUP3 DUP3 ADD SWAP1 POP DUP1 DUP3 GT ISZERO PUSH2 0x2B82 JUMPI PUSH2 0x2B81 PUSH2 0x2AAC JUMP JUMPDEST JUMPDEST SWAP3 SWAP2 POP POP JUMP JUMPDEST PUSH0 PUSH2 0x2B92 DUP3 PUSH2 0x1E80 JUMP JUMPDEST SWAP2 POP PUSH2 0x2B9D DUP4 PUSH2 0x1E80 JUMP JUMPDEST SWAP3 POP DUP3 DUP3 SUB SWAP1 POP DUP2 DUP2 GT ISZERO PUSH2 0x2BB5 JUMPI PUSH2 0x2BB4 PUSH2 0x2AAC JUMP JUMPDEST JUMPDEST SWAP3 SWAP2 POP POP JUMP JUMPDEST PUSH2 0x2BC4 DUP2 PUSH2 0x2004 JUMP JUMPDEST DUP3 MSTORE POP POP JUMP JUMPDEST PUSH0 DUP3 DUP3 MSTORE PUSH1 0x20 DUP3 ADD SWAP1 POP SWAP3 SWAP2 POP POP JUMP JUMPDEST PUSH0 PUSH2 0x2BE4 DUP3 PUSH2 0x2276 JUMP JUMPDEST PUSH2 0x2BEE DUP2 DUP6 PUSH2 0x2BCA JUMP JUMPDEST SWAP4 POP PUSH2 0x2BFE DUP2 DUP6 PUSH1 0x20 DUP7 ADD PUSH2 0x2290 JUMP JUMPDEST PUSH2 0x2C07 DUP2 PUSH2 0x2043 JUMP JUMPDEST DUP5 ADD SWAP2 POP POP SWAP3 SWAP2 POP POP JUMP JUMPDEST PUSH2 0x2C1B DUP2 PUSH2 0x1E80 JUMP JUMPDEST DUP3 MSTORE POP POP JUMP JUMPDEST PUSH2 0x2C2A DUP2 PUSH2 0x1EDE JUMP JUMPDEST DUP3 MSTORE POP POP JUMP JUMPDEST PUSH0 PUSH2 0x100 DUP4 ADD PUSH0 DUP4 ADD MLOAD PUSH2 0x2C46 PUSH0 DUP7 ADD DUP3 PUSH2 0x2BBB JUMP JUMPDEST POP PUSH1 0x20 DUP4 ADD MLOAD PUSH2 0x2C59 PUSH1 0x20 DUP7 ADD DUP3 PUSH2 0x2BBB JUMP JUMPDEST POP PUSH1 0x40 DUP4 ADD MLOAD DUP5 DUP3 SUB PUSH1 0x40 DUP7 ADD MSTORE PUSH2 0x2C71 DUP3 DUP3 PUSH2 0x2BDA JUMP JUMPDEST SWAP2 POP POP PUSH1 0x60 DUP4 ADD MLOAD PUSH2 0x2C86 PUSH1 0x60 DUP7 ADD DUP3 PUSH2 0x2C12 JUMP JUMPDEST POP PUSH1 0x80 DUP4 ADD MLOAD PUSH2 0x2C99 PUSH1 0x80 DUP7 ADD DUP3 PUSH2 0x2C12 JUMP JUMPDEST POP PUSH1 0xA0 DUP4 ADD MLOAD PUSH2 0x2CAC PUSH1 0xA0 DUP7 ADD DUP3 PUSH2 0x2C12 JUMP JUMPDEST POP PUSH1 0xC0 DUP4 ADD MLOAD PUSH2 0x2CBF PUSH1 0xC0 DUP7 ADD DUP3 PUSH2 0x2C12 JUMP JUMPDEST POP PUSH1 0xE0 DUP4 ADD MLOAD PUSH2 0x2CD2 PUSH1 0xE0 DUP7 ADD DUP3 PUSH2 0x2C21 JUMP JUMPDEST POP DUP1 SWAP2 POP POP SWAP3 SWAP2 POP POP JUMP JUMPDEST PUSH0 PUSH1 0x20 DUP3 ADD SWAP1 POP DUP2 DUP2 SUB PUSH0 DUP4 ADD MSTORE PUSH2 0x2CF5 DUP2 DUP5 PUSH2 0x2C30 JUMP JUMPDEST SWAP1 POP SWAP3 SWAP2 POP POP JUMP JUMPDEST PUSH0 DUP2 SWAP1 POP SWAP2 SWAP1 POP JUMP JUMPDEST PUSH0 PUSH8 0xFFFFFFFFFFFFFFFF DUP3 AND SWAP1 POP SWAP2 SWAP1 POP JUMP JUMPDEST PUSH0 PUSH2 0x2D33 PUSH2 0x2D2E PUSH2 0x2D29 DUP5 PUSH2 0x2CFD JUMP JUMPDEST PUSH2 0x2202 JUMP JUMPDEST PUSH2 0x2D06 JUMP JUMPDEST SWAP1 POP SWAP2 SWAP1 POP JUMP JUMPDEST PUSH2 0x2D43 DUP2 PUSH2 0x2D19 JUMP JUMPDEST DUP3 MSTORE POP POP JUMP JUMPDEST PUSH0 PUSH1 0x20 DUP3 ADD SWAP1 POP PUSH2 0x2D5C PUSH0 DUP4 ADD DUP5 PUSH2 0x2D3A JUMP JUMPDEST SWAP3 SWAP2 POP POP JUMP JUMPDEST PUSH32 0x4E487B7100000000000000000000000000000000000000000000000000000000 PUSH0 MSTORE PUSH1 0x12 PUSH1 0x4 MSTORE PUSH1 0x24 PUSH0 REVERT JUMPDEST PUSH0 PUSH2 0x2D99 DUP3 PUSH2 0x1E80 JUMP JUMPDEST SWAP2 POP PUSH2 0x2DA4 DUP4 PUSH2 0x1E80 JUMP JUMPDEST SWAP3 POP DUP3 PUSH2 0x2DB4 JUMPI PUSH2 0x2DB3 PUSH2 0x2D62 JUMP JUMPDEST JUMPDEST DUP3 DUP3 DIV SWAP1 POP SWAP3 SWAP2 POP POP JUMP JUMPDEST PUSH32 0x546F6B656E4964206D69736D6174636800000000000000000000000000000000 PUSH0 DUP3 ADD MSTORE POP JUMP JUMPDEST PUSH0 PUSH2 0x2DF3 PUSH1 0x10 DUP4 PUSH2 0x2350 JUMP JUMPDEST SWAP2 POP PUSH2 0x2DFE DUP3 PUSH2 0x2DBF JUMP JUMPDEST PUSH1 0x20 DUP3 ADD SWAP1 POP SWAP2 SWAP1 POP JUMP JUMPDEST PUSH0 PUSH1 0x20 DUP3 ADD SWAP1 POP DUP2 DUP2 SUB PUSH0 DUP4 ADD MSTORE PUSH2 0x2E20 DUP2 PUSH2 0x2DE7 JUMP JUMPDEST SWAP1 POP SWAP2 SWAP1 POP JUMP JUMPDEST PUSH0 PUSH1 0x40 DUP3 ADD SWAP1 POP PUSH2 0x2E3A PUSH0 DUP4 ADD DUP6 PUSH2 0x231E JUMP JUMPDEST PUSH2 0x2E47 PUSH1 0x20 DUP4 ADD DUP5 PUSH2 0x1F11 JUMP JUMPDEST SWAP4 SWAP3 POP POP POP JUMP JUMPDEST PUSH0 DUP2 PUSH1 0xE0 SHR SWAP1 POP SWAP2 SWAP1 POP JUMP JUMPDEST PUSH0 PUSH1 0x3 RETURNDATASIZE GT ISZERO PUSH2 0x2E76 JUMPI PUSH1 0x4 PUSH0 DUP1 RETURNDATACOPY PUSH2 0x2E73 PUSH0 MLOAD PUSH2 0x2E4E JUMP JUMPDEST SWAP1 POP JUMPDEST SWAP1 JUMP JUMPDEST PUSH0 PUSH1 0x44 RETURNDATASIZE LT PUSH2 0x2F05 JUMPI PUSH2 0x2E8A PUSH2 0x1E6F JUMP JUMPDEST PUSH1 0x4 RETURNDATASIZE SUB PUSH1 0x4 DUP3 RETURNDATACOPY DUP1 MLOAD RETURNDATASIZE PUSH1 0x24 DUP3 ADD GT PUSH8 0xFFFFFFFFFFFFFFFF DUP3 GT OR ISZERO PUSH2 0x2EB2 JUMPI POP POP PUSH2 0x2F05 JUMP JUMPDEST DUP1 DUP3 ADD DUP1 MLOAD PUSH8 0xFFFFFFFFFFFFFFFF DUP2 GT ISZERO PUSH2 0x2ED0 JUMPI POP POP POP POP PUSH2 0x2F05 JUMP JUMPDEST DUP1 PUSH1 0x20 DUP4 ADD ADD PUSH1 0x4 RETURNDATASIZE SUB DUP6 ADD DUP2 GT ISZERO PUSH2 0x2EED JUMPI POP POP POP POP POP PUSH2 0x2F05 JUMP JUMPDEST PUSH2 0x2EFC DUP3 PUSH1 0x20 ADD DUP6 ADD DUP7 PUSH2 0x2080 JUMP JUMPDEST DUP3 SWAP6 POP POP POP POP POP POP JUMPDEST SWAP1 JUMP JUMPDEST PUSH0 DUP2 SWAP1 POP SWAP3 SWAP2 POP POP JUMP JUMPDEST PUSH32 0x546F6B656E206D696E74206661696C65643A2000000000000000000000000000 PUSH0 DUP3 ADD MSTORE POP JUMP JUMPDEST PUSH0 PUSH2 0x2F46 PUSH1 0x13 DUP4 PUSH2 0x2F08 JUMP JUMPDEST SWAP2 POP PUSH2 0x2F51 DUP3 PUSH2 0x2F12 JUMP JUMPDEST PUSH1 0x13 DUP3 ADD SWAP1 POP SWAP2 SWAP1 POP JUMP JUMPDEST PUSH0 PUSH2 0x2F66 DUP3 PUSH2 0x2346 JUMP JUMPDEST PUSH2 0x2F70 DUP2 DUP6 PUSH2 0x2F08 JUMP JUMPDEST SWAP4 POP PUSH2 0x2F80 DUP2 DUP6 PUSH1 0x20 DUP7 ADD PUSH2 0x2290 JUMP JUMPDEST DUP1 DUP5 ADD SWAP2 POP POP SWAP3 SWAP2 POP POP JUMP JUMPDEST PUSH0 PUSH2 0x2F96 DUP3 PUSH2 0x2F3A JUMP JUMPDEST SWAP2 POP PUSH2 0x2FA2 DUP3 DUP5 PUSH2 0x2F5C JUMP JUMPDEST SWAP2 POP DUP2 SWAP1 POP SWAP3 SWAP2 POP POP JUMP JUMPDEST PUSH32 0x546F6B656E206D696E74206661696C6564207769746820756E6B6E6F776E2065 PUSH0 DUP3 ADD MSTORE PUSH32 0x72726F7200000000000000000000000000000000000000000000000000000000 PUSH1 0x20 DUP3 ADD MSTORE POP JUMP JUMPDEST PUSH0 PUSH2 0x3007 PUSH1 0x24 DUP4 PUSH2 0x2350 JUMP JUMPDEST SWAP2 POP PUSH2 0x3012 DUP3 PUSH2 0x2FAD JUMP JUMPDEST PUSH1 0x40 DUP3 ADD SWAP1 POP SWAP2 SWAP1 POP JUMP JUMPDEST PUSH0 PUSH1 0x20 DUP3 ADD SWAP1 POP DUP2 DUP2 SUB PUSH0 DUP4 ADD MSTORE PUSH2 0x3034 DUP2 PUSH2 0x2FFB JUMP JUMPDEST SWAP1 POP SWAP2 SWAP1 POP JUMP JUMPDEST PUSH2 0x3044 DUP2 PUSH2 0x21D1 JUMP JUMPDEST DUP2 EQ PUSH2 0x304E JUMPI PUSH0 DUP1 REVERT JUMPDEST POP JUMP JUMPDEST PUSH0 DUP2 MLOAD SWAP1 POP PUSH2 0x305F DUP2 PUSH2 0x303B JUMP JUMPDEST SWAP3 SWAP2 POP POP JUMP JUMPDEST PUSH0 PUSH1 0x20 DUP3 DUP5 SUB SLT ISZERO PUSH2 0x307A JUMPI PUSH2 0x3079 PUSH2 0x1E78 JUMP JUMPDEST JUMPDEST PUSH0 PUSH2 0x3087 DUP5 DUP3 DUP6 ADD PUSH2 0x3051 JUMP JUMPDEST SWAP2 POP POP SWAP3 SWAP2 POP POP JUMP INVALID LOG2 PUSH5 0x6970667358 0x22 SLT KECCAK256 0xA7 DUP14 0xF 0xE0 0xB6 0x4D CALLVALUE DUP13 0xB6 DUP12 DUP16 0x29 CALLDATASIZE BYTE 0xDA 0xB7 DUP13 0xD3 PUSH14 0x13F365888519625BDDF38A159C64 PUSH20 0x6F6C63430008140033A26469706673582212209A EQ LOG0 ORIGIN PUSH25 0xBB8B87664A57781E9E73F7E3F41FC373A02F34A0D7A3B06815 PUSH8 0xCC64736F6C634300 ADDMOD EQ STOP CALLER "
		},
		"gasEstimates": {
			"creation": {
				"codeDepositCost": "4099600",
				"executionCost": "4697",
				"totalCost": "4104297"
			},
			"external": {
				"beforeAll()": "infinite",
				"checkInitialization()": "infinite"
			}
		},
		"methodIdentifiers": {
			"beforeAll()": "7fea0d4b",
			"checkInitialization()": "61250cc3"
		}
	},
	"abi": [
		{
			"inputs": [],
			"name": "beforeAll",
			"outputs": [],
			"stateMutability": "nonpayable",
			"type": "function"
		},
		{
			"inputs": [],
			"name": "checkInitialization",
			"outputs": [],
			"stateMutability": "nonpayable",
			"type": "function"
		}
	]
}