{
	"data": {
		"bytecode": {
			"linkReferences": {
				"remix_tests.sol": {
					"Assert": [
						{
							"length": 20,
							"start": 2332
						},
						{
							"length": 20,
							"start": 2475
						},
						{
							"length": 20,
							"start": 2685
						},
						{
							"length": 20,
							"start": 2895
						},
						{
							"length": 20,
							"start": 3105
						},
						{
							"length": 20,
							"start": 3307
						},
						{
							"length": 20,
							"start": 3509
						},
						{
							"length": 20,
							"start": 3663
						},
						{
							"length": 20,
							"start": 3817
						},
						{
							"length": 20,
							"start": 3971
						},
						{
							"length": 20,
							"start": 4124
						}
					]
				}
			},
			"object": "608060405234801561000f575f80fd5b5061277e8061001d5f395ff3fe608060405234801561000f575f80fd5b5060043610610091575f3560e01c806384d36eb81161006457806384d36eb8146101435780638f0a4e7914610161578063c3f3ac961461017d578063cf2d412414610187578063cf3845a61461019157610091565b80630a8595b01461009557806325656307146100c55780632d380242146100f55780637d52612314610113575b5f80fd5b6100af60048036038101906100aa91906119f9565b6101c1565b6040516100bc9190611a3e565b60405180910390f35b6100df60048036038101906100da9190611ab1565b6101de565b6040516100ec9190611aeb565b60405180910390f35b6100fd6101f3565b60405161010a9190611aeb565b60405180910390f35b61012d600480360381019061012891906119f9565b6101f9565b60405161013a9190611a3e565b60405180910390f35b61014b610215565b6040516101589190611aeb565b60405180910390f35b61017b600480360381019061017691906119f9565b610221565b005b61018561024c565b005b61018f610651565b005b6101ab60048036038101906101a69190611d22565b61109a565b6040516101b89190611aeb565b60405180910390f35b6001602052805f5260405f205f915054906101000a900460ff1681565b6003602052805f5260405f205f915090505481565b60025481565b5f602052805f5260405f205f915054906101000a900460ff1681565b6729a2241af62c000081565b60015f808381526020019081526020015f205f6101000a81548160ff02191690831515021790555050565b5f600467ffffffffffffffff81111561026857610267611b18565b5b60405190808252806020026020018201604052801561029b57816020015b60608152602001906001900390816102865790505b5090507fddf252ad1be2c89b69c2b068fc378daa952ba7f163c4a11628f55a4df523b3ef5f1b5f801b73123456789012345678901234567890123456789073ffffffffffffffffffffffffffffffffffffffff165f1b6103e85f1b6040516020016103099493929190611d81565b604051602081830303815290604052815f8151811061032b5761032a611dc4565b5b60200260200101819052507f4b3711cd7ece062b0828c1b6e08d814a72d4c003383a016c833cbb1b45956e345f1b607b5f1b5f801b5f801b6103e85f1b60405160200161037c959493929190611df1565b6040516020818303038152906040528160018151811061039f5761039e611dc4565b5b60200260200101819052507fddf252ad1be2c89b69c2b068fc378daa952ba7f163c4a11628f55a4df523b3ef5f1b5f801b73987654321098765432109876543210987654321073ffffffffffffffffffffffffffffffffffffffff165f1b6103e95f1b6040516020016104159493929190611d81565b6040516020818303038152906040528160028151811061043857610437611dc4565b5b60200260200101819052507f4b3711cd7ece062b0828c1b6e08d814a72d4c003383a016c833cbb1b45956e345f1b6101c85f1b5f801b5f801b6103e95f1b60405160200161048a959493929190611df1565b604051602081830303815290604052816003815181106104ad576104ac611dc4565b5b60200260200101819052505f6104c28261120e565b90505f5b815181101561064c5761050d6040518060400160405280600e81526020017f4465636f646564204576656e743a000000000000000000000000000000000000815250611507565b6105806040518060400160405280600581526020017f557365723a00000000000000000000000000000000000000000000000000000081525083838151811061055957610558611dc4565b5b60200260200101516040015173ffffffffffffffffffffffffffffffffffffffff166115a0565b6105dc6040518060400160405280600881526020017f4576656e7449643a0000000000000000000000000000000000000000000000008152508383815181106105cc576105cb611dc4565b5b60200260200101515f01516115a0565b6106396040518060400160405280600881526020017f546f6b656e49643a00000000000000000000000000000000000000000000000081525083838151811061062857610627611dc4565b5b6020026020010151602001516115a0565b808061064490611e6f565b9150506104c6565b505050565b61065d6202ae60610221565b6106696202ae5c610221565b6106756202aeea610221565b5f600a67ffffffffffffffff81111561069157610690611b18565b5b6040519080825280602002602001820160405280156106c457816020015b60608152602001906001900390816106af5790505b5090506106e8731698a2f0646ed48477c3896b7e8f7d934e77df77626d425961163c565b815f815181106106fb576106fa611dc4565b5b60200260200101819052506107166202ae60626d42596116aa565b8160018151811061072a57610729611dc4565b5b6020026020010181905250610756735091b567fe7160824950f5a4a1787a6bf6d47342626d425a61163c565b8160028151811061076a57610769611dc4565b5b60200260200101819052506107856202ae5c626d425a6116aa565b8160038151811061079957610798611dc4565b5b60200260200101819052506107c573154620ddfdcd6ab15dd9c1682386debad1eef536626d425b61163c565b816004815181106107d9576107d8611dc4565b5b60200260200101819052506107f46202aeea626d425b6116aa565b8160058151811061080857610807611dc4565b5b602002602001018190525061083473077c1fa56e780feef04e8d3bcbbd96e9f79935e0626d425c61163c565b8160068151811061084857610847611dc4565b5b60200260200101819052506108636202ad78626d425c6116aa565b8160078151811061087757610876611dc4565b5b60200260200101819052506108a37371f84aa585e1eda8852dad8dff3a69d114366dba626d425d61163c565b816008815181106108b7576108b6611dc4565b5b60200260200101819052506108d26202ae3f626d425d6116aa565b816009815181106108e6576108e5611dc4565b5b60200260200101819052505f6108fb8261109a565b905073__$acbfb1c35000d78352310b16a054a6b106$__63abcd796060025460036729a2241af62c000061092f9190611eb6565b6040518363ffffffff1660e01b815260040161094c929190611f86565b602060405180830381865af4158015610967573d5f803e3d5ffd5b505050506040513d601f19601f8201168201806040525081019061098b9190611fea565b5073__$acbfb1c35000d78352310b16a054a6b106$__63abcd796060035f735091b567fe7160824950f5a4a1787a6bf6d4734273ffffffffffffffffffffffffffffffffffffffff1673ffffffffffffffffffffffffffffffffffffffff1681526020019081526020015f20546729a2241af62c00006040518363ffffffff1660e01b8152600401610a1e929190612085565b602060405180830381865af4158015610a39573d5f803e3d5ffd5b505050506040513d601f19601f82011682018060405250810190610a5d9190611fea565b5073__$acbfb1c35000d78352310b16a054a6b106$__63abcd796060035f73154620ddfdcd6ab15dd9c1682386debad1eef53673ffffffffffffffffffffffffffffffffffffffff1673ffffffffffffffffffffffffffffffffffffffff1681526020019081526020015f20546729a2241af62c00006040518363ffffffff1660e01b8152600401610af0929190612085565b602060405180830381865af4158015610b0b573d5f803e3d5ffd5b505050506040513d601f19601f82011682018060405250810190610b2f9190611fea565b5073__$acbfb1c35000d78352310b16a054a6b106$__63abcd796060035f731698a2f0646ed48477c3896b7e8f7d934e77df7773ffffffffffffffffffffffffffffffffffffffff1673ffffffffffffffffffffffffffffffffffffffff1681526020019081526020015f20546729a2241af62c00006040518363ffffffff1660e01b8152600401610bc2929190612085565b602060405180830381865af4158015610bdd573d5f803e3d5ffd5b505050506040513d601f19601f82011682018060405250810190610c019190611fea565b5073__$acbfb1c35000d78352310b16a054a6b106$__63abcd796060035f73154620ddfdcd6ab15dd9c1682386debad1eef53673ffffffffffffffffffffffffffffffffffffffff1673ffffffffffffffffffffffffffffffffffffffff1681526020019081526020015f20545f6040518363ffffffff1660e01b8152600401610c8c929190612171565b602060405180830381865af4158015610ca7573d5f803e3d5ffd5b505050506040513d601f19601f82011682018060405250810190610ccb9190611fea565b5073__$acbfb1c35000d78352310b16a054a6b106$__63abcd796060035f7371f84aa585e1eda8852dad8dff3a69d114366dba73ffffffffffffffffffffffffffffffffffffffff1673ffffffffffffffffffffffffffffffffffffffff1681526020019081526020015f20545f6040518363ffffffff1660e01b8152600401610d56929190612171565b602060405180830381865af4158015610d71573d5f803e3d5ffd5b505050506040513d601f19601f82011682018060405250810190610d959190611fea565b5073__$acbfb1c35000d78352310b16a054a6b106$__63767392b360015f626d425981526020019081526020015f205f9054906101000a900460ff1660016040518363ffffffff1660e01b8152600401610df092919061222a565b602060405180830381865af4158015610e0b573d5f803e3d5ffd5b505050506040513d601f19601f82011682018060405250810190610e2f9190611fea565b5073__$acbfb1c35000d78352310b16a054a6b106$__63767392b360015f626d425a81526020019081526020015f205f9054906101000a900460ff1660016040518363ffffffff1660e01b8152600401610e8a9291906122d4565b602060405180830381865af4158015610ea5573d5f803e3d5ffd5b505050506040513d601f19601f82011682018060405250810190610ec99190611fea565b5073__$acbfb1c35000d78352310b16a054a6b106$__63767392b360015f626d425b81526020019081526020015f205f9054906101000a900460ff1660016040518363ffffffff1660e01b8152600401610f2492919061237e565b602060405180830381865af4158015610f3f573d5f803e3d5ffd5b505050506040513d601f19601f82011682018060405250810190610f639190611fea565b5073__$acbfb1c35000d78352310b16a054a6b106$__63767392b360015f626d425c81526020019081526020015f205f9054906101000a900460ff165f6040518363ffffffff1660e01b8152600401610fbd929190612428565b602060405180830381865af4158015610fd8573d5f803e3d5ffd5b505050506040513d601f19601f82011682018060405250810190610ffc9190611fea565b5073__$acbfb1c35000d78352310b16a054a6b106$__63767392b360015f626d425d81526020019081526020015f205f9054906101000a900460ff165f6040518363ffffffff1660e01b81526004016110569291906124d2565b602060405180830381865af4158015611071573d5f803e3d5ffd5b505050506040513d601f19601f820116820180604052508101906110959190611fea565b505050565b5f806110a58361120e565b90505f805b8251811015611203575f808483815181106110c8576110c7611dc4565b5b60200260200101515f015181526020019081526020015f205f9054906101000a900460ff168015611132575060015f84838151811061110a57611109611dc4565b5b60200260200101516020015181526020019081526020015f205f9054906101000a900460ff16155b156111f0576001805f85848151811061114e5761114d611dc4565b5b60200260200101516020015181526020019081526020015f205f6101000a81548160ff0219169083151502179055506111e183828151811061119357611192611dc4565b5b6020026020010151604001518483815181106111b2576111b1611dc4565b5b60200260200101515f01518584815181106111d0576111cf611dc4565b5b602002602001015160200151611706565b81806111ec90611e6f565b9250505b80806111fb90611e6f565b9150506110aa565b508092505050919050565b60606002825161121e9190612539565b67ffffffffffffffff81111561123757611236611b18565b5b60405190808252806020026020018201604052801561127057816020015b61125d611977565b8152602001906001900390816112555790505b5090505f805b83518110156114fd575f6112ae6112a986848151811061129957611298611dc4565b5b60200260200101515f6020611791565b61179a565b90507fddf252ad1be2c89b69c2b068fc378daa952ba7f163c4a11628f55a4df523b3ef81036113ca575f6113076113028785815181106112f1576112f0611dc4565b5b602002602001015160206014611791565b6117a0565b90505f61133961133488868151811061132357611322611dc4565b5b602002602001015160406020611791565b6117a6565b9050611344826117ac565b61134d81611845565b8186868151811061136157611360611dc4565b5b60200260200101516040019073ffffffffffffffffffffffffffffffffffffffff16908173ffffffffffffffffffffffffffffffffffffffff1681525050808686815181106113b3576113b2611dc4565b5b6020026020010151602001818152505050506114e9565b7f4b3711cd7ece062b0828c1b6e08d814a72d4c003383a016c833cbb1b45956e3481036114e8575f61142061141b87858151811061140b5761140a611dc4565b5b6020026020010151602080611791565b6117a6565b90505f61145261144d88868151811061143c5761143b611dc4565b5b602002602001015160406020611791565b6117a6565b90508186868151811061146857611467611dc4565b5b60200260200101515f0181815250508086868151811061148b5761148a611dc4565b5b602002602001015160200151146114d7576040517f08c379a00000000000000000000000000000000000000000000000000000000081526004016114ce906125c3565b60405180910390fd5b84806114e290611e6f565b95505050505b5b5080806114f590611e6f565b915050611276565b5080825250919050565b61159d8160405160240161151b919061264b565b6040516020818303038152906040527f41304fac000000000000000000000000000000000000000000000000000000007bffffffffffffffffffffffffffffffffffffffffffffffffffffffff19166020820180517bffffffffffffffffffffffffffffffffffffffffffffffffffffffff83818316178352505050506118de565b50565b61163882826040516024016115b692919061266b565b6040516020818303038152906040527fb60e72cc000000000000000000000000000000000000000000000000000000007bffffffffffffffffffffffffffffffffffffffffffffffffffffffff19166020820180517bffffffffffffffffffffffffffffffffffffffffffffffffffffffff83818316178352505050506118de565b5050565b60607fddf252ad1be2c89b69c2b068fc378daa952ba7f163c4a11628f55a4df523b3ef5f1b5f801b8473ffffffffffffffffffffffffffffffffffffffff165f1b845f1b6040516020016116939493929190611d81565b604051602081830303815290604052905092915050565b60607f4b3711cd7ece062b0828c1b6e08d814a72d4c003383a016c833cbb1b45956e345f1b835f1b5f801b5f801b855f1b6040516020016116ef959493929190611df1565b604051602081830303815290604052905092915050565b6117118383836118f8565b6729a2241af62c000060025f82825461172a9190612699565b925050819055506729a2241af62c000060035f8573ffffffffffffffffffffffffffffffffffffffff1673ffffffffffffffffffffffffffffffffffffffff1681526020019081526020015f205f8282546117859190612699565b92505081905550505050565b60609392505050565b5f919050565b5f919050565b5f919050565b611842816040516024016117c091906126db565b6040516020818303038152906040527f2c2ecbc2000000000000000000000000000000000000000000000000000000007bffffffffffffffffffffffffffffffffffffffffffffffffffffffff19166020820180517bffffffffffffffffffffffffffffffffffffffffffffffffffffffff83818316178352505050506118de565b50565b6118db816040516024016118599190611aeb565b6040516020818303038152906040527ff82c50f1000000000000000000000000000000000000000000000000000000007bffffffffffffffffffffffffffffffffffffffffffffffffffffffff19166020820180517bffffffffffffffffffffffffffffffffffffffffffffffffffffffff83818316178352505050506118de565b50565b6118f5816118ed61194d61196c565b63ffffffff16565b50565b8273ffffffffffffffffffffffffffffffffffffffff167f5ef3bd3c823875bc38df6c327ef163659ef15ff1e9898230df18cc50316a91c183836040516119409291906126f4565b60405180910390a2505050565b5f6a636f6e736f6c652e6c6f6790505f80835160208501845afa505050565b6119ab819050919050565b60405180606001604052805f81526020015f81526020015f73ffffffffffffffffffffffffffffffffffffffff1681525090565b6119b361271b565b565b5f604051905090565b5f80fd5b5f80fd5b5f819050919050565b6119d8816119c6565b81146119e2575f80fd5b50565b5f813590506119f3816119cf565b92915050565b5f60208284031215611a0e57611a0d6119be565b5b5f611a1b848285016119e5565b91505092915050565b5f8115159050919050565b611a3881611a24565b82525050565b5f602082019050611a515f830184611a2f565b92915050565b5f73ffffffffffffffffffffffffffffffffffffffff82169050919050565b5f611a8082611a57565b9050919050565b611a9081611a76565b8114611a9a575f80fd5b50565b5f81359050611aab81611a87565b92915050565b5f60208284031215611ac657611ac56119be565b5b5f611ad384828501611a9d565b91505092915050565b611ae5816119c6565b82525050565b5f602082019050611afe5f830184611adc565b92915050565b5f80fd5b5f601f19601f8301169050919050565b7f4e487b71000000000000000000000000000000000000000000000000000000005f52604160045260245ffd5b611b4e82611b08565b810181811067ffffffffffffffff82111715611b6d57611b6c611b18565b5b80604052505050565b5f611b7f6119b5565b9050611b8b8282611b45565b919050565b5f67ffffffffffffffff821115611baa57611ba9611b18565b5b602082029050602081019050919050565b5f80fd5b5f80fd5b5f67ffffffffffffffff821115611bdd57611bdc611b18565b5b611be682611b08565b9050602081019050919050565b828183375f83830152505050565b5f611c13611c0e84611bc3565b611b76565b905082815260208101848484011115611c2f57611c2e611bbf565b5b611c3a848285611bf3565b509392505050565b5f82601f830112611c5657611c55611b04565b5b8135611c66848260208601611c01565b91505092915050565b5f611c81611c7c84611b90565b611b76565b90508083825260208201905060208402830185811115611ca457611ca3611bbb565b5b835b81811015611ceb57803567ffffffffffffffff811115611cc957611cc8611b04565b5b808601611cd68982611c42565b85526020850194505050602081019050611ca6565b5050509392505050565b5f82601f830112611d0957611d08611b04565b5b8135611d19848260208601611c6f565b91505092915050565b5f60208284031215611d3757611d366119be565b5b5f82013567ffffffffffffffff811115611d5457611d536119c2565b5b611d6084828501611cf5565b91505092915050565b5f819050919050565b611d7b81611d69565b82525050565b5f608082019050611d945f830187611d72565b611da16020830186611d72565b611dae6040830185611d72565b611dbb6060830184611d72565b95945050505050565b7f4e487b71000000000000000000000000000000000000000000000000000000005f52603260045260245ffd5b5f60a082019050611e045f830188611d72565b611e116020830187611d72565b611e1e6040830186611d72565b611e2b6060830185611d72565b611e386080830184611d72565b9695505050505050565b7f4e487b71000000000000000000000000000000000000000000000000000000005f52601160045260245ffd5b5f611e79826119c6565b91507fffffffffffffffffffffffffffffffffffffffffffffffffffffffffffffffff8203611eab57611eaa611e42565b5b600182019050919050565b5f611ec0826119c6565b9150611ecb836119c6565b9250828202611ed9816119c6565b91508282048414831517611ef057611eef611e42565b5b5092915050565b611f00816119c6565b82525050565b5f82825260208201905092915050565b7f53686f756c64206d696e7420636f727265637420746f74616c20616d6f756e745f8201527f206f6620746f6b656e7300000000000000000000000000000000000000000000602082015250565b5f611f70602a83611f06565b9150611f7b82611f16565b604082019050919050565b5f606082019050611f995f830185611ef7565b611fa66020830184611ef7565b8181036040830152611fb781611f64565b90509392505050565b611fc981611a24565b8114611fd3575f80fd5b50565b5f81519050611fe481611fc0565b92915050565b5f60208284031215611fff57611ffe6119be565b5b5f61200c84828501611fd6565b91505092915050565b7f557365722073686f756c64207265636569766520746f6b656e7320666f7220775f8201527f686974656c6973746564206576656e7400000000000000000000000000000000602082015250565b5f61206f603083611f06565b915061207a82612015565b604082019050919050565b5f6060820190506120985f830185611ef7565b6120a56020830184611ef7565b81810360408301526120b681612063565b90509392505050565b5f819050919050565b5f819050919050565b5f6120eb6120e66120e1846120bf565b6120c8565b6119c6565b9050919050565b6120fb816120d1565b82525050565b7f557365722073686f756c64206e6f74207265636569766520746f6b656e7320665f8201527f6f72206e6f6e2d77686974656c6973746564206576656e740000000000000000602082015250565b5f61215b603883611f06565b915061216682612101565b604082019050919050565b5f6060820190506121845f830185611ef7565b61219160208301846120f2565b81810360408301526121a28161214f565b90509392505050565b6121b481611a24565b82525050565b7f546f6b656e49642030783664343235392073686f756c64206265206d61726b655f8201527f642061732070726f636573736564000000000000000000000000000000000000602082015250565b5f612214602e83611f06565b915061221f826121ba565b604082019050919050565b5f60608201905061223d5f8301856121ab565b61224a60208301846121ab565b818103604083015261225b81612208565b90509392505050565b7f546f6b656e49642030783664343235612073686f756c64206265206d61726b655f8201527f642061732070726f636573736564000000000000000000000000000000000000602082015250565b5f6122be602e83611f06565b91506122c982612264565b604082019050919050565b5f6060820190506122e75f8301856121ab565b6122f460208301846121ab565b8181036040830152612305816122b2565b90509392505050565b7f546f6b656e49642030783664343235622073686f756c64206265206d61726b655f8201527f642061732070726f636573736564000000000000000000000000000000000000602082015250565b5f612368602e83611f06565b91506123738261230e565b604082019050919050565b5f6060820190506123915f8301856121ab565b61239e60208301846121ab565b81810360408301526123af8161235c565b90509392505050565b7f546f6b656e49642030783664343235632073686f756c64206e6f74206265206d5f8201527f61726b65642061732070726f6365737365640000000000000000000000000000602082015250565b5f612412603283611f06565b915061241d826123b8565b604082019050919050565b5f60608201905061243b5f8301856121ab565b61244860208301846121ab565b818103604083015261245981612406565b90509392505050565b7f546f6b656e49642030783664343235642073686f756c64206e6f74206265206d5f8201527f61726b65642061732070726f6365737365640000000000000000000000000000602082015250565b5f6124bc603283611f06565b91506124c782612462565b604082019050919050565b5f6060820190506124e55f8301856121ab565b6124f260208301846121ab565b8181036040830152612503816124b0565b90509392505050565b7f4e487b71000000000000000000000000000000000000000000000000000000005f52601260045260245ffd5b5f612543826119c6565b915061254e836119c6565b92508261255e5761255d61250c565b5b828204905092915050565b5f82825260208201905092915050565b7f546f6b656e4964206d69736d61746368000000000000000000000000000000005f82015250565b5f6125ad601083612569565b91506125b882612579565b602082019050919050565b5f6020820190508181035f8301526125da816125a1565b9050919050565b5f81519050919050565b5f5b838110156126085780820151818401526020810190506125ed565b5f8484015250505050565b5f61261d826125e1565b6126278185612569565b93506126378185602086016125eb565b61264081611b08565b840191505092915050565b5f6020820190508181035f8301526126638184612613565b905092915050565b5f6040820190508181035f8301526126838185612613565b90506126926020830184611adc565b9392505050565b5f6126a3826119c6565b91506126ae836119c6565b92508282019050808211156126c6576126c5611e42565b5b92915050565b6126d581611a76565b82525050565b5f6020820190506126ee5f8301846126cc565b92915050565b5f6040820190506127075f830185611adc565b6127146020830184611adc565b9392505050565b7f4e487b71000000000000000000000000000000000000000000000000000000005f52605160045260245ffdfea2646970667358221220bddd29b5a548bd4de651719993d7e53f868de27c2a65941838367b5badce4d6164736f6c63430008140033",
			"opcodes": "PUSH1 0x80 PUSH1 0x40 MSTORE CALLVALUE DUP1 ISZERO PUSH2 0xF JUMPI PUSH0 DUP1 REVERT JUMPDEST POP PUSH2 0x277E DUP1 PUSH2 0x1D PUSH0 CODECOPY PUSH0 RETURN INVALID PUSH1 0x80 PUSH1 0x40 MSTORE CALLVALUE DUP1 ISZERO PUSH2 0xF JUMPI PUSH0 DUP1 REVERT JUMPDEST POP PUSH1 0x4 CALLDATASIZE LT PUSH2 0x91 JUMPI PUSH0 CALLDATALOAD PUSH1 0xE0 SHR DUP1 PUSH4 0x84D36EB8 GT PUSH2 0x64 JUMPI DUP1 PUSH4 0x84D36EB8 EQ PUSH2 0x143 JUMPI DUP1 PUSH4 0x8F0A4E79 EQ PUSH2 0x161 JUMPI DUP1 PUSH4 0xC3F3AC96 EQ PUSH2 0x17D JUMPI DUP1 PUSH4 0xCF2D4124 EQ PUSH2 0x187 JUMPI DUP1 PUSH4 0xCF3845A6 EQ PUSH2 0x191 JUMPI PUSH2 0x91 JUMP JUMPDEST DUP1 PUSH4 0xA8595B0 EQ PUSH2 0x95 JUMPI DUP1 PUSH4 0x25656307 EQ PUSH2 0xC5 JUMPI DUP1 PUSH4 0x2D380242 EQ PUSH2 0xF5 JUMPI DUP1 PUSH4 0x7D526123 EQ PUSH2 0x113 JUMPI JUMPDEST PUSH0 DUP1 REVERT JUMPDEST PUSH2 0xAF PUSH1 0x4 DUP1 CALLDATASIZE SUB DUP2 ADD SWAP1 PUSH2 0xAA SWAP2 SWAP1 PUSH2 0x19F9 JUMP JUMPDEST PUSH2 0x1C1 JUMP JUMPDEST PUSH1 0x40 MLOAD PUSH2 0xBC SWAP2 SWAP1 PUSH2 0x1A3E JUMP JUMPDEST PUSH1 0x40 MLOAD DUP1 SWAP2 SUB SWAP1 RETURN JUMPDEST PUSH2 0xDF PUSH1 0x4 DUP1 CALLDATASIZE SUB DUP2 ADD SWAP1 PUSH2 0xDA SWAP2 SWAP1 PUSH2 0x1AB1 JUMP JUMPDEST PUSH2 0x1DE JUMP JUMPDEST PUSH1 0x40 MLOAD PUSH2 0xEC SWAP2 SWAP1 PUSH2 0x1AEB JUMP JUMPDEST PUSH1 0x40 MLOAD DUP1 SWAP2 SUB SWAP1 RETURN JUMPDEST PUSH2 0xFD PUSH2 0x1F3 JUMP JUMPDEST PUSH1 0x40 MLOAD PUSH2 0x10A SWAP2 SWAP1 PUSH2 0x1AEB JUMP JUMPDEST PUSH1 0x40 MLOAD DUP1 SWAP2 SUB SWAP1 RETURN JUMPDEST PUSH2 0x12D PUSH1 0x4 DUP1 CALLDATASIZE SUB DUP2 ADD SWAP1 PUSH2 0x128 SWAP2 SWAP1 PUSH2 0x19F9 JUMP JUMPDEST PUSH2 0x1F9 JUMP JUMPDEST PUSH1 0x40 MLOAD PUSH2 0x13A SWAP2 SWAP1 PUSH2 0x1A3E JUMP JUMPDEST PUSH1 0x40 MLOAD DUP1 SWAP2 SUB SWAP1 RETURN JUMPDEST PUSH2 0x14B PUSH2 0x215 JUMP JUMPDEST PUSH1 0x40 MLOAD PUSH2 0x158 SWAP2 SWAP1 PUSH2 0x1AEB JUMP JUMPDEST PUSH1 0x40 MLOAD DUP1 SWAP2 SUB SWAP1 RETURN JUMPDEST PUSH2 0x17B PUSH1 0x4 DUP1 CALLDATASIZE SUB DUP2 ADD SWAP1 PUSH2 0x176 SWAP2 SWAP1 PUSH2 0x19F9 JUMP JUMPDEST PUSH2 0x221 JUMP JUMPDEST STOP JUMPDEST PUSH2 0x185 PUSH2 0x24C JUMP JUMPDEST STOP JUMPDEST PUSH2 0x18F PUSH2 0x651 JUMP JUMPDEST STOP JUMPDEST PUSH2 0x1AB PUSH1 0x4 DUP1 CALLDATASIZE SUB DUP2 ADD SWAP1 PUSH2 0x1A6 SWAP2 SWAP1 PUSH2 0x1D22 JUMP JUMPDEST PUSH2 0x109A JUMP JUMPDEST PUSH1 0x40 MLOAD PUSH2 0x1B8 SWAP2 SWAP1 PUSH2 0x1AEB JUMP JUMPDEST PUSH1 0x40 MLOAD DUP1 SWAP2 SUB SWAP1 RETURN JUMPDEST PUSH1 0x1 PUSH1 0x20 MSTORE DUP1 PUSH0 MSTORE PUSH1 0x40 PUSH0 KECCAK256 PUSH0 SWAP2 POP SLOAD SWAP1 PUSH2 0x100 EXP SWAP1 DIV PUSH1 0xFF AND DUP2 JUMP JUMPDEST PUSH1 0x3 PUSH1 0x20 MSTORE DUP1 PUSH0 MSTORE PUSH1 0x40 PUSH0 KECCAK256 PUSH0 SWAP2 POP SWAP1 POP SLOAD DUP2 JUMP JUMPDEST PUSH1 0x2 SLOAD DUP2 JUMP JUMPDEST PUSH0 PUSH1 0x20 MSTORE DUP1 PUSH0 MSTORE PUSH1 0x40 PUSH0 KECCAK256 PUSH0 SWAP2 POP SLOAD SWAP1 PUSH2 0x100 EXP SWAP1 DIV PUSH1 0xFF AND DUP2 JUMP JUMPDEST PUSH8 0x29A2241AF62C0000 DUP2 JUMP JUMPDEST PUSH1 0x1 PUSH0 DUP1 DUP4 DUP2 MSTORE PUSH1 0x20 ADD SWAP1 DUP2 MSTORE PUSH1 0x20 ADD PUSH0 KECCAK256 PUSH0 PUSH2 0x100 EXP DUP2 SLOAD DUP2 PUSH1 0xFF MUL NOT AND SWAP1 DUP4 ISZERO ISZERO MUL OR SWAP1 SSTORE POP POP JUMP JUMPDEST PUSH0 PUSH1 0x4 PUSH8 0xFFFFFFFFFFFFFFFF DUP2 GT ISZERO PUSH2 0x268 JUMPI PUSH2 0x267 PUSH2 0x1B18 JUMP JUMPDEST JUMPDEST PUSH1 0x40 MLOAD SWAP1 DUP1 DUP3 MSTORE DUP1 PUSH1 0x20 MUL PUSH1 0x20 ADD DUP3 ADD PUSH1 0x40 MSTORE DUP1 ISZERO PUSH2 0x29B JUMPI DUP2 PUSH1 0x20 ADD JUMPDEST PUSH1 0x60 DUP2 MSTORE PUSH1 0x20 ADD SWAP1 PUSH1 0x1 SWAP1 SUB SWAP1 DUP2 PUSH2 0x286 JUMPI SWAP1 POP JUMPDEST POP SWAP1 POP PUSH32 0xDDF252AD1BE2C89B69C2B068FC378DAA952BA7F163C4A11628F55A4DF523B3EF PUSH0 SHL PUSH0 DUP1 SHL PUSH20 0x1234567890123456789012345678901234567890 PUSH20 0xFFFFFFFFFFFFFFFFFFFFFFFFFFFFFFFFFFFFFFFF AND PUSH0 SHL PUSH2 0x3E8 PUSH0 SHL PUSH1 0x40 MLOAD PUSH1 0x20 ADD PUSH2 0x309 SWAP5 SWAP4 SWAP3 SWAP2 SWAP1 PUSH2 0x1D81 JUMP JUMPDEST PUSH1 0x40 MLOAD PUSH1 0x20 DUP2 DUP4 SUB SUB DUP2 MSTORE SWAP1 PUSH1 0x40 MSTORE DUP2 PUSH0 DUP2 MLOAD DUP2 LT PUSH2 0x32B JUMPI PUSH2 0x32A PUSH2 0x1DC4 JUMP JUMPDEST JUMPDEST PUSH1 0x20 MUL PUSH1 0x20 ADD ADD DUP2 SWAP1 MSTORE POP PUSH32 0x4B3711CD7ECE062B0828C1B6E08D814A72D4C003383A016C833CBB1B45956E34 PUSH0 SHL PUSH1 0x7B PUSH0 SHL PUSH0 DUP1 SHL PUSH0 DUP1 SHL PUSH2 0x3E8 PUSH0 SHL PUSH1 0x40 MLOAD PUSH1 0x20 ADD PUSH2 0x37C SWAP6 SWAP5 SWAP4 SWAP3 SWAP2 SWAP1 PUSH2 0x1DF1 JUMP JUMPDEST PUSH1 0x40 MLOAD PUSH1 0x20 DUP2 DUP4 SUB SUB DUP2 MSTORE SWAP1 PUSH1 0x40 MSTORE DUP2 PUSH1 0x1 DUP2 MLOAD DUP2 LT PUSH2 0x39F JUMPI PUSH2 0x39E PUSH2 0x1DC4 JUMP JUMPDEST JUMPDEST PUSH1 0x20 MUL PUSH1 0x20 ADD ADD DUP2 SWAP1 MSTORE POP PUSH32 0xDDF252AD1BE2C89B69C2B068FC378DAA952BA7F163C4A11628F55A4DF523B3EF PUSH0 SHL PUSH0 DUP1 SHL PUSH20 0x9876543210987654321098765432109876543210 PUSH20 0xFFFFFFFFFFFFFFFFFFFFFFFFFFFFFFFFFFFFFFFF AND PUSH0 SHL PUSH2 0x3E9 PUSH0 SHL PUSH1 0x40 MLOAD PUSH1 0x20 ADD PUSH2 0x415 SWAP5 SWAP4 SWAP3 SWAP2 SWAP1 PUSH2 0x1D81 JUMP JUMPDEST PUSH1 0x40 MLOAD PUSH1 0x20 DUP2 DUP4 SUB SUB DUP2 MSTORE SWAP1 PUSH1 0x40 MSTORE DUP2 PUSH1 0x2 DUP2 MLOAD DUP2 LT PUSH2 0x438 JUMPI PUSH2 0x437 PUSH2 0x1DC4 JUMP JUMPDEST JUMPDEST PUSH1 0x20 MUL PUSH1 0x20 ADD ADD DUP2 SWAP1 MSTORE POP PUSH32 0x4B3711CD7ECE062B0828C1B6E08D814A72D4C003383A016C833CBB1B45956E34 PUSH0 SHL PUSH2 0x1C8 PUSH0 SHL PUSH0 DUP1 SHL PUSH0 DUP1 SHL PUSH2 0x3E9 PUSH0 SHL PUSH1 0x40 MLOAD PUSH1 0x20 ADD PUSH2 0x48A SWAP6 SWAP5 SWAP4 SWAP3 SWAP2 SWAP1 PUSH2 0x1DF1 JUMP JUMPDEST PUSH1 0x40 MLOAD PUSH1 0x20 DUP2 DUP4 SUB SUB DUP2 MSTORE SWAP1 PUSH1 0x40 MSTORE DUP2 PUSH1 0x3 DUP2 MLOAD DUP2 LT PUSH2 0x4AD JUMPI PUSH2 0x4AC PUSH2 0x1DC4 JUMP JUMPDEST JUMPDEST PUSH1 0x20 MUL PUSH1 0x20 ADD ADD DUP2 SWAP1 MSTORE POP PUSH0 PUSH2 0x4C2 DUP3 PUSH2 0x120E JUMP JUMPDEST SWAP1 POP PUSH0 JUMPDEST DUP2 MLOAD DUP2 LT ISZERO PUSH2 0x64C JUMPI PUSH2 0x50D PUSH1 0x40 MLOAD DUP1 PUSH1 0x40 ADD PUSH1 0x40 MSTORE DUP1 PUSH1 0xE DUP2 MSTORE PUSH1 0x20 ADD PUSH32 0x4465636F646564204576656E743A000000000000000000000000000000000000 DUP2 MSTORE POP PUSH2 0x1507 JUMP JUMPDEST PUSH2 0x580 PUSH1 0x40 MLOAD DUP1 PUSH1 0x40 ADD PUSH1 0x40 MSTORE DUP1 PUSH1 0x5 DUP2 MSTORE PUSH1 0x20 ADD PUSH32 0x557365723A000000000000000000000000000000000000000000000000000000 DUP2 MSTORE POP DUP4 DUP4 DUP2 MLOAD DUP2 LT PUSH2 0x559 JUMPI PUSH2 0x558 PUSH2 0x1DC4 JUMP JUMPDEST JUMPDEST PUSH1 0x20 MUL PUSH1 0x20 ADD ADD MLOAD PUSH1 0x40 ADD MLOAD PUSH20 0xFFFFFFFFFFFFFFFFFFFFFFFFFFFFFFFFFFFFFFFF AND PUSH2 0x15A0 JUMP JUMPDEST PUSH2 0x5DC PUSH1 0x40 MLOAD DUP1 PUSH1 0x40 ADD PUSH1 0x40 MSTORE DUP1 PUSH1 0x8 DUP2 MSTORE PUSH1 0x20 ADD PUSH32 0x4576656E7449643A000000000000000000000000000000000000000000000000 DUP2 MSTORE POP DUP4 DUP4 DUP2 MLOAD DUP2 LT PUSH2 0x5CC JUMPI PUSH2 0x5CB PUSH2 0x1DC4 JUMP JUMPDEST JUMPDEST PUSH1 0x20 MUL PUSH1 0x20 ADD ADD MLOAD PUSH0 ADD MLOAD PUSH2 0x15A0 JUMP JUMPDEST PUSH2 0x639 PUSH1 0x40 MLOAD DUP1 PUSH1 0x40 ADD PUSH1 0x40 MSTORE DUP1 PUSH1 0x8 DUP2 MSTORE PUSH1 0x20 ADD PUSH32 0x546F6B656E49643A000000000000000000000000000000000000000000000000 DUP2 MSTORE POP DUP4 DUP4 DUP2 MLOAD DUP2 LT PUSH2 0x628 JUMPI PUSH2 0x627 PUSH2 0x1DC4 JUMP JUMPDEST JUMPDEST PUSH1 0x20 MUL PUSH1 0x20 ADD ADD MLOAD PUSH1 0x20 ADD MLOAD PUSH2 0x15A0 JUMP JUMPDEST DUP1 DUP1 PUSH2 0x644 SWAP1 PUSH2 0x1E6F JUMP JUMPDEST SWAP2 POP POP PUSH2 0x4C6 JUMP JUMPDEST POP POP POP JUMP JUMPDEST PUSH2 0x65D PUSH3 0x2AE60 PUSH2 0x221 JUMP JUMPDEST PUSH2 0x669 PUSH3 0x2AE5C PUSH2 0x221 JUMP JUMPDEST PUSH2 0x675 PUSH3 0x2AEEA PUSH2 0x221 JUMP JUMPDEST PUSH0 PUSH1 0xA PUSH8 0xFFFFFFFFFFFFFFFF DUP2 GT ISZERO PUSH2 0x691 JUMPI PUSH2 0x690 PUSH2 0x1B18 JUMP JUMPDEST JUMPDEST PUSH1 0x40 MLOAD SWAP1 DUP1 DUP3 MSTORE DUP1 PUSH1 0x20 MUL PUSH1 0x20 ADD DUP3 ADD PUSH1 0x40 MSTORE DUP1 ISZERO PUSH2 0x6C4 JUMPI DUP2 PUSH1 0x20 ADD JUMPDEST PUSH1 0x60 DUP2 MSTORE PUSH1 0x20 ADD SWAP1 PUSH1 0x1 SWAP1 SUB SWAP1 DUP2 PUSH2 0x6AF JUMPI SWAP1 POP JUMPDEST POP SWAP1 POP PUSH2 0x6E8 PUSH20 0x1698A2F0646ED48477C3896B7E8F7D934E77DF77 PUSH3 0x6D4259 PUSH2 0x163C JUMP JUMPDEST DUP2 PUSH0 DUP2 MLOAD DUP2 LT PUSH2 0x6FB JUMPI PUSH2 0x6FA PUSH2 0x1DC4 JUMP JUMPDEST JUMPDEST PUSH1 0x20 MUL PUSH1 0x20 ADD ADD DUP2 SWAP1 MSTORE POP PUSH2 0x716 PUSH3 0x2AE60 PUSH3 0x6D4259 PUSH2 0x16AA JUMP JUMPDEST DUP2 PUSH1 0x1 DUP2 MLOAD DUP2 LT PUSH2 0x72A JUMPI PUSH2 0x729 PUSH2 0x1DC4 JUMP JUMPDEST JUMPDEST PUSH1 0x20 MUL PUSH1 0x20 ADD ADD DUP2 SWAP1 MSTORE POP PUSH2 0x756 PUSH20 0x5091B567FE7160824950F5A4A1787A6BF6D47342 PUSH3 0x6D425A PUSH2 0x163C JUMP JUMPDEST DUP2 PUSH1 0x2 DUP2 MLOAD DUP2 LT PUSH2 0x76A JUMPI PUSH2 0x769 PUSH2 0x1DC4 JUMP JUMPDEST JUMPDEST PUSH1 0x20 MUL PUSH1 0x20 ADD ADD DUP2 SWAP1 MSTORE POP PUSH2 0x785 PUSH3 0x2AE5C PUSH3 0x6D425A PUSH2 0x16AA JUMP JUMPDEST DUP2 PUSH1 0x3 DUP2 MLOAD DUP2 LT PUSH2 0x799 JUMPI PUSH2 0x798 PUSH2 0x1DC4 JUMP JUMPDEST JUMPDEST PUSH1 0x20 MUL PUSH1 0x20 ADD ADD DUP2 SWAP1 MSTORE POP PUSH2 0x7C5 PUSH20 0x154620DDFDCD6AB15DD9C1682386DEBAD1EEF536 PUSH3 0x6D425B PUSH2 0x163C JUMP JUMPDEST DUP2 PUSH1 0x4 DUP2 MLOAD DUP2 LT PUSH2 0x7D9 JUMPI PUSH2 0x7D8 PUSH2 0x1DC4 JUMP JUMPDEST JUMPDEST PUSH1 0x20 MUL PUSH1 0x20 ADD ADD DUP2 SWAP1 MSTORE POP PUSH2 0x7F4 PUSH3 0x2AEEA PUSH3 0x6D425B PUSH2 0x16AA JUMP JUMPDEST DUP2 PUSH1 0x5 DUP2 MLOAD DUP2 LT PUSH2 0x808 JUMPI PUSH2 0x807 PUSH2 0x1DC4 JUMP JUMPDEST JUMPDEST PUSH1 0x20 MUL PUSH1 0x20 ADD ADD DUP2 SWAP1 MSTORE POP PUSH2 0x834 PUSH20 0x77C1FA56E780FEEF04E8D3BCBBD96E9F79935E0 PUSH3 0x6D425C PUSH2 0x163C JUMP JUMPDEST DUP2 PUSH1 0x6 DUP2 MLOAD DUP2 LT PUSH2 0x848 JUMPI PUSH2 0x847 PUSH2 0x1DC4 JUMP JUMPDEST JUMPDEST PUSH1 0x20 MUL PUSH1 0x20 ADD ADD DUP2 SWAP1 MSTORE POP PUSH2 0x863 PUSH3 0x2AD78 PUSH3 0x6D425C PUSH2 0x16AA JUMP JUMPDEST DUP2 PUSH1 0x7 DUP2 MLOAD DUP2 LT PUSH2 0x877 JUMPI PUSH2 0x876 PUSH2 0x1DC4 JUMP JUMPDEST JUMPDEST PUSH1 0x20 MUL PUSH1 0x20 ADD ADD DUP2 SWAP1 MSTORE POP PUSH2 0x8A3 PUSH20 0x71F84AA585E1EDA8852DAD8DFF3A69D114366DBA PUSH3 0x6D425D PUSH2 0x163C JUMP JUMPDEST DUP2 PUSH1 0x8 DUP2 MLOAD DUP2 LT PUSH2 0x8B7 JUMPI PUSH2 0x8B6 PUSH2 0x1DC4 JUMP JUMPDEST JUMPDEST PUSH1 0x20 MUL PUSH1 0x20 ADD ADD DUP2 SWAP1 MSTORE POP PUSH2 0x8D2 PUSH3 0x2AE3F PUSH3 0x6D425D PUSH2 0x16AA JUMP JUMPDEST DUP2 PUSH1 0x9 DUP2 MLOAD DUP2 LT PUSH2 0x8E6 JUMPI PUSH2 0x8E5 PUSH2 0x1DC4 JUMP JUMPDEST JUMPDEST PUSH1 0x20 MUL PUSH1 0x20 ADD ADD DUP2 SWAP1 MSTORE POP PUSH0 PUSH2 0x8FB DUP3 PUSH2 0x109A JUMP JUMPDEST SWAP1 POP PUSH20 0x0 PUSH4 0xABCD7960 PUSH1 0x2 SLOAD PUSH1 0x3 PUSH8 0x29A2241AF62C0000 PUSH2 0x92F SWAP2 SWAP1 PUSH2 0x1EB6 JUMP JUMPDEST PUSH1 0x40 MLOAD DUP4 PUSH4 0xFFFFFFFF AND PUSH1 0xE0 SHL DUP2 MSTORE PUSH1 0x4 ADD PUSH2 0x94C SWAP3 SWAP2 SWAP1 PUSH2 0x1F86 JUMP JUMPDEST PUSH1 0x20 PUSH1 0x40 MLOAD DUP1 DUP4 SUB DUP2 DUP7 GAS DELEGATECALL ISZERO DUP1 ISZERO PUSH2 0x967 JUMPI RETURNDATASIZE PUSH0 DUP1 RETURNDATACOPY RETURNDATASIZE PUSH0 REVERT JUMPDEST POP POP POP POP PUSH1 0x40 MLOAD RETURNDATASIZE PUSH1 0x1F NOT PUSH1 0x1F DUP3 ADD AND DUP3 ADD DUP1 PUSH1 0x40 MSTORE POP DUP2 ADD SWAP1 PUSH2 0x98B SWAP2 SWAP1 PUSH2 0x1FEA JUMP JUMPDEST POP PUSH20 0x0 PUSH4 0xABCD7960 PUSH1 0x3 PUSH0 PUSH20 0x5091B567FE7160824950F5A4A1787A6BF6D47342 PUSH20 0xFFFFFFFFFFFFFFFFFFFFFFFFFFFFFFFFFFFFFFFF AND PUSH20 0xFFFFFFFFFFFFFFFFFFFFFFFFFFFFFFFFFFFFFFFF AND DUP2 MSTORE PUSH1 0x20 ADD SWAP1 DUP2 MSTORE PUSH1 0x20 ADD PUSH0 KECCAK256 SLOAD PUSH8 0x29A2241AF62C0000 PUSH1 0x40 MLOAD DUP4 PUSH4 0xFFFFFFFF AND PUSH1 0xE0 SHL DUP2 MSTORE PUSH1 0x4 ADD PUSH2 0xA1E SWAP3 SWAP2 SWAP1 PUSH2 0x2085 JUMP JUMPDEST PUSH1 0x20 PUSH1 0x40 MLOAD DUP1 DUP4 SUB DUP2 DUP7 GAS DELEGATECALL ISZERO DUP1 ISZERO PUSH2 0xA39 JUMPI RETURNDATASIZE PUSH0 DUP1 RETURNDATACOPY RETURNDATASIZE PUSH0 REVERT JUMPDEST POP POP POP POP PUSH1 0x40 MLOAD RETURNDATASIZE PUSH1 0x1F NOT PUSH1 0x1F DUP3 ADD AND DUP3 ADD DUP1 PUSH1 0x40 MSTORE POP DUP2 ADD SWAP1 PUSH2 0xA5D SWAP2 SWAP1 PUSH2 0x1FEA JUMP JUMPDEST POP PUSH20 0x0 PUSH4 0xABCD7960 PUSH1 0x3 PUSH0 PUSH20 0x154620DDFDCD6AB15DD9C1682386DEBAD1EEF536 PUSH20 0xFFFFFFFFFFFFFFFFFFFFFFFFFFFFFFFFFFFFFFFF AND PUSH20 0xFFFFFFFFFFFFFFFFFFFFFFFFFFFFFFFFFFFFFFFF AND DUP2 MSTORE PUSH1 0x20 ADD SWAP1 DUP2 MSTORE PUSH1 0x20 ADD PUSH0 KECCAK256 SLOAD PUSH8 0x29A2241AF62C0000 PUSH1 0x40 MLOAD DUP4 PUSH4 0xFFFFFFFF AND PUSH1 0xE0 SHL DUP2 MSTORE PUSH1 0x4 ADD PUSH2 0xAF0 SWAP3 SWAP2 SWAP1 PUSH2 0x2085 JUMP JUMPDEST PUSH1 0x20 PUSH1 0x40 MLOAD DUP1 DUP4 SUB DUP2 DUP7 GAS DELEGATECALL ISZERO DUP1 ISZERO PUSH2 0xB0B JUMPI RETURNDATASIZE PUSH0 DUP1 RETURNDATACOPY RETURNDATASIZE PUSH0 REVERT JUMPDEST POP POP POP POP PUSH1 0x40 MLOAD RETURNDATASIZE PUSH1 0x1F NOT PUSH1 0x1F DUP3 ADD AND DUP3 ADD DUP1 PUSH1 0x40 MSTORE POP DUP2 ADD SWAP1 PUSH2 0xB2F SWAP2 SWAP1 PUSH2 0x1FEA JUMP JUMPDEST POP PUSH20 0x0 PUSH4 0xABCD7960 PUSH1 0x3 PUSH0 PUSH20 0x1698A2F0646ED48477C3896B7E8F7D934E77DF77 PUSH20 0xFFFFFFFFFFFFFFFFFFFFFFFFFFFFFFFFFFFFFFFF AND PUSH20 0xFFFFFFFFFFFFFFFFFFFFFFFFFFFFFFFFFFFFFFFF AND DUP2 MSTORE PUSH1 0x20 ADD SWAP1 DUP2 MSTORE PUSH1 0x20 ADD PUSH0 KECCAK256 SLOAD PUSH8 0x29A2241AF62C0000 PUSH1 0x40 MLOAD DUP4 PUSH4 0xFFFFFFFF AND PUSH1 0xE0 SHL DUP2 MSTORE PUSH1 0x4 ADD PUSH2 0xBC2 SWAP3 SWAP2 SWAP1 PUSH2 0x2085 JUMP JUMPDEST PUSH1 0x20 PUSH1 0x40 MLOAD DUP1 DUP4 SUB DUP2 DUP7 GAS DELEGATECALL ISZERO DUP1 ISZERO PUSH2 0xBDD JUMPI RETURNDATASIZE PUSH0 DUP1 RETURNDATACOPY RETURNDATASIZE PUSH0 REVERT JUMPDEST POP POP POP POP PUSH1 0x40 MLOAD RETURNDATASIZE PUSH1 0x1F NOT PUSH1 0x1F DUP3 ADD AND DUP3 ADD DUP1 PUSH1 0x40 MSTORE POP DUP2 ADD SWAP1 PUSH2 0xC01 SWAP2 SWAP1 PUSH2 0x1FEA JUMP JUMPDEST POP PUSH20 0x0 PUSH4 0xABCD7960 PUSH1 0x3 PUSH0 PUSH20 0x154620DDFDCD6AB15DD9C1682386DEBAD1EEF536 PUSH20 0xFFFFFFFFFFFFFFFFFFFFFFFFFFFFFFFFFFFFFFFF AND PUSH20 0xFFFFFFFFFFFFFFFFFFFFFFFFFFFFFFFFFFFFFFFF AND DUP2 MSTORE PUSH1 0x20 ADD SWAP1 DUP2 MSTORE PUSH1 0x20 ADD PUSH0 KECCAK256 SLOAD PUSH0 PUSH1 0x40 MLOAD DUP4 PUSH4 0xFFFFFFFF AND PUSH1 0xE0 SHL DUP2 MSTORE PUSH1 0x4 ADD PUSH2 0xC8C SWAP3 SWAP2 SWAP1 PUSH2 0x2171 JUMP JUMPDEST PUSH1 0x20 PUSH1 0x40 MLOAD DUP1 DUP4 SUB DUP2 DUP7 GAS DELEGATECALL ISZERO DUP1 ISZERO PUSH2 0xCA7 JUMPI RETURNDATASIZE PUSH0 DUP1 RETURNDATACOPY RETURNDATASIZE PUSH0 REVERT JUMPDEST POP POP POP POP PUSH1 0x40 MLOAD RETURNDATASIZE PUSH1 0x1F NOT PUSH1 0x1F DUP3 ADD AND DUP3 ADD DUP1 PUSH1 0x40 MSTORE POP DUP2 ADD SWAP1 PUSH2 0xCCB SWAP2 SWAP1 PUSH2 0x1FEA JUMP JUMPDEST POP PUSH20 0x0 PUSH4 0xABCD7960 PUSH1 0x3 PUSH0 PUSH20 0x71F84AA585E1EDA8852DAD8DFF3A69D114366DBA PUSH20 0xFFFFFFFFFFFFFFFFFFFFFFFFFFFFFFFFFFFFFFFF AND PUSH20 0xFFFFFFFFFFFFFFFFFFFFFFFFFFFFFFFFFFFFFFFF AND DUP2 MSTORE PUSH1 0x20 ADD SWAP1 DUP2 MSTORE PUSH1 0x20 ADD PUSH0 KECCAK256 SLOAD PUSH0 PUSH1 0x40 MLOAD DUP4 PUSH4 0xFFFFFFFF AND PUSH1 0xE0 SHL DUP2 MSTORE PUSH1 0x4 ADD PUSH2 0xD56 SWAP3 SWAP2 SWAP1 PUSH2 0x2171 JUMP JUMPDEST PUSH1 0x20 PUSH1 0x40 MLOAD DUP1 DUP4 SUB DUP2 DUP7 GAS DELEGATECALL ISZERO DUP1 ISZERO PUSH2 0xD71 JUMPI RETURNDATASIZE PUSH0 DUP1 RETURNDATACOPY RETURNDATASIZE PUSH0 REVERT JUMPDEST POP POP POP POP PUSH1 0x40 MLOAD RETURNDATASIZE PUSH1 0x1F NOT PUSH1 0x1F DUP3 ADD AND DUP3 ADD DUP1 PUSH1 0x40 MSTORE POP DUP2 ADD SWAP1 PUSH2 0xD95 SWAP2 SWAP1 PUSH2 0x1FEA JUMP JUMPDEST POP PUSH20 0x0 PUSH4 0x767392B3 PUSH1 0x1 PUSH0 PUSH3 0x6D4259 DUP2 MSTORE PUSH1 0x20 ADD SWAP1 DUP2 MSTORE PUSH1 0x20 ADD PUSH0 KECCAK256 PUSH0 SWAP1 SLOAD SWAP1 PUSH2 0x100 EXP SWAP1 DIV PUSH1 0xFF AND PUSH1 0x1 PUSH1 0x40 MLOAD DUP4 PUSH4 0xFFFFFFFF AND PUSH1 0xE0 SHL DUP2 MSTORE PUSH1 0x4 ADD PUSH2 0xDF0 SWAP3 SWAP2 SWAP1 PUSH2 0x222A JUMP JUMPDEST PUSH1 0x20 PUSH1 0x40 MLOAD DUP1 DUP4 SUB DUP2 DUP7 GAS DELEGATECALL ISZERO DUP1 ISZERO PUSH2 0xE0B JUMPI RETURNDATASIZE PUSH0 DUP1 RETURNDATACOPY RETURNDATASIZE PUSH0 REVERT JUMPDEST POP POP POP POP PUSH1 0x40 MLOAD RETURNDATASIZE PUSH1 0x1F NOT PUSH1 0x1F DUP3 ADD AND DUP3 ADD DUP1 PUSH1 0x40 MSTORE POP DUP2 ADD SWAP1 PUSH2 0xE2F SWAP2 SWAP1 PUSH2 0x1FEA JUMP JUMPDEST POP PUSH20 0x0 PUSH4 0x767392B3 PUSH1 0x1 PUSH0 PUSH3 0x6D425A DUP2 MSTORE PUSH1 0x20 ADD SWAP1 DUP2 MSTORE PUSH1 0x20 ADD PUSH0 KECCAK256 PUSH0 SWAP1 SLOAD SWAP1 PUSH2 0x100 EXP SWAP1 DIV PUSH1 0xFF AND PUSH1 0x1 PUSH1 0x40 MLOAD DUP4 PUSH4 0xFFFFFFFF AND PUSH1 0xE0 SHL DUP2 MSTORE PUSH1 0x4 ADD PUSH2 0xE8A SWAP3 SWAP2 SWAP1 PUSH2 0x22D4 JUMP JUMPDEST PUSH1 0x20 PUSH1 0x40 MLOAD DUP1 DUP4 SUB DUP2 DUP7 GAS DELEGATECALL ISZERO DUP1 ISZERO PUSH2 0xEA5 JUMPI RETURNDATASIZE PUSH0 DUP1 RETURNDATACOPY RETURNDATASIZE PUSH0 REVERT JUMPDEST POP POP POP POP PUSH1 0x40 MLOAD RETURNDATASIZE PUSH1 0x1F NOT PUSH1 0x1F DUP3 ADD AND DUP3 ADD DUP1 PUSH1 0x40 MSTORE POP DUP2 ADD SWAP1 PUSH2 0xEC9 SWAP2 SWAP1 PUSH2 0x1FEA JUMP JUMPDEST POP PUSH20 0x0 PUSH4 0x767392B3 PUSH1 0x1 PUSH0 PUSH3 0x6D425B DUP2 MSTORE PUSH1 0x20 ADD SWAP1 DUP2 MSTORE PUSH1 0x20 ADD PUSH0 KECCAK256 PUSH0 SWAP1 SLOAD SWAP1 PUSH2 0x100 EXP SWAP1 DIV PUSH1 0xFF AND PUSH1 0x1 PUSH1 0x40 MLOAD DUP4 PUSH4 0xFFFFFFFF AND PUSH1 0xE0 SHL DUP2 MSTORE PUSH1 0x4 ADD PUSH2 0xF24 SWAP3 SWAP2 SWAP1 PUSH2 0x237E JUMP JUMPDEST PUSH1 0x20 PUSH1 0x40 MLOAD DUP1 DUP4 SUB DUP2 DUP7 GAS DELEGATECALL ISZERO DUP1 ISZERO PUSH2 0xF3F JUMPI RETURNDATASIZE PUSH0 DUP1 RETURNDATACOPY RETURNDATASIZE PUSH0 REVERT JUMPDEST POP POP POP POP PUSH1 0x40 MLOAD RETURNDATASIZE PUSH1 0x1F NOT PUSH1 0x1F DUP3 ADD AND DUP3 ADD DUP1 PUSH1 0x40 MSTORE POP DUP2 ADD SWAP1 PUSH2 0xF63 SWAP2 SWAP1 PUSH2 0x1FEA JUMP JUMPDEST POP PUSH20 0x0 PUSH4 0x767392B3 PUSH1 0x1 PUSH0 PUSH3 0x6D425C DUP2 MSTORE PUSH1 0x20 ADD SWAP1 DUP2 MSTORE PUSH1 0x20 ADD PUSH0 KECCAK256 PUSH0 SWAP1 SLOAD SWAP1 PUSH2 0x100 EXP SWAP1 DIV PUSH1 0xFF AND PUSH0 PUSH1 0x40 MLOAD DUP4 PUSH4 0xFFFFFFFF AND PUSH1 0xE0 SHL DUP2 MSTORE PUSH1 0x4 ADD PUSH2 0xFBD SWAP3 SWAP2 SWAP1 PUSH2 0x2428 JUMP JUMPDEST PUSH1 0x20 PUSH1 0x40 MLOAD DUP1 DUP4 SUB DUP2 DUP7 GAS DELEGATECALL ISZERO DUP1 ISZERO PUSH2 0xFD8 JUMPI RETURNDATASIZE PUSH0 DUP1 RETURNDATACOPY RETURNDATASIZE PUSH0 REVERT JUMPDEST POP POP POP POP PUSH1 0x40 MLOAD RETURNDATASIZE PUSH1 0x1F NOT PUSH1 0x1F DUP3 ADD AND DUP3 ADD DUP1 PUSH1 0x40 MSTORE POP DUP2 ADD SWAP1 PUSH2 0xFFC SWAP2 SWAP1 PUSH2 0x1FEA JUMP JUMPDEST POP PUSH20 0x0 PUSH4 0x767392B3 PUSH1 0x1 PUSH0 PUSH3 0x6D425D DUP2 MSTORE PUSH1 0x20 ADD SWAP1 DUP2 MSTORE PUSH1 0x20 ADD PUSH0 KECCAK256 PUSH0 SWAP1 SLOAD SWAP1 PUSH2 0x100 EXP SWAP1 DIV PUSH1 0xFF AND PUSH0 PUSH1 0x40 MLOAD DUP4 PUSH4 0xFFFFFFFF AND PUSH1 0xE0 SHL DUP2 MSTORE PUSH1 0x4 ADD PUSH2 0x1056 SWAP3 SWAP2 SWAP1 PUSH2 0x24D2 JUMP JUMPDEST PUSH1 0x20 PUSH1 0x40 MLOAD DUP1 DUP4 SUB DUP2 DUP7 GAS DELEGATECALL ISZERO DUP1 ISZERO PUSH2 0x1071 JUMPI RETURNDATASIZE PUSH0 DUP1 RETURNDATACOPY RETURNDATASIZE PUSH0 REVERT JUMPDEST POP POP POP POP PUSH1 0x40 MLOAD RETURNDATASIZE PUSH1 0x1F NOT PUSH1 0x1F DUP3 ADD AND DUP3 ADD DUP1 PUSH1 0x40 MSTORE POP DUP2 ADD SWAP1 PUSH2 0x1095 SWAP2 SWAP1 PUSH2 0x1FEA JUMP JUMPDEST POP POP POP JUMP JUMPDEST PUSH0 DUP1 PUSH2 0x10A5 DUP4 PUSH2 0x120E JUMP JUMPDEST SWAP1 POP PUSH0 DUP1 JUMPDEST DUP3 MLOAD DUP2 LT ISZERO PUSH2 0x1203 JUMPI PUSH0 DUP1 DUP5 DUP4 DUP2 MLOAD DUP2 LT PUSH2 0x10C8 JUMPI PUSH2 0x10C7 PUSH2 0x1DC4 JUMP JUMPDEST JUMPDEST PUSH1 0x20 MUL PUSH1 0x20 ADD ADD MLOAD PUSH0 ADD MLOAD DUP2 MSTORE PUSH1 0x20 ADD SWAP1 DUP2 MSTORE PUSH1 0x20 ADD PUSH0 KECCAK256 PUSH0 SWAP1 SLOAD SWAP1 PUSH2 0x100 EXP SWAP1 DIV PUSH1 0xFF AND DUP1 ISZERO PUSH2 0x1132 JUMPI POP PUSH1 0x1 PUSH0 DUP5 DUP4 DUP2 MLOAD DUP2 LT PUSH2 0x110A JUMPI PUSH2 0x1109 PUSH2 0x1DC4 JUMP JUMPDEST JUMPDEST PUSH1 0x20 MUL PUSH1 0x20 ADD ADD MLOAD PUSH1 0x20 ADD MLOAD DUP2 MSTORE PUSH1 0x20 ADD SWAP1 DUP2 MSTORE PUSH1 0x20 ADD PUSH0 KECCAK256 PUSH0 SWAP1 SLOAD SWAP1 PUSH2 0x100 EXP SWAP1 DIV PUSH1 0xFF AND ISZERO JUMPDEST ISZERO PUSH2 0x11F0 JUMPI PUSH1 0x1 DUP1 PUSH0 DUP6 DUP5 DUP2 MLOAD DUP2 LT PUSH2 0x114E JUMPI PUSH2 0x114D PUSH2 0x1DC4 JUMP JUMPDEST JUMPDEST PUSH1 0x20 MUL PUSH1 0x20 ADD ADD MLOAD PUSH1 0x20 ADD MLOAD DUP2 MSTORE PUSH1 0x20 ADD SWAP1 DUP2 MSTORE PUSH1 0x20 ADD PUSH0 KECCAK256 PUSH0 PUSH2 0x100 EXP DUP2 SLOAD DUP2 PUSH1 0xFF MUL NOT AND SWAP1 DUP4 ISZERO ISZERO MUL OR SWAP1 SSTORE POP PUSH2 0x11E1 DUP4 DUP3 DUP2 MLOAD DUP2 LT PUSH2 0x1193 JUMPI PUSH2 0x1192 PUSH2 0x1DC4 JUMP JUMPDEST JUMPDEST PUSH1 0x20 MUL PUSH1 0x20 ADD ADD MLOAD PUSH1 0x40 ADD MLOAD DUP5 DUP4 DUP2 MLOAD DUP2 LT PUSH2 0x11B2 JUMPI PUSH2 0x11B1 PUSH2 0x1DC4 JUMP JUMPDEST JUMPDEST PUSH1 0x20 MUL PUSH1 0x20 ADD ADD MLOAD PUSH0 ADD MLOAD DUP6 DUP5 DUP2 MLOAD DUP2 LT PUSH2 0x11D0 JUMPI PUSH2 0x11CF PUSH2 0x1DC4 JUMP JUMPDEST JUMPDEST PUSH1 0x20 MUL PUSH1 0x20 ADD ADD MLOAD PUSH1 0x20 ADD MLOAD PUSH2 0x1706 JUMP JUMPDEST DUP2 DUP1 PUSH2 0x11EC SWAP1 PUSH2 0x1E6F JUMP JUMPDEST SWAP3 POP POP JUMPDEST DUP1 DUP1 PUSH2 0x11FB SWAP1 PUSH2 0x1E6F JUMP JUMPDEST SWAP2 POP POP PUSH2 0x10AA JUMP JUMPDEST POP DUP1 SWAP3 POP POP POP SWAP2 SWAP1 POP JUMP JUMPDEST PUSH1 0x60 PUSH1 0x2 DUP3 MLOAD PUSH2 0x121E SWAP2 SWAP1 PUSH2 0x2539 JUMP JUMPDEST PUSH8 0xFFFFFFFFFFFFFFFF DUP2 GT ISZERO PUSH2 0x1237 JUMPI PUSH2 0x1236 PUSH2 0x1B18 JUMP JUMPDEST JUMPDEST PUSH1 0x40 MLOAD SWAP1 DUP1 DUP3 MSTORE DUP1 PUSH1 0x20 MUL PUSH1 0x20 ADD DUP3 ADD PUSH1 0x40 MSTORE DUP1 ISZERO PUSH2 0x1270 JUMPI DUP2 PUSH1 0x20 ADD JUMPDEST PUSH2 0x125D PUSH2 0x1977 JUMP JUMPDEST DUP2 MSTORE PUSH1 0x20 ADD SWAP1 PUSH1 0x1 SWAP1 SUB SWAP1 DUP2 PUSH2 0x1255 JUMPI SWAP1 POP JUMPDEST POP SWAP1 POP PUSH0 DUP1 JUMPDEST DUP4 MLOAD DUP2 LT ISZERO PUSH2 0x14FD JUMPI PUSH0 PUSH2 0x12AE PUSH2 0x12A9 DUP7 DUP5 DUP2 MLOAD DUP2 LT PUSH2 0x1299 JUMPI PUSH2 0x1298 PUSH2 0x1DC4 JUMP JUMPDEST JUMPDEST PUSH1 0x20 MUL PUSH1 0x20 ADD ADD MLOAD PUSH0 PUSH1 0x20 PUSH2 0x1791 JUMP JUMPDEST PUSH2 0x179A JUMP JUMPDEST SWAP1 POP PUSH32 0xDDF252AD1BE2C89B69C2B068FC378DAA952BA7F163C4A11628F55A4DF523B3EF DUP2 SUB PUSH2 0x13CA JUMPI PUSH0 PUSH2 0x1307 PUSH2 0x1302 DUP8 DUP6 DUP2 MLOAD DUP2 LT PUSH2 0x12F1 JUMPI PUSH2 0x12F0 PUSH2 0x1DC4 JUMP JUMPDEST JUMPDEST PUSH1 0x20 MUL PUSH1 0x20 ADD ADD MLOAD PUSH1 0x20 PUSH1 0x14 PUSH2 0x1791 JUMP JUMPDEST PUSH2 0x17A0 JUMP JUMPDEST SWAP1 POP PUSH0 PUSH2 0x1339 PUSH2 0x1334 DUP9 DUP7 DUP2 MLOAD DUP2 LT PUSH2 0x1323 JUMPI PUSH2 0x1322 PUSH2 0x1DC4 JUMP JUMPDEST JUMPDEST PUSH1 0x20 MUL PUSH1 0x20 ADD ADD MLOAD PUSH1 0x40 PUSH1 0x20 PUSH2 0x1791 JUMP JUMPDEST PUSH2 0x17A6 JUMP JUMPDEST SWAP1 POP PUSH2 0x1344 DUP3 PUSH2 0x17AC JUMP JUMPDEST PUSH2 0x134D DUP2 PUSH2 0x1845 JUMP JUMPDEST DUP2 DUP7 DUP7 DUP2 MLOAD DUP2 LT PUSH2 0x1361 JUMPI PUSH2 0x1360 PUSH2 0x1DC4 JUMP JUMPDEST JUMPDEST PUSH1 0x20 MUL PUSH1 0x20 ADD ADD MLOAD PUSH1 0x40 ADD SWAP1 PUSH20 0xFFFFFFFFFFFFFFFFFFFFFFFFFFFFFFFFFFFFFFFF AND SWAP1 DUP2 PUSH20 0xFFFFFFFFFFFFFFFFFFFFFFFFFFFFFFFFFFFFFFFF AND DUP2 MSTORE POP POP DUP1 DUP7 DUP7 DUP2 MLOAD DUP2 LT PUSH2 0x13B3 JUMPI PUSH2 0x13B2 PUSH2 0x1DC4 JUMP JUMPDEST JUMPDEST PUSH1 0x20 MUL PUSH1 0x20 ADD ADD MLOAD PUSH1 0x20 ADD DUP2 DUP2 MSTORE POP POP POP POP PUSH2 0x14E9 JUMP JUMPDEST PUSH32 0x4B3711CD7ECE062B0828C1B6E08D814A72D4C003383A016C833CBB1B45956E34 DUP2 SUB PUSH2 0x14E8 JUMPI PUSH0 PUSH2 0x1420 PUSH2 0x141B DUP8 DUP6 DUP2 MLOAD DUP2 LT PUSH2 0x140B JUMPI PUSH2 0x140A PUSH2 0x1DC4 JUMP JUMPDEST JUMPDEST PUSH1 0x20 MUL PUSH1 0x20 ADD ADD MLOAD PUSH1 0x20 DUP1 PUSH2 0x1791 JUMP JUMPDEST PUSH2 0x17A6 JUMP JUMPDEST SWAP1 POP PUSH0 PUSH2 0x1452 PUSH2 0x144D DUP9 DUP7 DUP2 MLOAD DUP2 LT PUSH2 0x143C JUMPI PUSH2 0x143B PUSH2 0x1DC4 JUMP JUMPDEST JUMPDEST PUSH1 0x20 MUL PUSH1 0x20 ADD ADD MLOAD PUSH1 0x40 PUSH1 0x20 PUSH2 0x1791 JUMP JUMPDEST PUSH2 0x17A6 JUMP JUMPDEST SWAP1 POP DUP2 DUP7 DUP7 DUP2 MLOAD DUP2 LT PUSH2 0x1468 JUMPI PUSH2 0x1467 PUSH2 0x1DC4 JUMP JUMPDEST JUMPDEST PUSH1 0x20 MUL PUSH1 0x20 ADD ADD MLOAD PUSH0 ADD DUP2 DUP2 MSTORE POP POP DUP1 DUP7 DUP7 DUP2 MLOAD DUP2 LT PUSH2 0x148B JUMPI PUSH2 0x148A PUSH2 0x1DC4 JUMP JUMPDEST JUMPDEST PUSH1 0x20 MUL PUSH1 0x20 ADD ADD MLOAD PUSH1 0x20 ADD MLOAD EQ PUSH2 0x14D7 JUMPI PUSH1 0x40 MLOAD PUSH32 0x8C379A000000000000000000000000000000000000000000000000000000000 DUP2 MSTORE PUSH1 0x4 ADD PUSH2 0x14CE SWAP1 PUSH2 0x25C3 JUMP JUMPDEST PUSH1 0x40 MLOAD DUP1 SWAP2 SUB SWAP1 REVERT JUMPDEST DUP5 DUP1 PUSH2 0x14E2 SWAP1 PUSH2 0x1E6F JUMP JUMPDEST SWAP6 POP POP POP POP JUMPDEST JUMPDEST POP DUP1 DUP1 PUSH2 0x14F5 SWAP1 PUSH2 0x1E6F JUMP JUMPDEST SWAP2 POP POP PUSH2 0x1276 JUMP JUMPDEST POP DUP1 DUP3 MSTORE POP SWAP2 SWAP1 POP JUMP JUMPDEST PUSH2 0x159D DUP2 PUSH1 0x40 MLOAD PUSH1 0x24 ADD PUSH2 0x151B SWAP2 SWAP1 PUSH2 0x264B JUMP JUMPDEST PUSH1 0x40 MLOAD PUSH1 0x20 DUP2 DUP4 SUB SUB DUP2 MSTORE SWAP1 PUSH1 0x40 MSTORE PUSH32 0x41304FAC00000000000000000000000000000000000000000000000000000000 PUSH28 0xFFFFFFFFFFFFFFFFFFFFFFFFFFFFFFFFFFFFFFFFFFFFFFFFFFFFFFFF NOT AND PUSH1 0x20 DUP3 ADD DUP1 MLOAD PUSH28 0xFFFFFFFFFFFFFFFFFFFFFFFFFFFFFFFFFFFFFFFFFFFFFFFFFFFFFFFF DUP4 DUP2 DUP4 AND OR DUP4 MSTORE POP POP POP POP PUSH2 0x18DE JUMP JUMPDEST POP JUMP JUMPDEST PUSH2 0x1638 DUP3 DUP3 PUSH1 0x40 MLOAD PUSH1 0x24 ADD PUSH2 0x15B6 SWAP3 SWAP2 SWAP1 PUSH2 0x266B JUMP JUMPDEST PUSH1 0x40 MLOAD PUSH1 0x20 DUP2 DUP4 SUB SUB DUP2 MSTORE SWAP1 PUSH1 0x40 MSTORE PUSH32 0xB60E72CC00000000000000000000000000000000000000000000000000000000 PUSH28 0xFFFFFFFFFFFFFFFFFFFFFFFFFFFFFFFFFFFFFFFFFFFFFFFFFFFFFFFF NOT AND PUSH1 0x20 DUP3 ADD DUP1 MLOAD PUSH28 0xFFFFFFFFFFFFFFFFFFFFFFFFFFFFFFFFFFFFFFFFFFFFFFFFFFFFFFFF DUP4 DUP2 DUP4 AND OR DUP4 MSTORE POP POP POP POP PUSH2 0x18DE JUMP JUMPDEST POP POP JUMP JUMPDEST PUSH1 0x60 PUSH32 0xDDF252AD1BE2C89B69C2B068FC378DAA952BA7F163C4A11628F55A4DF523B3EF PUSH0 SHL PUSH0 DUP1 SHL DUP5 PUSH20 0xFFFFFFFFFFFFFFFFFFFFFFFFFFFFFFFFFFFFFFFF AND PUSH0 SHL DUP5 PUSH0 SHL PUSH1 0x40 MLOAD PUSH1 0x20 ADD PUSH2 0x1693 SWAP5 SWAP4 SWAP3 SWAP2 SWAP1 PUSH2 0x1D81 JUMP JUMPDEST PUSH1 0x40 MLOAD PUSH1 0x20 DUP2 DUP4 SUB SUB DUP2 MSTORE SWAP1 PUSH1 0x40 MSTORE SWAP1 POP SWAP3 SWAP2 POP POP JUMP JUMPDEST PUSH1 0x60 PUSH32 0x4B3711CD7ECE062B0828C1B6E08D814A72D4C003383A016C833CBB1B45956E34 PUSH0 SHL DUP4 PUSH0 SHL PUSH0 DUP1 SHL PUSH0 DUP1 SHL DUP6 PUSH0 SHL PUSH1 0x40 MLOAD PUSH1 0x20 ADD PUSH2 0x16EF SWAP6 SWAP5 SWAP4 SWAP3 SWAP2 SWAP1 PUSH2 0x1DF1 JUMP JUMPDEST PUSH1 0x40 MLOAD PUSH1 0x20 DUP2 DUP4 SUB SUB DUP2 MSTORE SWAP1 PUSH1 0x40 MSTORE SWAP1 POP SWAP3 SWAP2 POP POP JUMP JUMPDEST PUSH2 0x1711 DUP4 DUP4 DUP4 PUSH2 0x18F8 JUMP JUMPDEST PUSH8 0x29A2241AF62C0000 PUSH1 0x2 PUSH0 DUP3 DUP3 SLOAD PUSH2 0x172A SWAP2 SWAP1 PUSH2 0x2699 JUMP JUMPDEST SWAP3 POP POP DUP2 SWAP1 SSTORE POP PUSH8 0x29A2241AF62C0000 PUSH1 0x3 PUSH0 DUP6 PUSH20 0xFFFFFFFFFFFFFFFFFFFFFFFFFFFFFFFFFFFFFFFF AND PUSH20 0xFFFFFFFFFFFFFFFFFFFFFFFFFFFFFFFFFFFFFFFF AND DUP2 MSTORE PUSH1 0x20 ADD SWAP1 DUP2 MSTORE PUSH1 0x20 ADD PUSH0 KECCAK256 PUSH0 DUP3 DUP3 SLOAD PUSH2 0x1785 SWAP2 SWAP1 PUSH2 0x2699 JUMP JUMPDEST SWAP3 POP POP DUP2 SWAP1 SSTORE POP POP POP POP JUMP JUMPDEST PUSH1 0x60 SWAP4 SWAP3 POP POP POP JUMP JUMPDEST PUSH0 SWAP2 SWAP1 POP JUMP JUMPDEST PUSH0 SWAP2 SWAP1 POP JUMP JUMPDEST PUSH0 SWAP2 SWAP1 POP JUMP JUMPDEST PUSH2 0x1842 DUP2 PUSH1 0x40 MLOAD PUSH1 0x24 ADD PUSH2 0x17C0 SWAP2 SWAP1 PUSH2 0x26DB JUMP JUMPDEST PUSH1 0x40 MLOAD PUSH1 0x20 DUP2 DUP4 SUB SUB DUP2 MSTORE SWAP1 PUSH1 0x40 MSTORE PUSH32 0x2C2ECBC200000000000000000000000000000000000000000000000000000000 PUSH28 0xFFFFFFFFFFFFFFFFFFFFFFFFFFFFFFFFFFFFFFFFFFFFFFFFFFFFFFFF NOT AND PUSH1 0x20 DUP3 ADD DUP1 MLOAD PUSH28 0xFFFFFFFFFFFFFFFFFFFFFFFFFFFFFFFFFFFFFFFFFFFFFFFFFFFFFFFF DUP4 DUP2 DUP4 AND OR DUP4 MSTORE POP POP POP POP PUSH2 0x18DE JUMP JUMPDEST POP JUMP JUMPDEST PUSH2 0x18DB DUP2 PUSH1 0x40 MLOAD PUSH1 0x24 ADD PUSH2 0x1859 SWAP2 SWAP1 PUSH2 0x1AEB JUMP JUMPDEST PUSH1 0x40 MLOAD PUSH1 0x20 DUP2 DUP4 SUB SUB DUP2 MSTORE SWAP1 PUSH1 0x40 MSTORE PUSH32 0xF82C50F100000000000000000000000000000000000000000000000000000000 PUSH28 0xFFFFFFFFFFFFFFFFFFFFFFFFFFFFFFFFFFFFFFFFFFFFFFFFFFFFFFFF NOT AND PUSH1 0x20 DUP3 ADD DUP1 MLOAD PUSH28 0xFFFFFFFFFFFFFFFFFFFFFFFFFFFFFFFFFFFFFFFFFFFFFFFFFFFFFFFF DUP4 DUP2 DUP4 AND OR DUP4 MSTORE POP POP POP POP PUSH2 0x18DE JUMP JUMPDEST POP JUMP JUMPDEST PUSH2 0x18F5 DUP2 PUSH2 0x18ED PUSH2 0x194D PUSH2 0x196C JUMP JUMPDEST PUSH4 0xFFFFFFFF AND JUMP JUMPDEST POP JUMP JUMPDEST DUP3 PUSH20 0xFFFFFFFFFFFFFFFFFFFFFFFFFFFFFFFFFFFFFFFF AND PUSH32 0x5EF3BD3C823875BC38DF6C327EF163659EF15FF1E9898230DF18CC50316A91C1 DUP4 DUP4 PUSH1 0x40 MLOAD PUSH2 0x1940 SWAP3 SWAP2 SWAP1 PUSH2 0x26F4 JUMP JUMPDEST PUSH1 0x40 MLOAD DUP1 SWAP2 SUB SWAP1 LOG2 POP POP POP JUMP JUMPDEST PUSH0 PUSH11 0x636F6E736F6C652E6C6F67 SWAP1 POP PUSH0 DUP1 DUP4 MLOAD PUSH1 0x20 DUP6 ADD DUP5 GAS STATICCALL POP POP POP JUMP JUMPDEST PUSH2 0x19AB DUP2 SWAP1 POP SWAP2 SWAP1 POP JUMP JUMPDEST PUSH1 0x40 MLOAD DUP1 PUSH1 0x60 ADD PUSH1 0x40 MSTORE DUP1 PUSH0 DUP2 MSTORE PUSH1 0x20 ADD PUSH0 DUP2 MSTORE PUSH1 0x20 ADD PUSH0 PUSH20 0xFFFFFFFFFFFFFFFFFFFFFFFFFFFFFFFFFFFFFFFF AND DUP2 MSTORE POP SWAP1 JUMP JUMPDEST PUSH2 0x19B3 PUSH2 0x271B JUMP JUMPDEST JUMP JUMPDEST PUSH0 PUSH1 0x40 MLOAD SWAP1 POP SWAP1 JUMP JUMPDEST PUSH0 DUP1 REVERT JUMPDEST PUSH0 DUP1 REVERT JUMPDEST PUSH0 DUP2 SWAP1 POP SWAP2 SWAP1 POP JUMP JUMPDEST PUSH2 0x19D8 DUP2 PUSH2 0x19C6 JUMP JUMPDEST DUP2 EQ PUSH2 0x19E2 JUMPI PUSH0 DUP1 REVERT JUMPDEST POP JUMP JUMPDEST PUSH0 DUP2 CALLDATALOAD SWAP1 POP PUSH2 0x19F3 DUP2 PUSH2 0x19CF JUMP JUMPDEST SWAP3 SWAP2 POP POP JUMP JUMPDEST PUSH0 PUSH1 0x20 DUP3 DUP5 SUB SLT ISZERO PUSH2 0x1A0E JUMPI PUSH2 0x1A0D PUSH2 0x19BE JUMP JUMPDEST JUMPDEST PUSH0 PUSH2 0x1A1B DUP5 DUP3 DUP6 ADD PUSH2 0x19E5 JUMP JUMPDEST SWAP2 POP POP SWAP3 SWAP2 POP POP JUMP JUMPDEST PUSH0 DUP2 ISZERO ISZERO SWAP1 POP SWAP2 SWAP1 POP JUMP JUMPDEST PUSH2 0x1A38 DUP2 PUSH2 0x1A24 JUMP JUMPDEST DUP3 MSTORE POP POP JUMP JUMPDEST PUSH0 PUSH1 0x20 DUP3 ADD SWAP1 POP PUSH2 0x1A51 PUSH0 DUP4 ADD DUP5 PUSH2 0x1A2F JUMP JUMPDEST SWAP3 SWAP2 POP POP JUMP JUMPDEST PUSH0 PUSH20 0xFFFFFFFFFFFFFFFFFFFFFFFFFFFFFFFFFFFFFFFF DUP3 AND SWAP1 POP SWAP2 SWAP1 POP JUMP JUMPDEST PUSH0 PUSH2 0x1A80 DUP3 PUSH2 0x1A57 JUMP JUMPDEST SWAP1 POP SWAP2 SWAP1 POP JUMP JUMPDEST PUSH2 0x1A90 DUP2 PUSH2 0x1A76 JUMP JUMPDEST DUP2 EQ PUSH2 0x1A9A JUMPI PUSH0 DUP1 REVERT JUMPDEST POP JUMP JUMPDEST PUSH0 DUP2 CALLDATALOAD SWAP1 POP PUSH2 0x1AAB DUP2 PUSH2 0x1A87 JUMP JUMPDEST SWAP3 SWAP2 POP POP JUMP JUMPDEST PUSH0 PUSH1 0x20 DUP3 DUP5 SUB SLT ISZERO PUSH2 0x1AC6 JUMPI PUSH2 0x1AC5 PUSH2 0x19BE JUMP JUMPDEST JUMPDEST PUSH0 PUSH2 0x1AD3 DUP5 DUP3 DUP6 ADD PUSH2 0x1A9D JUMP JUMPDEST SWAP2 POP POP SWAP3 SWAP2 POP POP JUMP JUMPDEST PUSH2 0x1AE5 DUP2 PUSH2 0x19C6 JUMP JUMPDEST DUP3 MSTORE POP POP JUMP JUMPDEST PUSH0 PUSH1 0x20 DUP3 ADD SWAP1 POP PUSH2 0x1AFE PUSH0 DUP4 ADD DUP5 PUSH2 0x1ADC JUMP JUMPDEST SWAP3 SWAP2 POP POP JUMP JUMPDEST PUSH0 DUP1 REVERT JUMPDEST PUSH0 PUSH1 0x1F NOT PUSH1 0x1F DUP4 ADD AND SWAP1 POP SWAP2 SWAP1 POP JUMP JUMPDEST PUSH32 0x4E487B7100000000000000000000000000000000000000000000000000000000 PUSH0 MSTORE PUSH1 0x41 PUSH1 0x4 MSTORE PUSH1 0x24 PUSH0 REVERT JUMPDEST PUSH2 0x1B4E DUP3 PUSH2 0x1B08 JUMP JUMPDEST DUP2 ADD DUP2 DUP2 LT PUSH8 0xFFFFFFFFFFFFFFFF DUP3 GT OR ISZERO PUSH2 0x1B6D JUMPI PUSH2 0x1B6C PUSH2 0x1B18 JUMP JUMPDEST JUMPDEST DUP1 PUSH1 0x40 MSTORE POP POP POP JUMP JUMPDEST PUSH0 PUSH2 0x1B7F PUSH2 0x19B5 JUMP JUMPDEST SWAP1 POP PUSH2 0x1B8B DUP3 DUP3 PUSH2 0x1B45 JUMP JUMPDEST SWAP2 SWAP1 POP JUMP JUMPDEST PUSH0 PUSH8 0xFFFFFFFFFFFFFFFF DUP3 GT ISZERO PUSH2 0x1BAA JUMPI PUSH2 0x1BA9 PUSH2 0x1B18 JUMP JUMPDEST JUMPDEST PUSH1 0x20 DUP3 MUL SWAP1 POP PUSH1 0x20 DUP2 ADD SWAP1 POP SWAP2 SWAP1 POP JUMP JUMPDEST PUSH0 DUP1 REVERT JUMPDEST PUSH0 DUP1 REVERT JUMPDEST PUSH0 PUSH8 0xFFFFFFFFFFFFFFFF DUP3 GT ISZERO PUSH2 0x1BDD JUMPI PUSH2 0x1BDC PUSH2 0x1B18 JUMP JUMPDEST JUMPDEST PUSH2 0x1BE6 DUP3 PUSH2 0x1B08 JUMP JUMPDEST SWAP1 POP PUSH1 0x20 DUP2 ADD SWAP1 POP SWAP2 SWAP1 POP JUMP JUMPDEST DUP3 DUP2 DUP4 CALLDATACOPY PUSH0 DUP4 DUP4 ADD MSTORE POP POP POP JUMP JUMPDEST PUSH0 PUSH2 0x1C13 PUSH2 0x1C0E DUP5 PUSH2 0x1BC3 JUMP JUMPDEST PUSH2 0x1B76 JUMP JUMPDEST SWAP1 POP DUP3 DUP2 MSTORE PUSH1 0x20 DUP2 ADD DUP5 DUP5 DUP5 ADD GT ISZERO PUSH2 0x1C2F JUMPI PUSH2 0x1C2E PUSH2 0x1BBF JUMP JUMPDEST JUMPDEST PUSH2 0x1C3A DUP5 DUP3 DUP6 PUSH2 0x1BF3 JUMP JUMPDEST POP SWAP4 SWAP3 POP POP POP JUMP JUMPDEST PUSH0 DUP3 PUSH1 0x1F DUP4 ADD SLT PUSH2 0x1C56 JUMPI PUSH2 0x1C55 PUSH2 0x1B04 JUMP JUMPDEST JUMPDEST DUP2 CALLDATALOAD PUSH2 0x1C66 DUP5 DUP3 PUSH1 0x20 DUP7 ADD PUSH2 0x1C01 JUMP JUMPDEST SWAP2 POP POP SWAP3 SWAP2 POP POP JUMP JUMPDEST PUSH0 PUSH2 0x1C81 PUSH2 0x1C7C DUP5 PUSH2 0x1B90 JUMP JUMPDEST PUSH2 0x1B76 JUMP JUMPDEST SWAP1 POP DUP1 DUP4 DUP3 MSTORE PUSH1 0x20 DUP3 ADD SWAP1 POP PUSH1 0x20 DUP5 MUL DUP4 ADD DUP6 DUP2 GT ISZERO PUSH2 0x1CA4 JUMPI PUSH2 0x1CA3 PUSH2 0x1BBB JUMP JUMPDEST JUMPDEST DUP4 JUMPDEST DUP2 DUP2 LT ISZERO PUSH2 0x1CEB JUMPI DUP1 CALLDATALOAD PUSH8 0xFFFFFFFFFFFFFFFF DUP2 GT ISZERO PUSH2 0x1CC9 JUMPI PUSH2 0x1CC8 PUSH2 0x1B04 JUMP JUMPDEST JUMPDEST DUP1 DUP7 ADD PUSH2 0x1CD6 DUP10 DUP3 PUSH2 0x1C42 JUMP JUMPDEST DUP6 MSTORE PUSH1 0x20 DUP6 ADD SWAP5 POP POP POP PUSH1 0x20 DUP2 ADD SWAP1 POP PUSH2 0x1CA6 JUMP JUMPDEST POP POP POP SWAP4 SWAP3 POP POP POP JUMP JUMPDEST PUSH0 DUP3 PUSH1 0x1F DUP4 ADD SLT PUSH2 0x1D09 JUMPI PUSH2 0x1D08 PUSH2 0x1B04 JUMP JUMPDEST JUMPDEST DUP2 CALLDATALOAD PUSH2 0x1D19 DUP5 DUP3 PUSH1 0x20 DUP7 ADD PUSH2 0x1C6F JUMP JUMPDEST SWAP2 POP POP SWAP3 SWAP2 POP POP JUMP JUMPDEST PUSH0 PUSH1 0x20 DUP3 DUP5 SUB SLT ISZERO PUSH2 0x1D37 JUMPI PUSH2 0x1D36 PUSH2 0x19BE JUMP JUMPDEST JUMPDEST PUSH0 DUP3 ADD CALLDATALOAD PUSH8 0xFFFFFFFFFFFFFFFF DUP2 GT ISZERO PUSH2 0x1D54 JUMPI PUSH2 0x1D53 PUSH2 0x19C2 JUMP JUMPDEST JUMPDEST PUSH2 0x1D60 DUP5 DUP3 DUP6 ADD PUSH2 0x1CF5 JUMP JUMPDEST SWAP2 POP POP SWAP3 SWAP2 POP POP JUMP JUMPDEST PUSH0 DUP2 SWAP1 POP SWAP2 SWAP1 POP JUMP JUMPDEST PUSH2 0x1D7B DUP2 PUSH2 0x1D69 JUMP JUMPDEST DUP3 MSTORE POP POP JUMP JUMPDEST PUSH0 PUSH1 0x80 DUP3 ADD SWAP1 POP PUSH2 0x1D94 PUSH0 DUP4 ADD DUP8 PUSH2 0x1D72 JUMP JUMPDEST PUSH2 0x1DA1 PUSH1 0x20 DUP4 ADD DUP7 PUSH2 0x1D72 JUMP JUMPDEST PUSH2 0x1DAE PUSH1 0x40 DUP4 ADD DUP6 PUSH2 0x1D72 JUMP JUMPDEST PUSH2 0x1DBB PUSH1 0x60 DUP4 ADD DUP5 PUSH2 0x1D72 JUMP JUMPDEST SWAP6 SWAP5 POP POP POP POP POP JUMP JUMPDEST PUSH32 0x4E487B7100000000000000000000000000000000000000000000000000000000 PUSH0 MSTORE PUSH1 0x32 PUSH1 0x4 MSTORE PUSH1 0x24 PUSH0 REVERT JUMPDEST PUSH0 PUSH1 0xA0 DUP3 ADD SWAP1 POP PUSH2 0x1E04 PUSH0 DUP4 ADD DUP9 PUSH2 0x1D72 JUMP JUMPDEST PUSH2 0x1E11 PUSH1 0x20 DUP4 ADD DUP8 PUSH2 0x1D72 JUMP JUMPDEST PUSH2 0x1E1E PUSH1 0x40 DUP4 ADD DUP7 PUSH2 0x1D72 JUMP JUMPDEST PUSH2 0x1E2B PUSH1 0x60 DUP4 ADD DUP6 PUSH2 0x1D72 JUMP JUMPDEST PUSH2 0x1E38 PUSH1 0x80 DUP4 ADD DUP5 PUSH2 0x1D72 JUMP JUMPDEST SWAP7 SWAP6 POP POP POP POP POP POP JUMP JUMPDEST PUSH32 0x4E487B7100000000000000000000000000000000000000000000000000000000 PUSH0 MSTORE PUSH1 0x11 PUSH1 0x4 MSTORE PUSH1 0x24 PUSH0 REVERT JUMPDEST PUSH0 PUSH2 0x1E79 DUP3 PUSH2 0x19C6 JUMP JUMPDEST SWAP2 POP PUSH32 0xFFFFFFFFFFFFFFFFFFFFFFFFFFFFFFFFFFFFFFFFFFFFFFFFFFFFFFFFFFFFFFFF DUP3 SUB PUSH2 0x1EAB JUMPI PUSH2 0x1EAA PUSH2 0x1E42 JUMP JUMPDEST JUMPDEST PUSH1 0x1 DUP3 ADD SWAP1 POP SWAP2 SWAP1 POP JUMP JUMPDEST PUSH0 PUSH2 0x1EC0 DUP3 PUSH2 0x19C6 JUMP JUMPDEST SWAP2 POP PUSH2 0x1ECB DUP4 PUSH2 0x19C6 JUMP JUMPDEST SWAP3 POP DUP3 DUP3 MUL PUSH2 0x1ED9 DUP2 PUSH2 0x19C6 JUMP JUMPDEST SWAP2 POP DUP3 DUP3 DIV DUP5 EQ DUP4 ISZERO OR PUSH2 0x1EF0 JUMPI PUSH2 0x1EEF PUSH2 0x1E42 JUMP JUMPDEST JUMPDEST POP SWAP3 SWAP2 POP POP JUMP JUMPDEST PUSH2 0x1F00 DUP2 PUSH2 0x19C6 JUMP JUMPDEST DUP3 MSTORE POP POP JUMP JUMPDEST PUSH0 DUP3 DUP3 MSTORE PUSH1 0x20 DUP3 ADD SWAP1 POP SWAP3 SWAP2 POP POP JUMP JUMPDEST PUSH32 0x53686F756C64206D696E7420636F727265637420746F74616C20616D6F756E74 PUSH0 DUP3 ADD MSTORE PUSH32 0x206F6620746F6B656E7300000000000000000000000000000000000000000000 PUSH1 0x20 DUP3 ADD MSTORE POP JUMP JUMPDEST PUSH0 PUSH2 0x1F70 PUSH1 0x2A DUP4 PUSH2 0x1F06 JUMP JUMPDEST SWAP2 POP PUSH2 0x1F7B DUP3 PUSH2 0x1F16 JUMP JUMPDEST PUSH1 0x40 DUP3 ADD SWAP1 POP SWAP2 SWAP1 POP JUMP JUMPDEST PUSH0 PUSH1 0x60 DUP3 ADD SWAP1 POP PUSH2 0x1F99 PUSH0 DUP4 ADD DUP6 PUSH2 0x1EF7 JUMP JUMPDEST PUSH2 0x1FA6 PUSH1 0x20 DUP4 ADD DUP5 PUSH2 0x1EF7 JUMP JUMPDEST DUP2 DUP2 SUB PUSH1 0x40 DUP4 ADD MSTORE PUSH2 0x1FB7 DUP2 PUSH2 0x1F64 JUMP JUMPDEST SWAP1 POP SWAP4 SWAP3 POP POP POP JUMP JUMPDEST PUSH2 0x1FC9 DUP2 PUSH2 0x1A24 JUMP JUMPDEST DUP2 EQ PUSH2 0x1FD3 JUMPI PUSH0 DUP1 REVERT JUMPDEST POP JUMP JUMPDEST PUSH0 DUP2 MLOAD SWAP1 POP PUSH2 0x1FE4 DUP2 PUSH2 0x1FC0 JUMP JUMPDEST SWAP3 SWAP2 POP POP JUMP JUMPDEST PUSH0 PUSH1 0x20 DUP3 DUP5 SUB SLT ISZERO PUSH2 0x1FFF JUMPI PUSH2 0x1FFE PUSH2 0x19BE JUMP JUMPDEST JUMPDEST PUSH0 PUSH2 0x200C DUP5 DUP3 DUP6 ADD PUSH2 0x1FD6 JUMP JUMPDEST SWAP2 POP POP SWAP3 SWAP2 POP POP JUMP JUMPDEST PUSH32 0x557365722073686F756C64207265636569766520746F6B656E7320666F722077 PUSH0 DUP3 ADD MSTORE PUSH32 0x686974656C6973746564206576656E7400000000000000000000000000000000 PUSH1 0x20 DUP3 ADD MSTORE POP JUMP JUMPDEST PUSH0 PUSH2 0x206F PUSH1 0x30 DUP4 PUSH2 0x1F06 JUMP JUMPDEST SWAP2 POP PUSH2 0x207A DUP3 PUSH2 0x2015 JUMP JUMPDEST PUSH1 0x40 DUP3 ADD SWAP1 POP SWAP2 SWAP1 POP JUMP JUMPDEST PUSH0 PUSH1 0x60 DUP3 ADD SWAP1 POP PUSH2 0x2098 PUSH0 DUP4 ADD DUP6 PUSH2 0x1EF7 JUMP JUMPDEST PUSH2 0x20A5 PUSH1 0x20 DUP4 ADD DUP5 PUSH2 0x1EF7 JUMP JUMPDEST DUP2 DUP2 SUB PUSH1 0x40 DUP4 ADD MSTORE PUSH2 0x20B6 DUP2 PUSH2 0x2063 JUMP JUMPDEST SWAP1 POP SWAP4 SWAP3 POP POP POP JUMP JUMPDEST PUSH0 DUP2 SWAP1 POP SWAP2 SWAP1 POP JUMP JUMPDEST PUSH0 DUP2 SWAP1 POP SWAP2 SWAP1 POP JUMP JUMPDEST PUSH0 PUSH2 0x20EB PUSH2 0x20E6 PUSH2 0x20E1 DUP5 PUSH2 0x20BF JUMP JUMPDEST PUSH2 0x20C8 JUMP JUMPDEST PUSH2 0x19C6 JUMP JUMPDEST SWAP1 POP SWAP2 SWAP1 POP JUMP JUMPDEST PUSH2 0x20FB DUP2 PUSH2 0x20D1 JUMP JUMPDEST DUP3 MSTORE POP POP JUMP JUMPDEST PUSH32 0x557365722073686F756C64206E6F74207265636569766520746F6B656E732066 PUSH0 DUP3 ADD MSTORE PUSH32 0x6F72206E6F6E2D77686974656C6973746564206576656E740000000000000000 PUSH1 0x20 DUP3 ADD MSTORE POP JUMP JUMPDEST PUSH0 PUSH2 0x215B PUSH1 0x38 DUP4 PUSH2 0x1F06 JUMP JUMPDEST SWAP2 POP PUSH2 0x2166 DUP3 PUSH2 0x2101 JUMP JUMPDEST PUSH1 0x40 DUP3 ADD SWAP1 POP SWAP2 SWAP1 POP JUMP JUMPDEST PUSH0 PUSH1 0x60 DUP3 ADD SWAP1 POP PUSH2 0x2184 PUSH0 DUP4 ADD DUP6 PUSH2 0x1EF7 JUMP JUMPDEST PUSH2 0x2191 PUSH1 0x20 DUP4 ADD DUP5 PUSH2 0x20F2 JUMP JUMPDEST DUP2 DUP2 SUB PUSH1 0x40 DUP4 ADD MSTORE PUSH2 0x21A2 DUP2 PUSH2 0x214F JUMP JUMPDEST SWAP1 POP SWAP4 SWAP3 POP POP POP JUMP JUMPDEST PUSH2 0x21B4 DUP2 PUSH2 0x1A24 JUMP JUMPDEST DUP3 MSTORE POP POP JUMP JUMPDEST PUSH32 0x546F6B656E49642030783664343235392073686F756C64206265206D61726B65 PUSH0 DUP3 ADD MSTORE PUSH32 0x642061732070726F636573736564000000000000000000000000000000000000 PUSH1 0x20 DUP3 ADD MSTORE POP JUMP JUMPDEST PUSH0 PUSH2 0x2214 PUSH1 0x2E DUP4 PUSH2 0x1F06 JUMP JUMPDEST SWAP2 POP PUSH2 0x221F DUP3 PUSH2 0x21BA JUMP JUMPDEST PUSH1 0x40 DUP3 ADD SWAP1 POP SWAP2 SWAP1 POP JUMP JUMPDEST PUSH0 PUSH1 0x60 DUP3 ADD SWAP1 POP PUSH2 0x223D PUSH0 DUP4 ADD DUP6 PUSH2 0x21AB JUMP JUMPDEST PUSH2 0x224A PUSH1 0x20 DUP4 ADD DUP5 PUSH2 0x21AB JUMP JUMPDEST DUP2 DUP2 SUB PUSH1 0x40 DUP4 ADD MSTORE PUSH2 0x225B DUP2 PUSH2 0x2208 JUMP JUMPDEST SWAP1 POP SWAP4 SWAP3 POP POP POP JUMP JUMPDEST PUSH32 0x546F6B656E49642030783664343235612073686F756C64206265206D61726B65 PUSH0 DUP3 ADD MSTORE PUSH32 0x642061732070726F636573736564000000000000000000000000000000000000 PUSH1 0x20 DUP3 ADD MSTORE POP JUMP JUMPDEST PUSH0 PUSH2 0x22BE PUSH1 0x2E DUP4 PUSH2 0x1F06 JUMP JUMPDEST SWAP2 POP PUSH2 0x22C9 DUP3 PUSH2 0x2264 JUMP JUMPDEST PUSH1 0x40 DUP3 ADD SWAP1 POP SWAP2 SWAP1 POP JUMP JUMPDEST PUSH0 PUSH1 0x60 DUP3 ADD SWAP1 POP PUSH2 0x22E7 PUSH0 DUP4 ADD DUP6 PUSH2 0x21AB JUMP JUMPDEST PUSH2 0x22F4 PUSH1 0x20 DUP4 ADD DUP5 PUSH2 0x21AB JUMP JUMPDEST DUP2 DUP2 SUB PUSH1 0x40 DUP4 ADD MSTORE PUSH2 0x2305 DUP2 PUSH2 0x22B2 JUMP JUMPDEST SWAP1 POP SWAP4 SWAP3 POP POP POP JUMP JUMPDEST PUSH32 0x546F6B656E49642030783664343235622073686F756C64206265206D61726B65 PUSH0 DUP3 ADD MSTORE PUSH32 0x642061732070726F636573736564000000000000000000000000000000000000 PUSH1 0x20 DUP3 ADD MSTORE POP JUMP JUMPDEST PUSH0 PUSH2 0x2368 PUSH1 0x2E DUP4 PUSH2 0x1F06 JUMP JUMPDEST SWAP2 POP PUSH2 0x2373 DUP3 PUSH2 0x230E JUMP JUMPDEST PUSH1 0x40 DUP3 ADD SWAP1 POP SWAP2 SWAP1 POP JUMP JUMPDEST PUSH0 PUSH1 0x60 DUP3 ADD SWAP1 POP PUSH2 0x2391 PUSH0 DUP4 ADD DUP6 PUSH2 0x21AB JUMP JUMPDEST PUSH2 0x239E PUSH1 0x20 DUP4 ADD DUP5 PUSH2 0x21AB JUMP JUMPDEST DUP2 DUP2 SUB PUSH1 0x40 DUP4 ADD MSTORE PUSH2 0x23AF DUP2 PUSH2 0x235C JUMP JUMPDEST SWAP1 POP SWAP4 SWAP3 POP POP POP JUMP JUMPDEST PUSH32 0x546F6B656E49642030783664343235632073686F756C64206E6F74206265206D PUSH0 DUP3 ADD MSTORE PUSH32 0x61726B65642061732070726F6365737365640000000000000000000000000000 PUSH1 0x20 DUP3 ADD MSTORE POP JUMP JUMPDEST PUSH0 PUSH2 0x2412 PUSH1 0x32 DUP4 PUSH2 0x1F06 JUMP JUMPDEST SWAP2 POP PUSH2 0x241D DUP3 PUSH2 0x23B8 JUMP JUMPDEST PUSH1 0x40 DUP3 ADD SWAP1 POP SWAP2 SWAP1 POP JUMP JUMPDEST PUSH0 PUSH1 0x60 DUP3 ADD SWAP1 POP PUSH2 0x243B PUSH0 DUP4 ADD DUP6 PUSH2 0x21AB JUMP JUMPDEST PUSH2 0x2448 PUSH1 0x20 DUP4 ADD DUP5 PUSH2 0x21AB JUMP JUMPDEST DUP2 DUP2 SUB PUSH1 0x40 DUP4 ADD MSTORE PUSH2 0x2459 DUP2 PUSH2 0x2406 JUMP JUMPDEST SWAP1 POP SWAP4 SWAP3 POP POP POP JUMP JUMPDEST PUSH32 0x546F6B656E49642030783664343235642073686F756C64206E6F74206265206D PUSH0 DUP3 ADD MSTORE PUSH32 0x61726B65642061732070726F6365737365640000000000000000000000000000 PUSH1 0x20 DUP3 ADD MSTORE POP JUMP JUMPDEST PUSH0 PUSH2 0x24BC PUSH1 0x32 DUP4 PUSH2 0x1F06 JUMP JUMPDEST SWAP2 POP PUSH2 0x24C7 DUP3 PUSH2 0x2462 JUMP JUMPDEST PUSH1 0x40 DUP3 ADD SWAP1 POP SWAP2 SWAP1 POP JUMP JUMPDEST PUSH0 PUSH1 0x60 DUP3 ADD SWAP1 POP PUSH2 0x24E5 PUSH0 DUP4 ADD DUP6 PUSH2 0x21AB JUMP JUMPDEST PUSH2 0x24F2 PUSH1 0x20 DUP4 ADD DUP5 PUSH2 0x21AB JUMP JUMPDEST DUP2 DUP2 SUB PUSH1 0x40 DUP4 ADD MSTORE PUSH2 0x2503 DUP2 PUSH2 0x24B0 JUMP JUMPDEST SWAP1 POP SWAP4 SWAP3 POP POP POP JUMP JUMPDEST PUSH32 0x4E487B7100000000000000000000000000000000000000000000000000000000 PUSH0 MSTORE PUSH1 0x12 PUSH1 0x4 MSTORE PUSH1 0x24 PUSH0 REVERT JUMPDEST PUSH0 PUSH2 0x2543 DUP3 PUSH2 0x19C6 JUMP JUMPDEST SWAP2 POP PUSH2 0x254E DUP4 PUSH2 0x19C6 JUMP JUMPDEST SWAP3 POP DUP3 PUSH2 0x255E JUMPI PUSH2 0x255D PUSH2 0x250C JUMP JUMPDEST JUMPDEST DUP3 DUP3 DIV SWAP1 POP SWAP3 SWAP2 POP POP JUMP JUMPDEST PUSH0 DUP3 DUP3 MSTORE PUSH1 0x20 DUP3 ADD SWAP1 POP SWAP3 SWAP2 POP POP JUMP JUMPDEST PUSH32 0x546F6B656E4964206D69736D6174636800000000000000000000000000000000 PUSH0 DUP3 ADD MSTORE POP JUMP JUMPDEST PUSH0 PUSH2 0x25AD PUSH1 0x10 DUP4 PUSH2 0x2569 JUMP JUMPDEST SWAP2 POP PUSH2 0x25B8 DUP3 PUSH2 0x2579 JUMP JUMPDEST PUSH1 0x20 DUP3 ADD SWAP1 POP SWAP2 SWAP1 POP JUMP JUMPDEST PUSH0 PUSH1 0x20 DUP3 ADD SWAP1 POP DUP2 DUP2 SUB PUSH0 DUP4 ADD MSTORE PUSH2 0x25DA DUP2 PUSH2 0x25A1 JUMP JUMPDEST SWAP1 POP SWAP2 SWAP1 POP JUMP JUMPDEST PUSH0 DUP2 MLOAD SWAP1 POP SWAP2 SWAP1 POP JUMP JUMPDEST PUSH0 JUMPDEST DUP4 DUP2 LT ISZERO PUSH2 0x2608 JUMPI DUP1 DUP3 ADD MLOAD DUP2 DUP5 ADD MSTORE PUSH1 0x20 DUP2 ADD SWAP1 POP PUSH2 0x25ED JUMP JUMPDEST PUSH0 DUP5 DUP5 ADD MSTORE POP POP POP POP JUMP JUMPDEST PUSH0 PUSH2 0x261D DUP3 PUSH2 0x25E1 JUMP JUMPDEST PUSH2 0x2627 DUP2 DUP6 PUSH2 0x2569 JUMP JUMPDEST SWAP4 POP PUSH2 0x2637 DUP2 DUP6 PUSH1 0x20 DUP7 ADD PUSH2 0x25EB JUMP JUMPDEST PUSH2 0x2640 DUP2 PUSH2 0x1B08 JUMP JUMPDEST DUP5 ADD SWAP2 POP POP SWAP3 SWAP2 POP POP JUMP JUMPDEST PUSH0 PUSH1 0x20 DUP3 ADD SWAP1 POP DUP2 DUP2 SUB PUSH0 DUP4 ADD MSTORE PUSH2 0x2663 DUP2 DUP5 PUSH2 0x2613 JUMP JUMPDEST SWAP1 POP SWAP3 SWAP2 POP POP JUMP JUMPDEST PUSH0 PUSH1 0x40 DUP3 ADD SWAP1 POP DUP2 DUP2 SUB PUSH0 DUP4 ADD MSTORE PUSH2 0x2683 DUP2 DUP6 PUSH2 0x2613 JUMP JUMPDEST SWAP1 POP PUSH2 0x2692 PUSH1 0x20 DUP4 ADD DUP5 PUSH2 0x1ADC JUMP JUMPDEST SWAP4 SWAP3 POP POP POP JUMP JUMPDEST PUSH0 PUSH2 0x26A3 DUP3 PUSH2 0x19C6 JUMP JUMPDEST SWAP2 POP PUSH2 0x26AE DUP4 PUSH2 0x19C6 JUMP JUMPDEST SWAP3 POP DUP3 DUP3 ADD SWAP1 POP DUP1 DUP3 GT ISZERO PUSH2 0x26C6 JUMPI PUSH2 0x26C5 PUSH2 0x1E42 JUMP JUMPDEST JUMPDEST SWAP3 SWAP2 POP POP JUMP JUMPDEST PUSH2 0x26D5 DUP2 PUSH2 0x1A76 JUMP JUMPDEST DUP3 MSTORE POP POP JUMP JUMPDEST PUSH0 PUSH1 0x20 DUP3 ADD SWAP1 POP PUSH2 0x26EE PUSH0 DUP4 ADD DUP5 PUSH2 0x26CC JUMP JUMPDEST SWAP3 SWAP2 POP POP JUMP JUMPDEST PUSH0 PUSH1 0x40 DUP3 ADD SWAP1 POP PUSH2 0x2707 PUSH0 DUP4 ADD DUP6 PUSH2 0x1ADC JUMP JUMPDEST PUSH2 0x2714 PUSH1 0x20 DUP4 ADD DUP5 PUSH2 0x1ADC JUMP JUMPDEST SWAP4 SWAP3 POP POP POP JUMP JUMPDEST PUSH32 0x4E487B7100000000000000000000000000000000000000000000000000000000 PUSH0 MSTORE PUSH1 0x51 PUSH1 0x4 MSTORE PUSH1 0x24 PUSH0 REVERT INVALID LOG2 PUSH5 0x6970667358 0x22 SLT KECCAK256 0xBD 0xDD 0x29 0xB5 0xA5 BASEFEE 0xBD 0x4D 0xE6 MLOAD PUSH18 0x9993D7E53F868DE27C2A65941838367B5BAD 0xCE 0x4D PUSH2 0x6473 PUSH16 0x6C634300081400330000000000000000 "
		},
		"gasEstimates": {
			"creation": {
				"codeDepositCost": "2022000",
				"executionCost": "2140",
				"totalCost": "2024140"
			},
			"external": {
				"TOKENS_PER_POAP()": "325",
				"mintedAmount()": "2470",
				"processEvents(bytes[])": "infinite",
				"processedTokenIds(uint256)": "2786",
				"testDecodeEventLogs()": "infinite",
				"testMultipleEventProcessing()": "infinite",
				"userMintedAmount(address)": "2825",
				"whitelistEventId(uint256)": "24765",
				"whitelistedEventIds(uint256)": "2851"
			},
			"internal": {
				"createEventTokenLog(uint256,uint256)": "infinite",
				"createTransferLog(address,uint256)": "infinite",
				"handleTargetEvent(address,uint256,uint256)": "infinite"
			}
		},
		"methodIdentifiers": {
			"TOKENS_PER_POAP()": "84d36eb8",
			"mintedAmount()": "2d380242",
			"processEvents(bytes[])": "cf3845a6",
			"processedTokenIds(uint256)": "0a8595b0",
			"testDecodeEventLogs()": "c3f3ac96",
			"testMultipleEventProcessing()": "cf2d4124",
			"userMintedAmount(address)": "25656307",
			"whitelistEventId(uint256)": "8f0a4e79",
			"whitelistedEventIds(uint256)": "7d526123"
		}
	},
	"abi": [
		{
			"anonymous": false,
			"inputs": [
				{
					"indexed": true,
					"internalType": "address",
					"name": "user",
					"type": "address"
				},
				{
					"indexed": false,
					"internalType": "uint256",
					"name": "eventId",
					"type": "uint256"
				},
				{
					"indexed": false,
					"internalType": "uint256",
					"name": "tokenId",
					"type": "uint256"
				}
			],
			"name": "TargetEventReceived",
			"type": "event"
		},
		{
			"inputs": [],
			"name": "TOKENS_PER_POAP",
			"outputs": [
				{
					"internalType": "uint256",
					"name": "",
					"type": "uint256"
				}
			],
			"stateMutability": "view",
			"type": "function"
		},
		{
			"inputs": [],
			"name": "mintedAmount",
			"outputs": [
				{
					"internalType": "uint256",
					"name": "",
					"type": "uint256"
				}
			],
			"stateMutability": "view",
			"type": "function"
		},
		{
			"inputs": [
				{
					"internalType": "bytes[]",
					"name": "logs",
					"type": "bytes[]"
				}
			],
			"name": "processEvents",
			"outputs": [
				{
					"internalType": "uint256",
					"name": "",
					"type": "uint256"
				}
			],
			"stateMutability": "nonpayable",
			"type": "function"
		},
		{
			"inputs": [
				{
					"internalType": "uint256",
					"name": "",
					"type": "uint256"
				}
			],
			"name": "processedTokenIds",
			"outputs": [
				{
					"internalType": "bool",
					"name": "",
					"type": "bool"
				}
			],
			"stateMutability": "view",
			"type": "function"
		},
		{
			"inputs": [],
			"name": "testDecodeEventLogs",
			"outputs": [],
			"stateMutability": "nonpayable",
			"type": "function"
		},
		{
			"inputs": [],
			"name": "testMultipleEventProcessing",
			"outputs": [],
			"stateMutability": "nonpayable",
			"type": "function"
		},
		{
			"inputs": [
				{
					"internalType": "address",
					"name": "",
					"type": "address"
				}
			],
			"name": "userMintedAmount",
			"outputs": [
				{
					"internalType": "uint256",
					"name": "",
					"type": "uint256"
				}
			],
			"stateMutability": "view",
			"type": "function"
		},
		{
			"inputs": [
				{
					"internalType": "uint256",
					"name": "eventId",
					"type": "uint256"
				}
			],
			"name": "whitelistEventId",
			"outputs": [],
			"stateMutability": "nonpayable",
			"type": "function"
		},
		{
			"inputs": [
				{
					"internalType": "uint256",
					"name": "",
					"type": "uint256"
				}
			],
			"name": "whitelistedEventIds",
			"outputs": [
				{
					"internalType": "bool",
					"name": "",
					"type": "bool"
				}
			],
			"stateMutability": "view",
			"type": "function"
		}
	]
}