{
	"data": {
		"bytecode": {
			"linkReferences": {},
			"object": "608060405234801561000f575f80fd5b50611c358061001d5f395ff3fe608060405234801561000f575f80fd5b5060043610610086575f3560e01c806384d36eb81161005957806384d36eb8146101385780638f0a4e7914610156578063c3f3ac9614610172578063cf3845a61461017c57610086565b80630a8595b01461008a57806325656307146100ba5780632d380242146100ea5780637d52612314610108575b5f80fd5b6100a4600480360381019061009f9190611258565b6101ac565b6040516100b1919061129d565b60405180910390f35b6100d460048036038101906100cf9190611310565b6101c9565b6040516100e1919061134a565b60405180910390f35b6100f26101de565b6040516100ff919061134a565b60405180910390f35b610122600480360381019061011d9190611258565b6101e4565b60405161012f919061129d565b60405180910390f35b610140610200565b60405161014d919061134a565b60405180910390f35b610170600480360381019061016b9190611258565b61020c565b005b61017a610237565b005b61019660048036038101906101919190611581565b61063c565b6040516101a3919061134a565b60405180910390f35b6001602052805f5260405f205f915054906101000a900460ff1681565b6003602052805f5260405f205f915090505481565b60025481565b5f602052805f5260405f205f915054906101000a900460ff1681565b6729a2241af62c000081565b60015f808381526020019081526020015f205f6101000a81548160ff02191690831515021790555050565b5f600467ffffffffffffffff81111561025357610252611377565b5b60405190808252806020026020018201604052801561028657816020015b60608152602001906001900390816102715790505b5090507fddf252ad1be2c89b69c2b068fc378daa952ba7f163c4a11628f55a4df523b3ef5f1b5f801b73123456789012345678901234567890123456789073ffffffffffffffffffffffffffffffffffffffff165f1b6103e85f1b6040516020016102f494939291906115e0565b604051602081830303815290604052815f8151811061031657610315611623565b5b60200260200101819052507f4b3711cd7ece062b0828c1b6e08d814a72d4c003383a016c833cbb1b45956e345f1b607b5f1b5f801b5f801b6103e85f1b604051602001610367959493929190611650565b6040516020818303038152906040528160018151811061038a57610389611623565b5b60200260200101819052507fddf252ad1be2c89b69c2b068fc378daa952ba7f163c4a11628f55a4df523b3ef5f1b5f801b73987654321098765432109876543210987654321073ffffffffffffffffffffffffffffffffffffffff165f1b6103e95f1b60405160200161040094939291906115e0565b6040516020818303038152906040528160028151811061042357610422611623565b5b60200260200101819052507f4b3711cd7ece062b0828c1b6e08d814a72d4c003383a016c833cbb1b45956e345f1b6101c85f1b5f801b5f801b6103e95f1b604051602001610475959493929190611650565b6040516020818303038152906040528160038151811061049857610497611623565b5b60200260200101819052505f6104ad826107b0565b90505f5b8151811015610637576104f86040518060400160405280600e81526020017f4465636f646564204576656e743a000000000000000000000000000000000000815250610d3d565b61056b6040518060400160405280600581526020017f557365723a00000000000000000000000000000000000000000000000000000081525083838151811061054457610543611623565b5b60200260200101516040015173ffffffffffffffffffffffffffffffffffffffff16610dd6565b6105c76040518060400160405280600881526020017f4576656e7449643a0000000000000000000000000000000000000000000000008152508383815181106105b7576105b6611623565b5b60200260200101515f0151610dd6565b6106246040518060400160405280600881526020017f546f6b656e49643a00000000000000000000000000000000000000000000000081525083838151811061061357610612611623565b5b602002602001015160200151610dd6565b808061062f906116ce565b9150506104b1565b505050565b5f80610647836107b0565b90505f805b82518110156107a5575f8084838151811061066a57610669611623565b5b60200260200101515f015181526020019081526020015f205f9054906101000a900460ff1680156106d4575060015f8483815181106106ac576106ab611623565b5b60200260200101516020015181526020019081526020015f205f9054906101000a900460ff16155b15610792576001805f8584815181106106f0576106ef611623565b5b60200260200101516020015181526020019081526020015f205f6101000a81548160ff02191690831515021790555061078383828151811061073557610734611623565b5b60200260200101516040015184838151811061075457610753611623565b5b60200260200101515f015185848151811061077257610771611623565b5b602002602001015160200151610e72565b818061078e906116ce565b9250505b808061079d906116ce565b91505061064c565b508092505050919050565b6060600282516107c09190611742565b67ffffffffffffffff8111156107d9576107d8611377565b5b60405190808252806020026020018201604052801561081257816020015b6107ff6111d6565b8152602001906001900390816107f75790505b5090505f805b8351811015610d33577f4be5e2ddd7b814bfc07153581bbbda6ea3d62d61c270f9788cae2f0297e18ae860405161084e906117cc565b60405180910390a17ff5a31e45aa6e3bc75ac2e5e33dbc4489cbfa724457b6310c6f7072a2e999a60c84828151811061088a57610889611623565b5b602002602001015160405161089f9190611864565b60405180910390a15f6108d66108d18684815181106108c1576108c0611623565b5b60200260200101515f6020610efd565b610fbb565b90505f6108e282610fcd565b90507fda205e581598a3b14ea3ace5e7feb479dc34ec1b8de973fcea5b4ac61088007a8160405161091391906118c6565b60405180910390a17fddf252ad1be2c89b69c2b068fc378daa952ba7f163c4a11628f55a4df523b3ef8203610ac6577f4be5e2ddd7b814bfc07153581bbbda6ea3d62d61c270f9788cae2f0297e18ae860405161096f90611930565b60405180910390a15f6109a76109a288868151811061099157610990611623565b5b602002602001015160206014610efd565b611119565b90505f6109d96109d48987815181106109c3576109c2611623565b5b602002602001015160406020610efd565b61112b565b90507ffe2ff74a033d9c7a27917ee6dbf73ba49631d2cc56c8a906cdb38f7dab7aacb082604051610a0a919061195d565b60405180910390a17f4ddb9aa59cdc255c966992729b4b5aa3a0d737e47b6a24f59358562631fa7ee681604051610a41919061134a565b60405180910390a181878781518110610a5d57610a5c611623565b5b60200260200101516040019073ffffffffffffffffffffffffffffffffffffffff16908173ffffffffffffffffffffffffffffffffffffffff168152505080878781518110610aaf57610aae611623565b5b602002602001015160200181815250505050610d1e565b7f4b3711cd7ece062b0828c1b6e08d814a72d4c003383a016c833cbb1b45956e348203610c8b577f4be5e2ddd7b814bfc07153581bbbda6ea3d62d61c270f9788cae2f0297e18ae8604051610b1a906119c0565b60405180910390a15f610b51610b4c888681518110610b3c57610b3b611623565b5b6020026020010151602080610efd565b61112b565b90505f610b83610b7e898781518110610b6d57610b6c611623565b5b602002602001015160406020610efd565b61112b565b90507f4ddb9aa59cdc255c966992729b4b5aa3a0d737e47b6a24f59358562631fa7ee682604051610bb4919061134a565b60405180910390a17f4ddb9aa59cdc255c966992729b4b5aa3a0d737e47b6a24f59358562631fa7ee681604051610beb919061134a565b60405180910390a181878781518110610c0757610c06611623565b5b60200260200101515f01818152505080878781518110610c2a57610c29611623565b5b60200260200101516020015114610c76576040517f08c379a0000000000000000000000000000000000000000000000000000000008152600401610c6d90611a28565b60405180910390fd5b8580610c81906116ce565b9650505050610d1d565b7f4be5e2ddd7b814bfc07153581bbbda6ea3d62d61c270f9788cae2f0297e18ae8604051610cb890611a90565b60405180910390a17f964a3111d3ac42c11f109e9480c0db7032a5153188e73bdd9690ff96afee9425610d07878581518110610cf757610cf6611623565b5b60200260200101515f6020610efd565b604051610d149190611864565b60405180910390a15b5b50508080610d2b906116ce565b915050610818565b5080825250919050565b610dd381604051602401610d5191906118c6565b6040516020818303038152906040527f41304fac000000000000000000000000000000000000000000000000000000007bffffffffffffffffffffffffffffffffffffffffffffffffffffffff19166020820180517bffffffffffffffffffffffffffffffffffffffffffffffffffffffff838183161783525050505061113d565b50565b610e6e8282604051602401610dec929190611aae565b6040516020818303038152906040527fb60e72cc000000000000000000000000000000000000000000000000000000007bffffffffffffffffffffffffffffffffffffffffffffffffffffffff19166020820180517bffffffffffffffffffffffffffffffffffffffffffffffffffffffff838183161783525050505061113d565b5050565b610e7d838383611157565b6729a2241af62c000060025f828254610e969190611adc565b925050819055506729a2241af62c000060035f8573ffffffffffffffffffffffffffffffffffffffff1673ffffffffffffffffffffffffffffffffffffffff1681526020019081526020015f205f828254610ef19190611adc565b92505081905550505050565b60608183610f0b9190611adc565b84511015610f4e576040517f08c379a0000000000000000000000000000000000000000000000000000000008152600401610f4590611b59565b60405180910390fd5b606082155f8114610f6d5760405191505f825260208201604052610faf565b6040519150602082018481018660208901015b81831015610f9d5780518352602083019250602081019050610f80565b50858452601f19601f83011660405250505b50809150509392505050565b5f806020830151905080915050919050565b60605f5b60208160ff1610801561102257505f60f81b838260ff1660208110610ff957610ff8611623565b5b1a60f81b7effffffffffffffffffffffffffffffffffffffffffffffffffffffffffffff191614155b1561103a57808061103290611b83565b915050610fd1565b5f8160ff1667ffffffffffffffff81111561105857611057611377565b5b6040519080825280601f01601f19166020018201604052801561108a5781602001600182028036833780820191505090505b5090505f5b8260ff168160ff16101561110e57848160ff16602081106110b3576110b2611623565b5b1a60f81b828260ff16815181106110cd576110cc611623565b5b60200101907effffffffffffffffffffffffffffffffffffffffffffffffffffffffffffff191690815f1a905350808061110690611b83565b91505061108f565b508092505050919050565b5f806014830151905080915050919050565b5f806020830151905080915050919050565b6111548161114c6111ac6111cb565b63ffffffff16565b50565b8273ffffffffffffffffffffffffffffffffffffffff167f5ef3bd3c823875bc38df6c327ef163659ef15ff1e9898230df18cc50316a91c1838360405161119f929190611bab565b60405180910390a2505050565b5f6a636f6e736f6c652e6c6f6790505f80835160208501845afa505050565b61120a819050919050565b60405180606001604052805f81526020015f81526020015f73ffffffffffffffffffffffffffffffffffffffff1681525090565b611212611bd2565b565b5f604051905090565b5f80fd5b5f80fd5b5f819050919050565b61123781611225565b8114611241575f80fd5b50565b5f813590506112528161122e565b92915050565b5f6020828403121561126d5761126c61121d565b5b5f61127a84828501611244565b91505092915050565b5f8115159050919050565b61129781611283565b82525050565b5f6020820190506112b05f83018461128e565b92915050565b5f73ffffffffffffffffffffffffffffffffffffffff82169050919050565b5f6112df826112b6565b9050919050565b6112ef816112d5565b81146112f9575f80fd5b50565b5f8135905061130a816112e6565b92915050565b5f602082840312156113255761132461121d565b5b5f611332848285016112fc565b91505092915050565b61134481611225565b82525050565b5f60208201905061135d5f83018461133b565b92915050565b5f80fd5b5f601f19601f8301169050919050565b7f4e487b71000000000000000000000000000000000000000000000000000000005f52604160045260245ffd5b6113ad82611367565b810181811067ffffffffffffffff821117156113cc576113cb611377565b5b80604052505050565b5f6113de611214565b90506113ea82826113a4565b919050565b5f67ffffffffffffffff82111561140957611408611377565b5b602082029050602081019050919050565b5f80fd5b5f80fd5b5f67ffffffffffffffff82111561143c5761143b611377565b5b61144582611367565b9050602081019050919050565b828183375f83830152505050565b5f61147261146d84611422565b6113d5565b90508281526020810184848401111561148e5761148d61141e565b5b611499848285611452565b509392505050565b5f82601f8301126114b5576114b4611363565b5b81356114c5848260208601611460565b91505092915050565b5f6114e06114db846113ef565b6113d5565b905080838252602082019050602084028301858111156115035761150261141a565b5b835b8181101561154a57803567ffffffffffffffff81111561152857611527611363565b5b80860161153589826114a1565b85526020850194505050602081019050611505565b5050509392505050565b5f82601f83011261156857611567611363565b5b81356115788482602086016114ce565b91505092915050565b5f602082840312156115965761159561121d565b5b5f82013567ffffffffffffffff8111156115b3576115b2611221565b5b6115bf84828501611554565b91505092915050565b5f819050919050565b6115da816115c8565b82525050565b5f6080820190506115f35f8301876115d1565b61160060208301866115d1565b61160d60408301856115d1565b61161a60608301846115d1565b95945050505050565b7f4e487b71000000000000000000000000000000000000000000000000000000005f52603260045260245ffd5b5f60a0820190506116635f8301886115d1565b61167060208301876115d1565b61167d60408301866115d1565b61168a60608301856115d1565b61169760808301846115d1565b9695505050505050565b7f4e487b71000000000000000000000000000000000000000000000000000000005f52601160045260245ffd5b5f6116d882611225565b91507fffffffffffffffffffffffffffffffffffffffffffffffffffffffffffffffff820361170a576117096116a1565b5b600182019050919050565b7f4e487b71000000000000000000000000000000000000000000000000000000005f52601260045260245ffd5b5f61174c82611225565b915061175783611225565b92508261176757611766611715565b5b828204905092915050565b5f82825260208201905092915050565b7f426567696e206465636f64652e2e2e00000000000000000000000000000000005f82015250565b5f6117b6600f83611772565b91506117c182611782565b602082019050919050565b5f6020820190508181035f8301526117e3816117aa565b9050919050565b5f81519050919050565b5f82825260208201905092915050565b5f5b83811015611821578082015181840152602081019050611806565b5f8484015250505050565b5f611836826117ea565b61184081856117f4565b9350611850818560208601611804565b61185981611367565b840191505092915050565b5f6020820190508181035f83015261187c818461182c565b905092915050565b5f81519050919050565b5f61189882611884565b6118a28185611772565b93506118b2818560208601611804565b6118bb81611367565b840191505092915050565b5f6020820190508181035f8301526118de818461188e565b905092915050565b7f7472616e73666572206576656e740000000000000000000000000000000000005f82015250565b5f61191a600e83611772565b9150611925826118e6565b602082019050919050565b5f6020820190508181035f8301526119478161190e565b9050919050565b611957816112d5565b82525050565b5f6020820190506119705f83018461194e565b92915050565b7f6576656e74746f6b656e206576656e74000000000000000000000000000000005f82015250565b5f6119aa601083611772565b91506119b582611976565b602082019050919050565b5f6020820190508181035f8301526119d78161199e565b9050919050565b7f546f6b656e4964206d69736d61746368000000000000000000000000000000005f82015250565b5f611a12601083611772565b9150611a1d826119de565b602082019050919050565b5f6020820190508181035f830152611a3f81611a06565b9050919050565b7f6e6f206d61746368696e67206576656e745369676e61747572650000000000005f82015250565b5f611a7a601a83611772565b9150611a8582611a46565b602082019050919050565b5f6020820190508181035f830152611aa781611a6e565b9050919050565b5f6040820190508181035f830152611ac6818561188e565b9050611ad5602083018461133b565b9392505050565b5f611ae682611225565b9150611af183611225565b9250828201905080821115611b0957611b086116a1565b5b92915050565b7f736c6963655f6f75744f66426f756e64730000000000000000000000000000005f82015250565b5f611b43601183611772565b9150611b4e82611b0f565b602082019050919050565b5f6020820190508181035f830152611b7081611b37565b9050919050565b5f60ff82169050919050565b5f611b8d82611b77565b915060ff8203611ba057611b9f6116a1565b5b600182019050919050565b5f604082019050611bbe5f83018561133b565b611bcb602083018461133b565b9392505050565b7f4e487b71000000000000000000000000000000000000000000000000000000005f52605160045260245ffdfea2646970667358221220bcdb9c1c8fa10013700ab14c533b2d49679e7db0db8d5fbd6cb7712ab5252d0864736f6c63430008140033",
			"opcodes": "PUSH1 0x80 PUSH1 0x40 MSTORE CALLVALUE DUP1 ISZERO PUSH2 0xF JUMPI PUSH0 DUP1 REVERT JUMPDEST POP PUSH2 0x1C35 DUP1 PUSH2 0x1D PUSH0 CODECOPY PUSH0 RETURN INVALID PUSH1 0x80 PUSH1 0x40 MSTORE CALLVALUE DUP1 ISZERO PUSH2 0xF JUMPI PUSH0 DUP1 REVERT JUMPDEST POP PUSH1 0x4 CALLDATASIZE LT PUSH2 0x86 JUMPI PUSH0 CALLDATALOAD PUSH1 0xE0 SHR DUP1 PUSH4 0x84D36EB8 GT PUSH2 0x59 JUMPI DUP1 PUSH4 0x84D36EB8 EQ PUSH2 0x138 JUMPI DUP1 PUSH4 0x8F0A4E79 EQ PUSH2 0x156 JUMPI DUP1 PUSH4 0xC3F3AC96 EQ PUSH2 0x172 JUMPI DUP1 PUSH4 0xCF3845A6 EQ PUSH2 0x17C JUMPI PUSH2 0x86 JUMP JUMPDEST DUP1 PUSH4 0xA8595B0 EQ PUSH2 0x8A JUMPI DUP1 PUSH4 0x25656307 EQ PUSH2 0xBA JUMPI DUP1 PUSH4 0x2D380242 EQ PUSH2 0xEA JUMPI DUP1 PUSH4 0x7D526123 EQ PUSH2 0x108 JUMPI JUMPDEST PUSH0 DUP1 REVERT JUMPDEST PUSH2 0xA4 PUSH1 0x4 DUP1 CALLDATASIZE SUB DUP2 ADD SWAP1 PUSH2 0x9F SWAP2 SWAP1 PUSH2 0x1258 JUMP JUMPDEST PUSH2 0x1AC JUMP JUMPDEST PUSH1 0x40 MLOAD PUSH2 0xB1 SWAP2 SWAP1 PUSH2 0x129D JUMP JUMPDEST PUSH1 0x40 MLOAD DUP1 SWAP2 SUB SWAP1 RETURN JUMPDEST PUSH2 0xD4 PUSH1 0x4 DUP1 CALLDATASIZE SUB DUP2 ADD SWAP1 PUSH2 0xCF SWAP2 SWAP1 PUSH2 0x1310 JUMP JUMPDEST PUSH2 0x1C9 JUMP JUMPDEST PUSH1 0x40 MLOAD PUSH2 0xE1 SWAP2 SWAP1 PUSH2 0x134A JUMP JUMPDEST PUSH1 0x40 MLOAD DUP1 SWAP2 SUB SWAP1 RETURN JUMPDEST PUSH2 0xF2 PUSH2 0x1DE JUMP JUMPDEST PUSH1 0x40 MLOAD PUSH2 0xFF SWAP2 SWAP1 PUSH2 0x134A JUMP JUMPDEST PUSH1 0x40 MLOAD DUP1 SWAP2 SUB SWAP1 RETURN JUMPDEST PUSH2 0x122 PUSH1 0x4 DUP1 CALLDATASIZE SUB DUP2 ADD SWAP1 PUSH2 0x11D SWAP2 SWAP1 PUSH2 0x1258 JUMP JUMPDEST PUSH2 0x1E4 JUMP JUMPDEST PUSH1 0x40 MLOAD PUSH2 0x12F SWAP2 SWAP1 PUSH2 0x129D JUMP JUMPDEST PUSH1 0x40 MLOAD DUP1 SWAP2 SUB SWAP1 RETURN JUMPDEST PUSH2 0x140 PUSH2 0x200 JUMP JUMPDEST PUSH1 0x40 MLOAD PUSH2 0x14D SWAP2 SWAP1 PUSH2 0x134A JUMP JUMPDEST PUSH1 0x40 MLOAD DUP1 SWAP2 SUB SWAP1 RETURN JUMPDEST PUSH2 0x170 PUSH1 0x4 DUP1 CALLDATASIZE SUB DUP2 ADD SWAP1 PUSH2 0x16B SWAP2 SWAP1 PUSH2 0x1258 JUMP JUMPDEST PUSH2 0x20C JUMP JUMPDEST STOP JUMPDEST PUSH2 0x17A PUSH2 0x237 JUMP JUMPDEST STOP JUMPDEST PUSH2 0x196 PUSH1 0x4 DUP1 CALLDATASIZE SUB DUP2 ADD SWAP1 PUSH2 0x191 SWAP2 SWAP1 PUSH2 0x1581 JUMP JUMPDEST PUSH2 0x63C JUMP JUMPDEST PUSH1 0x40 MLOAD PUSH2 0x1A3 SWAP2 SWAP1 PUSH2 0x134A JUMP JUMPDEST PUSH1 0x40 MLOAD DUP1 SWAP2 SUB SWAP1 RETURN JUMPDEST PUSH1 0x1 PUSH1 0x20 MSTORE DUP1 PUSH0 MSTORE PUSH1 0x40 PUSH0 KECCAK256 PUSH0 SWAP2 POP SLOAD SWAP1 PUSH2 0x100 EXP SWAP1 DIV PUSH1 0xFF AND DUP2 JUMP JUMPDEST PUSH1 0x3 PUSH1 0x20 MSTORE DUP1 PUSH0 MSTORE PUSH1 0x40 PUSH0 KECCAK256 PUSH0 SWAP2 POP SWAP1 POP SLOAD DUP2 JUMP JUMPDEST PUSH1 0x2 SLOAD DUP2 JUMP JUMPDEST PUSH0 PUSH1 0x20 MSTORE DUP1 PUSH0 MSTORE PUSH1 0x40 PUSH0 KECCAK256 PUSH0 SWAP2 POP SLOAD SWAP1 PUSH2 0x100 EXP SWAP1 DIV PUSH1 0xFF AND DUP2 JUMP JUMPDEST PUSH8 0x29A2241AF62C0000 DUP2 JUMP JUMPDEST PUSH1 0x1 PUSH0 DUP1 DUP4 DUP2 MSTORE PUSH1 0x20 ADD SWAP1 DUP2 MSTORE PUSH1 0x20 ADD PUSH0 KECCAK256 PUSH0 PUSH2 0x100 EXP DUP2 SLOAD DUP2 PUSH1 0xFF MUL NOT AND SWAP1 DUP4 ISZERO ISZERO MUL OR SWAP1 SSTORE POP POP JUMP JUMPDEST PUSH0 PUSH1 0x4 PUSH8 0xFFFFFFFFFFFFFFFF DUP2 GT ISZERO PUSH2 0x253 JUMPI PUSH2 0x252 PUSH2 0x1377 JUMP JUMPDEST JUMPDEST PUSH1 0x40 MLOAD SWAP1 DUP1 DUP3 MSTORE DUP1 PUSH1 0x20 MUL PUSH1 0x20 ADD DUP3 ADD PUSH1 0x40 MSTORE DUP1 ISZERO PUSH2 0x286 JUMPI DUP2 PUSH1 0x20 ADD JUMPDEST PUSH1 0x60 DUP2 MSTORE PUSH1 0x20 ADD SWAP1 PUSH1 0x1 SWAP1 SUB SWAP1 DUP2 PUSH2 0x271 JUMPI SWAP1 POP JUMPDEST POP SWAP1 POP PUSH32 0xDDF252AD1BE2C89B69C2B068FC378DAA952BA7F163C4A11628F55A4DF523B3EF PUSH0 SHL PUSH0 DUP1 SHL PUSH20 0x1234567890123456789012345678901234567890 PUSH20 0xFFFFFFFFFFFFFFFFFFFFFFFFFFFFFFFFFFFFFFFF AND PUSH0 SHL PUSH2 0x3E8 PUSH0 SHL PUSH1 0x40 MLOAD PUSH1 0x20 ADD PUSH2 0x2F4 SWAP5 SWAP4 SWAP3 SWAP2 SWAP1 PUSH2 0x15E0 JUMP JUMPDEST PUSH1 0x40 MLOAD PUSH1 0x20 DUP2 DUP4 SUB SUB DUP2 MSTORE SWAP1 PUSH1 0x40 MSTORE DUP2 PUSH0 DUP2 MLOAD DUP2 LT PUSH2 0x316 JUMPI PUSH2 0x315 PUSH2 0x1623 JUMP JUMPDEST JUMPDEST PUSH1 0x20 MUL PUSH1 0x20 ADD ADD DUP2 SWAP1 MSTORE POP PUSH32 0x4B3711CD7ECE062B0828C1B6E08D814A72D4C003383A016C833CBB1B45956E34 PUSH0 SHL PUSH1 0x7B PUSH0 SHL PUSH0 DUP1 SHL PUSH0 DUP1 SHL PUSH2 0x3E8 PUSH0 SHL PUSH1 0x40 MLOAD PUSH1 0x20 ADD PUSH2 0x367 SWAP6 SWAP5 SWAP4 SWAP3 SWAP2 SWAP1 PUSH2 0x1650 JUMP JUMPDEST PUSH1 0x40 MLOAD PUSH1 0x20 DUP2 DUP4 SUB SUB DUP2 MSTORE SWAP1 PUSH1 0x40 MSTORE DUP2 PUSH1 0x1 DUP2 MLOAD DUP2 LT PUSH2 0x38A JUMPI PUSH2 0x389 PUSH2 0x1623 JUMP JUMPDEST JUMPDEST PUSH1 0x20 MUL PUSH1 0x20 ADD ADD DUP2 SWAP1 MSTORE POP PUSH32 0xDDF252AD1BE2C89B69C2B068FC378DAA952BA7F163C4A11628F55A4DF523B3EF PUSH0 SHL PUSH0 DUP1 SHL PUSH20 0x9876543210987654321098765432109876543210 PUSH20 0xFFFFFFFFFFFFFFFFFFFFFFFFFFFFFFFFFFFFFFFF AND PUSH0 SHL PUSH2 0x3E9 PUSH0 SHL PUSH1 0x40 MLOAD PUSH1 0x20 ADD PUSH2 0x400 SWAP5 SWAP4 SWAP3 SWAP2 SWAP1 PUSH2 0x15E0 JUMP JUMPDEST PUSH1 0x40 MLOAD PUSH1 0x20 DUP2 DUP4 SUB SUB DUP2 MSTORE SWAP1 PUSH1 0x40 MSTORE DUP2 PUSH1 0x2 DUP2 MLOAD DUP2 LT PUSH2 0x423 JUMPI PUSH2 0x422 PUSH2 0x1623 JUMP JUMPDEST JUMPDEST PUSH1 0x20 MUL PUSH1 0x20 ADD ADD DUP2 SWAP1 MSTORE POP PUSH32 0x4B3711CD7ECE062B0828C1B6E08D814A72D4C003383A016C833CBB1B45956E34 PUSH0 SHL PUSH2 0x1C8 PUSH0 SHL PUSH0 DUP1 SHL PUSH0 DUP1 SHL PUSH2 0x3E9 PUSH0 SHL PUSH1 0x40 MLOAD PUSH1 0x20 ADD PUSH2 0x475 SWAP6 SWAP5 SWAP4 SWAP3 SWAP2 SWAP1 PUSH2 0x1650 JUMP JUMPDEST PUSH1 0x40 MLOAD PUSH1 0x20 DUP2 DUP4 SUB SUB DUP2 MSTORE SWAP1 PUSH1 0x40 MSTORE DUP2 PUSH1 0x3 DUP2 MLOAD DUP2 LT PUSH2 0x498 JUMPI PUSH2 0x497 PUSH2 0x1623 JUMP JUMPDEST JUMPDEST PUSH1 0x20 MUL PUSH1 0x20 ADD ADD DUP2 SWAP1 MSTORE POP PUSH0 PUSH2 0x4AD DUP3 PUSH2 0x7B0 JUMP JUMPDEST SWAP1 POP PUSH0 JUMPDEST DUP2 MLOAD DUP2 LT ISZERO PUSH2 0x637 JUMPI PUSH2 0x4F8 PUSH1 0x40 MLOAD DUP1 PUSH1 0x40 ADD PUSH1 0x40 MSTORE DUP1 PUSH1 0xE DUP2 MSTORE PUSH1 0x20 ADD PUSH32 0x4465636F646564204576656E743A000000000000000000000000000000000000 DUP2 MSTORE POP PUSH2 0xD3D JUMP JUMPDEST PUSH2 0x56B PUSH1 0x40 MLOAD DUP1 PUSH1 0x40 ADD PUSH1 0x40 MSTORE DUP1 PUSH1 0x5 DUP2 MSTORE PUSH1 0x20 ADD PUSH32 0x557365723A000000000000000000000000000000000000000000000000000000 DUP2 MSTORE POP DUP4 DUP4 DUP2 MLOAD DUP2 LT PUSH2 0x544 JUMPI PUSH2 0x543 PUSH2 0x1623 JUMP JUMPDEST JUMPDEST PUSH1 0x20 MUL PUSH1 0x20 ADD ADD MLOAD PUSH1 0x40 ADD MLOAD PUSH20 0xFFFFFFFFFFFFFFFFFFFFFFFFFFFFFFFFFFFFFFFF AND PUSH2 0xDD6 JUMP JUMPDEST PUSH2 0x5C7 PUSH1 0x40 MLOAD DUP1 PUSH1 0x40 ADD PUSH1 0x40 MSTORE DUP1 PUSH1 0x8 DUP2 MSTORE PUSH1 0x20 ADD PUSH32 0x4576656E7449643A000000000000000000000000000000000000000000000000 DUP2 MSTORE POP DUP4 DUP4 DUP2 MLOAD DUP2 LT PUSH2 0x5B7 JUMPI PUSH2 0x5B6 PUSH2 0x1623 JUMP JUMPDEST JUMPDEST PUSH1 0x20 MUL PUSH1 0x20 ADD ADD MLOAD PUSH0 ADD MLOAD PUSH2 0xDD6 JUMP JUMPDEST PUSH2 0x624 PUSH1 0x40 MLOAD DUP1 PUSH1 0x40 ADD PUSH1 0x40 MSTORE DUP1 PUSH1 0x8 DUP2 MSTORE PUSH1 0x20 ADD PUSH32 0x546F6B656E49643A000000000000000000000000000000000000000000000000 DUP2 MSTORE POP DUP4 DUP4 DUP2 MLOAD DUP2 LT PUSH2 0x613 JUMPI PUSH2 0x612 PUSH2 0x1623 JUMP JUMPDEST JUMPDEST PUSH1 0x20 MUL PUSH1 0x20 ADD ADD MLOAD PUSH1 0x20 ADD MLOAD PUSH2 0xDD6 JUMP JUMPDEST DUP1 DUP1 PUSH2 0x62F SWAP1 PUSH2 0x16CE JUMP JUMPDEST SWAP2 POP POP PUSH2 0x4B1 JUMP JUMPDEST POP POP POP JUMP JUMPDEST PUSH0 DUP1 PUSH2 0x647 DUP4 PUSH2 0x7B0 JUMP JUMPDEST SWAP1 POP PUSH0 DUP1 JUMPDEST DUP3 MLOAD DUP2 LT ISZERO PUSH2 0x7A5 JUMPI PUSH0 DUP1 DUP5 DUP4 DUP2 MLOAD DUP2 LT PUSH2 0x66A JUMPI PUSH2 0x669 PUSH2 0x1623 JUMP JUMPDEST JUMPDEST PUSH1 0x20 MUL PUSH1 0x20 ADD ADD MLOAD PUSH0 ADD MLOAD DUP2 MSTORE PUSH1 0x20 ADD SWAP1 DUP2 MSTORE PUSH1 0x20 ADD PUSH0 KECCAK256 PUSH0 SWAP1 SLOAD SWAP1 PUSH2 0x100 EXP SWAP1 DIV PUSH1 0xFF AND DUP1 ISZERO PUSH2 0x6D4 JUMPI POP PUSH1 0x1 PUSH0 DUP5 DUP4 DUP2 MLOAD DUP2 LT PUSH2 0x6AC JUMPI PUSH2 0x6AB PUSH2 0x1623 JUMP JUMPDEST JUMPDEST PUSH1 0x20 MUL PUSH1 0x20 ADD ADD MLOAD PUSH1 0x20 ADD MLOAD DUP2 MSTORE PUSH1 0x20 ADD SWAP1 DUP2 MSTORE PUSH1 0x20 ADD PUSH0 KECCAK256 PUSH0 SWAP1 SLOAD SWAP1 PUSH2 0x100 EXP SWAP1 DIV PUSH1 0xFF AND ISZERO JUMPDEST ISZERO PUSH2 0x792 JUMPI PUSH1 0x1 DUP1 PUSH0 DUP6 DUP5 DUP2 MLOAD DUP2 LT PUSH2 0x6F0 JUMPI PUSH2 0x6EF PUSH2 0x1623 JUMP JUMPDEST JUMPDEST PUSH1 0x20 MUL PUSH1 0x20 ADD ADD MLOAD PUSH1 0x20 ADD MLOAD DUP2 MSTORE PUSH1 0x20 ADD SWAP1 DUP2 MSTORE PUSH1 0x20 ADD PUSH0 KECCAK256 PUSH0 PUSH2 0x100 EXP DUP2 SLOAD DUP2 PUSH1 0xFF MUL NOT AND SWAP1 DUP4 ISZERO ISZERO MUL OR SWAP1 SSTORE POP PUSH2 0x783 DUP4 DUP3 DUP2 MLOAD DUP2 LT PUSH2 0x735 JUMPI PUSH2 0x734 PUSH2 0x1623 JUMP JUMPDEST JUMPDEST PUSH1 0x20 MUL PUSH1 0x20 ADD ADD MLOAD PUSH1 0x40 ADD MLOAD DUP5 DUP4 DUP2 MLOAD DUP2 LT PUSH2 0x754 JUMPI PUSH2 0x753 PUSH2 0x1623 JUMP JUMPDEST JUMPDEST PUSH1 0x20 MUL PUSH1 0x20 ADD ADD MLOAD PUSH0 ADD MLOAD DUP6 DUP5 DUP2 MLOAD DUP2 LT PUSH2 0x772 JUMPI PUSH2 0x771 PUSH2 0x1623 JUMP JUMPDEST JUMPDEST PUSH1 0x20 MUL PUSH1 0x20 ADD ADD MLOAD PUSH1 0x20 ADD MLOAD PUSH2 0xE72 JUMP JUMPDEST DUP2 DUP1 PUSH2 0x78E SWAP1 PUSH2 0x16CE JUMP JUMPDEST SWAP3 POP POP JUMPDEST DUP1 DUP1 PUSH2 0x79D SWAP1 PUSH2 0x16CE JUMP JUMPDEST SWAP2 POP POP PUSH2 0x64C JUMP JUMPDEST POP DUP1 SWAP3 POP POP POP SWAP2 SWAP1 POP JUMP JUMPDEST PUSH1 0x60 PUSH1 0x2 DUP3 MLOAD PUSH2 0x7C0 SWAP2 SWAP1 PUSH2 0x1742 JUMP JUMPDEST PUSH8 0xFFFFFFFFFFFFFFFF DUP2 GT ISZERO PUSH2 0x7D9 JUMPI PUSH2 0x7D8 PUSH2 0x1377 JUMP JUMPDEST JUMPDEST PUSH1 0x40 MLOAD SWAP1 DUP1 DUP3 MSTORE DUP1 PUSH1 0x20 MUL PUSH1 0x20 ADD DUP3 ADD PUSH1 0x40 MSTORE DUP1 ISZERO PUSH2 0x812 JUMPI DUP2 PUSH1 0x20 ADD JUMPDEST PUSH2 0x7FF PUSH2 0x11D6 JUMP JUMPDEST DUP2 MSTORE PUSH1 0x20 ADD SWAP1 PUSH1 0x1 SWAP1 SUB SWAP1 DUP2 PUSH2 0x7F7 JUMPI SWAP1 POP JUMPDEST POP SWAP1 POP PUSH0 DUP1 JUMPDEST DUP4 MLOAD DUP2 LT ISZERO PUSH2 0xD33 JUMPI PUSH32 0x4BE5E2DDD7B814BFC07153581BBBDA6EA3D62D61C270F9788CAE2F0297E18AE8 PUSH1 0x40 MLOAD PUSH2 0x84E SWAP1 PUSH2 0x17CC JUMP JUMPDEST PUSH1 0x40 MLOAD DUP1 SWAP2 SUB SWAP1 LOG1 PUSH32 0xF5A31E45AA6E3BC75AC2E5E33DBC4489CBFA724457B6310C6F7072A2E999A60C DUP5 DUP3 DUP2 MLOAD DUP2 LT PUSH2 0x88A JUMPI PUSH2 0x889 PUSH2 0x1623 JUMP JUMPDEST JUMPDEST PUSH1 0x20 MUL PUSH1 0x20 ADD ADD MLOAD PUSH1 0x40 MLOAD PUSH2 0x89F SWAP2 SWAP1 PUSH2 0x1864 JUMP JUMPDEST PUSH1 0x40 MLOAD DUP1 SWAP2 SUB SWAP1 LOG1 PUSH0 PUSH2 0x8D6 PUSH2 0x8D1 DUP7 DUP5 DUP2 MLOAD DUP2 LT PUSH2 0x8C1 JUMPI PUSH2 0x8C0 PUSH2 0x1623 JUMP JUMPDEST JUMPDEST PUSH1 0x20 MUL PUSH1 0x20 ADD ADD MLOAD PUSH0 PUSH1 0x20 PUSH2 0xEFD JUMP JUMPDEST PUSH2 0xFBB JUMP JUMPDEST SWAP1 POP PUSH0 PUSH2 0x8E2 DUP3 PUSH2 0xFCD JUMP JUMPDEST SWAP1 POP PUSH32 0xDA205E581598A3B14EA3ACE5E7FEB479DC34EC1B8DE973FCEA5B4AC61088007A DUP2 PUSH1 0x40 MLOAD PUSH2 0x913 SWAP2 SWAP1 PUSH2 0x18C6 JUMP JUMPDEST PUSH1 0x40 MLOAD DUP1 SWAP2 SUB SWAP1 LOG1 PUSH32 0xDDF252AD1BE2C89B69C2B068FC378DAA952BA7F163C4A11628F55A4DF523B3EF DUP3 SUB PUSH2 0xAC6 JUMPI PUSH32 0x4BE5E2DDD7B814BFC07153581BBBDA6EA3D62D61C270F9788CAE2F0297E18AE8 PUSH1 0x40 MLOAD PUSH2 0x96F SWAP1 PUSH2 0x1930 JUMP JUMPDEST PUSH1 0x40 MLOAD DUP1 SWAP2 SUB SWAP1 LOG1 PUSH0 PUSH2 0x9A7 PUSH2 0x9A2 DUP9 DUP7 DUP2 MLOAD DUP2 LT PUSH2 0x991 JUMPI PUSH2 0x990 PUSH2 0x1623 JUMP JUMPDEST JUMPDEST PUSH1 0x20 MUL PUSH1 0x20 ADD ADD MLOAD PUSH1 0x20 PUSH1 0x14 PUSH2 0xEFD JUMP JUMPDEST PUSH2 0x1119 JUMP JUMPDEST SWAP1 POP PUSH0 PUSH2 0x9D9 PUSH2 0x9D4 DUP10 DUP8 DUP2 MLOAD DUP2 LT PUSH2 0x9C3 JUMPI PUSH2 0x9C2 PUSH2 0x1623 JUMP JUMPDEST JUMPDEST PUSH1 0x20 MUL PUSH1 0x20 ADD ADD MLOAD PUSH1 0x40 PUSH1 0x20 PUSH2 0xEFD JUMP JUMPDEST PUSH2 0x112B JUMP JUMPDEST SWAP1 POP PUSH32 0xFE2FF74A033D9C7A27917EE6DBF73BA49631D2CC56C8A906CDB38F7DAB7AACB0 DUP3 PUSH1 0x40 MLOAD PUSH2 0xA0A SWAP2 SWAP1 PUSH2 0x195D JUMP JUMPDEST PUSH1 0x40 MLOAD DUP1 SWAP2 SUB SWAP1 LOG1 PUSH32 0x4DDB9AA59CDC255C966992729B4B5AA3A0D737E47B6A24F59358562631FA7EE6 DUP2 PUSH1 0x40 MLOAD PUSH2 0xA41 SWAP2 SWAP1 PUSH2 0x134A JUMP JUMPDEST PUSH1 0x40 MLOAD DUP1 SWAP2 SUB SWAP1 LOG1 DUP2 DUP8 DUP8 DUP2 MLOAD DUP2 LT PUSH2 0xA5D JUMPI PUSH2 0xA5C PUSH2 0x1623 JUMP JUMPDEST JUMPDEST PUSH1 0x20 MUL PUSH1 0x20 ADD ADD MLOAD PUSH1 0x40 ADD SWAP1 PUSH20 0xFFFFFFFFFFFFFFFFFFFFFFFFFFFFFFFFFFFFFFFF AND SWAP1 DUP2 PUSH20 0xFFFFFFFFFFFFFFFFFFFFFFFFFFFFFFFFFFFFFFFF AND DUP2 MSTORE POP POP DUP1 DUP8 DUP8 DUP2 MLOAD DUP2 LT PUSH2 0xAAF JUMPI PUSH2 0xAAE PUSH2 0x1623 JUMP JUMPDEST JUMPDEST PUSH1 0x20 MUL PUSH1 0x20 ADD ADD MLOAD PUSH1 0x20 ADD DUP2 DUP2 MSTORE POP POP POP POP PUSH2 0xD1E JUMP JUMPDEST PUSH32 0x4B3711CD7ECE062B0828C1B6E08D814A72D4C003383A016C833CBB1B45956E34 DUP3 SUB PUSH2 0xC8B JUMPI PUSH32 0x4BE5E2DDD7B814BFC07153581BBBDA6EA3D62D61C270F9788CAE2F0297E18AE8 PUSH1 0x40 MLOAD PUSH2 0xB1A SWAP1 PUSH2 0x19C0 JUMP JUMPDEST PUSH1 0x40 MLOAD DUP1 SWAP2 SUB SWAP1 LOG1 PUSH0 PUSH2 0xB51 PUSH2 0xB4C DUP9 DUP7 DUP2 MLOAD DUP2 LT PUSH2 0xB3C JUMPI PUSH2 0xB3B PUSH2 0x1623 JUMP JUMPDEST JUMPDEST PUSH1 0x20 MUL PUSH1 0x20 ADD ADD MLOAD PUSH1 0x20 DUP1 PUSH2 0xEFD JUMP JUMPDEST PUSH2 0x112B JUMP JUMPDEST SWAP1 POP PUSH0 PUSH2 0xB83 PUSH2 0xB7E DUP10 DUP8 DUP2 MLOAD DUP2 LT PUSH2 0xB6D JUMPI PUSH2 0xB6C PUSH2 0x1623 JUMP JUMPDEST JUMPDEST PUSH1 0x20 MUL PUSH1 0x20 ADD ADD MLOAD PUSH1 0x40 PUSH1 0x20 PUSH2 0xEFD JUMP JUMPDEST PUSH2 0x112B JUMP JUMPDEST SWAP1 POP PUSH32 0x4DDB9AA59CDC255C966992729B4B5AA3A0D737E47B6A24F59358562631FA7EE6 DUP3 PUSH1 0x40 MLOAD PUSH2 0xBB4 SWAP2 SWAP1 PUSH2 0x134A JUMP JUMPDEST PUSH1 0x40 MLOAD DUP1 SWAP2 SUB SWAP1 LOG1 PUSH32 0x4DDB9AA59CDC255C966992729B4B5AA3A0D737E47B6A24F59358562631FA7EE6 DUP2 PUSH1 0x40 MLOAD PUSH2 0xBEB SWAP2 SWAP1 PUSH2 0x134A JUMP JUMPDEST PUSH1 0x40 MLOAD DUP1 SWAP2 SUB SWAP1 LOG1 DUP2 DUP8 DUP8 DUP2 MLOAD DUP2 LT PUSH2 0xC07 JUMPI PUSH2 0xC06 PUSH2 0x1623 JUMP JUMPDEST JUMPDEST PUSH1 0x20 MUL PUSH1 0x20 ADD ADD MLOAD PUSH0 ADD DUP2 DUP2 MSTORE POP POP DUP1 DUP8 DUP8 DUP2 MLOAD DUP2 LT PUSH2 0xC2A JUMPI PUSH2 0xC29 PUSH2 0x1623 JUMP JUMPDEST JUMPDEST PUSH1 0x20 MUL PUSH1 0x20 ADD ADD MLOAD PUSH1 0x20 ADD MLOAD EQ PUSH2 0xC76 JUMPI PUSH1 0x40 MLOAD PUSH32 0x8C379A000000000000000000000000000000000000000000000000000000000 DUP2 MSTORE PUSH1 0x4 ADD PUSH2 0xC6D SWAP1 PUSH2 0x1A28 JUMP JUMPDEST PUSH1 0x40 MLOAD DUP1 SWAP2 SUB SWAP1 REVERT JUMPDEST DUP6 DUP1 PUSH2 0xC81 SWAP1 PUSH2 0x16CE JUMP JUMPDEST SWAP7 POP POP POP POP PUSH2 0xD1D JUMP JUMPDEST PUSH32 0x4BE5E2DDD7B814BFC07153581BBBDA6EA3D62D61C270F9788CAE2F0297E18AE8 PUSH1 0x40 MLOAD PUSH2 0xCB8 SWAP1 PUSH2 0x1A90 JUMP JUMPDEST PUSH1 0x40 MLOAD DUP1 SWAP2 SUB SWAP1 LOG1 PUSH32 0x964A3111D3AC42C11F109E9480C0DB7032A5153188E73BDD9690FF96AFEE9425 PUSH2 0xD07 DUP8 DUP6 DUP2 MLOAD DUP2 LT PUSH2 0xCF7 JUMPI PUSH2 0xCF6 PUSH2 0x1623 JUMP JUMPDEST JUMPDEST PUSH1 0x20 MUL PUSH1 0x20 ADD ADD MLOAD PUSH0 PUSH1 0x20 PUSH2 0xEFD JUMP JUMPDEST PUSH1 0x40 MLOAD PUSH2 0xD14 SWAP2 SWAP1 PUSH2 0x1864 JUMP JUMPDEST PUSH1 0x40 MLOAD DUP1 SWAP2 SUB SWAP1 LOG1 JUMPDEST JUMPDEST POP POP DUP1 DUP1 PUSH2 0xD2B SWAP1 PUSH2 0x16CE JUMP JUMPDEST SWAP2 POP POP PUSH2 0x818 JUMP JUMPDEST POP DUP1 DUP3 MSTORE POP SWAP2 SWAP1 POP JUMP JUMPDEST PUSH2 0xDD3 DUP2 PUSH1 0x40 MLOAD PUSH1 0x24 ADD PUSH2 0xD51 SWAP2 SWAP1 PUSH2 0x18C6 JUMP JUMPDEST PUSH1 0x40 MLOAD PUSH1 0x20 DUP2 DUP4 SUB SUB DUP2 MSTORE SWAP1 PUSH1 0x40 MSTORE PUSH32 0x41304FAC00000000000000000000000000000000000000000000000000000000 PUSH28 0xFFFFFFFFFFFFFFFFFFFFFFFFFFFFFFFFFFFFFFFFFFFFFFFFFFFFFFFF NOT AND PUSH1 0x20 DUP3 ADD DUP1 MLOAD PUSH28 0xFFFFFFFFFFFFFFFFFFFFFFFFFFFFFFFFFFFFFFFFFFFFFFFFFFFFFFFF DUP4 DUP2 DUP4 AND OR DUP4 MSTORE POP POP POP POP PUSH2 0x113D JUMP JUMPDEST POP JUMP JUMPDEST PUSH2 0xE6E DUP3 DUP3 PUSH1 0x40 MLOAD PUSH1 0x24 ADD PUSH2 0xDEC SWAP3 SWAP2 SWAP1 PUSH2 0x1AAE JUMP JUMPDEST PUSH1 0x40 MLOAD PUSH1 0x20 DUP2 DUP4 SUB SUB DUP2 MSTORE SWAP1 PUSH1 0x40 MSTORE PUSH32 0xB60E72CC00000000000000000000000000000000000000000000000000000000 PUSH28 0xFFFFFFFFFFFFFFFFFFFFFFFFFFFFFFFFFFFFFFFFFFFFFFFFFFFFFFFF NOT AND PUSH1 0x20 DUP3 ADD DUP1 MLOAD PUSH28 0xFFFFFFFFFFFFFFFFFFFFFFFFFFFFFFFFFFFFFFFFFFFFFFFFFFFFFFFF DUP4 DUP2 DUP4 AND OR DUP4 MSTORE POP POP POP POP PUSH2 0x113D JUMP JUMPDEST POP POP JUMP JUMPDEST PUSH2 0xE7D DUP4 DUP4 DUP4 PUSH2 0x1157 JUMP JUMPDEST PUSH8 0x29A2241AF62C0000 PUSH1 0x2 PUSH0 DUP3 DUP3 SLOAD PUSH2 0xE96 SWAP2 SWAP1 PUSH2 0x1ADC JUMP JUMPDEST SWAP3 POP POP DUP2 SWAP1 SSTORE POP PUSH8 0x29A2241AF62C0000 PUSH1 0x3 PUSH0 DUP6 PUSH20 0xFFFFFFFFFFFFFFFFFFFFFFFFFFFFFFFFFFFFFFFF AND PUSH20 0xFFFFFFFFFFFFFFFFFFFFFFFFFFFFFFFFFFFFFFFF AND DUP2 MSTORE PUSH1 0x20 ADD SWAP1 DUP2 MSTORE PUSH1 0x20 ADD PUSH0 KECCAK256 PUSH0 DUP3 DUP3 SLOAD PUSH2 0xEF1 SWAP2 SWAP1 PUSH2 0x1ADC JUMP JUMPDEST SWAP3 POP POP DUP2 SWAP1 SSTORE POP POP POP POP JUMP JUMPDEST PUSH1 0x60 DUP2 DUP4 PUSH2 0xF0B SWAP2 SWAP1 PUSH2 0x1ADC JUMP JUMPDEST DUP5 MLOAD LT ISZERO PUSH2 0xF4E JUMPI PUSH1 0x40 MLOAD PUSH32 0x8C379A000000000000000000000000000000000000000000000000000000000 DUP2 MSTORE PUSH1 0x4 ADD PUSH2 0xF45 SWAP1 PUSH2 0x1B59 JUMP JUMPDEST PUSH1 0x40 MLOAD DUP1 SWAP2 SUB SWAP1 REVERT JUMPDEST PUSH1 0x60 DUP3 ISZERO PUSH0 DUP2 EQ PUSH2 0xF6D JUMPI PUSH1 0x40 MLOAD SWAP2 POP PUSH0 DUP3 MSTORE PUSH1 0x20 DUP3 ADD PUSH1 0x40 MSTORE PUSH2 0xFAF JUMP JUMPDEST PUSH1 0x40 MLOAD SWAP2 POP PUSH1 0x20 DUP3 ADD DUP5 DUP2 ADD DUP7 PUSH1 0x20 DUP10 ADD ADD JUMPDEST DUP2 DUP4 LT ISZERO PUSH2 0xF9D JUMPI DUP1 MLOAD DUP4 MSTORE PUSH1 0x20 DUP4 ADD SWAP3 POP PUSH1 0x20 DUP2 ADD SWAP1 POP PUSH2 0xF80 JUMP JUMPDEST POP DUP6 DUP5 MSTORE PUSH1 0x1F NOT PUSH1 0x1F DUP4 ADD AND PUSH1 0x40 MSTORE POP POP JUMPDEST POP DUP1 SWAP2 POP POP SWAP4 SWAP3 POP POP POP JUMP JUMPDEST PUSH0 DUP1 PUSH1 0x20 DUP4 ADD MLOAD SWAP1 POP DUP1 SWAP2 POP POP SWAP2 SWAP1 POP JUMP JUMPDEST PUSH1 0x60 PUSH0 JUMPDEST PUSH1 0x20 DUP2 PUSH1 0xFF AND LT DUP1 ISZERO PUSH2 0x1022 JUMPI POP PUSH0 PUSH1 0xF8 SHL DUP4 DUP3 PUSH1 0xFF AND PUSH1 0x20 DUP2 LT PUSH2 0xFF9 JUMPI PUSH2 0xFF8 PUSH2 0x1623 JUMP JUMPDEST JUMPDEST BYTE PUSH1 0xF8 SHL PUSH31 0xFFFFFFFFFFFFFFFFFFFFFFFFFFFFFFFFFFFFFFFFFFFFFFFFFFFFFFFFFFFFFF NOT AND EQ ISZERO JUMPDEST ISZERO PUSH2 0x103A JUMPI DUP1 DUP1 PUSH2 0x1032 SWAP1 PUSH2 0x1B83 JUMP JUMPDEST SWAP2 POP POP PUSH2 0xFD1 JUMP JUMPDEST PUSH0 DUP2 PUSH1 0xFF AND PUSH8 0xFFFFFFFFFFFFFFFF DUP2 GT ISZERO PUSH2 0x1058 JUMPI PUSH2 0x1057 PUSH2 0x1377 JUMP JUMPDEST JUMPDEST PUSH1 0x40 MLOAD SWAP1 DUP1 DUP3 MSTORE DUP1 PUSH1 0x1F ADD PUSH1 0x1F NOT AND PUSH1 0x20 ADD DUP3 ADD PUSH1 0x40 MSTORE DUP1 ISZERO PUSH2 0x108A JUMPI DUP2 PUSH1 0x20 ADD PUSH1 0x1 DUP3 MUL DUP1 CALLDATASIZE DUP4 CALLDATACOPY DUP1 DUP3 ADD SWAP2 POP POP SWAP1 POP JUMPDEST POP SWAP1 POP PUSH0 JUMPDEST DUP3 PUSH1 0xFF AND DUP2 PUSH1 0xFF AND LT ISZERO PUSH2 0x110E JUMPI DUP5 DUP2 PUSH1 0xFF AND PUSH1 0x20 DUP2 LT PUSH2 0x10B3 JUMPI PUSH2 0x10B2 PUSH2 0x1623 JUMP JUMPDEST JUMPDEST BYTE PUSH1 0xF8 SHL DUP3 DUP3 PUSH1 0xFF AND DUP2 MLOAD DUP2 LT PUSH2 0x10CD JUMPI PUSH2 0x10CC PUSH2 0x1623 JUMP JUMPDEST JUMPDEST PUSH1 0x20 ADD ADD SWAP1 PUSH31 0xFFFFFFFFFFFFFFFFFFFFFFFFFFFFFFFFFFFFFFFFFFFFFFFFFFFFFFFFFFFFFF NOT AND SWAP1 DUP2 PUSH0 BYTE SWAP1 MSTORE8 POP DUP1 DUP1 PUSH2 0x1106 SWAP1 PUSH2 0x1B83 JUMP JUMPDEST SWAP2 POP POP PUSH2 0x108F JUMP JUMPDEST POP DUP1 SWAP3 POP POP POP SWAP2 SWAP1 POP JUMP JUMPDEST PUSH0 DUP1 PUSH1 0x14 DUP4 ADD MLOAD SWAP1 POP DUP1 SWAP2 POP POP SWAP2 SWAP1 POP JUMP JUMPDEST PUSH0 DUP1 PUSH1 0x20 DUP4 ADD MLOAD SWAP1 POP DUP1 SWAP2 POP POP SWAP2 SWAP1 POP JUMP JUMPDEST PUSH2 0x1154 DUP2 PUSH2 0x114C PUSH2 0x11AC PUSH2 0x11CB JUMP JUMPDEST PUSH4 0xFFFFFFFF AND JUMP JUMPDEST POP JUMP JUMPDEST DUP3 PUSH20 0xFFFFFFFFFFFFFFFFFFFFFFFFFFFFFFFFFFFFFFFF AND PUSH32 0x5EF3BD3C823875BC38DF6C327EF163659EF15FF1E9898230DF18CC50316A91C1 DUP4 DUP4 PUSH1 0x40 MLOAD PUSH2 0x119F SWAP3 SWAP2 SWAP1 PUSH2 0x1BAB JUMP JUMPDEST PUSH1 0x40 MLOAD DUP1 SWAP2 SUB SWAP1 LOG2 POP POP POP JUMP JUMPDEST PUSH0 PUSH11 0x636F6E736F6C652E6C6F67 SWAP1 POP PUSH0 DUP1 DUP4 MLOAD PUSH1 0x20 DUP6 ADD DUP5 GAS STATICCALL POP POP POP JUMP JUMPDEST PUSH2 0x120A DUP2 SWAP1 POP SWAP2 SWAP1 POP JUMP JUMPDEST PUSH1 0x40 MLOAD DUP1 PUSH1 0x60 ADD PUSH1 0x40 MSTORE DUP1 PUSH0 DUP2 MSTORE PUSH1 0x20 ADD PUSH0 DUP2 MSTORE PUSH1 0x20 ADD PUSH0 PUSH20 0xFFFFFFFFFFFFFFFFFFFFFFFFFFFFFFFFFFFFFFFF AND DUP2 MSTORE POP SWAP1 JUMP JUMPDEST PUSH2 0x1212 PUSH2 0x1BD2 JUMP JUMPDEST JUMP JUMPDEST PUSH0 PUSH1 0x40 MLOAD SWAP1 POP SWAP1 JUMP JUMPDEST PUSH0 DUP1 REVERT JUMPDEST PUSH0 DUP1 REVERT JUMPDEST PUSH0 DUP2 SWAP1 POP SWAP2 SWAP1 POP JUMP JUMPDEST PUSH2 0x1237 DUP2 PUSH2 0x1225 JUMP JUMPDEST DUP2 EQ PUSH2 0x1241 JUMPI PUSH0 DUP1 REVERT JUMPDEST POP JUMP JUMPDEST PUSH0 DUP2 CALLDATALOAD SWAP1 POP PUSH2 0x1252 DUP2 PUSH2 0x122E JUMP JUMPDEST SWAP3 SWAP2 POP POP JUMP JUMPDEST PUSH0 PUSH1 0x20 DUP3 DUP5 SUB SLT ISZERO PUSH2 0x126D JUMPI PUSH2 0x126C PUSH2 0x121D JUMP JUMPDEST JUMPDEST PUSH0 PUSH2 0x127A DUP5 DUP3 DUP6 ADD PUSH2 0x1244 JUMP JUMPDEST SWAP2 POP POP SWAP3 SWAP2 POP POP JUMP JUMPDEST PUSH0 DUP2 ISZERO ISZERO SWAP1 POP SWAP2 SWAP1 POP JUMP JUMPDEST PUSH2 0x1297 DUP2 PUSH2 0x1283 JUMP JUMPDEST DUP3 MSTORE POP POP JUMP JUMPDEST PUSH0 PUSH1 0x20 DUP3 ADD SWAP1 POP PUSH2 0x12B0 PUSH0 DUP4 ADD DUP5 PUSH2 0x128E JUMP JUMPDEST SWAP3 SWAP2 POP POP JUMP JUMPDEST PUSH0 PUSH20 0xFFFFFFFFFFFFFFFFFFFFFFFFFFFFFFFFFFFFFFFF DUP3 AND SWAP1 POP SWAP2 SWAP1 POP JUMP JUMPDEST PUSH0 PUSH2 0x12DF DUP3 PUSH2 0x12B6 JUMP JUMPDEST SWAP1 POP SWAP2 SWAP1 POP JUMP JUMPDEST PUSH2 0x12EF DUP2 PUSH2 0x12D5 JUMP JUMPDEST DUP2 EQ PUSH2 0x12F9 JUMPI PUSH0 DUP1 REVERT JUMPDEST POP JUMP JUMPDEST PUSH0 DUP2 CALLDATALOAD SWAP1 POP PUSH2 0x130A DUP2 PUSH2 0x12E6 JUMP JUMPDEST SWAP3 SWAP2 POP POP JUMP JUMPDEST PUSH0 PUSH1 0x20 DUP3 DUP5 SUB SLT ISZERO PUSH2 0x1325 JUMPI PUSH2 0x1324 PUSH2 0x121D JUMP JUMPDEST JUMPDEST PUSH0 PUSH2 0x1332 DUP5 DUP3 DUP6 ADD PUSH2 0x12FC JUMP JUMPDEST SWAP2 POP POP SWAP3 SWAP2 POP POP JUMP JUMPDEST PUSH2 0x1344 DUP2 PUSH2 0x1225 JUMP JUMPDEST DUP3 MSTORE POP POP JUMP JUMPDEST PUSH0 PUSH1 0x20 DUP3 ADD SWAP1 POP PUSH2 0x135D PUSH0 DUP4 ADD DUP5 PUSH2 0x133B JUMP JUMPDEST SWAP3 SWAP2 POP POP JUMP JUMPDEST PUSH0 DUP1 REVERT JUMPDEST PUSH0 PUSH1 0x1F NOT PUSH1 0x1F DUP4 ADD AND SWAP1 POP SWAP2 SWAP1 POP JUMP JUMPDEST PUSH32 0x4E487B7100000000000000000000000000000000000000000000000000000000 PUSH0 MSTORE PUSH1 0x41 PUSH1 0x4 MSTORE PUSH1 0x24 PUSH0 REVERT JUMPDEST PUSH2 0x13AD DUP3 PUSH2 0x1367 JUMP JUMPDEST DUP2 ADD DUP2 DUP2 LT PUSH8 0xFFFFFFFFFFFFFFFF DUP3 GT OR ISZERO PUSH2 0x13CC JUMPI PUSH2 0x13CB PUSH2 0x1377 JUMP JUMPDEST JUMPDEST DUP1 PUSH1 0x40 MSTORE POP POP POP JUMP JUMPDEST PUSH0 PUSH2 0x13DE PUSH2 0x1214 JUMP JUMPDEST SWAP1 POP PUSH2 0x13EA DUP3 DUP3 PUSH2 0x13A4 JUMP JUMPDEST SWAP2 SWAP1 POP JUMP JUMPDEST PUSH0 PUSH8 0xFFFFFFFFFFFFFFFF DUP3 GT ISZERO PUSH2 0x1409 JUMPI PUSH2 0x1408 PUSH2 0x1377 JUMP JUMPDEST JUMPDEST PUSH1 0x20 DUP3 MUL SWAP1 POP PUSH1 0x20 DUP2 ADD SWAP1 POP SWAP2 SWAP1 POP JUMP JUMPDEST PUSH0 DUP1 REVERT JUMPDEST PUSH0 DUP1 REVERT JUMPDEST PUSH0 PUSH8 0xFFFFFFFFFFFFFFFF DUP3 GT ISZERO PUSH2 0x143C JUMPI PUSH2 0x143B PUSH2 0x1377 JUMP JUMPDEST JUMPDEST PUSH2 0x1445 DUP3 PUSH2 0x1367 JUMP JUMPDEST SWAP1 POP PUSH1 0x20 DUP2 ADD SWAP1 POP SWAP2 SWAP1 POP JUMP JUMPDEST DUP3 DUP2 DUP4 CALLDATACOPY PUSH0 DUP4 DUP4 ADD MSTORE POP POP POP JUMP JUMPDEST PUSH0 PUSH2 0x1472 PUSH2 0x146D DUP5 PUSH2 0x1422 JUMP JUMPDEST PUSH2 0x13D5 JUMP JUMPDEST SWAP1 POP DUP3 DUP2 MSTORE PUSH1 0x20 DUP2 ADD DUP5 DUP5 DUP5 ADD GT ISZERO PUSH2 0x148E JUMPI PUSH2 0x148D PUSH2 0x141E JUMP JUMPDEST JUMPDEST PUSH2 0x1499 DUP5 DUP3 DUP6 PUSH2 0x1452 JUMP JUMPDEST POP SWAP4 SWAP3 POP POP POP JUMP JUMPDEST PUSH0 DUP3 PUSH1 0x1F DUP4 ADD SLT PUSH2 0x14B5 JUMPI PUSH2 0x14B4 PUSH2 0x1363 JUMP JUMPDEST JUMPDEST DUP2 CALLDATALOAD PUSH2 0x14C5 DUP5 DUP3 PUSH1 0x20 DUP7 ADD PUSH2 0x1460 JUMP JUMPDEST SWAP2 POP POP SWAP3 SWAP2 POP POP JUMP JUMPDEST PUSH0 PUSH2 0x14E0 PUSH2 0x14DB DUP5 PUSH2 0x13EF JUMP JUMPDEST PUSH2 0x13D5 JUMP JUMPDEST SWAP1 POP DUP1 DUP4 DUP3 MSTORE PUSH1 0x20 DUP3 ADD SWAP1 POP PUSH1 0x20 DUP5 MUL DUP4 ADD DUP6 DUP2 GT ISZERO PUSH2 0x1503 JUMPI PUSH2 0x1502 PUSH2 0x141A JUMP JUMPDEST JUMPDEST DUP4 JUMPDEST DUP2 DUP2 LT ISZERO PUSH2 0x154A JUMPI DUP1 CALLDATALOAD PUSH8 0xFFFFFFFFFFFFFFFF DUP2 GT ISZERO PUSH2 0x1528 JUMPI PUSH2 0x1527 PUSH2 0x1363 JUMP JUMPDEST JUMPDEST DUP1 DUP7 ADD PUSH2 0x1535 DUP10 DUP3 PUSH2 0x14A1 JUMP JUMPDEST DUP6 MSTORE PUSH1 0x20 DUP6 ADD SWAP5 POP POP POP PUSH1 0x20 DUP2 ADD SWAP1 POP PUSH2 0x1505 JUMP JUMPDEST POP POP POP SWAP4 SWAP3 POP POP POP JUMP JUMPDEST PUSH0 DUP3 PUSH1 0x1F DUP4 ADD SLT PUSH2 0x1568 JUMPI PUSH2 0x1567 PUSH2 0x1363 JUMP JUMPDEST JUMPDEST DUP2 CALLDATALOAD PUSH2 0x1578 DUP5 DUP3 PUSH1 0x20 DUP7 ADD PUSH2 0x14CE JUMP JUMPDEST SWAP2 POP POP SWAP3 SWAP2 POP POP JUMP JUMPDEST PUSH0 PUSH1 0x20 DUP3 DUP5 SUB SLT ISZERO PUSH2 0x1596 JUMPI PUSH2 0x1595 PUSH2 0x121D JUMP JUMPDEST JUMPDEST PUSH0 DUP3 ADD CALLDATALOAD PUSH8 0xFFFFFFFFFFFFFFFF DUP2 GT ISZERO PUSH2 0x15B3 JUMPI PUSH2 0x15B2 PUSH2 0x1221 JUMP JUMPDEST JUMPDEST PUSH2 0x15BF DUP5 DUP3 DUP6 ADD PUSH2 0x1554 JUMP JUMPDEST SWAP2 POP POP SWAP3 SWAP2 POP POP JUMP JUMPDEST PUSH0 DUP2 SWAP1 POP SWAP2 SWAP1 POP JUMP JUMPDEST PUSH2 0x15DA DUP2 PUSH2 0x15C8 JUMP JUMPDEST DUP3 MSTORE POP POP JUMP JUMPDEST PUSH0 PUSH1 0x80 DUP3 ADD SWAP1 POP PUSH2 0x15F3 PUSH0 DUP4 ADD DUP8 PUSH2 0x15D1 JUMP JUMPDEST PUSH2 0x1600 PUSH1 0x20 DUP4 ADD DUP7 PUSH2 0x15D1 JUMP JUMPDEST PUSH2 0x160D PUSH1 0x40 DUP4 ADD DUP6 PUSH2 0x15D1 JUMP JUMPDEST PUSH2 0x161A PUSH1 0x60 DUP4 ADD DUP5 PUSH2 0x15D1 JUMP JUMPDEST SWAP6 SWAP5 POP POP POP POP POP JUMP JUMPDEST PUSH32 0x4E487B7100000000000000000000000000000000000000000000000000000000 PUSH0 MSTORE PUSH1 0x32 PUSH1 0x4 MSTORE PUSH1 0x24 PUSH0 REVERT JUMPDEST PUSH0 PUSH1 0xA0 DUP3 ADD SWAP1 POP PUSH2 0x1663 PUSH0 DUP4 ADD DUP9 PUSH2 0x15D1 JUMP JUMPDEST PUSH2 0x1670 PUSH1 0x20 DUP4 ADD DUP8 PUSH2 0x15D1 JUMP JUMPDEST PUSH2 0x167D PUSH1 0x40 DUP4 ADD DUP7 PUSH2 0x15D1 JUMP JUMPDEST PUSH2 0x168A PUSH1 0x60 DUP4 ADD DUP6 PUSH2 0x15D1 JUMP JUMPDEST PUSH2 0x1697 PUSH1 0x80 DUP4 ADD DUP5 PUSH2 0x15D1 JUMP JUMPDEST SWAP7 SWAP6 POP POP POP POP POP POP JUMP JUMPDEST PUSH32 0x4E487B7100000000000000000000000000000000000000000000000000000000 PUSH0 MSTORE PUSH1 0x11 PUSH1 0x4 MSTORE PUSH1 0x24 PUSH0 REVERT JUMPDEST PUSH0 PUSH2 0x16D8 DUP3 PUSH2 0x1225 JUMP JUMPDEST SWAP2 POP PUSH32 0xFFFFFFFFFFFFFFFFFFFFFFFFFFFFFFFFFFFFFFFFFFFFFFFFFFFFFFFFFFFFFFFF DUP3 SUB PUSH2 0x170A JUMPI PUSH2 0x1709 PUSH2 0x16A1 JUMP JUMPDEST JUMPDEST PUSH1 0x1 DUP3 ADD SWAP1 POP SWAP2 SWAP1 POP JUMP JUMPDEST PUSH32 0x4E487B7100000000000000000000000000000000000000000000000000000000 PUSH0 MSTORE PUSH1 0x12 PUSH1 0x4 MSTORE PUSH1 0x24 PUSH0 REVERT JUMPDEST PUSH0 PUSH2 0x174C DUP3 PUSH2 0x1225 JUMP JUMPDEST SWAP2 POP PUSH2 0x1757 DUP4 PUSH2 0x1225 JUMP JUMPDEST SWAP3 POP DUP3 PUSH2 0x1767 JUMPI PUSH2 0x1766 PUSH2 0x1715 JUMP JUMPDEST JUMPDEST DUP3 DUP3 DIV SWAP1 POP SWAP3 SWAP2 POP POP JUMP JUMPDEST PUSH0 DUP3 DUP3 MSTORE PUSH1 0x20 DUP3 ADD SWAP1 POP SWAP3 SWAP2 POP POP JUMP JUMPDEST PUSH32 0x426567696E206465636F64652E2E2E0000000000000000000000000000000000 PUSH0 DUP3 ADD MSTORE POP JUMP JUMPDEST PUSH0 PUSH2 0x17B6 PUSH1 0xF DUP4 PUSH2 0x1772 JUMP JUMPDEST SWAP2 POP PUSH2 0x17C1 DUP3 PUSH2 0x1782 JUMP JUMPDEST PUSH1 0x20 DUP3 ADD SWAP1 POP SWAP2 SWAP1 POP JUMP JUMPDEST PUSH0 PUSH1 0x20 DUP3 ADD SWAP1 POP DUP2 DUP2 SUB PUSH0 DUP4 ADD MSTORE PUSH2 0x17E3 DUP2 PUSH2 0x17AA JUMP JUMPDEST SWAP1 POP SWAP2 SWAP1 POP JUMP JUMPDEST PUSH0 DUP2 MLOAD SWAP1 POP SWAP2 SWAP1 POP JUMP JUMPDEST PUSH0 DUP3 DUP3 MSTORE PUSH1 0x20 DUP3 ADD SWAP1 POP SWAP3 SWAP2 POP POP JUMP JUMPDEST PUSH0 JUMPDEST DUP4 DUP2 LT ISZERO PUSH2 0x1821 JUMPI DUP1 DUP3 ADD MLOAD DUP2 DUP5 ADD MSTORE PUSH1 0x20 DUP2 ADD SWAP1 POP PUSH2 0x1806 JUMP JUMPDEST PUSH0 DUP5 DUP5 ADD MSTORE POP POP POP POP JUMP JUMPDEST PUSH0 PUSH2 0x1836 DUP3 PUSH2 0x17EA JUMP JUMPDEST PUSH2 0x1840 DUP2 DUP6 PUSH2 0x17F4 JUMP JUMPDEST SWAP4 POP PUSH2 0x1850 DUP2 DUP6 PUSH1 0x20 DUP7 ADD PUSH2 0x1804 JUMP JUMPDEST PUSH2 0x1859 DUP2 PUSH2 0x1367 JUMP JUMPDEST DUP5 ADD SWAP2 POP POP SWAP3 SWAP2 POP POP JUMP JUMPDEST PUSH0 PUSH1 0x20 DUP3 ADD SWAP1 POP DUP2 DUP2 SUB PUSH0 DUP4 ADD MSTORE PUSH2 0x187C DUP2 DUP5 PUSH2 0x182C JUMP JUMPDEST SWAP1 POP SWAP3 SWAP2 POP POP JUMP JUMPDEST PUSH0 DUP2 MLOAD SWAP1 POP SWAP2 SWAP1 POP JUMP JUMPDEST PUSH0 PUSH2 0x1898 DUP3 PUSH2 0x1884 JUMP JUMPDEST PUSH2 0x18A2 DUP2 DUP6 PUSH2 0x1772 JUMP JUMPDEST SWAP4 POP PUSH2 0x18B2 DUP2 DUP6 PUSH1 0x20 DUP7 ADD PUSH2 0x1804 JUMP JUMPDEST PUSH2 0x18BB DUP2 PUSH2 0x1367 JUMP JUMPDEST DUP5 ADD SWAP2 POP POP SWAP3 SWAP2 POP POP JUMP JUMPDEST PUSH0 PUSH1 0x20 DUP3 ADD SWAP1 POP DUP2 DUP2 SUB PUSH0 DUP4 ADD MSTORE PUSH2 0x18DE DUP2 DUP5 PUSH2 0x188E JUMP JUMPDEST SWAP1 POP SWAP3 SWAP2 POP POP JUMP JUMPDEST PUSH32 0x7472616E73666572206576656E74000000000000000000000000000000000000 PUSH0 DUP3 ADD MSTORE POP JUMP JUMPDEST PUSH0 PUSH2 0x191A PUSH1 0xE DUP4 PUSH2 0x1772 JUMP JUMPDEST SWAP2 POP PUSH2 0x1925 DUP3 PUSH2 0x18E6 JUMP JUMPDEST PUSH1 0x20 DUP3 ADD SWAP1 POP SWAP2 SWAP1 POP JUMP JUMPDEST PUSH0 PUSH1 0x20 DUP3 ADD SWAP1 POP DUP2 DUP2 SUB PUSH0 DUP4 ADD MSTORE PUSH2 0x1947 DUP2 PUSH2 0x190E JUMP JUMPDEST SWAP1 POP SWAP2 SWAP1 POP JUMP JUMPDEST PUSH2 0x1957 DUP2 PUSH2 0x12D5 JUMP JUMPDEST DUP3 MSTORE POP POP JUMP JUMPDEST PUSH0 PUSH1 0x20 DUP3 ADD SWAP1 POP PUSH2 0x1970 PUSH0 DUP4 ADD DUP5 PUSH2 0x194E JUMP JUMPDEST SWAP3 SWAP2 POP POP JUMP JUMPDEST PUSH32 0x6576656E74746F6B656E206576656E7400000000000000000000000000000000 PUSH0 DUP3 ADD MSTORE POP JUMP JUMPDEST PUSH0 PUSH2 0x19AA PUSH1 0x10 DUP4 PUSH2 0x1772 JUMP JUMPDEST SWAP2 POP PUSH2 0x19B5 DUP3 PUSH2 0x1976 JUMP JUMPDEST PUSH1 0x20 DUP3 ADD SWAP1 POP SWAP2 SWAP1 POP JUMP JUMPDEST PUSH0 PUSH1 0x20 DUP3 ADD SWAP1 POP DUP2 DUP2 SUB PUSH0 DUP4 ADD MSTORE PUSH2 0x19D7 DUP2 PUSH2 0x199E JUMP JUMPDEST SWAP1 POP SWAP2 SWAP1 POP JUMP JUMPDEST PUSH32 0x546F6B656E4964206D69736D6174636800000000000000000000000000000000 PUSH0 DUP3 ADD MSTORE POP JUMP JUMPDEST PUSH0 PUSH2 0x1A12 PUSH1 0x10 DUP4 PUSH2 0x1772 JUMP JUMPDEST SWAP2 POP PUSH2 0x1A1D DUP3 PUSH2 0x19DE JUMP JUMPDEST PUSH1 0x20 DUP3 ADD SWAP1 POP SWAP2 SWAP1 POP JUMP JUMPDEST PUSH0 PUSH1 0x20 DUP3 ADD SWAP1 POP DUP2 DUP2 SUB PUSH0 DUP4 ADD MSTORE PUSH2 0x1A3F DUP2 PUSH2 0x1A06 JUMP JUMPDEST SWAP1 POP SWAP2 SWAP1 POP JUMP JUMPDEST PUSH32 0x6E6F206D61746368696E67206576656E745369676E6174757265000000000000 PUSH0 DUP3 ADD MSTORE POP JUMP JUMPDEST PUSH0 PUSH2 0x1A7A PUSH1 0x1A DUP4 PUSH2 0x1772 JUMP JUMPDEST SWAP2 POP PUSH2 0x1A85 DUP3 PUSH2 0x1A46 JUMP JUMPDEST PUSH1 0x20 DUP3 ADD SWAP1 POP SWAP2 SWAP1 POP JUMP JUMPDEST PUSH0 PUSH1 0x20 DUP3 ADD SWAP1 POP DUP2 DUP2 SUB PUSH0 DUP4 ADD MSTORE PUSH2 0x1AA7 DUP2 PUSH2 0x1A6E JUMP JUMPDEST SWAP1 POP SWAP2 SWAP1 POP JUMP JUMPDEST PUSH0 PUSH1 0x40 DUP3 ADD SWAP1 POP DUP2 DUP2 SUB PUSH0 DUP4 ADD MSTORE PUSH2 0x1AC6 DUP2 DUP6 PUSH2 0x188E JUMP JUMPDEST SWAP1 POP PUSH2 0x1AD5 PUSH1 0x20 DUP4 ADD DUP5 PUSH2 0x133B JUMP JUMPDEST SWAP4 SWAP3 POP POP POP JUMP JUMPDEST PUSH0 PUSH2 0x1AE6 DUP3 PUSH2 0x1225 JUMP JUMPDEST SWAP2 POP PUSH2 0x1AF1 DUP4 PUSH2 0x1225 JUMP JUMPDEST SWAP3 POP DUP3 DUP3 ADD SWAP1 POP DUP1 DUP3 GT ISZERO PUSH2 0x1B09 JUMPI PUSH2 0x1B08 PUSH2 0x16A1 JUMP JUMPDEST JUMPDEST SWAP3 SWAP2 POP POP JUMP JUMPDEST PUSH32 0x736C6963655F6F75744F66426F756E6473000000000000000000000000000000 PUSH0 DUP3 ADD MSTORE POP JUMP JUMPDEST PUSH0 PUSH2 0x1B43 PUSH1 0x11 DUP4 PUSH2 0x1772 JUMP JUMPDEST SWAP2 POP PUSH2 0x1B4E DUP3 PUSH2 0x1B0F JUMP JUMPDEST PUSH1 0x20 DUP3 ADD SWAP1 POP SWAP2 SWAP1 POP JUMP JUMPDEST PUSH0 PUSH1 0x20 DUP3 ADD SWAP1 POP DUP2 DUP2 SUB PUSH0 DUP4 ADD MSTORE PUSH2 0x1B70 DUP2 PUSH2 0x1B37 JUMP JUMPDEST SWAP1 POP SWAP2 SWAP1 POP JUMP JUMPDEST PUSH0 PUSH1 0xFF DUP3 AND SWAP1 POP SWAP2 SWAP1 POP JUMP JUMPDEST PUSH0 PUSH2 0x1B8D DUP3 PUSH2 0x1B77 JUMP JUMPDEST SWAP2 POP PUSH1 0xFF DUP3 SUB PUSH2 0x1BA0 JUMPI PUSH2 0x1B9F PUSH2 0x16A1 JUMP JUMPDEST JUMPDEST PUSH1 0x1 DUP3 ADD SWAP1 POP SWAP2 SWAP1 POP JUMP JUMPDEST PUSH0 PUSH1 0x40 DUP3 ADD SWAP1 POP PUSH2 0x1BBE PUSH0 DUP4 ADD DUP6 PUSH2 0x133B JUMP JUMPDEST PUSH2 0x1BCB PUSH1 0x20 DUP4 ADD DUP5 PUSH2 0x133B JUMP JUMPDEST SWAP4 SWAP3 POP POP POP JUMP JUMPDEST PUSH32 0x4E487B7100000000000000000000000000000000000000000000000000000000 PUSH0 MSTORE PUSH1 0x51 PUSH1 0x4 MSTORE PUSH1 0x24 PUSH0 REVERT INVALID LOG2 PUSH5 0x6970667358 0x22 SLT KECCAK256 0xBC 0xDB SWAP13 SHR DUP16 LOG1 STOP SGT PUSH17 0xAB14C533B2D49679E7DB0DB8D5FBD6CB7 PUSH18 0x2AB5252D0864736F6C634300081400330000 "
		},
		"gasEstimates": {
			"creation": {
				"codeDepositCost": "1444200",
				"executionCost": "1504",
				"totalCost": "1445704"
			},
			"external": {
				"TOKENS_PER_POAP()": "325",
				"mintedAmount()": "2470",
				"processEvents(bytes[])": "infinite",
				"processedTokenIds(uint256)": "2786",
				"testDecodeEventLogs()": "infinite",
				"userMintedAmount(address)": "2825",
				"whitelistEventId(uint256)": "24765",
				"whitelistedEventIds(uint256)": "2851"
			},
			"internal": {
				"handleTargetEvent(address,uint256,uint256)": "infinite"
			}
		},
		"methodIdentifiers": {
			"TOKENS_PER_POAP()": "84d36eb8",
			"mintedAmount()": "2d380242",
			"processEvents(bytes[])": "cf3845a6",
			"processedTokenIds(uint256)": "0a8595b0",
			"testDecodeEventLogs()": "c3f3ac96",
			"userMintedAmount(address)": "25656307",
			"whitelistEventId(uint256)": "8f0a4e79",
			"whitelistedEventIds(uint256)": "7d526123"
		}
	},
	"abi": [
		{
			"anonymous": false,
			"inputs": [
				{
					"indexed": false,
					"internalType": "string",
					"name": "message",
					"type": "string"
				}
			],
			"name": "DebugLog",
			"type": "event"
		},
		{
			"anonymous": false,
			"inputs": [
				{
					"indexed": false,
					"internalType": "address",
					"name": "data",
					"type": "address"
				}
			],
			"name": "DebugLogAddress",
			"type": "event"
		},
		{
			"anonymous": false,
			"inputs": [
				{
					"indexed": false,
					"internalType": "bytes",
					"name": "data",
					"type": "bytes"
				}
			],
			"name": "DebugLogBytes",
			"type": "event"
		},
		{
			"anonymous": false,
			"inputs": [
				{
					"indexed": false,
					"internalType": "string",
					"name": "data",
					"type": "string"
				}
			],
			"name": "DebugLogString",
			"type": "event"
		},
		{
			"anonymous": false,
			"inputs": [
				{
					"indexed": false,
					"internalType": "uint256",
					"name": "data",
					"type": "uint256"
				}
			],
			"name": "DebugLogUint256",
			"type": "event"
		},
		{
			"anonymous": false,
			"inputs": [
				{
					"indexed": false,
					"internalType": "address",
					"name": "user",
					"type": "address"
				},
				{
					"indexed": false,
					"internalType": "uint256",
					"name": "eventId",
					"type": "uint256"
				},
				{
					"indexed": false,
					"internalType": "uint256",
					"name": "tokenId",
					"type": "uint256"
				}
			],
			"name": "EventDataLog",
			"type": "event"
		},
		{
			"anonymous": false,
			"inputs": [
				{
					"indexed": false,
					"internalType": "bytes",
					"name": "logData",
					"type": "bytes"
				}
			],
			"name": "RawLogData",
			"type": "event"
		},
		{
			"anonymous": false,
			"inputs": [
				{
					"indexed": true,
					"internalType": "address",
					"name": "user",
					"type": "address"
				},
				{
					"indexed": false,
					"internalType": "uint256",
					"name": "eventId",
					"type": "uint256"
				},
				{
					"indexed": false,
					"internalType": "uint256",
					"name": "tokenId",
					"type": "uint256"
				}
			],
			"name": "TargetEventReceived",
			"type": "event"
		},
		{
			"inputs": [],
			"name": "TOKENS_PER_POAP",
			"outputs": [
				{
					"internalType": "uint256",
					"name": "",
					"type": "uint256"
				}
			],
			"stateMutability": "view",
			"type": "function"
		},
		{
			"inputs": [],
			"name": "mintedAmount",
			"outputs": [
				{
					"internalType": "uint256",
					"name": "",
					"type": "uint256"
				}
			],
			"stateMutability": "view",
			"type": "function"
		},
		{
			"inputs": [
				{
					"internalType": "bytes[]",
					"name": "logs",
					"type": "bytes[]"
				}
			],
			"name": "processEvents",
			"outputs": [
				{
					"internalType": "uint256",
					"name": "",
					"type": "uint256"
				}
			],
			"stateMutability": "nonpayable",
			"type": "function"
		},
		{
			"inputs": [
				{
					"internalType": "uint256",
					"name": "",
					"type": "uint256"
				}
			],
			"name": "processedTokenIds",
			"outputs": [
				{
					"internalType": "bool",
					"name": "",
					"type": "bool"
				}
			],
			"stateMutability": "view",
			"type": "function"
		},
		{
			"inputs": [],
			"name": "testDecodeEventLogs",
			"outputs": [],
			"stateMutability": "nonpayable",
			"type": "function"
		},
		{
			"inputs": [
				{
					"internalType": "address",
					"name": "",
					"type": "address"
				}
			],
			"name": "userMintedAmount",
			"outputs": [
				{
					"internalType": "uint256",
					"name": "",
					"type": "uint256"
				}
			],
			"stateMutability": "view",
			"type": "function"
		},
		{
			"inputs": [
				{
					"internalType": "uint256",
					"name": "eventId",
					"type": "uint256"
				}
			],
			"name": "whitelistEventId",
			"outputs": [],
			"stateMutability": "nonpayable",
			"type": "function"
		},
		{
			"inputs": [
				{
					"internalType": "uint256",
					"name": "",
					"type": "uint256"
				}
			],
			"name": "whitelistedEventIds",
			"outputs": [
				{
					"internalType": "bool",
					"name": "",
					"type": "bool"
				}
			],
			"stateMutability": "view",
			"type": "function"
		}
	]
}