{
	"contracts/EventListenerBasic.sol": {
		"EventListenerBase": {
			"abi": [
				{
					"anonymous": false,
					"inputs": [
						{
							"indexed": true,
							"internalType": "address",
							"name": "user",
							"type": "address"
						},
						{
							"indexed": false,
							"internalType": "uint256",
							"name": "eventId",
							"type": "uint256"
						},
						{
							"indexed": false,
							"internalType": "uint256",
							"name": "tokenId",
							"type": "uint256"
						}
					],
					"name": "TargetEventReceived",
					"type": "event"
				},
				{
					"inputs": [],
					"name": "TOKENS_PER_POAP",
					"outputs": [
						{
							"internalType": "uint256",
							"name": "",
							"type": "uint256"
						}
					],
					"stateMutability": "view",
					"type": "function"
				},
				{
					"inputs": [
						{
							"internalType": "bytes[]",
							"name": "logs",
							"type": "bytes[]"
						}
					],
					"name": "processEvents",
					"outputs": [
						{
							"internalType": "uint256",
							"name": "",
							"type": "uint256"
						}
					],
					"stateMutability": "nonpayable",
					"type": "function"
				},
				{
					"inputs": [
						{
							"internalType": "uint256",
							"name": "",
							"type": "uint256"
						}
					],
					"name": "processedTokenIds",
					"outputs": [
						{
							"internalType": "bool",
							"name": "",
							"type": "bool"
						}
					],
					"stateMutability": "view",
					"type": "function"
				},
				{
					"inputs": [
						{
							"internalType": "uint256",
							"name": "eventId",
							"type": "uint256"
						}
					],
					"name": "whitelistEventId",
					"outputs": [],
					"stateMutability": "nonpayable",
					"type": "function"
				},
				{
					"inputs": [
						{
							"internalType": "uint256",
							"name": "",
							"type": "uint256"
						}
					],
					"name": "whitelistedEventIds",
					"outputs": [
						{
							"internalType": "bool",
							"name": "",
							"type": "bool"
						}
					],
					"stateMutability": "view",
					"type": "function"
				}
			],
			"devdoc": {
				"kind": "dev",
				"methods": {},
				"version": 1
			},
			"evm": {
				"assembly": "    /* \"contracts/EventListenerBasic.sol\":58:3322  contract EventListenerBase {... */\n  mstore(0x40, 0x80)\n  callvalue\n  dup1\n  iszero\n  tag_1\n  jumpi\n  0x00\n  dup1\n  revert\ntag_1:\n  pop\n  dataSize(sub_0)\n  dup1\n  dataOffset(sub_0)\n  0x00\n  codecopy\n  0x00\n  return\nstop\n\nsub_0: assembly {\n        /* \"contracts/EventListenerBasic.sol\":58:3322  contract EventListenerBase {... */\n      mstore(0x40, 0x80)\n      callvalue\n      dup1\n      iszero\n      tag_1\n      jumpi\n      0x00\n      dup1\n      revert\n    tag_1:\n      pop\n      jumpi(tag_2, lt(calldatasize, 0x04))\n      shr(0xe0, calldataload(0x00))\n      dup1\n      0x0a8595b0\n      eq\n      tag_3\n      jumpi\n      dup1\n      0x7d526123\n      eq\n      tag_4\n      jumpi\n      dup1\n      0x84d36eb8\n      eq\n      tag_5\n      jumpi\n      dup1\n      0x8f0a4e79\n      eq\n      tag_6\n      jumpi\n      dup1\n      0xcf3845a6\n      eq\n      tag_7\n      jumpi\n    tag_2:\n      0x00\n      dup1\n      revert\n        /* \"contracts/EventListenerBasic.sol\":148:197  mapping(uint256 => bool) public processedTokenIds */\n    tag_3:\n      tag_8\n      0x04\n      dup1\n      calldatasize\n      sub\n      dup2\n      add\n      swap1\n      tag_9\n      swap2\n      swap1\n      tag_10\n      jump\t// in\n    tag_9:\n      tag_11\n      jump\t// in\n    tag_8:\n      mload(0x40)\n      tag_12\n      swap2\n      swap1\n      tag_13\n      jump\t// in\n    tag_12:\n      mload(0x40)\n      dup1\n      swap2\n      sub\n      swap1\n      return\n        /* \"contracts/EventListenerBasic.sol\":91:142  mapping(uint256 => bool) public whitelistedEventIds */\n    tag_4:\n      tag_14\n      0x04\n      dup1\n      calldatasize\n      sub\n      dup2\n      add\n      swap1\n      tag_15\n      swap2\n      swap1\n      tag_10\n      jump\t// in\n    tag_15:\n      tag_16\n      jump\t// in\n    tag_14:\n      mload(0x40)\n      tag_17\n      swap2\n      swap1\n      tag_13\n      jump\t// in\n    tag_17:\n      mload(0x40)\n      dup1\n      swap2\n      sub\n      swap1\n      return\n        /* \"contracts/EventListenerBasic.sol\":203:255  uint256 public constant TOKENS_PER_POAP = 3 * 10**18 */\n    tag_5:\n      tag_18\n      tag_19\n      jump\t// in\n    tag_18:\n      mload(0x40)\n      tag_20\n      swap2\n      swap1\n      tag_21\n      jump\t// in\n    tag_20:\n      mload(0x40)\n      dup1\n      swap2\n      sub\n      swap1\n      return\n        /* \"contracts/EventListenerBasic.sol\":481:583  function whitelistEventId(uint256 eventId) public {... */\n    tag_6:\n      tag_22\n      0x04\n      dup1\n      calldatasize\n      sub\n      dup2\n      add\n      swap1\n      tag_23\n      swap2\n      swap1\n      tag_10\n      jump\t// in\n    tag_23:\n      tag_24\n      jump\t// in\n    tag_22:\n      stop\n        /* \"contracts/EventListenerBasic.sol\":589:1226  function processEvents(bytes[] memory logs) public returns (uint256) {... */\n    tag_7:\n      tag_25\n      0x04\n      dup1\n      calldatasize\n      sub\n      dup2\n      add\n      swap1\n      tag_26\n      swap2\n      swap1\n      tag_27\n      jump\t// in\n    tag_26:\n      tag_28\n      jump\t// in\n    tag_25:\n      mload(0x40)\n      tag_29\n      swap2\n      swap1\n      tag_21\n      jump\t// in\n    tag_29:\n      mload(0x40)\n      dup1\n      swap2\n      sub\n      swap1\n      return\n        /* \"contracts/EventListenerBasic.sol\":148:197  mapping(uint256 => bool) public processedTokenIds */\n    tag_11:\n      mstore(0x20, 0x01)\n      dup1\n      0x00\n      mstore\n      keccak256(0x00, 0x40)\n      0x00\n      swap2\n      pop\n      sload\n      swap1\n      0x0100\n      exp\n      swap1\n      div\n      0xff\n      and\n      dup2\n      jump\t// out\n        /* \"contracts/EventListenerBasic.sol\":91:142  mapping(uint256 => bool) public whitelistedEventIds */\n    tag_16:\n      mstore(0x20, 0x00)\n      dup1\n      0x00\n      mstore\n      keccak256(0x00, 0x40)\n      0x00\n      swap2\n      pop\n      sload\n      swap1\n      0x0100\n      exp\n      swap1\n      div\n      0xff\n      and\n      dup2\n      jump\t// out\n        /* \"contracts/EventListenerBasic.sol\":203:255  uint256 public constant TOKENS_PER_POAP = 3 * 10**18 */\n    tag_19:\n        /* \"contracts/EventListenerBasic.sol\":245:255  3 * 10**18 */\n      0x29a2241af62c0000\n        /* \"contracts/EventListenerBasic.sol\":203:255  uint256 public constant TOKENS_PER_POAP = 3 * 10**18 */\n      dup2\n      jump\t// out\n        /* \"contracts/EventListenerBasic.sol\":481:583  function whitelistEventId(uint256 eventId) public {... */\n    tag_24:\n        /* \"contracts/EventListenerBasic.sol\":572:576  true */\n      0x01\n        /* \"contracts/EventListenerBasic.sol\":541:560  whitelistedEventIds */\n      0x00\n        /* \"contracts/EventListenerBasic.sol\":541:569  whitelistedEventIds[eventId] */\n      dup1\n        /* \"contracts/EventListenerBasic.sol\":561:568  eventId */\n      dup4\n        /* \"contracts/EventListenerBasic.sol\":541:569  whitelistedEventIds[eventId] */\n      dup2\n      mstore\n      0x20\n      add\n      swap1\n      dup2\n      mstore\n      0x20\n      add\n      0x00\n      keccak256\n      0x00\n        /* \"contracts/EventListenerBasic.sol\":541:576  whitelistedEventIds[eventId] = true */\n      0x0100\n      exp\n      dup2\n      sload\n      dup2\n      0xff\n      mul\n      not\n      and\n      swap1\n      dup4\n      iszero\n      iszero\n      mul\n      or\n      swap1\n      sstore\n      pop\n        /* \"contracts/EventListenerBasic.sol\":481:583  function whitelistEventId(uint256 eventId) public {... */\n      pop\n      jump\t// out\n        /* \"contracts/EventListenerBasic.sol\":589:1226  function processEvents(bytes[] memory logs) public returns (uint256) {... */\n    tag_28:\n        /* \"contracts/EventListenerBasic.sol\":649:656  uint256 */\n      0x00\n        /* \"contracts/EventListenerBasic.sol\":668:701  EventData[] memory eventDataArray */\n      dup1\n        /* \"contracts/EventListenerBasic.sol\":704:725  decodeEventLogs(logs) */\n      tag_32\n        /* \"contracts/EventListenerBasic.sol\":720:724  logs */\n      dup4\n        /* \"contracts/EventListenerBasic.sol\":704:719  decodeEventLogs */\n      tag_33\n        /* \"contracts/EventListenerBasic.sol\":704:725  decodeEventLogs(logs) */\n      jump\t// in\n    tag_32:\n        /* \"contracts/EventListenerBasic.sol\":668:725  EventData[] memory eventDataArray = decodeEventLogs(logs) */\n      swap1\n      pop\n        /* \"contracts/EventListenerBasic.sol\":735:757  uint256 processedCount */\n      0x00\n        /* \"contracts/EventListenerBasic.sol\":785:794  uint256 j */\n      dup1\n        /* \"contracts/EventListenerBasic.sol\":780:1188  for (uint256 j = 0; j < eventDataArray.length; j++) {... */\n    tag_34:\n        /* \"contracts/EventListenerBasic.sol\":804:818  eventDataArray */\n      dup3\n        /* \"contracts/EventListenerBasic.sol\":804:825  eventDataArray.length */\n      mload\n        /* \"contracts/EventListenerBasic.sol\":800:801  j */\n      dup2\n        /* \"contracts/EventListenerBasic.sol\":800:825  j < eventDataArray.length */\n      lt\n        /* \"contracts/EventListenerBasic.sol\":780:1188  for (uint256 j = 0; j < eventDataArray.length; j++) {... */\n      iszero\n      tag_35\n      jumpi\n        /* \"contracts/EventListenerBasic.sol\":850:869  whitelistedEventIds */\n      0x00\n        /* \"contracts/EventListenerBasic.sol\":850:896  whitelistedEventIds[eventDataArray[j].eventId] */\n      dup1\n        /* \"contracts/EventListenerBasic.sol\":870:884  eventDataArray */\n      dup5\n        /* \"contracts/EventListenerBasic.sol\":885:886  j */\n      dup4\n        /* \"contracts/EventListenerBasic.sol\":870:887  eventDataArray[j] */\n      dup2\n      mload\n      dup2\n      lt\n      tag_37\n      jumpi\n      tag_38\n      tag_39\n      jump\t// in\n    tag_38:\n    tag_37:\n      0x20\n      mul\n      0x20\n      add\n      add\n      mload\n        /* \"contracts/EventListenerBasic.sol\":870:895  eventDataArray[j].eventId */\n      0x00\n      add\n      mload\n        /* \"contracts/EventListenerBasic.sol\":850:896  whitelistedEventIds[eventDataArray[j].eventId] */\n      dup2\n      mstore\n      0x20\n      add\n      swap1\n      dup2\n      mstore\n      0x20\n      add\n      0x00\n      keccak256\n      0x00\n      swap1\n      sload\n      swap1\n      0x0100\n      exp\n      swap1\n      div\n      0xff\n      and\n        /* \"contracts/EventListenerBasic.sol\":850:945  whitelistedEventIds[eventDataArray[j].eventId] && !processedTokenIds[eventDataArray[j].tokenId] */\n      dup1\n      iszero\n      tag_40\n      jumpi\n      pop\n        /* \"contracts/EventListenerBasic.sol\":901:918  processedTokenIds */\n      0x01\n        /* \"contracts/EventListenerBasic.sol\":901:945  processedTokenIds[eventDataArray[j].tokenId] */\n      0x00\n        /* \"contracts/EventListenerBasic.sol\":919:933  eventDataArray */\n      dup5\n        /* \"contracts/EventListenerBasic.sol\":934:935  j */\n      dup4\n        /* \"contracts/EventListenerBasic.sol\":919:936  eventDataArray[j] */\n      dup2\n      mload\n      dup2\n      lt\n      tag_41\n      jumpi\n      tag_42\n      tag_39\n      jump\t// in\n    tag_42:\n    tag_41:\n      0x20\n      mul\n      0x20\n      add\n      add\n      mload\n        /* \"contracts/EventListenerBasic.sol\":919:944  eventDataArray[j].tokenId */\n      0x20\n      add\n      mload\n        /* \"contracts/EventListenerBasic.sol\":901:945  processedTokenIds[eventDataArray[j].tokenId] */\n      dup2\n      mstore\n      0x20\n      add\n      swap1\n      dup2\n      mstore\n      0x20\n      add\n      0x00\n      keccak256\n      0x00\n      swap1\n      sload\n      swap1\n      0x0100\n      exp\n      swap1\n      div\n      0xff\n      and\n        /* \"contracts/EventListenerBasic.sol\":900:945  !processedTokenIds[eventDataArray[j].tokenId] */\n      iszero\n        /* \"contracts/EventListenerBasic.sol\":850:945  whitelistedEventIds[eventDataArray[j].eventId] && !processedTokenIds[eventDataArray[j].tokenId] */\n    tag_40:\n        /* \"contracts/EventListenerBasic.sol\":846:1178  if (whitelistedEventIds[eventDataArray[j].eventId] && !processedTokenIds[eventDataArray[j].tokenId]) {... */\n      iszero\n      tag_43\n      jumpi\n        /* \"contracts/EventListenerBasic.sol\":1012:1016  true */\n      0x01\n        /* \"contracts/EventListenerBasic.sol\":965:982  processedTokenIds */\n      dup1\n        /* \"contracts/EventListenerBasic.sol\":965:1009  processedTokenIds[eventDataArray[j].tokenId] */\n      0x00\n        /* \"contracts/EventListenerBasic.sol\":983:997  eventDataArray */\n      dup6\n        /* \"contracts/EventListenerBasic.sol\":998:999  j */\n      dup5\n        /* \"contracts/EventListenerBasic.sol\":983:1000  eventDataArray[j] */\n      dup2\n      mload\n      dup2\n      lt\n      tag_44\n      jumpi\n      tag_45\n      tag_39\n      jump\t// in\n    tag_45:\n    tag_44:\n      0x20\n      mul\n      0x20\n      add\n      add\n      mload\n        /* \"contracts/EventListenerBasic.sol\":983:1008  eventDataArray[j].tokenId */\n      0x20\n      add\n      mload\n        /* \"contracts/EventListenerBasic.sol\":965:1009  processedTokenIds[eventDataArray[j].tokenId] */\n      dup2\n      mstore\n      0x20\n      add\n      swap1\n      dup2\n      mstore\n      0x20\n      add\n      0x00\n      keccak256\n      0x00\n        /* \"contracts/EventListenerBasic.sol\":965:1016  processedTokenIds[eventDataArray[j].tokenId] = true */\n      0x0100\n      exp\n      dup2\n      sload\n      dup2\n      0xff\n      mul\n      not\n      and\n      swap1\n      dup4\n      iszero\n      iszero\n      mul\n      or\n      swap1\n      sstore\n      pop\n        /* \"contracts/EventListenerBasic.sol\":1034:1129  handleTargetEvent(eventDataArray[j].user, eventDataArray[j].eventId, eventDataArray[j].tokenId) */\n      tag_46\n        /* \"contracts/EventListenerBasic.sol\":1052:1066  eventDataArray */\n      dup4\n        /* \"contracts/EventListenerBasic.sol\":1067:1068  j */\n      dup3\n        /* \"contracts/EventListenerBasic.sol\":1052:1069  eventDataArray[j] */\n      dup2\n      mload\n      dup2\n      lt\n      tag_47\n      jumpi\n      tag_48\n      tag_39\n      jump\t// in\n    tag_48:\n    tag_47:\n      0x20\n      mul\n      0x20\n      add\n      add\n      mload\n        /* \"contracts/EventListenerBasic.sol\":1052:1074  eventDataArray[j].user */\n      0x40\n      add\n      mload\n        /* \"contracts/EventListenerBasic.sol\":1076:1090  eventDataArray */\n      dup5\n        /* \"contracts/EventListenerBasic.sol\":1091:1092  j */\n      dup4\n        /* \"contracts/EventListenerBasic.sol\":1076:1093  eventDataArray[j] */\n      dup2\n      mload\n      dup2\n      lt\n      tag_49\n      jumpi\n      tag_50\n      tag_39\n      jump\t// in\n    tag_50:\n    tag_49:\n      0x20\n      mul\n      0x20\n      add\n      add\n      mload\n        /* \"contracts/EventListenerBasic.sol\":1076:1101  eventDataArray[j].eventId */\n      0x00\n      add\n      mload\n        /* \"contracts/EventListenerBasic.sol\":1103:1117  eventDataArray */\n      dup6\n        /* \"contracts/EventListenerBasic.sol\":1118:1119  j */\n      dup5\n        /* \"contracts/EventListenerBasic.sol\":1103:1120  eventDataArray[j] */\n      dup2\n      mload\n      dup2\n      lt\n      tag_51\n      jumpi\n      tag_52\n      tag_39\n      jump\t// in\n    tag_52:\n    tag_51:\n      0x20\n      mul\n      0x20\n      add\n      add\n      mload\n        /* \"contracts/EventListenerBasic.sol\":1103:1128  eventDataArray[j].tokenId */\n      0x20\n      add\n      mload\n        /* \"contracts/EventListenerBasic.sol\":1034:1051  handleTargetEvent */\n      tag_53\n        /* \"contracts/EventListenerBasic.sol\":1034:1129  handleTargetEvent(eventDataArray[j].user, eventDataArray[j].eventId, eventDataArray[j].tokenId) */\n      jump\t// in\n    tag_46:\n        /* \"contracts/EventListenerBasic.sol\":1147:1163  processedCount++ */\n      dup2\n      dup1\n      tag_54\n      swap1\n      tag_55\n      jump\t// in\n    tag_54:\n      swap3\n      pop\n      pop\n        /* \"contracts/EventListenerBasic.sol\":846:1178  if (whitelistedEventIds[eventDataArray[j].eventId] && !processedTokenIds[eventDataArray[j].tokenId]) {... */\n    tag_43:\n        /* \"contracts/EventListenerBasic.sol\":827:830  j++ */\n      dup1\n      dup1\n      tag_56\n      swap1\n      tag_55\n      jump\t// in\n    tag_56:\n      swap2\n      pop\n      pop\n        /* \"contracts/EventListenerBasic.sol\":780:1188  for (uint256 j = 0; j < eventDataArray.length; j++) {... */\n      jump(tag_34)\n    tag_35:\n      pop\n        /* \"contracts/EventListenerBasic.sol\":1205:1219  processedCount */\n      dup1\n        /* \"contracts/EventListenerBasic.sol\":1198:1219  return processedCount */\n      swap3\n      pop\n      pop\n      pop\n        /* \"contracts/EventListenerBasic.sol\":589:1226  function processEvents(bytes[] memory logs) public returns (uint256) {... */\n      swap2\n      swap1\n      pop\n      jump\t// out\n        /* \"contracts/EventListenerBasic.sol\":1232:2516  function decodeEventLogs(bytes[] memory logs) internal pure returns (EventData[] memory eventDataArray) {... */\n    tag_33:\n        /* \"contracts/EventListenerBasic.sol\":1301:1334  EventData[] memory eventDataArray */\n      0x60\n        /* \"contracts/EventListenerBasic.sol\":1393:1394  2 */\n      0x02\n        /* \"contracts/EventListenerBasic.sol\":1379:1383  logs */\n      dup3\n        /* \"contracts/EventListenerBasic.sol\":1379:1390  logs.length */\n      mload\n        /* \"contracts/EventListenerBasic.sol\":1379:1394  logs.length / 2 */\n      tag_58\n      swap2\n      swap1\n      tag_59\n      jump\t// in\n    tag_58:\n        /* \"contracts/EventListenerBasic.sol\":1363:1395  new EventData[](logs.length / 2) */\n      0xffffffffffffffff\n      dup2\n      gt\n      iszero\n      tag_60\n      jumpi\n      tag_61\n      tag_62\n      jump\t// in\n    tag_61:\n    tag_60:\n      mload(0x40)\n      swap1\n      dup1\n      dup3\n      mstore\n      dup1\n      0x20\n      mul\n      0x20\n      add\n      dup3\n      add\n      0x40\n      mstore\n      dup1\n      iszero\n      tag_63\n      jumpi\n      dup2\n      0x20\n      add\n    tag_64:\n      tag_65\n      tag_66\n      jump\t// in\n    tag_65:\n      dup2\n      mstore\n      0x20\n      add\n      swap1\n      0x01\n      swap1\n      sub\n      swap1\n      dup2\n      tag_64\n      jumpi\n      swap1\n      pop\n    tag_63:\n      pop\n        /* \"contracts/EventListenerBasic.sol\":1346:1395  eventDataArray = new EventData[](logs.length / 2) */\n      swap1\n      pop\n        /* \"contracts/EventListenerBasic.sol\":1406:1428  uint256 eventDataIndex */\n      0x00\n        /* \"contracts/EventListenerBasic.sol\":1456:1465  uint256 i */\n      dup1\n        /* \"contracts/EventListenerBasic.sol\":1451:2421  for (uint256 i = 0; i < logs.length; i++) {... */\n    tag_67:\n        /* \"contracts/EventListenerBasic.sol\":1475:1479  logs */\n      dup4\n        /* \"contracts/EventListenerBasic.sol\":1475:1486  logs.length */\n      mload\n        /* \"contracts/EventListenerBasic.sol\":1471:1472  i */\n      dup2\n        /* \"contracts/EventListenerBasic.sol\":1471:1486  i < logs.length */\n      lt\n        /* \"contracts/EventListenerBasic.sol\":1451:2421  for (uint256 i = 0; i < logs.length; i++) {... */\n      iszero\n      tag_68\n      jumpi\n        /* \"contracts/EventListenerBasic.sol\":1507:1529  bytes32 eventSignature */\n      0x00\n        /* \"contracts/EventListenerBasic.sol\":1532:1569  bytesToBytes32(slice(logs[i], 0, 32)) */\n      tag_70\n        /* \"contracts/EventListenerBasic.sol\":1547:1568  slice(logs[i], 0, 32) */\n      tag_71\n        /* \"contracts/EventListenerBasic.sol\":1553:1557  logs */\n      dup7\n        /* \"contracts/EventListenerBasic.sol\":1558:1559  i */\n      dup5\n        /* \"contracts/EventListenerBasic.sol\":1553:1560  logs[i] */\n      dup2\n      mload\n      dup2\n      lt\n      tag_72\n      jumpi\n      tag_73\n      tag_39\n      jump\t// in\n    tag_73:\n    tag_72:\n      0x20\n      mul\n      0x20\n      add\n      add\n      mload\n        /* \"contracts/EventListenerBasic.sol\":1562:1563  0 */\n      0x00\n        /* \"contracts/EventListenerBasic.sol\":1565:1567  32 */\n      0x20\n        /* \"contracts/EventListenerBasic.sol\":1547:1552  slice */\n      tag_74\n        /* \"contracts/EventListenerBasic.sol\":1547:1568  slice(logs[i], 0, 32) */\n      jump\t// in\n    tag_71:\n        /* \"contracts/EventListenerBasic.sol\":1532:1546  bytesToBytes32 */\n      tag_75\n        /* \"contracts/EventListenerBasic.sol\":1532:1569  bytesToBytes32(slice(logs[i], 0, 32)) */\n      jump\t// in\n    tag_70:\n        /* \"contracts/EventListenerBasic.sol\":1507:1569  bytes32 eventSignature = bytesToBytes32(slice(logs[i], 0, 32)) */\n      swap1\n      pop\n        /* \"contracts/EventListenerBasic.sol\":1618:1664  keccak256(\"Transfer(address,address,uint256)\") */\n      0xddf252ad1be2c89b69c2b068fc378daa952ba7f163c4a11628f55a4df523b3ef\n        /* \"contracts/EventListenerBasic.sol\":1600:1614  eventSignature */\n      dup2\n        /* \"contracts/EventListenerBasic.sol\":1600:1664  eventSignature == keccak256(\"Transfer(address,address,uint256)\") */\n      sub\n        /* \"contracts/EventListenerBasic.sol\":1596:2411  if (eventSignature == keccak256(\"Transfer(address,address,uint256)\")) {... */\n      tag_76\n      jumpi\n        /* \"contracts/EventListenerBasic.sol\":1684:1694  address to */\n      0x00\n        /* \"contracts/EventListenerBasic.sol\":1697:1735  bytesToAddress(slice(logs[i], 32, 20)) */\n      tag_77\n        /* \"contracts/EventListenerBasic.sol\":1712:1734  slice(logs[i], 32, 20) */\n      tag_78\n        /* \"contracts/EventListenerBasic.sol\":1718:1722  logs */\n      dup8\n        /* \"contracts/EventListenerBasic.sol\":1723:1724  i */\n      dup6\n        /* \"contracts/EventListenerBasic.sol\":1718:1725  logs[i] */\n      dup2\n      mload\n      dup2\n      lt\n      tag_79\n      jumpi\n      tag_80\n      tag_39\n      jump\t// in\n    tag_80:\n    tag_79:\n      0x20\n      mul\n      0x20\n      add\n      add\n      mload\n        /* \"contracts/EventListenerBasic.sol\":1727:1729  32 */\n      0x20\n        /* \"contracts/EventListenerBasic.sol\":1731:1733  20 */\n      0x14\n        /* \"contracts/EventListenerBasic.sol\":1712:1717  slice */\n      tag_74\n        /* \"contracts/EventListenerBasic.sol\":1712:1734  slice(logs[i], 32, 20) */\n      jump\t// in\n    tag_78:\n        /* \"contracts/EventListenerBasic.sol\":1697:1711  bytesToAddress */\n      tag_81\n        /* \"contracts/EventListenerBasic.sol\":1697:1735  bytesToAddress(slice(logs[i], 32, 20)) */\n      jump\t// in\n    tag_77:\n        /* \"contracts/EventListenerBasic.sol\":1684:1735  address to = bytesToAddress(slice(logs[i], 32, 20)) */\n      swap1\n      pop\n        /* \"contracts/EventListenerBasic.sol\":1753:1768  uint256 tokenId */\n      0x00\n        /* \"contracts/EventListenerBasic.sol\":1771:1809  bytesToUint256(slice(logs[i], 64, 32)) */\n      tag_82\n        /* \"contracts/EventListenerBasic.sol\":1786:1808  slice(logs[i], 64, 32) */\n      tag_83\n        /* \"contracts/EventListenerBasic.sol\":1792:1796  logs */\n      dup9\n        /* \"contracts/EventListenerBasic.sol\":1797:1798  i */\n      dup7\n        /* \"contracts/EventListenerBasic.sol\":1792:1799  logs[i] */\n      dup2\n      mload\n      dup2\n      lt\n      tag_84\n      jumpi\n      tag_85\n      tag_39\n      jump\t// in\n    tag_85:\n    tag_84:\n      0x20\n      mul\n      0x20\n      add\n      add\n      mload\n        /* \"contracts/EventListenerBasic.sol\":1801:1803  64 */\n      0x40\n        /* \"contracts/EventListenerBasic.sol\":1805:1807  32 */\n      0x20\n        /* \"contracts/EventListenerBasic.sol\":1786:1791  slice */\n      tag_74\n        /* \"contracts/EventListenerBasic.sol\":1786:1808  slice(logs[i], 64, 32) */\n      jump\t// in\n    tag_83:\n        /* \"contracts/EventListenerBasic.sol\":1771:1785  bytesToUint256 */\n      tag_86\n        /* \"contracts/EventListenerBasic.sol\":1771:1809  bytesToUint256(slice(logs[i], 64, 32)) */\n      jump\t// in\n    tag_82:\n        /* \"contracts/EventListenerBasic.sol\":1753:1809  uint256 tokenId = bytesToUint256(slice(logs[i], 64, 32)) */\n      swap1\n      pop\n        /* \"contracts/EventListenerBasic.sol\":1882:1884  to */\n      dup2\n        /* \"contracts/EventListenerBasic.sol\":1844:1858  eventDataArray */\n      dup7\n        /* \"contracts/EventListenerBasic.sol\":1859:1873  eventDataIndex */\n      dup7\n        /* \"contracts/EventListenerBasic.sol\":1844:1874  eventDataArray[eventDataIndex] */\n      dup2\n      mload\n      dup2\n      lt\n      tag_87\n      jumpi\n      tag_88\n      tag_39\n      jump\t// in\n    tag_88:\n    tag_87:\n      0x20\n      mul\n      0x20\n      add\n      add\n      mload\n        /* \"contracts/EventListenerBasic.sol\":1844:1879  eventDataArray[eventDataIndex].user */\n      0x40\n      add\n        /* \"contracts/EventListenerBasic.sol\":1844:1884  eventDataArray[eventDataIndex].user = to */\n      swap1\n      0xffffffffffffffffffffffffffffffffffffffff\n      and\n      swap1\n      dup2\n      0xffffffffffffffffffffffffffffffffffffffff\n      and\n      dup2\n      mstore\n      pop\n      pop\n        /* \"contracts/EventListenerBasic.sol\":1943:1950  tokenId */\n      dup1\n        /* \"contracts/EventListenerBasic.sol\":1902:1916  eventDataArray */\n      dup7\n        /* \"contracts/EventListenerBasic.sol\":1917:1931  eventDataIndex */\n      dup7\n        /* \"contracts/EventListenerBasic.sol\":1902:1932  eventDataArray[eventDataIndex] */\n      dup2\n      mload\n      dup2\n      lt\n      tag_89\n      jumpi\n      tag_90\n      tag_39\n      jump\t// in\n    tag_90:\n    tag_89:\n      0x20\n      mul\n      0x20\n      add\n      add\n      mload\n        /* \"contracts/EventListenerBasic.sol\":1902:1940  eventDataArray[eventDataIndex].tokenId */\n      0x20\n      add\n        /* \"contracts/EventListenerBasic.sol\":1902:1950  eventDataArray[eventDataIndex].tokenId = tokenId */\n      dup2\n      dup2\n      mstore\n      pop\n      pop\n        /* \"contracts/EventListenerBasic.sol\":1666:1965  {... */\n      pop\n      pop\n        /* \"contracts/EventListenerBasic.sol\":1596:2411  if (eventSignature == keccak256(\"Transfer(address,address,uint256)\")) {... */\n      jump(tag_91)\n    tag_76:\n        /* \"contracts/EventListenerBasic.sol\":1993:2033  keccak256(\"EventToken(uint256,uint256)\") */\n      0x4b3711cd7ece062b0828c1b6e08d814a72d4c003383a016c833cbb1b45956e34\n        /* \"contracts/EventListenerBasic.sol\":1975:1989  eventSignature */\n      dup2\n        /* \"contracts/EventListenerBasic.sol\":1975:2033  eventSignature == keccak256(\"EventToken(uint256,uint256)\") */\n      sub\n        /* \"contracts/EventListenerBasic.sol\":1971:2411  if (eventSignature == keccak256(\"EventToken(uint256,uint256)\")) {... */\n      tag_92\n      jumpi\n        /* \"contracts/EventListenerBasic.sol\":2053:2068  uint256 eventId */\n      0x00\n        /* \"contracts/EventListenerBasic.sol\":2071:2109  bytesToUint256(slice(logs[i], 32, 32)) */\n      tag_93\n        /* \"contracts/EventListenerBasic.sol\":2086:2108  slice(logs[i], 32, 32) */\n      tag_94\n        /* \"contracts/EventListenerBasic.sol\":2092:2096  logs */\n      dup8\n        /* \"contracts/EventListenerBasic.sol\":2097:2098  i */\n      dup6\n        /* \"contracts/EventListenerBasic.sol\":2092:2099  logs[i] */\n      dup2\n      mload\n      dup2\n      lt\n      tag_95\n      jumpi\n      tag_96\n      tag_39\n      jump\t// in\n    tag_96:\n    tag_95:\n      0x20\n      mul\n      0x20\n      add\n      add\n      mload\n        /* \"contracts/EventListenerBasic.sol\":2101:2103  32 */\n      0x20\n        /* \"contracts/EventListenerBasic.sol\":2105:2107  32 */\n      dup1\n        /* \"contracts/EventListenerBasic.sol\":2086:2091  slice */\n      tag_74\n        /* \"contracts/EventListenerBasic.sol\":2086:2108  slice(logs[i], 32, 32) */\n      jump\t// in\n    tag_94:\n        /* \"contracts/EventListenerBasic.sol\":2071:2085  bytesToUint256 */\n      tag_86\n        /* \"contracts/EventListenerBasic.sol\":2071:2109  bytesToUint256(slice(logs[i], 32, 32)) */\n      jump\t// in\n    tag_93:\n        /* \"contracts/EventListenerBasic.sol\":2053:2109  uint256 eventId = bytesToUint256(slice(logs[i], 32, 32)) */\n      swap1\n      pop\n        /* \"contracts/EventListenerBasic.sol\":2127:2142  uint256 tokenId */\n      0x00\n        /* \"contracts/EventListenerBasic.sol\":2145:2183  bytesToUint256(slice(logs[i], 64, 32)) */\n      tag_97\n        /* \"contracts/EventListenerBasic.sol\":2160:2182  slice(logs[i], 64, 32) */\n      tag_98\n        /* \"contracts/EventListenerBasic.sol\":2166:2170  logs */\n      dup9\n        /* \"contracts/EventListenerBasic.sol\":2171:2172  i */\n      dup7\n        /* \"contracts/EventListenerBasic.sol\":2166:2173  logs[i] */\n      dup2\n      mload\n      dup2\n      lt\n      tag_99\n      jumpi\n      tag_100\n      tag_39\n      jump\t// in\n    tag_100:\n    tag_99:\n      0x20\n      mul\n      0x20\n      add\n      add\n      mload\n        /* \"contracts/EventListenerBasic.sol\":2175:2177  64 */\n      0x40\n        /* \"contracts/EventListenerBasic.sol\":2179:2181  32 */\n      0x20\n        /* \"contracts/EventListenerBasic.sol\":2160:2165  slice */\n      tag_74\n        /* \"contracts/EventListenerBasic.sol\":2160:2182  slice(logs[i], 64, 32) */\n      jump\t// in\n    tag_98:\n        /* \"contracts/EventListenerBasic.sol\":2145:2159  bytesToUint256 */\n      tag_86\n        /* \"contracts/EventListenerBasic.sol\":2145:2183  bytesToUint256(slice(logs[i], 64, 32)) */\n      jump\t// in\n    tag_97:\n        /* \"contracts/EventListenerBasic.sol\":2127:2183  uint256 tokenId = bytesToUint256(slice(logs[i], 64, 32)) */\n      swap1\n      pop\n        /* \"contracts/EventListenerBasic.sol\":2259:2266  eventId */\n      dup2\n        /* \"contracts/EventListenerBasic.sol\":2218:2232  eventDataArray */\n      dup7\n        /* \"contracts/EventListenerBasic.sol\":2233:2247  eventDataIndex */\n      dup7\n        /* \"contracts/EventListenerBasic.sol\":2218:2248  eventDataArray[eventDataIndex] */\n      dup2\n      mload\n      dup2\n      lt\n      tag_101\n      jumpi\n      tag_102\n      tag_39\n      jump\t// in\n    tag_102:\n    tag_101:\n      0x20\n      mul\n      0x20\n      add\n      add\n      mload\n        /* \"contracts/EventListenerBasic.sol\":2218:2256  eventDataArray[eventDataIndex].eventId */\n      0x00\n      add\n        /* \"contracts/EventListenerBasic.sol\":2218:2266  eventDataArray[eventDataIndex].eventId = eventId */\n      dup2\n      dup2\n      mstore\n      pop\n      pop\n        /* \"contracts/EventListenerBasic.sol\":2334:2341  tokenId */\n      dup1\n        /* \"contracts/EventListenerBasic.sol\":2292:2306  eventDataArray */\n      dup7\n        /* \"contracts/EventListenerBasic.sol\":2307:2321  eventDataIndex */\n      dup7\n        /* \"contracts/EventListenerBasic.sol\":2292:2322  eventDataArray[eventDataIndex] */\n      dup2\n      mload\n      dup2\n      lt\n      tag_103\n      jumpi\n      tag_104\n      tag_39\n      jump\t// in\n    tag_104:\n    tag_103:\n      0x20\n      mul\n      0x20\n      add\n      add\n      mload\n        /* \"contracts/EventListenerBasic.sol\":2292:2330  eventDataArray[eventDataIndex].tokenId */\n      0x20\n      add\n      mload\n        /* \"contracts/EventListenerBasic.sol\":2292:2341  eventDataArray[eventDataIndex].tokenId == tokenId */\n      eq\n        /* \"contracts/EventListenerBasic.sol\":2284:2362  require(eventDataArray[eventDataIndex].tokenId == tokenId, \"TokenId mismatch\") */\n      tag_105\n      jumpi\n      mload(0x40)\n      0x08c379a000000000000000000000000000000000000000000000000000000000\n      dup2\n      mstore\n      0x04\n      add\n      tag_106\n      swap1\n      tag_107\n      jump\t// in\n    tag_106:\n      mload(0x40)\n      dup1\n      swap2\n      sub\n      swap1\n      revert\n    tag_105:\n        /* \"contracts/EventListenerBasic.sol\":2380:2396  eventDataIndex++ */\n      dup5\n      dup1\n      tag_108\n      swap1\n      tag_55\n      jump\t// in\n    tag_108:\n      swap6\n      pop\n      pop\n        /* \"contracts/EventListenerBasic.sol\":2035:2411  {... */\n      pop\n      pop\n        /* \"contracts/EventListenerBasic.sol\":1971:2411  if (eventSignature == keccak256(\"EventToken(uint256,uint256)\")) {... */\n    tag_92:\n        /* \"contracts/EventListenerBasic.sol\":1596:2411  if (eventSignature == keccak256(\"Transfer(address,address,uint256)\")) {... */\n    tag_91:\n        /* \"contracts/EventListenerBasic.sol\":1493:2421  {... */\n      pop\n        /* \"contracts/EventListenerBasic.sol\":1488:1491  i++ */\n      dup1\n      dup1\n      tag_109\n      swap1\n      tag_55\n      jump\t// in\n    tag_109:\n      swap2\n      pop\n      pop\n        /* \"contracts/EventListenerBasic.sol\":1451:2421  for (uint256 i = 0; i < logs.length; i++) {... */\n      jump(tag_67)\n    tag_68:\n      pop\n        /* \"contracts/EventListenerBasic.sol\":2485:2499  eventDataIndex */\n      dup1\n        /* \"contracts/EventListenerBasic.sol\":2469:2483  eventDataArray */\n      dup3\n        /* \"contracts/EventListenerBasic.sol\":2462:2500  mstore(eventDataArray, eventDataIndex) */\n      mstore\n        /* \"contracts/EventListenerBasic.sol\":2448:2510  {... */\n      pop\n        /* \"contracts/EventListenerBasic.sol\":1232:2516  function decodeEventLogs(bytes[] memory logs) internal pure returns (EventData[] memory eventDataArray) {... */\n      swap2\n      swap1\n      pop\n      jump\t// out\n        /* \"contracts/EventListenerBasic.sol\":2522:2753  function handleTargetEvent(address user, uint256 eventId, uint256 tokenId) internal virtual {... */\n    tag_53:\n        /* \"contracts/EventListenerBasic.sol\":2649:2653  user */\n      dup3\n        /* \"contracts/EventListenerBasic.sol\":2629:2672  TargetEventReceived(user, eventId, tokenId) */\n      0xffffffffffffffffffffffffffffffffffffffff\n      and\n      0x5ef3bd3c823875bc38df6c327ef163659ef15ff1e9898230df18cc50316a91c1\n        /* \"contracts/EventListenerBasic.sol\":2655:2662  eventId */\n      dup4\n        /* \"contracts/EventListenerBasic.sol\":2664:2671  tokenId */\n      dup4\n        /* \"contracts/EventListenerBasic.sol\":2629:2672  TargetEventReceived(user, eventId, tokenId) */\n      mload(0x40)\n      tag_111\n      swap3\n      swap2\n      swap1\n      tag_112\n      jump\t// in\n    tag_111:\n      mload(0x40)\n      dup1\n      swap2\n      sub\n      swap1\n      log2\n        /* \"contracts/EventListenerBasic.sol\":2522:2753  function handleTargetEvent(address user, uint256 eventId, uint256 tokenId) internal virtual {... */\n      pop\n      pop\n      pop\n      jump\t// out\n        /* \"contracts/EventListenerBasic.sol\":2784:2936  function slice(bytes memory data, uint256 start, uint256 length) internal pure returns (bytes memory) {... */\n    tag_74:\n        /* \"contracts/EventListenerBasic.sol\":2872:2884  bytes memory */\n      0x60\n        /* \"contracts/EventListenerBasic.sol\":2784:2936  function slice(bytes memory data, uint256 start, uint256 length) internal pure returns (bytes memory) {... */\n      swap4\n      swap3\n      pop\n      pop\n      pop\n      jump\t// out\n        /* \"contracts/EventListenerBasic.sol\":3198:3320  function bytesToBytes32(bytes memory b) internal pure returns (bytes32) {... */\n    tag_75:\n        /* \"contracts/EventListenerBasic.sol\":3261:3268  bytes32 */\n      0x00\n        /* \"contracts/EventListenerBasic.sol\":3198:3320  function bytesToBytes32(bytes memory b) internal pure returns (bytes32) {... */\n      swap2\n      swap1\n      pop\n      jump\t// out\n        /* \"contracts/EventListenerBasic.sol\":2942:3064  function bytesToAddress(bytes memory b) internal pure returns (address) {... */\n    tag_81:\n        /* \"contracts/EventListenerBasic.sol\":3005:3012  address */\n      0x00\n        /* \"contracts/EventListenerBasic.sol\":2942:3064  function bytesToAddress(bytes memory b) internal pure returns (address) {... */\n      swap2\n      swap1\n      pop\n      jump\t// out\n        /* \"contracts/EventListenerBasic.sol\":3070:3192  function bytesToUint256(bytes memory b) internal pure returns (uint256) {... */\n    tag_86:\n        /* \"contracts/EventListenerBasic.sol\":3133:3140  uint256 */\n      0x00\n        /* \"contracts/EventListenerBasic.sol\":3070:3192  function bytesToUint256(bytes memory b) internal pure returns (uint256) {... */\n      swap2\n      swap1\n      pop\n      jump\t// out\n    tag_66:\n      mload(0x40)\n      dup1\n      0x60\n      add\n      0x40\n      mstore\n      dup1\n      0x00\n      dup2\n      mstore\n      0x20\n      add\n      0x00\n      dup2\n      mstore\n      0x20\n      add\n      and(0xffffffffffffffffffffffffffffffffffffffff, 0x00)\n      dup2\n      mstore\n      pop\n      swap1\n      jump\t// out\n        /* \"#utility.yul\":7:82   */\n    tag_117:\n        /* \"#utility.yul\":40:46   */\n      0x00\n        /* \"#utility.yul\":73:75   */\n      0x40\n        /* \"#utility.yul\":67:76   */\n      mload\n        /* \"#utility.yul\":57:76   */\n      swap1\n      pop\n        /* \"#utility.yul\":7:82   */\n      swap1\n      jump\t// out\n        /* \"#utility.yul\":88:205   */\n    tag_118:\n        /* \"#utility.yul\":197:198   */\n      0x00\n        /* \"#utility.yul\":194:195   */\n      dup1\n        /* \"#utility.yul\":187:199   */\n      revert\n        /* \"#utility.yul\":211:328   */\n    tag_119:\n        /* \"#utility.yul\":320:321   */\n      0x00\n        /* \"#utility.yul\":317:318   */\n      dup1\n        /* \"#utility.yul\":310:322   */\n      revert\n        /* \"#utility.yul\":334:411   */\n    tag_120:\n        /* \"#utility.yul\":371:378   */\n      0x00\n        /* \"#utility.yul\":400:405   */\n      dup2\n        /* \"#utility.yul\":389:405   */\n      swap1\n      pop\n        /* \"#utility.yul\":334:411   */\n      swap2\n      swap1\n      pop\n      jump\t// out\n        /* \"#utility.yul\":417:539   */\n    tag_121:\n        /* \"#utility.yul\":490:514   */\n      tag_150\n        /* \"#utility.yul\":508:513   */\n      dup2\n        /* \"#utility.yul\":490:514   */\n      tag_120\n      jump\t// in\n    tag_150:\n        /* \"#utility.yul\":483:488   */\n      dup2\n        /* \"#utility.yul\":480:515   */\n      eq\n        /* \"#utility.yul\":470:533   */\n      tag_151\n      jumpi\n        /* \"#utility.yul\":529:530   */\n      0x00\n        /* \"#utility.yul\":526:527   */\n      dup1\n        /* \"#utility.yul\":519:531   */\n      revert\n        /* \"#utility.yul\":470:533   */\n    tag_151:\n        /* \"#utility.yul\":417:539   */\n      pop\n      jump\t// out\n        /* \"#utility.yul\":545:684   */\n    tag_122:\n        /* \"#utility.yul\":591:596   */\n      0x00\n        /* \"#utility.yul\":629:635   */\n      dup2\n        /* \"#utility.yul\":616:636   */\n      calldataload\n        /* \"#utility.yul\":607:636   */\n      swap1\n      pop\n        /* \"#utility.yul\":645:678   */\n      tag_153\n        /* \"#utility.yul\":672:677   */\n      dup2\n        /* \"#utility.yul\":645:678   */\n      tag_121\n      jump\t// in\n    tag_153:\n        /* \"#utility.yul\":545:684   */\n      swap3\n      swap2\n      pop\n      pop\n      jump\t// out\n        /* \"#utility.yul\":690:1019   */\n    tag_10:\n        /* \"#utility.yul\":749:755   */\n      0x00\n        /* \"#utility.yul\":798:800   */\n      0x20\n        /* \"#utility.yul\":786:795   */\n      dup3\n        /* \"#utility.yul\":777:784   */\n      dup5\n        /* \"#utility.yul\":773:796   */\n      sub\n        /* \"#utility.yul\":769:801   */\n      slt\n        /* \"#utility.yul\":766:885   */\n      iszero\n      tag_155\n      jumpi\n        /* \"#utility.yul\":804:883   */\n      tag_156\n      tag_118\n      jump\t// in\n    tag_156:\n        /* \"#utility.yul\":766:885   */\n    tag_155:\n        /* \"#utility.yul\":924:925   */\n      0x00\n        /* \"#utility.yul\":949:1002   */\n      tag_157\n        /* \"#utility.yul\":994:1001   */\n      dup5\n        /* \"#utility.yul\":985:991   */\n      dup3\n        /* \"#utility.yul\":974:983   */\n      dup6\n        /* \"#utility.yul\":970:992   */\n      add\n        /* \"#utility.yul\":949:1002   */\n      tag_122\n      jump\t// in\n    tag_157:\n        /* \"#utility.yul\":939:1002   */\n      swap2\n      pop\n        /* \"#utility.yul\":895:1012   */\n      pop\n        /* \"#utility.yul\":690:1019   */\n      swap3\n      swap2\n      pop\n      pop\n      jump\t// out\n        /* \"#utility.yul\":1025:1115   */\n    tag_123:\n        /* \"#utility.yul\":1059:1066   */\n      0x00\n        /* \"#utility.yul\":1102:1107   */\n      dup2\n        /* \"#utility.yul\":1095:1108   */\n      iszero\n        /* \"#utility.yul\":1088:1109   */\n      iszero\n        /* \"#utility.yul\":1077:1109   */\n      swap1\n      pop\n        /* \"#utility.yul\":1025:1115   */\n      swap2\n      swap1\n      pop\n      jump\t// out\n        /* \"#utility.yul\":1121:1230   */\n    tag_124:\n        /* \"#utility.yul\":1202:1223   */\n      tag_160\n        /* \"#utility.yul\":1217:1222   */\n      dup2\n        /* \"#utility.yul\":1202:1223   */\n      tag_123\n      jump\t// in\n    tag_160:\n        /* \"#utility.yul\":1197:1200   */\n      dup3\n        /* \"#utility.yul\":1190:1224   */\n      mstore\n        /* \"#utility.yul\":1121:1230   */\n      pop\n      pop\n      jump\t// out\n        /* \"#utility.yul\":1236:1446   */\n    tag_13:\n        /* \"#utility.yul\":1323:1327   */\n      0x00\n        /* \"#utility.yul\":1361:1363   */\n      0x20\n        /* \"#utility.yul\":1350:1359   */\n      dup3\n        /* \"#utility.yul\":1346:1364   */\n      add\n        /* \"#utility.yul\":1338:1364   */\n      swap1\n      pop\n        /* \"#utility.yul\":1374:1439   */\n      tag_162\n        /* \"#utility.yul\":1436:1437   */\n      0x00\n        /* \"#utility.yul\":1425:1434   */\n      dup4\n        /* \"#utility.yul\":1421:1438   */\n      add\n        /* \"#utility.yul\":1412:1418   */\n      dup5\n        /* \"#utility.yul\":1374:1439   */\n      tag_124\n      jump\t// in\n    tag_162:\n        /* \"#utility.yul\":1236:1446   */\n      swap3\n      swap2\n      pop\n      pop\n      jump\t// out\n        /* \"#utility.yul\":1452:1570   */\n    tag_125:\n        /* \"#utility.yul\":1539:1563   */\n      tag_164\n        /* \"#utility.yul\":1557:1562   */\n      dup2\n        /* \"#utility.yul\":1539:1563   */\n      tag_120\n      jump\t// in\n    tag_164:\n        /* \"#utility.yul\":1534:1537   */\n      dup3\n        /* \"#utility.yul\":1527:1564   */\n      mstore\n        /* \"#utility.yul\":1452:1570   */\n      pop\n      pop\n      jump\t// out\n        /* \"#utility.yul\":1576:1798   */\n    tag_21:\n        /* \"#utility.yul\":1669:1673   */\n      0x00\n        /* \"#utility.yul\":1707:1709   */\n      0x20\n        /* \"#utility.yul\":1696:1705   */\n      dup3\n        /* \"#utility.yul\":1692:1710   */\n      add\n        /* \"#utility.yul\":1684:1710   */\n      swap1\n      pop\n        /* \"#utility.yul\":1720:1791   */\n      tag_166\n        /* \"#utility.yul\":1788:1789   */\n      0x00\n        /* \"#utility.yul\":1777:1786   */\n      dup4\n        /* \"#utility.yul\":1773:1790   */\n      add\n        /* \"#utility.yul\":1764:1770   */\n      dup5\n        /* \"#utility.yul\":1720:1791   */\n      tag_125\n      jump\t// in\n    tag_166:\n        /* \"#utility.yul\":1576:1798   */\n      swap3\n      swap2\n      pop\n      pop\n      jump\t// out\n        /* \"#utility.yul\":1804:1921   */\n    tag_126:\n        /* \"#utility.yul\":1913:1914   */\n      0x00\n        /* \"#utility.yul\":1910:1911   */\n      dup1\n        /* \"#utility.yul\":1903:1915   */\n      revert\n        /* \"#utility.yul\":1927:2029   */\n    tag_127:\n        /* \"#utility.yul\":1968:1974   */\n      0x00\n        /* \"#utility.yul\":2019:2021   */\n      0x1f\n        /* \"#utility.yul\":2015:2022   */\n      not\n        /* \"#utility.yul\":2010:2012   */\n      0x1f\n        /* \"#utility.yul\":2003:2008   */\n      dup4\n        /* \"#utility.yul\":1999:2013   */\n      add\n        /* \"#utility.yul\":1995:2023   */\n      and\n        /* \"#utility.yul\":1985:2023   */\n      swap1\n      pop\n        /* \"#utility.yul\":1927:2029   */\n      swap2\n      swap1\n      pop\n      jump\t// out\n        /* \"#utility.yul\":2035:2215   */\n    tag_62:\n        /* \"#utility.yul\":2083:2160   */\n      0x4e487b7100000000000000000000000000000000000000000000000000000000\n        /* \"#utility.yul\":2080:2081   */\n      0x00\n        /* \"#utility.yul\":2073:2161   */\n      mstore\n        /* \"#utility.yul\":2180:2184   */\n      0x41\n        /* \"#utility.yul\":2177:2178   */\n      0x04\n        /* \"#utility.yul\":2170:2185   */\n      mstore\n        /* \"#utility.yul\":2204:2208   */\n      0x24\n        /* \"#utility.yul\":2201:2202   */\n      0x00\n        /* \"#utility.yul\":2194:2209   */\n      revert\n        /* \"#utility.yul\":2221:2502   */\n    tag_128:\n        /* \"#utility.yul\":2304:2331   */\n      tag_171\n        /* \"#utility.yul\":2326:2330   */\n      dup3\n        /* \"#utility.yul\":2304:2331   */\n      tag_127\n      jump\t// in\n    tag_171:\n        /* \"#utility.yul\":2296:2302   */\n      dup2\n        /* \"#utility.yul\":2292:2332   */\n      add\n        /* \"#utility.yul\":2434:2440   */\n      dup2\n        /* \"#utility.yul\":2422:2432   */\n      dup2\n        /* \"#utility.yul\":2419:2441   */\n      lt\n        /* \"#utility.yul\":2398:2416   */\n      0xffffffffffffffff\n        /* \"#utility.yul\":2386:2396   */\n      dup3\n        /* \"#utility.yul\":2383:2417   */\n      gt\n        /* \"#utility.yul\":2380:2442   */\n      or\n        /* \"#utility.yul\":2377:2465   */\n      iszero\n      tag_172\n      jumpi\n        /* \"#utility.yul\":2445:2463   */\n      tag_173\n      tag_62\n      jump\t// in\n    tag_173:\n        /* \"#utility.yul\":2377:2465   */\n    tag_172:\n        /* \"#utility.yul\":2485:2495   */\n      dup1\n        /* \"#utility.yul\":2481:2483   */\n      0x40\n        /* \"#utility.yul\":2474:2496   */\n      mstore\n        /* \"#utility.yul\":2264:2502   */\n      pop\n        /* \"#utility.yul\":2221:2502   */\n      pop\n      pop\n      jump\t// out\n        /* \"#utility.yul\":2508:2637   */\n    tag_129:\n        /* \"#utility.yul\":2542:2548   */\n      0x00\n        /* \"#utility.yul\":2569:2589   */\n      tag_175\n      tag_117\n      jump\t// in\n    tag_175:\n        /* \"#utility.yul\":2559:2589   */\n      swap1\n      pop\n        /* \"#utility.yul\":2598:2631   */\n      tag_176\n        /* \"#utility.yul\":2626:2630   */\n      dup3\n        /* \"#utility.yul\":2618:2624   */\n      dup3\n        /* \"#utility.yul\":2598:2631   */\n      tag_128\n      jump\t// in\n    tag_176:\n        /* \"#utility.yul\":2508:2637   */\n      swap2\n      swap1\n      pop\n      jump\t// out\n        /* \"#utility.yul\":2643:2963   */\n    tag_130:\n        /* \"#utility.yul\":2729:2733   */\n      0x00\n        /* \"#utility.yul\":2819:2837   */\n      0xffffffffffffffff\n        /* \"#utility.yul\":2811:2817   */\n      dup3\n        /* \"#utility.yul\":2808:2838   */\n      gt\n        /* \"#utility.yul\":2805:2861   */\n      iszero\n      tag_178\n      jumpi\n        /* \"#utility.yul\":2841:2859   */\n      tag_179\n      tag_62\n      jump\t// in\n    tag_179:\n        /* \"#utility.yul\":2805:2861   */\n    tag_178:\n        /* \"#utility.yul\":2891:2895   */\n      0x20\n        /* \"#utility.yul\":2883:2889   */\n      dup3\n        /* \"#utility.yul\":2879:2896   */\n      mul\n        /* \"#utility.yul\":2871:2896   */\n      swap1\n      pop\n        /* \"#utility.yul\":2951:2955   */\n      0x20\n        /* \"#utility.yul\":2945:2949   */\n      dup2\n        /* \"#utility.yul\":2941:2956   */\n      add\n        /* \"#utility.yul\":2933:2956   */\n      swap1\n      pop\n        /* \"#utility.yul\":2643:2963   */\n      swap2\n      swap1\n      pop\n      jump\t// out\n        /* \"#utility.yul\":2969:3086   */\n    tag_131:\n        /* \"#utility.yul\":3078:3079   */\n      0x00\n        /* \"#utility.yul\":3075:3076   */\n      dup1\n        /* \"#utility.yul\":3068:3080   */\n      revert\n        /* \"#utility.yul\":3092:3209   */\n    tag_132:\n        /* \"#utility.yul\":3201:3202   */\n      0x00\n        /* \"#utility.yul\":3198:3199   */\n      dup1\n        /* \"#utility.yul\":3191:3203   */\n      revert\n        /* \"#utility.yul\":3215:3522   */\n    tag_133:\n        /* \"#utility.yul\":3276:3280   */\n      0x00\n        /* \"#utility.yul\":3366:3384   */\n      0xffffffffffffffff\n        /* \"#utility.yul\":3358:3364   */\n      dup3\n        /* \"#utility.yul\":3355:3385   */\n      gt\n        /* \"#utility.yul\":3352:3408   */\n      iszero\n      tag_183\n      jumpi\n        /* \"#utility.yul\":3388:3406   */\n      tag_184\n      tag_62\n      jump\t// in\n    tag_184:\n        /* \"#utility.yul\":3352:3408   */\n    tag_183:\n        /* \"#utility.yul\":3426:3455   */\n      tag_185\n        /* \"#utility.yul\":3448:3454   */\n      dup3\n        /* \"#utility.yul\":3426:3455   */\n      tag_127\n      jump\t// in\n    tag_185:\n        /* \"#utility.yul\":3418:3455   */\n      swap1\n      pop\n        /* \"#utility.yul\":3510:3514   */\n      0x20\n        /* \"#utility.yul\":3504:3508   */\n      dup2\n        /* \"#utility.yul\":3500:3515   */\n      add\n        /* \"#utility.yul\":3492:3515   */\n      swap1\n      pop\n        /* \"#utility.yul\":3215:3522   */\n      swap2\n      swap1\n      pop\n      jump\t// out\n        /* \"#utility.yul\":3528:3674   */\n    tag_134:\n        /* \"#utility.yul\":3625:3631   */\n      dup3\n        /* \"#utility.yul\":3620:3623   */\n      dup2\n        /* \"#utility.yul\":3615:3618   */\n      dup4\n        /* \"#utility.yul\":3602:3632   */\n      calldatacopy\n        /* \"#utility.yul\":3666:3667   */\n      0x00\n        /* \"#utility.yul\":3657:3663   */\n      dup4\n        /* \"#utility.yul\":3652:3655   */\n      dup4\n        /* \"#utility.yul\":3648:3664   */\n      add\n        /* \"#utility.yul\":3641:3668   */\n      mstore\n        /* \"#utility.yul\":3528:3674   */\n      pop\n      pop\n      pop\n      jump\t// out\n        /* \"#utility.yul\":3680:4103   */\n    tag_135:\n        /* \"#utility.yul\":3757:3762   */\n      0x00\n        /* \"#utility.yul\":3782:3847   */\n      tag_188\n        /* \"#utility.yul\":3798:3846   */\n      tag_189\n        /* \"#utility.yul\":3839:3845   */\n      dup5\n        /* \"#utility.yul\":3798:3846   */\n      tag_133\n      jump\t// in\n    tag_189:\n        /* \"#utility.yul\":3782:3847   */\n      tag_129\n      jump\t// in\n    tag_188:\n        /* \"#utility.yul\":3773:3847   */\n      swap1\n      pop\n        /* \"#utility.yul\":3870:3876   */\n      dup3\n        /* \"#utility.yul\":3863:3868   */\n      dup2\n        /* \"#utility.yul\":3856:3877   */\n      mstore\n        /* \"#utility.yul\":3908:3912   */\n      0x20\n        /* \"#utility.yul\":3901:3906   */\n      dup2\n        /* \"#utility.yul\":3897:3913   */\n      add\n        /* \"#utility.yul\":3946:3949   */\n      dup5\n        /* \"#utility.yul\":3937:3943   */\n      dup5\n        /* \"#utility.yul\":3932:3935   */\n      dup5\n        /* \"#utility.yul\":3928:3944   */\n      add\n        /* \"#utility.yul\":3925:3950   */\n      gt\n        /* \"#utility.yul\":3922:4034   */\n      iszero\n      tag_190\n      jumpi\n        /* \"#utility.yul\":3953:4032   */\n      tag_191\n      tag_132\n      jump\t// in\n    tag_191:\n        /* \"#utility.yul\":3922:4034   */\n    tag_190:\n        /* \"#utility.yul\":4043:4097   */\n      tag_192\n        /* \"#utility.yul\":4090:4096   */\n      dup5\n        /* \"#utility.yul\":4085:4088   */\n      dup3\n        /* \"#utility.yul\":4080:4083   */\n      dup6\n        /* \"#utility.yul\":4043:4097   */\n      tag_134\n      jump\t// in\n    tag_192:\n        /* \"#utility.yul\":3763:4103   */\n      pop\n        /* \"#utility.yul\":3680:4103   */\n      swap4\n      swap3\n      pop\n      pop\n      pop\n      jump\t// out\n        /* \"#utility.yul\":4122:4460   */\n    tag_136:\n        /* \"#utility.yul\":4177:4182   */\n      0x00\n        /* \"#utility.yul\":4226:4229   */\n      dup3\n        /* \"#utility.yul\":4219:4223   */\n      0x1f\n        /* \"#utility.yul\":4211:4217   */\n      dup4\n        /* \"#utility.yul\":4207:4224   */\n      add\n        /* \"#utility.yul\":4203:4230   */\n      slt\n        /* \"#utility.yul\":4193:4315   */\n      tag_194\n      jumpi\n        /* \"#utility.yul\":4234:4313   */\n      tag_195\n      tag_126\n      jump\t// in\n    tag_195:\n        /* \"#utility.yul\":4193:4315   */\n    tag_194:\n        /* \"#utility.yul\":4351:4357   */\n      dup2\n        /* \"#utility.yul\":4338:4358   */\n      calldataload\n        /* \"#utility.yul\":4376:4454   */\n      tag_196\n        /* \"#utility.yul\":4450:4453   */\n      dup5\n        /* \"#utility.yul\":4442:4448   */\n      dup3\n        /* \"#utility.yul\":4435:4439   */\n      0x20\n        /* \"#utility.yul\":4427:4433   */\n      dup7\n        /* \"#utility.yul\":4423:4440   */\n      add\n        /* \"#utility.yul\":4376:4454   */\n      tag_135\n      jump\t// in\n    tag_196:\n        /* \"#utility.yul\":4367:4454   */\n      swap2\n      pop\n        /* \"#utility.yul\":4183:4460   */\n      pop\n        /* \"#utility.yul\":4122:4460   */\n      swap3\n      swap2\n      pop\n      pop\n      jump\t// out\n        /* \"#utility.yul\":4481:5423   */\n    tag_137:\n        /* \"#utility.yul\":4586:4591   */\n      0x00\n        /* \"#utility.yul\":4611:4701   */\n      tag_198\n        /* \"#utility.yul\":4627:4700   */\n      tag_199\n        /* \"#utility.yul\":4693:4699   */\n      dup5\n        /* \"#utility.yul\":4627:4700   */\n      tag_130\n      jump\t// in\n    tag_199:\n        /* \"#utility.yul\":4611:4701   */\n      tag_129\n      jump\t// in\n    tag_198:\n        /* \"#utility.yul\":4602:4701   */\n      swap1\n      pop\n        /* \"#utility.yul\":4721:4726   */\n      dup1\n        /* \"#utility.yul\":4750:4756   */\n      dup4\n        /* \"#utility.yul\":4743:4748   */\n      dup3\n        /* \"#utility.yul\":4736:4757   */\n      mstore\n        /* \"#utility.yul\":4784:4788   */\n      0x20\n        /* \"#utility.yul\":4777:4782   */\n      dup3\n        /* \"#utility.yul\":4773:4789   */\n      add\n        /* \"#utility.yul\":4766:4789   */\n      swap1\n      pop\n        /* \"#utility.yul\":4837:4841   */\n      0x20\n        /* \"#utility.yul\":4829:4835   */\n      dup5\n        /* \"#utility.yul\":4825:4842   */\n      mul\n        /* \"#utility.yul\":4817:4823   */\n      dup4\n        /* \"#utility.yul\":4813:4843   */\n      add\n        /* \"#utility.yul\":4866:4869   */\n      dup6\n        /* \"#utility.yul\":4858:4864   */\n      dup2\n        /* \"#utility.yul\":4855:4870   */\n      gt\n        /* \"#utility.yul\":4852:4974   */\n      iszero\n      tag_200\n      jumpi\n        /* \"#utility.yul\":4885:4964   */\n      tag_201\n      tag_131\n      jump\t// in\n    tag_201:\n        /* \"#utility.yul\":4852:4974   */\n    tag_200:\n        /* \"#utility.yul\":5000:5006   */\n      dup4\n        /* \"#utility.yul\":4983:5417   */\n    tag_202:\n        /* \"#utility.yul\":5017:5023   */\n      dup2\n        /* \"#utility.yul\":5012:5015   */\n      dup2\n        /* \"#utility.yul\":5009:5024   */\n      lt\n        /* \"#utility.yul\":4983:5417   */\n      iszero\n      tag_204\n      jumpi\n        /* \"#utility.yul\":5106:5109   */\n      dup1\n        /* \"#utility.yul\":5093:5110   */\n      calldataload\n        /* \"#utility.yul\":5142:5160   */\n      0xffffffffffffffff\n        /* \"#utility.yul\":5129:5140   */\n      dup2\n        /* \"#utility.yul\":5126:5161   */\n      gt\n        /* \"#utility.yul\":5123:5245   */\n      iszero\n      tag_205\n      jumpi\n        /* \"#utility.yul\":5164:5243   */\n      tag_206\n      tag_126\n      jump\t// in\n    tag_206:\n        /* \"#utility.yul\":5123:5245   */\n    tag_205:\n        /* \"#utility.yul\":5288:5299   */\n      dup1\n        /* \"#utility.yul\":5280:5286   */\n      dup7\n        /* \"#utility.yul\":5276:5300   */\n      add\n        /* \"#utility.yul\":5326:5372   */\n      tag_207\n        /* \"#utility.yul\":5368:5371   */\n      dup10\n        /* \"#utility.yul\":5356:5366   */\n      dup3\n        /* \"#utility.yul\":5326:5372   */\n      tag_136\n      jump\t// in\n    tag_207:\n        /* \"#utility.yul\":5321:5324   */\n      dup6\n        /* \"#utility.yul\":5314:5373   */\n      mstore\n        /* \"#utility.yul\":5402:5406   */\n      0x20\n        /* \"#utility.yul\":5397:5400   */\n      dup6\n        /* \"#utility.yul\":5393:5407   */\n      add\n        /* \"#utility.yul\":5386:5407   */\n      swap5\n      pop\n        /* \"#utility.yul\":5059:5417   */\n      pop\n      pop\n        /* \"#utility.yul\":5043:5047   */\n      0x20\n        /* \"#utility.yul\":5038:5041   */\n      dup2\n        /* \"#utility.yul\":5034:5048   */\n      add\n        /* \"#utility.yul\":5027:5048   */\n      swap1\n      pop\n        /* \"#utility.yul\":4983:5417   */\n      jump(tag_202)\n    tag_204:\n        /* \"#utility.yul\":4987:5008   */\n      pop\n        /* \"#utility.yul\":4592:5423   */\n      pop\n      pop\n        /* \"#utility.yul\":4481:5423   */\n      swap4\n      swap3\n      pop\n      pop\n      pop\n      jump\t// out\n        /* \"#utility.yul\":5444:5832   */\n    tag_138:\n        /* \"#utility.yul\":5524:5529   */\n      0x00\n        /* \"#utility.yul\":5573:5576   */\n      dup3\n        /* \"#utility.yul\":5566:5570   */\n      0x1f\n        /* \"#utility.yul\":5558:5564   */\n      dup4\n        /* \"#utility.yul\":5554:5571   */\n      add\n        /* \"#utility.yul\":5550:5577   */\n      slt\n        /* \"#utility.yul\":5540:5662   */\n      tag_209\n      jumpi\n        /* \"#utility.yul\":5581:5660   */\n      tag_210\n      tag_126\n      jump\t// in\n    tag_210:\n        /* \"#utility.yul\":5540:5662   */\n    tag_209:\n        /* \"#utility.yul\":5698:5704   */\n      dup2\n        /* \"#utility.yul\":5685:5705   */\n      calldataload\n        /* \"#utility.yul\":5723:5826   */\n      tag_211\n        /* \"#utility.yul\":5822:5825   */\n      dup5\n        /* \"#utility.yul\":5814:5820   */\n      dup3\n        /* \"#utility.yul\":5807:5811   */\n      0x20\n        /* \"#utility.yul\":5799:5805   */\n      dup7\n        /* \"#utility.yul\":5795:5812   */\n      add\n        /* \"#utility.yul\":5723:5826   */\n      tag_137\n      jump\t// in\n    tag_211:\n        /* \"#utility.yul\":5714:5826   */\n      swap2\n      pop\n        /* \"#utility.yul\":5530:5832   */\n      pop\n        /* \"#utility.yul\":5444:5832   */\n      swap3\n      swap2\n      pop\n      pop\n      jump\t// out\n        /* \"#utility.yul\":5838:6395   */\n    tag_27:\n        /* \"#utility.yul\":5931:5937   */\n      0x00\n        /* \"#utility.yul\":5980:5982   */\n      0x20\n        /* \"#utility.yul\":5968:5977   */\n      dup3\n        /* \"#utility.yul\":5959:5966   */\n      dup5\n        /* \"#utility.yul\":5955:5978   */\n      sub\n        /* \"#utility.yul\":5951:5983   */\n      slt\n        /* \"#utility.yul\":5948:6067   */\n      iszero\n      tag_213\n      jumpi\n        /* \"#utility.yul\":5986:6065   */\n      tag_214\n      tag_118\n      jump\t// in\n    tag_214:\n        /* \"#utility.yul\":5948:6067   */\n    tag_213:\n        /* \"#utility.yul\":6134:6135   */\n      0x00\n        /* \"#utility.yul\":6123:6132   */\n      dup3\n        /* \"#utility.yul\":6119:6136   */\n      add\n        /* \"#utility.yul\":6106:6137   */\n      calldataload\n        /* \"#utility.yul\":6164:6182   */\n      0xffffffffffffffff\n        /* \"#utility.yul\":6156:6162   */\n      dup2\n        /* \"#utility.yul\":6153:6183   */\n      gt\n        /* \"#utility.yul\":6150:6267   */\n      iszero\n      tag_215\n      jumpi\n        /* \"#utility.yul\":6186:6265   */\n      tag_216\n      tag_119\n      jump\t// in\n    tag_216:\n        /* \"#utility.yul\":6150:6267   */\n    tag_215:\n        /* \"#utility.yul\":6291:6378   */\n      tag_217\n        /* \"#utility.yul\":6370:6377   */\n      dup5\n        /* \"#utility.yul\":6361:6367   */\n      dup3\n        /* \"#utility.yul\":6350:6359   */\n      dup6\n        /* \"#utility.yul\":6346:6368   */\n      add\n        /* \"#utility.yul\":6291:6378   */\n      tag_138\n      jump\t// in\n    tag_217:\n        /* \"#utility.yul\":6281:6378   */\n      swap2\n      pop\n        /* \"#utility.yul\":6077:6388   */\n      pop\n        /* \"#utility.yul\":5838:6395   */\n      swap3\n      swap2\n      pop\n      pop\n      jump\t// out\n        /* \"#utility.yul\":6401:6581   */\n    tag_39:\n        /* \"#utility.yul\":6449:6526   */\n      0x4e487b7100000000000000000000000000000000000000000000000000000000\n        /* \"#utility.yul\":6446:6447   */\n      0x00\n        /* \"#utility.yul\":6439:6527   */\n      mstore\n        /* \"#utility.yul\":6546:6550   */\n      0x32\n        /* \"#utility.yul\":6543:6544   */\n      0x04\n        /* \"#utility.yul\":6536:6551   */\n      mstore\n        /* \"#utility.yul\":6570:6574   */\n      0x24\n        /* \"#utility.yul\":6567:6568   */\n      0x00\n        /* \"#utility.yul\":6560:6575   */\n      revert\n        /* \"#utility.yul\":6587:6767   */\n    tag_139:\n        /* \"#utility.yul\":6635:6712   */\n      0x4e487b7100000000000000000000000000000000000000000000000000000000\n        /* \"#utility.yul\":6632:6633   */\n      0x00\n        /* \"#utility.yul\":6625:6713   */\n      mstore\n        /* \"#utility.yul\":6732:6736   */\n      0x11\n        /* \"#utility.yul\":6729:6730   */\n      0x04\n        /* \"#utility.yul\":6722:6737   */\n      mstore\n        /* \"#utility.yul\":6756:6760   */\n      0x24\n        /* \"#utility.yul\":6753:6754   */\n      0x00\n        /* \"#utility.yul\":6746:6761   */\n      revert\n        /* \"#utility.yul\":6773:7006   */\n    tag_55:\n        /* \"#utility.yul\":6812:6815   */\n      0x00\n        /* \"#utility.yul\":6835:6859   */\n      tag_221\n        /* \"#utility.yul\":6853:6858   */\n      dup3\n        /* \"#utility.yul\":6835:6859   */\n      tag_120\n      jump\t// in\n    tag_221:\n        /* \"#utility.yul\":6826:6859   */\n      swap2\n      pop\n        /* \"#utility.yul\":6881:6947   */\n      0xffffffffffffffffffffffffffffffffffffffffffffffffffffffffffffffff\n        /* \"#utility.yul\":6874:6879   */\n      dup3\n        /* \"#utility.yul\":6871:6948   */\n      sub\n        /* \"#utility.yul\":6868:6971   */\n      tag_222\n      jumpi\n        /* \"#utility.yul\":6951:6969   */\n      tag_223\n      tag_139\n      jump\t// in\n    tag_223:\n        /* \"#utility.yul\":6868:6971   */\n    tag_222:\n        /* \"#utility.yul\":6998:6999   */\n      0x01\n        /* \"#utility.yul\":6991:6996   */\n      dup3\n        /* \"#utility.yul\":6987:7000   */\n      add\n        /* \"#utility.yul\":6980:7000   */\n      swap1\n      pop\n        /* \"#utility.yul\":6773:7006   */\n      swap2\n      swap1\n      pop\n      jump\t// out\n        /* \"#utility.yul\":7012:7192   */\n    tag_140:\n        /* \"#utility.yul\":7060:7137   */\n      0x4e487b7100000000000000000000000000000000000000000000000000000000\n        /* \"#utility.yul\":7057:7058   */\n      0x00\n        /* \"#utility.yul\":7050:7138   */\n      mstore\n        /* \"#utility.yul\":7157:7161   */\n      0x12\n        /* \"#utility.yul\":7154:7155   */\n      0x04\n        /* \"#utility.yul\":7147:7162   */\n      mstore\n        /* \"#utility.yul\":7181:7185   */\n      0x24\n        /* \"#utility.yul\":7178:7179   */\n      0x00\n        /* \"#utility.yul\":7171:7186   */\n      revert\n        /* \"#utility.yul\":7198:7383   */\n    tag_59:\n        /* \"#utility.yul\":7238:7239   */\n      0x00\n        /* \"#utility.yul\":7255:7275   */\n      tag_226\n        /* \"#utility.yul\":7273:7274   */\n      dup3\n        /* \"#utility.yul\":7255:7275   */\n      tag_120\n      jump\t// in\n    tag_226:\n        /* \"#utility.yul\":7250:7275   */\n      swap2\n      pop\n        /* \"#utility.yul\":7289:7309   */\n      tag_227\n        /* \"#utility.yul\":7307:7308   */\n      dup4\n        /* \"#utility.yul\":7289:7309   */\n      tag_120\n      jump\t// in\n    tag_227:\n        /* \"#utility.yul\":7284:7309   */\n      swap3\n      pop\n        /* \"#utility.yul\":7328:7329   */\n      dup3\n        /* \"#utility.yul\":7318:7353   */\n      tag_228\n      jumpi\n        /* \"#utility.yul\":7333:7351   */\n      tag_229\n      tag_140\n      jump\t// in\n    tag_229:\n        /* \"#utility.yul\":7318:7353   */\n    tag_228:\n        /* \"#utility.yul\":7375:7376   */\n      dup3\n        /* \"#utility.yul\":7372:7373   */\n      dup3\n        /* \"#utility.yul\":7368:7377   */\n      div\n        /* \"#utility.yul\":7363:7377   */\n      swap1\n      pop\n        /* \"#utility.yul\":7198:7383   */\n      swap3\n      swap2\n      pop\n      pop\n      jump\t// out\n        /* \"#utility.yul\":7389:7558   */\n    tag_141:\n        /* \"#utility.yul\":7473:7484   */\n      0x00\n        /* \"#utility.yul\":7507:7513   */\n      dup3\n        /* \"#utility.yul\":7502:7505   */\n      dup3\n        /* \"#utility.yul\":7495:7514   */\n      mstore\n        /* \"#utility.yul\":7547:7551   */\n      0x20\n        /* \"#utility.yul\":7542:7545   */\n      dup3\n        /* \"#utility.yul\":7538:7552   */\n      add\n        /* \"#utility.yul\":7523:7552   */\n      swap1\n      pop\n        /* \"#utility.yul\":7389:7558   */\n      swap3\n      swap2\n      pop\n      pop\n      jump\t// out\n        /* \"#utility.yul\":7564:7730   */\n    tag_142:\n        /* \"#utility.yul\":7704:7722   */\n      0x546f6b656e4964206d69736d6174636800000000000000000000000000000000\n        /* \"#utility.yul\":7700:7701   */\n      0x00\n        /* \"#utility.yul\":7692:7698   */\n      dup3\n        /* \"#utility.yul\":7688:7702   */\n      add\n        /* \"#utility.yul\":7681:7723   */\n      mstore\n        /* \"#utility.yul\":7564:7730   */\n      pop\n      jump\t// out\n        /* \"#utility.yul\":7736:8102   */\n    tag_143:\n        /* \"#utility.yul\":7878:7881   */\n      0x00\n        /* \"#utility.yul\":7899:7966   */\n      tag_233\n        /* \"#utility.yul\":7963:7965   */\n      0x10\n        /* \"#utility.yul\":7958:7961   */\n      dup4\n        /* \"#utility.yul\":7899:7966   */\n      tag_141\n      jump\t// in\n    tag_233:\n        /* \"#utility.yul\":7892:7966   */\n      swap2\n      pop\n        /* \"#utility.yul\":7975:8068   */\n      tag_234\n        /* \"#utility.yul\":8064:8067   */\n      dup3\n        /* \"#utility.yul\":7975:8068   */\n      tag_142\n      jump\t// in\n    tag_234:\n        /* \"#utility.yul\":8093:8095   */\n      0x20\n        /* \"#utility.yul\":8088:8091   */\n      dup3\n        /* \"#utility.yul\":8084:8096   */\n      add\n        /* \"#utility.yul\":8077:8096   */\n      swap1\n      pop\n        /* \"#utility.yul\":7736:8102   */\n      swap2\n      swap1\n      pop\n      jump\t// out\n        /* \"#utility.yul\":8108:8527   */\n    tag_107:\n        /* \"#utility.yul\":8274:8278   */\n      0x00\n        /* \"#utility.yul\":8312:8314   */\n      0x20\n        /* \"#utility.yul\":8301:8310   */\n      dup3\n        /* \"#utility.yul\":8297:8315   */\n      add\n        /* \"#utility.yul\":8289:8315   */\n      swap1\n      pop\n        /* \"#utility.yul\":8361:8370   */\n      dup2\n        /* \"#utility.yul\":8355:8359   */\n      dup2\n        /* \"#utility.yul\":8351:8371   */\n      sub\n        /* \"#utility.yul\":8347:8348   */\n      0x00\n        /* \"#utility.yul\":8336:8345   */\n      dup4\n        /* \"#utility.yul\":8332:8349   */\n      add\n        /* \"#utility.yul\":8325:8372   */\n      mstore\n        /* \"#utility.yul\":8389:8520   */\n      tag_236\n        /* \"#utility.yul\":8515:8519   */\n      dup2\n        /* \"#utility.yul\":8389:8520   */\n      tag_143\n      jump\t// in\n    tag_236:\n        /* \"#utility.yul\":8381:8520   */\n      swap1\n      pop\n        /* \"#utility.yul\":8108:8527   */\n      swap2\n      swap1\n      pop\n      jump\t// out\n        /* \"#utility.yul\":8533:8865   */\n    tag_112:\n        /* \"#utility.yul\":8654:8658   */\n      0x00\n        /* \"#utility.yul\":8692:8694   */\n      0x40\n        /* \"#utility.yul\":8681:8690   */\n      dup3\n        /* \"#utility.yul\":8677:8695   */\n      add\n        /* \"#utility.yul\":8669:8695   */\n      swap1\n      pop\n        /* \"#utility.yul\":8705:8776   */\n      tag_238\n        /* \"#utility.yul\":8773:8774   */\n      0x00\n        /* \"#utility.yul\":8762:8771   */\n      dup4\n        /* \"#utility.yul\":8758:8775   */\n      add\n        /* \"#utility.yul\":8749:8755   */\n      dup6\n        /* \"#utility.yul\":8705:8776   */\n      tag_125\n      jump\t// in\n    tag_238:\n        /* \"#utility.yul\":8786:8858   */\n      tag_239\n        /* \"#utility.yul\":8854:8856   */\n      0x20\n        /* \"#utility.yul\":8843:8852   */\n      dup4\n        /* \"#utility.yul\":8839:8857   */\n      add\n        /* \"#utility.yul\":8830:8836   */\n      dup5\n        /* \"#utility.yul\":8786:8858   */\n      tag_125\n      jump\t// in\n    tag_239:\n        /* \"#utility.yul\":8533:8865   */\n      swap4\n      swap3\n      pop\n      pop\n      pop\n      jump\t// out\n\n    auxdata: 0xa2646970667358221220c06b609b72b00ac3eed94b62d9764feaaea095798bdd7f0bd7b675c9fa3dc73264736f6c63430008140033\n}\n",
				"bytecode": {
					"linkReferences": {},
					"object": "608060405234801561000f575f80fd5b50610b948061001d5f395ff3fe608060405234801561000f575f80fd5b5060043610610055575f3560e01c80630a8595b0146100595780637d5261231461008957806384d36eb8146100b95780638f0a4e79146100d7578063cf3845a6146100f3575b5f80fd5b610073600480360381019061006e91906106d6565b610123565b604051610080919061071b565b60405180910390f35b6100a3600480360381019061009e91906106d6565b610140565b6040516100b0919061071b565b60405180910390f35b6100c161015c565b6040516100ce9190610743565b60405180910390f35b6100f160048036038101906100ec91906106d6565b610168565b005b61010d6004803603810190610108919061097a565b610193565b60405161011a9190610743565b60405180910390f35b6001602052805f5260405f205f915054906101000a900460ff1681565b5f602052805f5260405f205f915054906101000a900460ff1681565b6729a2241af62c000081565b60015f808381526020019081526020015f205f6101000a81548160ff02191690831515021790555050565b5f8061019e83610307565b90505f805b82518110156102fc575f808483815181106101c1576101c06109c1565b5b60200260200101515f015181526020019081526020015f205f9054906101000a900460ff16801561022b575060015f848381518110610203576102026109c1565b5b60200260200101516020015181526020019081526020015f205f9054906101000a900460ff16155b156102e9576001805f858481518110610247576102466109c1565b5b60200260200101516020015181526020019081526020015f205f6101000a81548160ff0219169083151502179055506102da83828151811061028c5761028b6109c1565b5b6020026020010151604001518483815181106102ab576102aa6109c1565b5b60200260200101515f01518584815181106102c9576102c86109c1565b5b6020026020010151602001516105ee565b81806102e590610a1b565b9250505b80806102f490610a1b565b9150506101a3565b508092505050919050565b6060600282516103179190610a8f565b67ffffffffffffffff8111156103305761032f610770565b5b60405190808252806020026020018201604052801561036957816020015b61035661065e565b81526020019060019003908161034e5790505b5090505f805b83518110156105e4575f6103a76103a2868481518110610392576103916109c1565b5b60200260200101515f6020610643565b61064c565b90507fddf252ad1be2c89b69c2b068fc378daa952ba7f163c4a11628f55a4df523b3ef81036104b1575f6104006103fb8785815181106103ea576103e96109c1565b5b602002602001015160206014610643565b610652565b90505f61043261042d88868151811061041c5761041b6109c1565b5b602002602001015160406020610643565b610658565b905081868681518110610448576104476109c1565b5b60200260200101516040019073ffffffffffffffffffffffffffffffffffffffff16908173ffffffffffffffffffffffffffffffffffffffff16815250508086868151811061049a576104996109c1565b5b6020026020010151602001818152505050506105d0565b7f4b3711cd7ece062b0828c1b6e08d814a72d4c003383a016c833cbb1b45956e3481036105cf575f6105076105028785815181106104f2576104f16109c1565b5b6020026020010151602080610643565b610658565b90505f610539610534888681518110610523576105226109c1565b5b602002602001015160406020610643565b610658565b90508186868151811061054f5761054e6109c1565b5b60200260200101515f01818152505080868681518110610572576105716109c1565b5b602002602001015160200151146105be576040517f08c379a00000000000000000000000000000000000000000000000000000000081526004016105b590610b19565b60405180910390fd5b84806105c990610a1b565b95505050505b5b5080806105dc90610a1b565b91505061036f565b5080825250919050565b8273ffffffffffffffffffffffffffffffffffffffff167f5ef3bd3c823875bc38df6c327ef163659ef15ff1e9898230df18cc50316a91c18383604051610636929190610b37565b60405180910390a2505050565b60609392505050565b5f919050565b5f919050565b5f919050565b60405180606001604052805f81526020015f81526020015f73ffffffffffffffffffffffffffffffffffffffff1681525090565b5f604051905090565b5f80fd5b5f80fd5b5f819050919050565b6106b5816106a3565b81146106bf575f80fd5b50565b5f813590506106d0816106ac565b92915050565b5f602082840312156106eb576106ea61069b565b5b5f6106f8848285016106c2565b91505092915050565b5f8115159050919050565b61071581610701565b82525050565b5f60208201905061072e5f83018461070c565b92915050565b61073d816106a3565b82525050565b5f6020820190506107565f830184610734565b92915050565b5f80fd5b5f601f19601f8301169050919050565b7f4e487b71000000000000000000000000000000000000000000000000000000005f52604160045260245ffd5b6107a682610760565b810181811067ffffffffffffffff821117156107c5576107c4610770565b5b80604052505050565b5f6107d7610692565b90506107e3828261079d565b919050565b5f67ffffffffffffffff82111561080257610801610770565b5b602082029050602081019050919050565b5f80fd5b5f80fd5b5f67ffffffffffffffff82111561083557610834610770565b5b61083e82610760565b9050602081019050919050565b828183375f83830152505050565b5f61086b6108668461081b565b6107ce565b90508281526020810184848401111561088757610886610817565b5b61089284828561084b565b509392505050565b5f82601f8301126108ae576108ad61075c565b5b81356108be848260208601610859565b91505092915050565b5f6108d96108d4846107e8565b6107ce565b905080838252602082019050602084028301858111156108fc576108fb610813565b5b835b8181101561094357803567ffffffffffffffff8111156109215761092061075c565b5b80860161092e898261089a565b855260208501945050506020810190506108fe565b5050509392505050565b5f82601f8301126109615761096061075c565b5b81356109718482602086016108c7565b91505092915050565b5f6020828403121561098f5761098e61069b565b5b5f82013567ffffffffffffffff8111156109ac576109ab61069f565b5b6109b88482850161094d565b91505092915050565b7f4e487b71000000000000000000000000000000000000000000000000000000005f52603260045260245ffd5b7f4e487b71000000000000000000000000000000000000000000000000000000005f52601160045260245ffd5b5f610a25826106a3565b91507fffffffffffffffffffffffffffffffffffffffffffffffffffffffffffffffff8203610a5757610a566109ee565b5b600182019050919050565b7f4e487b71000000000000000000000000000000000000000000000000000000005f52601260045260245ffd5b5f610a99826106a3565b9150610aa4836106a3565b925082610ab457610ab3610a62565b5b828204905092915050565b5f82825260208201905092915050565b7f546f6b656e4964206d69736d61746368000000000000000000000000000000005f82015250565b5f610b03601083610abf565b9150610b0e82610acf565b602082019050919050565b5f6020820190508181035f830152610b3081610af7565b9050919050565b5f604082019050610b4a5f830185610734565b610b576020830184610734565b939250505056fea2646970667358221220c06b609b72b00ac3eed94b62d9764feaaea095798bdd7f0bd7b675c9fa3dc73264736f6c63430008140033",
					"opcodes": "PUSH1 0x80 PUSH1 0x40 MSTORE CALLVALUE DUP1 ISZERO PUSH2 0xF JUMPI PUSH0 DUP1 REVERT JUMPDEST POP PUSH2 0xB94 DUP1 PUSH2 0x1D PUSH0 CODECOPY PUSH0 RETURN INVALID PUSH1 0x80 PUSH1 0x40 MSTORE CALLVALUE DUP1 ISZERO PUSH2 0xF JUMPI PUSH0 DUP1 REVERT JUMPDEST POP PUSH1 0x4 CALLDATASIZE LT PUSH2 0x55 JUMPI PUSH0 CALLDATALOAD PUSH1 0xE0 SHR DUP1 PUSH4 0xA8595B0 EQ PUSH2 0x59 JUMPI DUP1 PUSH4 0x7D526123 EQ PUSH2 0x89 JUMPI DUP1 PUSH4 0x84D36EB8 EQ PUSH2 0xB9 JUMPI DUP1 PUSH4 0x8F0A4E79 EQ PUSH2 0xD7 JUMPI DUP1 PUSH4 0xCF3845A6 EQ PUSH2 0xF3 JUMPI JUMPDEST PUSH0 DUP1 REVERT JUMPDEST PUSH2 0x73 PUSH1 0x4 DUP1 CALLDATASIZE SUB DUP2 ADD SWAP1 PUSH2 0x6E SWAP2 SWAP1 PUSH2 0x6D6 JUMP JUMPDEST PUSH2 0x123 JUMP JUMPDEST PUSH1 0x40 MLOAD PUSH2 0x80 SWAP2 SWAP1 PUSH2 0x71B JUMP JUMPDEST PUSH1 0x40 MLOAD DUP1 SWAP2 SUB SWAP1 RETURN JUMPDEST PUSH2 0xA3 PUSH1 0x4 DUP1 CALLDATASIZE SUB DUP2 ADD SWAP1 PUSH2 0x9E SWAP2 SWAP1 PUSH2 0x6D6 JUMP JUMPDEST PUSH2 0x140 JUMP JUMPDEST PUSH1 0x40 MLOAD PUSH2 0xB0 SWAP2 SWAP1 PUSH2 0x71B JUMP JUMPDEST PUSH1 0x40 MLOAD DUP1 SWAP2 SUB SWAP1 RETURN JUMPDEST PUSH2 0xC1 PUSH2 0x15C JUMP JUMPDEST PUSH1 0x40 MLOAD PUSH2 0xCE SWAP2 SWAP1 PUSH2 0x743 JUMP JUMPDEST PUSH1 0x40 MLOAD DUP1 SWAP2 SUB SWAP1 RETURN JUMPDEST PUSH2 0xF1 PUSH1 0x4 DUP1 CALLDATASIZE SUB DUP2 ADD SWAP1 PUSH2 0xEC SWAP2 SWAP1 PUSH2 0x6D6 JUMP JUMPDEST PUSH2 0x168 JUMP JUMPDEST STOP JUMPDEST PUSH2 0x10D PUSH1 0x4 DUP1 CALLDATASIZE SUB DUP2 ADD SWAP1 PUSH2 0x108 SWAP2 SWAP1 PUSH2 0x97A JUMP JUMPDEST PUSH2 0x193 JUMP JUMPDEST PUSH1 0x40 MLOAD PUSH2 0x11A SWAP2 SWAP1 PUSH2 0x743 JUMP JUMPDEST PUSH1 0x40 MLOAD DUP1 SWAP2 SUB SWAP1 RETURN JUMPDEST PUSH1 0x1 PUSH1 0x20 MSTORE DUP1 PUSH0 MSTORE PUSH1 0x40 PUSH0 KECCAK256 PUSH0 SWAP2 POP SLOAD SWAP1 PUSH2 0x100 EXP SWAP1 DIV PUSH1 0xFF AND DUP2 JUMP JUMPDEST PUSH0 PUSH1 0x20 MSTORE DUP1 PUSH0 MSTORE PUSH1 0x40 PUSH0 KECCAK256 PUSH0 SWAP2 POP SLOAD SWAP1 PUSH2 0x100 EXP SWAP1 DIV PUSH1 0xFF AND DUP2 JUMP JUMPDEST PUSH8 0x29A2241AF62C0000 DUP2 JUMP JUMPDEST PUSH1 0x1 PUSH0 DUP1 DUP4 DUP2 MSTORE PUSH1 0x20 ADD SWAP1 DUP2 MSTORE PUSH1 0x20 ADD PUSH0 KECCAK256 PUSH0 PUSH2 0x100 EXP DUP2 SLOAD DUP2 PUSH1 0xFF MUL NOT AND SWAP1 DUP4 ISZERO ISZERO MUL OR SWAP1 SSTORE POP POP JUMP JUMPDEST PUSH0 DUP1 PUSH2 0x19E DUP4 PUSH2 0x307 JUMP JUMPDEST SWAP1 POP PUSH0 DUP1 JUMPDEST DUP3 MLOAD DUP2 LT ISZERO PUSH2 0x2FC JUMPI PUSH0 DUP1 DUP5 DUP4 DUP2 MLOAD DUP2 LT PUSH2 0x1C1 JUMPI PUSH2 0x1C0 PUSH2 0x9C1 JUMP JUMPDEST JUMPDEST PUSH1 0x20 MUL PUSH1 0x20 ADD ADD MLOAD PUSH0 ADD MLOAD DUP2 MSTORE PUSH1 0x20 ADD SWAP1 DUP2 MSTORE PUSH1 0x20 ADD PUSH0 KECCAK256 PUSH0 SWAP1 SLOAD SWAP1 PUSH2 0x100 EXP SWAP1 DIV PUSH1 0xFF AND DUP1 ISZERO PUSH2 0x22B JUMPI POP PUSH1 0x1 PUSH0 DUP5 DUP4 DUP2 MLOAD DUP2 LT PUSH2 0x203 JUMPI PUSH2 0x202 PUSH2 0x9C1 JUMP JUMPDEST JUMPDEST PUSH1 0x20 MUL PUSH1 0x20 ADD ADD MLOAD PUSH1 0x20 ADD MLOAD DUP2 MSTORE PUSH1 0x20 ADD SWAP1 DUP2 MSTORE PUSH1 0x20 ADD PUSH0 KECCAK256 PUSH0 SWAP1 SLOAD SWAP1 PUSH2 0x100 EXP SWAP1 DIV PUSH1 0xFF AND ISZERO JUMPDEST ISZERO PUSH2 0x2E9 JUMPI PUSH1 0x1 DUP1 PUSH0 DUP6 DUP5 DUP2 MLOAD DUP2 LT PUSH2 0x247 JUMPI PUSH2 0x246 PUSH2 0x9C1 JUMP JUMPDEST JUMPDEST PUSH1 0x20 MUL PUSH1 0x20 ADD ADD MLOAD PUSH1 0x20 ADD MLOAD DUP2 MSTORE PUSH1 0x20 ADD SWAP1 DUP2 MSTORE PUSH1 0x20 ADD PUSH0 KECCAK256 PUSH0 PUSH2 0x100 EXP DUP2 SLOAD DUP2 PUSH1 0xFF MUL NOT AND SWAP1 DUP4 ISZERO ISZERO MUL OR SWAP1 SSTORE POP PUSH2 0x2DA DUP4 DUP3 DUP2 MLOAD DUP2 LT PUSH2 0x28C JUMPI PUSH2 0x28B PUSH2 0x9C1 JUMP JUMPDEST JUMPDEST PUSH1 0x20 MUL PUSH1 0x20 ADD ADD MLOAD PUSH1 0x40 ADD MLOAD DUP5 DUP4 DUP2 MLOAD DUP2 LT PUSH2 0x2AB JUMPI PUSH2 0x2AA PUSH2 0x9C1 JUMP JUMPDEST JUMPDEST PUSH1 0x20 MUL PUSH1 0x20 ADD ADD MLOAD PUSH0 ADD MLOAD DUP6 DUP5 DUP2 MLOAD DUP2 LT PUSH2 0x2C9 JUMPI PUSH2 0x2C8 PUSH2 0x9C1 JUMP JUMPDEST JUMPDEST PUSH1 0x20 MUL PUSH1 0x20 ADD ADD MLOAD PUSH1 0x20 ADD MLOAD PUSH2 0x5EE JUMP JUMPDEST DUP2 DUP1 PUSH2 0x2E5 SWAP1 PUSH2 0xA1B JUMP JUMPDEST SWAP3 POP POP JUMPDEST DUP1 DUP1 PUSH2 0x2F4 SWAP1 PUSH2 0xA1B JUMP JUMPDEST SWAP2 POP POP PUSH2 0x1A3 JUMP JUMPDEST POP DUP1 SWAP3 POP POP POP SWAP2 SWAP1 POP JUMP JUMPDEST PUSH1 0x60 PUSH1 0x2 DUP3 MLOAD PUSH2 0x317 SWAP2 SWAP1 PUSH2 0xA8F JUMP JUMPDEST PUSH8 0xFFFFFFFFFFFFFFFF DUP2 GT ISZERO PUSH2 0x330 JUMPI PUSH2 0x32F PUSH2 0x770 JUMP JUMPDEST JUMPDEST PUSH1 0x40 MLOAD SWAP1 DUP1 DUP3 MSTORE DUP1 PUSH1 0x20 MUL PUSH1 0x20 ADD DUP3 ADD PUSH1 0x40 MSTORE DUP1 ISZERO PUSH2 0x369 JUMPI DUP2 PUSH1 0x20 ADD JUMPDEST PUSH2 0x356 PUSH2 0x65E JUMP JUMPDEST DUP2 MSTORE PUSH1 0x20 ADD SWAP1 PUSH1 0x1 SWAP1 SUB SWAP1 DUP2 PUSH2 0x34E JUMPI SWAP1 POP JUMPDEST POP SWAP1 POP PUSH0 DUP1 JUMPDEST DUP4 MLOAD DUP2 LT ISZERO PUSH2 0x5E4 JUMPI PUSH0 PUSH2 0x3A7 PUSH2 0x3A2 DUP7 DUP5 DUP2 MLOAD DUP2 LT PUSH2 0x392 JUMPI PUSH2 0x391 PUSH2 0x9C1 JUMP JUMPDEST JUMPDEST PUSH1 0x20 MUL PUSH1 0x20 ADD ADD MLOAD PUSH0 PUSH1 0x20 PUSH2 0x643 JUMP JUMPDEST PUSH2 0x64C JUMP JUMPDEST SWAP1 POP PUSH32 0xDDF252AD1BE2C89B69C2B068FC378DAA952BA7F163C4A11628F55A4DF523B3EF DUP2 SUB PUSH2 0x4B1 JUMPI PUSH0 PUSH2 0x400 PUSH2 0x3FB DUP8 DUP6 DUP2 MLOAD DUP2 LT PUSH2 0x3EA JUMPI PUSH2 0x3E9 PUSH2 0x9C1 JUMP JUMPDEST JUMPDEST PUSH1 0x20 MUL PUSH1 0x20 ADD ADD MLOAD PUSH1 0x20 PUSH1 0x14 PUSH2 0x643 JUMP JUMPDEST PUSH2 0x652 JUMP JUMPDEST SWAP1 POP PUSH0 PUSH2 0x432 PUSH2 0x42D DUP9 DUP7 DUP2 MLOAD DUP2 LT PUSH2 0x41C JUMPI PUSH2 0x41B PUSH2 0x9C1 JUMP JUMPDEST JUMPDEST PUSH1 0x20 MUL PUSH1 0x20 ADD ADD MLOAD PUSH1 0x40 PUSH1 0x20 PUSH2 0x643 JUMP JUMPDEST PUSH2 0x658 JUMP JUMPDEST SWAP1 POP DUP2 DUP7 DUP7 DUP2 MLOAD DUP2 LT PUSH2 0x448 JUMPI PUSH2 0x447 PUSH2 0x9C1 JUMP JUMPDEST JUMPDEST PUSH1 0x20 MUL PUSH1 0x20 ADD ADD MLOAD PUSH1 0x40 ADD SWAP1 PUSH20 0xFFFFFFFFFFFFFFFFFFFFFFFFFFFFFFFFFFFFFFFF AND SWAP1 DUP2 PUSH20 0xFFFFFFFFFFFFFFFFFFFFFFFFFFFFFFFFFFFFFFFF AND DUP2 MSTORE POP POP DUP1 DUP7 DUP7 DUP2 MLOAD DUP2 LT PUSH2 0x49A JUMPI PUSH2 0x499 PUSH2 0x9C1 JUMP JUMPDEST JUMPDEST PUSH1 0x20 MUL PUSH1 0x20 ADD ADD MLOAD PUSH1 0x20 ADD DUP2 DUP2 MSTORE POP POP POP POP PUSH2 0x5D0 JUMP JUMPDEST PUSH32 0x4B3711CD7ECE062B0828C1B6E08D814A72D4C003383A016C833CBB1B45956E34 DUP2 SUB PUSH2 0x5CF JUMPI PUSH0 PUSH2 0x507 PUSH2 0x502 DUP8 DUP6 DUP2 MLOAD DUP2 LT PUSH2 0x4F2 JUMPI PUSH2 0x4F1 PUSH2 0x9C1 JUMP JUMPDEST JUMPDEST PUSH1 0x20 MUL PUSH1 0x20 ADD ADD MLOAD PUSH1 0x20 DUP1 PUSH2 0x643 JUMP JUMPDEST PUSH2 0x658 JUMP JUMPDEST SWAP1 POP PUSH0 PUSH2 0x539 PUSH2 0x534 DUP9 DUP7 DUP2 MLOAD DUP2 LT PUSH2 0x523 JUMPI PUSH2 0x522 PUSH2 0x9C1 JUMP JUMPDEST JUMPDEST PUSH1 0x20 MUL PUSH1 0x20 ADD ADD MLOAD PUSH1 0x40 PUSH1 0x20 PUSH2 0x643 JUMP JUMPDEST PUSH2 0x658 JUMP JUMPDEST SWAP1 POP DUP2 DUP7 DUP7 DUP2 MLOAD DUP2 LT PUSH2 0x54F JUMPI PUSH2 0x54E PUSH2 0x9C1 JUMP JUMPDEST JUMPDEST PUSH1 0x20 MUL PUSH1 0x20 ADD ADD MLOAD PUSH0 ADD DUP2 DUP2 MSTORE POP POP DUP1 DUP7 DUP7 DUP2 MLOAD DUP2 LT PUSH2 0x572 JUMPI PUSH2 0x571 PUSH2 0x9C1 JUMP JUMPDEST JUMPDEST PUSH1 0x20 MUL PUSH1 0x20 ADD ADD MLOAD PUSH1 0x20 ADD MLOAD EQ PUSH2 0x5BE JUMPI PUSH1 0x40 MLOAD PUSH32 0x8C379A000000000000000000000000000000000000000000000000000000000 DUP2 MSTORE PUSH1 0x4 ADD PUSH2 0x5B5 SWAP1 PUSH2 0xB19 JUMP JUMPDEST PUSH1 0x40 MLOAD DUP1 SWAP2 SUB SWAP1 REVERT JUMPDEST DUP5 DUP1 PUSH2 0x5C9 SWAP1 PUSH2 0xA1B JUMP JUMPDEST SWAP6 POP POP POP POP JUMPDEST JUMPDEST POP DUP1 DUP1 PUSH2 0x5DC SWAP1 PUSH2 0xA1B JUMP JUMPDEST SWAP2 POP POP PUSH2 0x36F JUMP JUMPDEST POP DUP1 DUP3 MSTORE POP SWAP2 SWAP1 POP JUMP JUMPDEST DUP3 PUSH20 0xFFFFFFFFFFFFFFFFFFFFFFFFFFFFFFFFFFFFFFFF AND PUSH32 0x5EF3BD3C823875BC38DF6C327EF163659EF15FF1E9898230DF18CC50316A91C1 DUP4 DUP4 PUSH1 0x40 MLOAD PUSH2 0x636 SWAP3 SWAP2 SWAP1 PUSH2 0xB37 JUMP JUMPDEST PUSH1 0x40 MLOAD DUP1 SWAP2 SUB SWAP1 LOG2 POP POP POP JUMP JUMPDEST PUSH1 0x60 SWAP4 SWAP3 POP POP POP JUMP JUMPDEST PUSH0 SWAP2 SWAP1 POP JUMP JUMPDEST PUSH0 SWAP2 SWAP1 POP JUMP JUMPDEST PUSH0 SWAP2 SWAP1 POP JUMP JUMPDEST PUSH1 0x40 MLOAD DUP1 PUSH1 0x60 ADD PUSH1 0x40 MSTORE DUP1 PUSH0 DUP2 MSTORE PUSH1 0x20 ADD PUSH0 DUP2 MSTORE PUSH1 0x20 ADD PUSH0 PUSH20 0xFFFFFFFFFFFFFFFFFFFFFFFFFFFFFFFFFFFFFFFF AND DUP2 MSTORE POP SWAP1 JUMP JUMPDEST PUSH0 PUSH1 0x40 MLOAD SWAP1 POP SWAP1 JUMP JUMPDEST PUSH0 DUP1 REVERT JUMPDEST PUSH0 DUP1 REVERT JUMPDEST PUSH0 DUP2 SWAP1 POP SWAP2 SWAP1 POP JUMP JUMPDEST PUSH2 0x6B5 DUP2 PUSH2 0x6A3 JUMP JUMPDEST DUP2 EQ PUSH2 0x6BF JUMPI PUSH0 DUP1 REVERT JUMPDEST POP JUMP JUMPDEST PUSH0 DUP2 CALLDATALOAD SWAP1 POP PUSH2 0x6D0 DUP2 PUSH2 0x6AC JUMP JUMPDEST SWAP3 SWAP2 POP POP JUMP JUMPDEST PUSH0 PUSH1 0x20 DUP3 DUP5 SUB SLT ISZERO PUSH2 0x6EB JUMPI PUSH2 0x6EA PUSH2 0x69B JUMP JUMPDEST JUMPDEST PUSH0 PUSH2 0x6F8 DUP5 DUP3 DUP6 ADD PUSH2 0x6C2 JUMP JUMPDEST SWAP2 POP POP SWAP3 SWAP2 POP POP JUMP JUMPDEST PUSH0 DUP2 ISZERO ISZERO SWAP1 POP SWAP2 SWAP1 POP JUMP JUMPDEST PUSH2 0x715 DUP2 PUSH2 0x701 JUMP JUMPDEST DUP3 MSTORE POP POP JUMP JUMPDEST PUSH0 PUSH1 0x20 DUP3 ADD SWAP1 POP PUSH2 0x72E PUSH0 DUP4 ADD DUP5 PUSH2 0x70C JUMP JUMPDEST SWAP3 SWAP2 POP POP JUMP JUMPDEST PUSH2 0x73D DUP2 PUSH2 0x6A3 JUMP JUMPDEST DUP3 MSTORE POP POP JUMP JUMPDEST PUSH0 PUSH1 0x20 DUP3 ADD SWAP1 POP PUSH2 0x756 PUSH0 DUP4 ADD DUP5 PUSH2 0x734 JUMP JUMPDEST SWAP3 SWAP2 POP POP JUMP JUMPDEST PUSH0 DUP1 REVERT JUMPDEST PUSH0 PUSH1 0x1F NOT PUSH1 0x1F DUP4 ADD AND SWAP1 POP SWAP2 SWAP1 POP JUMP JUMPDEST PUSH32 0x4E487B7100000000000000000000000000000000000000000000000000000000 PUSH0 MSTORE PUSH1 0x41 PUSH1 0x4 MSTORE PUSH1 0x24 PUSH0 REVERT JUMPDEST PUSH2 0x7A6 DUP3 PUSH2 0x760 JUMP JUMPDEST DUP2 ADD DUP2 DUP2 LT PUSH8 0xFFFFFFFFFFFFFFFF DUP3 GT OR ISZERO PUSH2 0x7C5 JUMPI PUSH2 0x7C4 PUSH2 0x770 JUMP JUMPDEST JUMPDEST DUP1 PUSH1 0x40 MSTORE POP POP POP JUMP JUMPDEST PUSH0 PUSH2 0x7D7 PUSH2 0x692 JUMP JUMPDEST SWAP1 POP PUSH2 0x7E3 DUP3 DUP3 PUSH2 0x79D JUMP JUMPDEST SWAP2 SWAP1 POP JUMP JUMPDEST PUSH0 PUSH8 0xFFFFFFFFFFFFFFFF DUP3 GT ISZERO PUSH2 0x802 JUMPI PUSH2 0x801 PUSH2 0x770 JUMP JUMPDEST JUMPDEST PUSH1 0x20 DUP3 MUL SWAP1 POP PUSH1 0x20 DUP2 ADD SWAP1 POP SWAP2 SWAP1 POP JUMP JUMPDEST PUSH0 DUP1 REVERT JUMPDEST PUSH0 DUP1 REVERT JUMPDEST PUSH0 PUSH8 0xFFFFFFFFFFFFFFFF DUP3 GT ISZERO PUSH2 0x835 JUMPI PUSH2 0x834 PUSH2 0x770 JUMP JUMPDEST JUMPDEST PUSH2 0x83E DUP3 PUSH2 0x760 JUMP JUMPDEST SWAP1 POP PUSH1 0x20 DUP2 ADD SWAP1 POP SWAP2 SWAP1 POP JUMP JUMPDEST DUP3 DUP2 DUP4 CALLDATACOPY PUSH0 DUP4 DUP4 ADD MSTORE POP POP POP JUMP JUMPDEST PUSH0 PUSH2 0x86B PUSH2 0x866 DUP5 PUSH2 0x81B JUMP JUMPDEST PUSH2 0x7CE JUMP JUMPDEST SWAP1 POP DUP3 DUP2 MSTORE PUSH1 0x20 DUP2 ADD DUP5 DUP5 DUP5 ADD GT ISZERO PUSH2 0x887 JUMPI PUSH2 0x886 PUSH2 0x817 JUMP JUMPDEST JUMPDEST PUSH2 0x892 DUP5 DUP3 DUP6 PUSH2 0x84B JUMP JUMPDEST POP SWAP4 SWAP3 POP POP POP JUMP JUMPDEST PUSH0 DUP3 PUSH1 0x1F DUP4 ADD SLT PUSH2 0x8AE JUMPI PUSH2 0x8AD PUSH2 0x75C JUMP JUMPDEST JUMPDEST DUP2 CALLDATALOAD PUSH2 0x8BE DUP5 DUP3 PUSH1 0x20 DUP7 ADD PUSH2 0x859 JUMP JUMPDEST SWAP2 POP POP SWAP3 SWAP2 POP POP JUMP JUMPDEST PUSH0 PUSH2 0x8D9 PUSH2 0x8D4 DUP5 PUSH2 0x7E8 JUMP JUMPDEST PUSH2 0x7CE JUMP JUMPDEST SWAP1 POP DUP1 DUP4 DUP3 MSTORE PUSH1 0x20 DUP3 ADD SWAP1 POP PUSH1 0x20 DUP5 MUL DUP4 ADD DUP6 DUP2 GT ISZERO PUSH2 0x8FC JUMPI PUSH2 0x8FB PUSH2 0x813 JUMP JUMPDEST JUMPDEST DUP4 JUMPDEST DUP2 DUP2 LT ISZERO PUSH2 0x943 JUMPI DUP1 CALLDATALOAD PUSH8 0xFFFFFFFFFFFFFFFF DUP2 GT ISZERO PUSH2 0x921 JUMPI PUSH2 0x920 PUSH2 0x75C JUMP JUMPDEST JUMPDEST DUP1 DUP7 ADD PUSH2 0x92E DUP10 DUP3 PUSH2 0x89A JUMP JUMPDEST DUP6 MSTORE PUSH1 0x20 DUP6 ADD SWAP5 POP POP POP PUSH1 0x20 DUP2 ADD SWAP1 POP PUSH2 0x8FE JUMP JUMPDEST POP POP POP SWAP4 SWAP3 POP POP POP JUMP JUMPDEST PUSH0 DUP3 PUSH1 0x1F DUP4 ADD SLT PUSH2 0x961 JUMPI PUSH2 0x960 PUSH2 0x75C JUMP JUMPDEST JUMPDEST DUP2 CALLDATALOAD PUSH2 0x971 DUP5 DUP3 PUSH1 0x20 DUP7 ADD PUSH2 0x8C7 JUMP JUMPDEST SWAP2 POP POP SWAP3 SWAP2 POP POP JUMP JUMPDEST PUSH0 PUSH1 0x20 DUP3 DUP5 SUB SLT ISZERO PUSH2 0x98F JUMPI PUSH2 0x98E PUSH2 0x69B JUMP JUMPDEST JUMPDEST PUSH0 DUP3 ADD CALLDATALOAD PUSH8 0xFFFFFFFFFFFFFFFF DUP2 GT ISZERO PUSH2 0x9AC JUMPI PUSH2 0x9AB PUSH2 0x69F JUMP JUMPDEST JUMPDEST PUSH2 0x9B8 DUP5 DUP3 DUP6 ADD PUSH2 0x94D JUMP JUMPDEST SWAP2 POP POP SWAP3 SWAP2 POP POP JUMP JUMPDEST PUSH32 0x4E487B7100000000000000000000000000000000000000000000000000000000 PUSH0 MSTORE PUSH1 0x32 PUSH1 0x4 MSTORE PUSH1 0x24 PUSH0 REVERT JUMPDEST PUSH32 0x4E487B7100000000000000000000000000000000000000000000000000000000 PUSH0 MSTORE PUSH1 0x11 PUSH1 0x4 MSTORE PUSH1 0x24 PUSH0 REVERT JUMPDEST PUSH0 PUSH2 0xA25 DUP3 PUSH2 0x6A3 JUMP JUMPDEST SWAP2 POP PUSH32 0xFFFFFFFFFFFFFFFFFFFFFFFFFFFFFFFFFFFFFFFFFFFFFFFFFFFFFFFFFFFFFFFF DUP3 SUB PUSH2 0xA57 JUMPI PUSH2 0xA56 PUSH2 0x9EE JUMP JUMPDEST JUMPDEST PUSH1 0x1 DUP3 ADD SWAP1 POP SWAP2 SWAP1 POP JUMP JUMPDEST PUSH32 0x4E487B7100000000000000000000000000000000000000000000000000000000 PUSH0 MSTORE PUSH1 0x12 PUSH1 0x4 MSTORE PUSH1 0x24 PUSH0 REVERT JUMPDEST PUSH0 PUSH2 0xA99 DUP3 PUSH2 0x6A3 JUMP JUMPDEST SWAP2 POP PUSH2 0xAA4 DUP4 PUSH2 0x6A3 JUMP JUMPDEST SWAP3 POP DUP3 PUSH2 0xAB4 JUMPI PUSH2 0xAB3 PUSH2 0xA62 JUMP JUMPDEST JUMPDEST DUP3 DUP3 DIV SWAP1 POP SWAP3 SWAP2 POP POP JUMP JUMPDEST PUSH0 DUP3 DUP3 MSTORE PUSH1 0x20 DUP3 ADD SWAP1 POP SWAP3 SWAP2 POP POP JUMP JUMPDEST PUSH32 0x546F6B656E4964206D69736D6174636800000000000000000000000000000000 PUSH0 DUP3 ADD MSTORE POP JUMP JUMPDEST PUSH0 PUSH2 0xB03 PUSH1 0x10 DUP4 PUSH2 0xABF JUMP JUMPDEST SWAP2 POP PUSH2 0xB0E DUP3 PUSH2 0xACF JUMP JUMPDEST PUSH1 0x20 DUP3 ADD SWAP1 POP SWAP2 SWAP1 POP JUMP JUMPDEST PUSH0 PUSH1 0x20 DUP3 ADD SWAP1 POP DUP2 DUP2 SUB PUSH0 DUP4 ADD MSTORE PUSH2 0xB30 DUP2 PUSH2 0xAF7 JUMP JUMPDEST SWAP1 POP SWAP2 SWAP1 POP JUMP JUMPDEST PUSH0 PUSH1 0x40 DUP3 ADD SWAP1 POP PUSH2 0xB4A PUSH0 DUP4 ADD DUP6 PUSH2 0x734 JUMP JUMPDEST PUSH2 0xB57 PUSH1 0x20 DUP4 ADD DUP5 PUSH2 0x734 JUMP JUMPDEST SWAP4 SWAP3 POP POP POP JUMP INVALID LOG2 PUSH5 0x6970667358 0x22 SLT KECCAK256 0xC0 PUSH12 0x609B72B00AC3EED94B62D976 0x4F 0xEA 0xAE LOG0 SWAP6 PUSH26 0x8BDD7F0BD7B675C9FA3DC73264736F6C63430008140033000000 "
				},
				"gasEstimates": {
					"creation": {
						"codeDepositCost": "592800",
						"executionCost": "623",
						"totalCost": "593423"
					},
					"external": {
						"TOKENS_PER_POAP()": "347",
						"processEvents(bytes[])": "infinite",
						"processedTokenIds(uint256)": "2763",
						"whitelistEventId(uint256)": "24787",
						"whitelistedEventIds(uint256)": "2784"
					},
					"internal": {
						"bytesToAddress(bytes memory)": "19",
						"bytesToBytes32(bytes memory)": "19",
						"bytesToUint256(bytes memory)": "19",
						"decodeEventLogs(bytes memory[] memory)": "infinite",
						"handleTargetEvent(address,uint256,uint256)": "infinite",
						"slice(bytes memory,uint256,uint256)": "24"
					}
				},
				"methodIdentifiers": {
					"TOKENS_PER_POAP()": "84d36eb8",
					"processEvents(bytes[])": "cf3845a6",
					"processedTokenIds(uint256)": "0a8595b0",
					"whitelistEventId(uint256)": "8f0a4e79",
					"whitelistedEventIds(uint256)": "7d526123"
				}
			},
			"storageLayout": {
				"storage": [
					{
						"astId": 5,
						"contract": "contracts/EventListenerBasic.sol:EventListenerBase",
						"label": "whitelistedEventIds",
						"offset": 0,
						"slot": "0",
						"type": "t_mapping(t_uint256,t_bool)"
					},
					{
						"astId": 9,
						"contract": "contracts/EventListenerBasic.sol:EventListenerBase",
						"label": "processedTokenIds",
						"offset": 0,
						"slot": "1",
						"type": "t_mapping(t_uint256,t_bool)"
					}
				],
				"types": {
					"t_bool": {
						"encoding": "inplace",
						"label": "bool",
						"numberOfBytes": "1"
					},
					"t_mapping(t_uint256,t_bool)": {
						"encoding": "mapping",
						"key": "t_uint256",
						"label": "mapping(uint256 => bool)",
						"numberOfBytes": "32",
						"value": "t_bool"
					},
					"t_uint256": {
						"encoding": "inplace",
						"label": "uint256",
						"numberOfBytes": "32"
					}
				}
			},
			"userdoc": {
				"kind": "user",
				"methods": {},
				"version": 1
			}
		}
	}
}