{
	"data": {
		"bytecode": {
			"linkReferences": {},
			"object": "608060405234801561000f575f80fd5b506114228061001d5f395ff3fe608060405234801561000f575f80fd5b5060043610610055575f3560e01c80630a8595b0146100595780637d5261231461008957806384d36eb8146100b95780638f0a4e79146100d7578063cf3845a6146100f3575b5f80fd5b610073600480360381019061006e9190610ba1565b610123565b6040516100809190610be6565b60405180910390f35b6100a3600480360381019061009e9190610ba1565b610140565b6040516100b09190610be6565b60405180910390f35b6100c161015c565b6040516100ce9190610c0e565b60405180910390f35b6100f160048036038101906100ec9190610ba1565b610168565b005b61010d60048036038101906101089190610e45565b610193565b60405161011a9190610c0e565b60405180910390f35b6001602052805f5260405f205f915054906101000a900460ff1681565b5f602052805f5260405f205f915054906101000a900460ff1681565b6729a2241af62c000081565b60015f808381526020019081526020015f205f6101000a81548160ff02191690831515021790555050565b5f8061019e83610307565b90505f805b82518110156102fc575f808483815181106101c1576101c0610e8c565b5b60200260200101515f015181526020019081526020015f205f9054906101000a900460ff16801561022b575060015f84838151811061020357610202610e8c565b5b60200260200101516020015181526020019081526020015f205f9054906101000a900460ff16155b156102e9576001805f85848151811061024757610246610e8c565b5b60200260200101516020015181526020019081526020015f205f6101000a81548160ff0219169083151502179055506102da83828151811061028c5761028b610e8c565b5b6020026020010151604001518483815181106102ab576102aa610e8c565b5b60200260200101515f01518584815181106102c9576102c8610e8c565b5b602002602001015160200151610894565b81806102e590610ee6565b9250505b80806102f490610ee6565b9150506101a3565b508092505050919050565b6060600282516103179190610f5a565b67ffffffffffffffff8111156103305761032f610c3b565b5b60405190808252806020026020018201604052801561036957816020015b610356610b29565b81526020019060019003908161034e5790505b5090505f805b835181101561088a577f4be5e2ddd7b814bfc07153581bbbda6ea3d62d61c270f9788cae2f0297e18ae86040516103a590610fe4565b60405180910390a17ff5a31e45aa6e3bc75ac2e5e33dbc4489cbfa724457b6310c6f7072a2e999a60c8482815181106103e1576103e0610e8c565b5b60200260200101516040516103f6919061107c565b60405180910390a15f61042d61042886848151811061041857610417610e8c565b5b60200260200101515f60206108e9565b6109a7565b90505f610439826109b9565b90507fda205e581598a3b14ea3ace5e7feb479dc34ec1b8de973fcea5b4ac61088007a8160405161046a91906110de565b60405180910390a17fddf252ad1be2c89b69c2b068fc378daa952ba7f163c4a11628f55a4df523b3ef820361061d577f4be5e2ddd7b814bfc07153581bbbda6ea3d62d61c270f9788cae2f0297e18ae86040516104c690611148565b60405180910390a15f6104fe6104f98886815181106104e8576104e7610e8c565b5b6020026020010151602060146108e9565b610b05565b90505f61053061052b89878151811061051a57610519610e8c565b5b6020026020010151604060206108e9565b610b17565b90507ffe2ff74a033d9c7a27917ee6dbf73ba49631d2cc56c8a906cdb38f7dab7aacb08260405161056191906111a5565b60405180910390a17f4ddb9aa59cdc255c966992729b4b5aa3a0d737e47b6a24f59358562631fa7ee6816040516105989190610c0e565b60405180910390a1818787815181106105b4576105b3610e8c565b5b60200260200101516040019073ffffffffffffffffffffffffffffffffffffffff16908173ffffffffffffffffffffffffffffffffffffffff16815250508087878151811061060657610605610e8c565b5b602002602001015160200181815250505050610875565b7f4b3711cd7ece062b0828c1b6e08d814a72d4c003383a016c833cbb1b45956e3482036107e2577f4be5e2ddd7b814bfc07153581bbbda6ea3d62d61c270f9788cae2f0297e18ae860405161067190611208565b60405180910390a15f6106a86106a388868151811061069357610692610e8c565b5b60200260200101516020806108e9565b610b17565b90505f6106da6106d58987815181106106c4576106c3610e8c565b5b6020026020010151604060206108e9565b610b17565b90507f4ddb9aa59cdc255c966992729b4b5aa3a0d737e47b6a24f59358562631fa7ee68260405161070b9190610c0e565b60405180910390a17f4ddb9aa59cdc255c966992729b4b5aa3a0d737e47b6a24f59358562631fa7ee6816040516107429190610c0e565b60405180910390a18187878151811061075e5761075d610e8c565b5b60200260200101515f0181815250508087878151811061078157610780610e8c565b5b602002602001015160200151146107cd576040517f08c379a00000000000000000000000000000000000000000000000000000000081526004016107c490611270565b60405180910390fd5b85806107d890610ee6565b9650505050610874565b7f4be5e2ddd7b814bfc07153581bbbda6ea3d62d61c270f9788cae2f0297e18ae860405161080f906112d8565b60405180910390a17f964a3111d3ac42c11f109e9480c0db7032a5153188e73bdd9690ff96afee942561085e87858151811061084e5761084d610e8c565b5b60200260200101515f60206108e9565b60405161086b919061107c565b60405180910390a15b5b5050808061088290610ee6565b91505061036f565b5080825250919050565b8273ffffffffffffffffffffffffffffffffffffffff167f5ef3bd3c823875bc38df6c327ef163659ef15ff1e9898230df18cc50316a91c183836040516108dc9291906112f6565b60405180910390a2505050565b606081836108f7919061131d565b8451101561093a576040517f08c379a00000000000000000000000000000000000000000000000000000000081526004016109319061139a565b60405180910390fd5b606082155f81146109595760405191505f82526020820160405261099b565b6040519150602082018481018660208901015b81831015610989578051835260208301925060208101905061096c565b50858452601f19601f83011660405250505b50809150509392505050565b5f806020830151905080915050919050565b60605f5b60208160ff16108015610a0e57505f60f81b838260ff16602081106109e5576109e4610e8c565b5b1a60f81b7effffffffffffffffffffffffffffffffffffffffffffffffffffffffffffff191614155b15610a26578080610a1e906113c4565b9150506109bd565b5f8160ff1667ffffffffffffffff811115610a4457610a43610c3b565b5b6040519080825280601f01601f191660200182016040528015610a765781602001600182028036833780820191505090505b5090505f5b8260ff168160ff161015610afa57848160ff1660208110610a9f57610a9e610e8c565b5b1a60f81b828260ff1681518110610ab957610ab8610e8c565b5b60200101907effffffffffffffffffffffffffffffffffffffffffffffffffffffffffffff191690815f1a9053508080610af2906113c4565b915050610a7b565b508092505050919050565b5f806014830151905080915050919050565b5f806020830151905080915050919050565b60405180606001604052805f81526020015f81526020015f73ffffffffffffffffffffffffffffffffffffffff1681525090565b5f604051905090565b5f80fd5b5f80fd5b5f819050919050565b610b8081610b6e565b8114610b8a575f80fd5b50565b5f81359050610b9b81610b77565b92915050565b5f60208284031215610bb657610bb5610b66565b5b5f610bc384828501610b8d565b91505092915050565b5f8115159050919050565b610be081610bcc565b82525050565b5f602082019050610bf95f830184610bd7565b92915050565b610c0881610b6e565b82525050565b5f602082019050610c215f830184610bff565b92915050565b5f80fd5b5f601f19601f8301169050919050565b7f4e487b71000000000000000000000000000000000000000000000000000000005f52604160045260245ffd5b610c7182610c2b565b810181811067ffffffffffffffff82111715610c9057610c8f610c3b565b5b80604052505050565b5f610ca2610b5d565b9050610cae8282610c68565b919050565b5f67ffffffffffffffff821115610ccd57610ccc610c3b565b5b602082029050602081019050919050565b5f80fd5b5f80fd5b5f67ffffffffffffffff821115610d0057610cff610c3b565b5b610d0982610c2b565b9050602081019050919050565b828183375f83830152505050565b5f610d36610d3184610ce6565b610c99565b905082815260208101848484011115610d5257610d51610ce2565b5b610d5d848285610d16565b509392505050565b5f82601f830112610d7957610d78610c27565b5b8135610d89848260208601610d24565b91505092915050565b5f610da4610d9f84610cb3565b610c99565b90508083825260208201905060208402830185811115610dc757610dc6610cde565b5b835b81811015610e0e57803567ffffffffffffffff811115610dec57610deb610c27565b5b808601610df98982610d65565b85526020850194505050602081019050610dc9565b5050509392505050565b5f82601f830112610e2c57610e2b610c27565b5b8135610e3c848260208601610d92565b91505092915050565b5f60208284031215610e5a57610e59610b66565b5b5f82013567ffffffffffffffff811115610e7757610e76610b6a565b5b610e8384828501610e18565b91505092915050565b7f4e487b71000000000000000000000000000000000000000000000000000000005f52603260045260245ffd5b7f4e487b71000000000000000000000000000000000000000000000000000000005f52601160045260245ffd5b5f610ef082610b6e565b91507fffffffffffffffffffffffffffffffffffffffffffffffffffffffffffffffff8203610f2257610f21610eb9565b5b600182019050919050565b7f4e487b71000000000000000000000000000000000000000000000000000000005f52601260045260245ffd5b5f610f6482610b6e565b9150610f6f83610b6e565b925082610f7f57610f7e610f2d565b5b828204905092915050565b5f82825260208201905092915050565b7f426567696e206465636f64652e2e2e00000000000000000000000000000000005f82015250565b5f610fce600f83610f8a565b9150610fd982610f9a565b602082019050919050565b5f6020820190508181035f830152610ffb81610fc2565b9050919050565b5f81519050919050565b5f82825260208201905092915050565b5f5b8381101561103957808201518184015260208101905061101e565b5f8484015250505050565b5f61104e82611002565b611058818561100c565b935061106881856020860161101c565b61107181610c2b565b840191505092915050565b5f6020820190508181035f8301526110948184611044565b905092915050565b5f81519050919050565b5f6110b08261109c565b6110ba8185610f8a565b93506110ca81856020860161101c565b6110d381610c2b565b840191505092915050565b5f6020820190508181035f8301526110f681846110a6565b905092915050565b7f7472616e73666572206576656e740000000000000000000000000000000000005f82015250565b5f611132600e83610f8a565b915061113d826110fe565b602082019050919050565b5f6020820190508181035f83015261115f81611126565b9050919050565b5f73ffffffffffffffffffffffffffffffffffffffff82169050919050565b5f61118f82611166565b9050919050565b61119f81611185565b82525050565b5f6020820190506111b85f830184611196565b92915050565b7f6576656e74746f6b656e206576656e74000000000000000000000000000000005f82015250565b5f6111f2601083610f8a565b91506111fd826111be565b602082019050919050565b5f6020820190508181035f83015261121f816111e6565b9050919050565b7f546f6b656e4964206d69736d61746368000000000000000000000000000000005f82015250565b5f61125a601083610f8a565b915061126582611226565b602082019050919050565b5f6020820190508181035f8301526112878161124e565b9050919050565b7f6e6f206d61746368696e67206576656e745369676e61747572650000000000005f82015250565b5f6112c2601a83610f8a565b91506112cd8261128e565b602082019050919050565b5f6020820190508181035f8301526112ef816112b6565b9050919050565b5f6040820190506113095f830185610bff565b6113166020830184610bff565b9392505050565b5f61132782610b6e565b915061133283610b6e565b925082820190508082111561134a57611349610eb9565b5b92915050565b7f736c6963655f6f75744f66426f756e64730000000000000000000000000000005f82015250565b5f611384601183610f8a565b915061138f82611350565b602082019050919050565b5f6020820190508181035f8301526113b181611378565b9050919050565b5f60ff82169050919050565b5f6113ce826113b8565b915060ff82036113e1576113e0610eb9565b5b60018201905091905056fea2646970667358221220c5cd113cc7f7df7f61c878796d9810c233066d31b3d20c9794dc7a9efb6b3c3764736f6c63430008140033",
			"opcodes": "PUSH1 0x80 PUSH1 0x40 MSTORE CALLVALUE DUP1 ISZERO PUSH2 0xF JUMPI PUSH0 DUP1 REVERT JUMPDEST POP PUSH2 0x1422 DUP1 PUSH2 0x1D PUSH0 CODECOPY PUSH0 RETURN INVALID PUSH1 0x80 PUSH1 0x40 MSTORE CALLVALUE DUP1 ISZERO PUSH2 0xF JUMPI PUSH0 DUP1 REVERT JUMPDEST POP PUSH1 0x4 CALLDATASIZE LT PUSH2 0x55 JUMPI PUSH0 CALLDATALOAD PUSH1 0xE0 SHR DUP1 PUSH4 0xA8595B0 EQ PUSH2 0x59 JUMPI DUP1 PUSH4 0x7D526123 EQ PUSH2 0x89 JUMPI DUP1 PUSH4 0x84D36EB8 EQ PUSH2 0xB9 JUMPI DUP1 PUSH4 0x8F0A4E79 EQ PUSH2 0xD7 JUMPI DUP1 PUSH4 0xCF3845A6 EQ PUSH2 0xF3 JUMPI JUMPDEST PUSH0 DUP1 REVERT JUMPDEST PUSH2 0x73 PUSH1 0x4 DUP1 CALLDATASIZE SUB DUP2 ADD SWAP1 PUSH2 0x6E SWAP2 SWAP1 PUSH2 0xBA1 JUMP JUMPDEST PUSH2 0x123 JUMP JUMPDEST PUSH1 0x40 MLOAD PUSH2 0x80 SWAP2 SWAP1 PUSH2 0xBE6 JUMP JUMPDEST PUSH1 0x40 MLOAD DUP1 SWAP2 SUB SWAP1 RETURN JUMPDEST PUSH2 0xA3 PUSH1 0x4 DUP1 CALLDATASIZE SUB DUP2 ADD SWAP1 PUSH2 0x9E SWAP2 SWAP1 PUSH2 0xBA1 JUMP JUMPDEST PUSH2 0x140 JUMP JUMPDEST PUSH1 0x40 MLOAD PUSH2 0xB0 SWAP2 SWAP1 PUSH2 0xBE6 JUMP JUMPDEST PUSH1 0x40 MLOAD DUP1 SWAP2 SUB SWAP1 RETURN JUMPDEST PUSH2 0xC1 PUSH2 0x15C JUMP JUMPDEST PUSH1 0x40 MLOAD PUSH2 0xCE SWAP2 SWAP1 PUSH2 0xC0E JUMP JUMPDEST PUSH1 0x40 MLOAD DUP1 SWAP2 SUB SWAP1 RETURN JUMPDEST PUSH2 0xF1 PUSH1 0x4 DUP1 CALLDATASIZE SUB DUP2 ADD SWAP1 PUSH2 0xEC SWAP2 SWAP1 PUSH2 0xBA1 JUMP JUMPDEST PUSH2 0x168 JUMP JUMPDEST STOP JUMPDEST PUSH2 0x10D PUSH1 0x4 DUP1 CALLDATASIZE SUB DUP2 ADD SWAP1 PUSH2 0x108 SWAP2 SWAP1 PUSH2 0xE45 JUMP JUMPDEST PUSH2 0x193 JUMP JUMPDEST PUSH1 0x40 MLOAD PUSH2 0x11A SWAP2 SWAP1 PUSH2 0xC0E JUMP JUMPDEST PUSH1 0x40 MLOAD DUP1 SWAP2 SUB SWAP1 RETURN JUMPDEST PUSH1 0x1 PUSH1 0x20 MSTORE DUP1 PUSH0 MSTORE PUSH1 0x40 PUSH0 KECCAK256 PUSH0 SWAP2 POP SLOAD SWAP1 PUSH2 0x100 EXP SWAP1 DIV PUSH1 0xFF AND DUP2 JUMP JUMPDEST PUSH0 PUSH1 0x20 MSTORE DUP1 PUSH0 MSTORE PUSH1 0x40 PUSH0 KECCAK256 PUSH0 SWAP2 POP SLOAD SWAP1 PUSH2 0x100 EXP SWAP1 DIV PUSH1 0xFF AND DUP2 JUMP JUMPDEST PUSH8 0x29A2241AF62C0000 DUP2 JUMP JUMPDEST PUSH1 0x1 PUSH0 DUP1 DUP4 DUP2 MSTORE PUSH1 0x20 ADD SWAP1 DUP2 MSTORE PUSH1 0x20 ADD PUSH0 KECCAK256 PUSH0 PUSH2 0x100 EXP DUP2 SLOAD DUP2 PUSH1 0xFF MUL NOT AND SWAP1 DUP4 ISZERO ISZERO MUL OR SWAP1 SSTORE POP POP JUMP JUMPDEST PUSH0 DUP1 PUSH2 0x19E DUP4 PUSH2 0x307 JUMP JUMPDEST SWAP1 POP PUSH0 DUP1 JUMPDEST DUP3 MLOAD DUP2 LT ISZERO PUSH2 0x2FC JUMPI PUSH0 DUP1 DUP5 DUP4 DUP2 MLOAD DUP2 LT PUSH2 0x1C1 JUMPI PUSH2 0x1C0 PUSH2 0xE8C JUMP JUMPDEST JUMPDEST PUSH1 0x20 MUL PUSH1 0x20 ADD ADD MLOAD PUSH0 ADD MLOAD DUP2 MSTORE PUSH1 0x20 ADD SWAP1 DUP2 MSTORE PUSH1 0x20 ADD PUSH0 KECCAK256 PUSH0 SWAP1 SLOAD SWAP1 PUSH2 0x100 EXP SWAP1 DIV PUSH1 0xFF AND DUP1 ISZERO PUSH2 0x22B JUMPI POP PUSH1 0x1 PUSH0 DUP5 DUP4 DUP2 MLOAD DUP2 LT PUSH2 0x203 JUMPI PUSH2 0x202 PUSH2 0xE8C JUMP JUMPDEST JUMPDEST PUSH1 0x20 MUL PUSH1 0x20 ADD ADD MLOAD PUSH1 0x20 ADD MLOAD DUP2 MSTORE PUSH1 0x20 ADD SWAP1 DUP2 MSTORE PUSH1 0x20 ADD PUSH0 KECCAK256 PUSH0 SWAP1 SLOAD SWAP1 PUSH2 0x100 EXP SWAP1 DIV PUSH1 0xFF AND ISZERO JUMPDEST ISZERO PUSH2 0x2E9 JUMPI PUSH1 0x1 DUP1 PUSH0 DUP6 DUP5 DUP2 MLOAD DUP2 LT PUSH2 0x247 JUMPI PUSH2 0x246 PUSH2 0xE8C JUMP JUMPDEST JUMPDEST PUSH1 0x20 MUL PUSH1 0x20 ADD ADD MLOAD PUSH1 0x20 ADD MLOAD DUP2 MSTORE PUSH1 0x20 ADD SWAP1 DUP2 MSTORE PUSH1 0x20 ADD PUSH0 KECCAK256 PUSH0 PUSH2 0x100 EXP DUP2 SLOAD DUP2 PUSH1 0xFF MUL NOT AND SWAP1 DUP4 ISZERO ISZERO MUL OR SWAP1 SSTORE POP PUSH2 0x2DA DUP4 DUP3 DUP2 MLOAD DUP2 LT PUSH2 0x28C JUMPI PUSH2 0x28B PUSH2 0xE8C JUMP JUMPDEST JUMPDEST PUSH1 0x20 MUL PUSH1 0x20 ADD ADD MLOAD PUSH1 0x40 ADD MLOAD DUP5 DUP4 DUP2 MLOAD DUP2 LT PUSH2 0x2AB JUMPI PUSH2 0x2AA PUSH2 0xE8C JUMP JUMPDEST JUMPDEST PUSH1 0x20 MUL PUSH1 0x20 ADD ADD MLOAD PUSH0 ADD MLOAD DUP6 DUP5 DUP2 MLOAD DUP2 LT PUSH2 0x2C9 JUMPI PUSH2 0x2C8 PUSH2 0xE8C JUMP JUMPDEST JUMPDEST PUSH1 0x20 MUL PUSH1 0x20 ADD ADD MLOAD PUSH1 0x20 ADD MLOAD PUSH2 0x894 JUMP JUMPDEST DUP2 DUP1 PUSH2 0x2E5 SWAP1 PUSH2 0xEE6 JUMP JUMPDEST SWAP3 POP POP JUMPDEST DUP1 DUP1 PUSH2 0x2F4 SWAP1 PUSH2 0xEE6 JUMP JUMPDEST SWAP2 POP POP PUSH2 0x1A3 JUMP JUMPDEST POP DUP1 SWAP3 POP POP POP SWAP2 SWAP1 POP JUMP JUMPDEST PUSH1 0x60 PUSH1 0x2 DUP3 MLOAD PUSH2 0x317 SWAP2 SWAP1 PUSH2 0xF5A JUMP JUMPDEST PUSH8 0xFFFFFFFFFFFFFFFF DUP2 GT ISZERO PUSH2 0x330 JUMPI PUSH2 0x32F PUSH2 0xC3B JUMP JUMPDEST JUMPDEST PUSH1 0x40 MLOAD SWAP1 DUP1 DUP3 MSTORE DUP1 PUSH1 0x20 MUL PUSH1 0x20 ADD DUP3 ADD PUSH1 0x40 MSTORE DUP1 ISZERO PUSH2 0x369 JUMPI DUP2 PUSH1 0x20 ADD JUMPDEST PUSH2 0x356 PUSH2 0xB29 JUMP JUMPDEST DUP2 MSTORE PUSH1 0x20 ADD SWAP1 PUSH1 0x1 SWAP1 SUB SWAP1 DUP2 PUSH2 0x34E JUMPI SWAP1 POP JUMPDEST POP SWAP1 POP PUSH0 DUP1 JUMPDEST DUP4 MLOAD DUP2 LT ISZERO PUSH2 0x88A JUMPI PUSH32 0x4BE5E2DDD7B814BFC07153581BBBDA6EA3D62D61C270F9788CAE2F0297E18AE8 PUSH1 0x40 MLOAD PUSH2 0x3A5 SWAP1 PUSH2 0xFE4 JUMP JUMPDEST PUSH1 0x40 MLOAD DUP1 SWAP2 SUB SWAP1 LOG1 PUSH32 0xF5A31E45AA6E3BC75AC2E5E33DBC4489CBFA724457B6310C6F7072A2E999A60C DUP5 DUP3 DUP2 MLOAD DUP2 LT PUSH2 0x3E1 JUMPI PUSH2 0x3E0 PUSH2 0xE8C JUMP JUMPDEST JUMPDEST PUSH1 0x20 MUL PUSH1 0x20 ADD ADD MLOAD PUSH1 0x40 MLOAD PUSH2 0x3F6 SWAP2 SWAP1 PUSH2 0x107C JUMP JUMPDEST PUSH1 0x40 MLOAD DUP1 SWAP2 SUB SWAP1 LOG1 PUSH0 PUSH2 0x42D PUSH2 0x428 DUP7 DUP5 DUP2 MLOAD DUP2 LT PUSH2 0x418 JUMPI PUSH2 0x417 PUSH2 0xE8C JUMP JUMPDEST JUMPDEST PUSH1 0x20 MUL PUSH1 0x20 ADD ADD MLOAD PUSH0 PUSH1 0x20 PUSH2 0x8E9 JUMP JUMPDEST PUSH2 0x9A7 JUMP JUMPDEST SWAP1 POP PUSH0 PUSH2 0x439 DUP3 PUSH2 0x9B9 JUMP JUMPDEST SWAP1 POP PUSH32 0xDA205E581598A3B14EA3ACE5E7FEB479DC34EC1B8DE973FCEA5B4AC61088007A DUP2 PUSH1 0x40 MLOAD PUSH2 0x46A SWAP2 SWAP1 PUSH2 0x10DE JUMP JUMPDEST PUSH1 0x40 MLOAD DUP1 SWAP2 SUB SWAP1 LOG1 PUSH32 0xDDF252AD1BE2C89B69C2B068FC378DAA952BA7F163C4A11628F55A4DF523B3EF DUP3 SUB PUSH2 0x61D JUMPI PUSH32 0x4BE5E2DDD7B814BFC07153581BBBDA6EA3D62D61C270F9788CAE2F0297E18AE8 PUSH1 0x40 MLOAD PUSH2 0x4C6 SWAP1 PUSH2 0x1148 JUMP JUMPDEST PUSH1 0x40 MLOAD DUP1 SWAP2 SUB SWAP1 LOG1 PUSH0 PUSH2 0x4FE PUSH2 0x4F9 DUP9 DUP7 DUP2 MLOAD DUP2 LT PUSH2 0x4E8 JUMPI PUSH2 0x4E7 PUSH2 0xE8C JUMP JUMPDEST JUMPDEST PUSH1 0x20 MUL PUSH1 0x20 ADD ADD MLOAD PUSH1 0x20 PUSH1 0x14 PUSH2 0x8E9 JUMP JUMPDEST PUSH2 0xB05 JUMP JUMPDEST SWAP1 POP PUSH0 PUSH2 0x530 PUSH2 0x52B DUP10 DUP8 DUP2 MLOAD DUP2 LT PUSH2 0x51A JUMPI PUSH2 0x519 PUSH2 0xE8C JUMP JUMPDEST JUMPDEST PUSH1 0x20 MUL PUSH1 0x20 ADD ADD MLOAD PUSH1 0x40 PUSH1 0x20 PUSH2 0x8E9 JUMP JUMPDEST PUSH2 0xB17 JUMP JUMPDEST SWAP1 POP PUSH32 0xFE2FF74A033D9C7A27917EE6DBF73BA49631D2CC56C8A906CDB38F7DAB7AACB0 DUP3 PUSH1 0x40 MLOAD PUSH2 0x561 SWAP2 SWAP1 PUSH2 0x11A5 JUMP JUMPDEST PUSH1 0x40 MLOAD DUP1 SWAP2 SUB SWAP1 LOG1 PUSH32 0x4DDB9AA59CDC255C966992729B4B5AA3A0D737E47B6A24F59358562631FA7EE6 DUP2 PUSH1 0x40 MLOAD PUSH2 0x598 SWAP2 SWAP1 PUSH2 0xC0E JUMP JUMPDEST PUSH1 0x40 MLOAD DUP1 SWAP2 SUB SWAP1 LOG1 DUP2 DUP8 DUP8 DUP2 MLOAD DUP2 LT PUSH2 0x5B4 JUMPI PUSH2 0x5B3 PUSH2 0xE8C JUMP JUMPDEST JUMPDEST PUSH1 0x20 MUL PUSH1 0x20 ADD ADD MLOAD PUSH1 0x40 ADD SWAP1 PUSH20 0xFFFFFFFFFFFFFFFFFFFFFFFFFFFFFFFFFFFFFFFF AND SWAP1 DUP2 PUSH20 0xFFFFFFFFFFFFFFFFFFFFFFFFFFFFFFFFFFFFFFFF AND DUP2 MSTORE POP POP DUP1 DUP8 DUP8 DUP2 MLOAD DUP2 LT PUSH2 0x606 JUMPI PUSH2 0x605 PUSH2 0xE8C JUMP JUMPDEST JUMPDEST PUSH1 0x20 MUL PUSH1 0x20 ADD ADD MLOAD PUSH1 0x20 ADD DUP2 DUP2 MSTORE POP POP POP POP PUSH2 0x875 JUMP JUMPDEST PUSH32 0x4B3711CD7ECE062B0828C1B6E08D814A72D4C003383A016C833CBB1B45956E34 DUP3 SUB PUSH2 0x7E2 JUMPI PUSH32 0x4BE5E2DDD7B814BFC07153581BBBDA6EA3D62D61C270F9788CAE2F0297E18AE8 PUSH1 0x40 MLOAD PUSH2 0x671 SWAP1 PUSH2 0x1208 JUMP JUMPDEST PUSH1 0x40 MLOAD DUP1 SWAP2 SUB SWAP1 LOG1 PUSH0 PUSH2 0x6A8 PUSH2 0x6A3 DUP9 DUP7 DUP2 MLOAD DUP2 LT PUSH2 0x693 JUMPI PUSH2 0x692 PUSH2 0xE8C JUMP JUMPDEST JUMPDEST PUSH1 0x20 MUL PUSH1 0x20 ADD ADD MLOAD PUSH1 0x20 DUP1 PUSH2 0x8E9 JUMP JUMPDEST PUSH2 0xB17 JUMP JUMPDEST SWAP1 POP PUSH0 PUSH2 0x6DA PUSH2 0x6D5 DUP10 DUP8 DUP2 MLOAD DUP2 LT PUSH2 0x6C4 JUMPI PUSH2 0x6C3 PUSH2 0xE8C JUMP JUMPDEST JUMPDEST PUSH1 0x20 MUL PUSH1 0x20 ADD ADD MLOAD PUSH1 0x40 PUSH1 0x20 PUSH2 0x8E9 JUMP JUMPDEST PUSH2 0xB17 JUMP JUMPDEST SWAP1 POP PUSH32 0x4DDB9AA59CDC255C966992729B4B5AA3A0D737E47B6A24F59358562631FA7EE6 DUP3 PUSH1 0x40 MLOAD PUSH2 0x70B SWAP2 SWAP1 PUSH2 0xC0E JUMP JUMPDEST PUSH1 0x40 MLOAD DUP1 SWAP2 SUB SWAP1 LOG1 PUSH32 0x4DDB9AA59CDC255C966992729B4B5AA3A0D737E47B6A24F59358562631FA7EE6 DUP2 PUSH1 0x40 MLOAD PUSH2 0x742 SWAP2 SWAP1 PUSH2 0xC0E JUMP JUMPDEST PUSH1 0x40 MLOAD DUP1 SWAP2 SUB SWAP1 LOG1 DUP2 DUP8 DUP8 DUP2 MLOAD DUP2 LT PUSH2 0x75E JUMPI PUSH2 0x75D PUSH2 0xE8C JUMP JUMPDEST JUMPDEST PUSH1 0x20 MUL PUSH1 0x20 ADD ADD MLOAD PUSH0 ADD DUP2 DUP2 MSTORE POP POP DUP1 DUP8 DUP8 DUP2 MLOAD DUP2 LT PUSH2 0x781 JUMPI PUSH2 0x780 PUSH2 0xE8C JUMP JUMPDEST JUMPDEST PUSH1 0x20 MUL PUSH1 0x20 ADD ADD MLOAD PUSH1 0x20 ADD MLOAD EQ PUSH2 0x7CD JUMPI PUSH1 0x40 MLOAD PUSH32 0x8C379A000000000000000000000000000000000000000000000000000000000 DUP2 MSTORE PUSH1 0x4 ADD PUSH2 0x7C4 SWAP1 PUSH2 0x1270 JUMP JUMPDEST PUSH1 0x40 MLOAD DUP1 SWAP2 SUB SWAP1 REVERT JUMPDEST DUP6 DUP1 PUSH2 0x7D8 SWAP1 PUSH2 0xEE6 JUMP JUMPDEST SWAP7 POP POP POP POP PUSH2 0x874 JUMP JUMPDEST PUSH32 0x4BE5E2DDD7B814BFC07153581BBBDA6EA3D62D61C270F9788CAE2F0297E18AE8 PUSH1 0x40 MLOAD PUSH2 0x80F SWAP1 PUSH2 0x12D8 JUMP JUMPDEST PUSH1 0x40 MLOAD DUP1 SWAP2 SUB SWAP1 LOG1 PUSH32 0x964A3111D3AC42C11F109E9480C0DB7032A5153188E73BDD9690FF96AFEE9425 PUSH2 0x85E DUP8 DUP6 DUP2 MLOAD DUP2 LT PUSH2 0x84E JUMPI PUSH2 0x84D PUSH2 0xE8C JUMP JUMPDEST JUMPDEST PUSH1 0x20 MUL PUSH1 0x20 ADD ADD MLOAD PUSH0 PUSH1 0x20 PUSH2 0x8E9 JUMP JUMPDEST PUSH1 0x40 MLOAD PUSH2 0x86B SWAP2 SWAP1 PUSH2 0x107C JUMP JUMPDEST PUSH1 0x40 MLOAD DUP1 SWAP2 SUB SWAP1 LOG1 JUMPDEST JUMPDEST POP POP DUP1 DUP1 PUSH2 0x882 SWAP1 PUSH2 0xEE6 JUMP JUMPDEST SWAP2 POP POP PUSH2 0x36F JUMP JUMPDEST POP DUP1 DUP3 MSTORE POP SWAP2 SWAP1 POP JUMP JUMPDEST DUP3 PUSH20 0xFFFFFFFFFFFFFFFFFFFFFFFFFFFFFFFFFFFFFFFF AND PUSH32 0x5EF3BD3C823875BC38DF6C327EF163659EF15FF1E9898230DF18CC50316A91C1 DUP4 DUP4 PUSH1 0x40 MLOAD PUSH2 0x8DC SWAP3 SWAP2 SWAP1 PUSH2 0x12F6 JUMP JUMPDEST PUSH1 0x40 MLOAD DUP1 SWAP2 SUB SWAP1 LOG2 POP POP POP JUMP JUMPDEST PUSH1 0x60 DUP2 DUP4 PUSH2 0x8F7 SWAP2 SWAP1 PUSH2 0x131D JUMP JUMPDEST DUP5 MLOAD LT ISZERO PUSH2 0x93A JUMPI PUSH1 0x40 MLOAD PUSH32 0x8C379A000000000000000000000000000000000000000000000000000000000 DUP2 MSTORE PUSH1 0x4 ADD PUSH2 0x931 SWAP1 PUSH2 0x139A JUMP JUMPDEST PUSH1 0x40 MLOAD DUP1 SWAP2 SUB SWAP1 REVERT JUMPDEST PUSH1 0x60 DUP3 ISZERO PUSH0 DUP2 EQ PUSH2 0x959 JUMPI PUSH1 0x40 MLOAD SWAP2 POP PUSH0 DUP3 MSTORE PUSH1 0x20 DUP3 ADD PUSH1 0x40 MSTORE PUSH2 0x99B JUMP JUMPDEST PUSH1 0x40 MLOAD SWAP2 POP PUSH1 0x20 DUP3 ADD DUP5 DUP2 ADD DUP7 PUSH1 0x20 DUP10 ADD ADD JUMPDEST DUP2 DUP4 LT ISZERO PUSH2 0x989 JUMPI DUP1 MLOAD DUP4 MSTORE PUSH1 0x20 DUP4 ADD SWAP3 POP PUSH1 0x20 DUP2 ADD SWAP1 POP PUSH2 0x96C JUMP JUMPDEST POP DUP6 DUP5 MSTORE PUSH1 0x1F NOT PUSH1 0x1F DUP4 ADD AND PUSH1 0x40 MSTORE POP POP JUMPDEST POP DUP1 SWAP2 POP POP SWAP4 SWAP3 POP POP POP JUMP JUMPDEST PUSH0 DUP1 PUSH1 0x20 DUP4 ADD MLOAD SWAP1 POP DUP1 SWAP2 POP POP SWAP2 SWAP1 POP JUMP JUMPDEST PUSH1 0x60 PUSH0 JUMPDEST PUSH1 0x20 DUP2 PUSH1 0xFF AND LT DUP1 ISZERO PUSH2 0xA0E JUMPI POP PUSH0 PUSH1 0xF8 SHL DUP4 DUP3 PUSH1 0xFF AND PUSH1 0x20 DUP2 LT PUSH2 0x9E5 JUMPI PUSH2 0x9E4 PUSH2 0xE8C JUMP JUMPDEST JUMPDEST BYTE PUSH1 0xF8 SHL PUSH31 0xFFFFFFFFFFFFFFFFFFFFFFFFFFFFFFFFFFFFFFFFFFFFFFFFFFFFFFFFFFFFFF NOT AND EQ ISZERO JUMPDEST ISZERO PUSH2 0xA26 JUMPI DUP1 DUP1 PUSH2 0xA1E SWAP1 PUSH2 0x13C4 JUMP JUMPDEST SWAP2 POP POP PUSH2 0x9BD JUMP JUMPDEST PUSH0 DUP2 PUSH1 0xFF AND PUSH8 0xFFFFFFFFFFFFFFFF DUP2 GT ISZERO PUSH2 0xA44 JUMPI PUSH2 0xA43 PUSH2 0xC3B JUMP JUMPDEST JUMPDEST PUSH1 0x40 MLOAD SWAP1 DUP1 DUP3 MSTORE DUP1 PUSH1 0x1F ADD PUSH1 0x1F NOT AND PUSH1 0x20 ADD DUP3 ADD PUSH1 0x40 MSTORE DUP1 ISZERO PUSH2 0xA76 JUMPI DUP2 PUSH1 0x20 ADD PUSH1 0x1 DUP3 MUL DUP1 CALLDATASIZE DUP4 CALLDATACOPY DUP1 DUP3 ADD SWAP2 POP POP SWAP1 POP JUMPDEST POP SWAP1 POP PUSH0 JUMPDEST DUP3 PUSH1 0xFF AND DUP2 PUSH1 0xFF AND LT ISZERO PUSH2 0xAFA JUMPI DUP5 DUP2 PUSH1 0xFF AND PUSH1 0x20 DUP2 LT PUSH2 0xA9F JUMPI PUSH2 0xA9E PUSH2 0xE8C JUMP JUMPDEST JUMPDEST BYTE PUSH1 0xF8 SHL DUP3 DUP3 PUSH1 0xFF AND DUP2 MLOAD DUP2 LT PUSH2 0xAB9 JUMPI PUSH2 0xAB8 PUSH2 0xE8C JUMP JUMPDEST JUMPDEST PUSH1 0x20 ADD ADD SWAP1 PUSH31 0xFFFFFFFFFFFFFFFFFFFFFFFFFFFFFFFFFFFFFFFFFFFFFFFFFFFFFFFFFFFFFF NOT AND SWAP1 DUP2 PUSH0 BYTE SWAP1 MSTORE8 POP DUP1 DUP1 PUSH2 0xAF2 SWAP1 PUSH2 0x13C4 JUMP JUMPDEST SWAP2 POP POP PUSH2 0xA7B JUMP JUMPDEST POP DUP1 SWAP3 POP POP POP SWAP2 SWAP1 POP JUMP JUMPDEST PUSH0 DUP1 PUSH1 0x14 DUP4 ADD MLOAD SWAP1 POP DUP1 SWAP2 POP POP SWAP2 SWAP1 POP JUMP JUMPDEST PUSH0 DUP1 PUSH1 0x20 DUP4 ADD MLOAD SWAP1 POP DUP1 SWAP2 POP POP SWAP2 SWAP1 POP JUMP JUMPDEST PUSH1 0x40 MLOAD DUP1 PUSH1 0x60 ADD PUSH1 0x40 MSTORE DUP1 PUSH0 DUP2 MSTORE PUSH1 0x20 ADD PUSH0 DUP2 MSTORE PUSH1 0x20 ADD PUSH0 PUSH20 0xFFFFFFFFFFFFFFFFFFFFFFFFFFFFFFFFFFFFFFFF AND DUP2 MSTORE POP SWAP1 JUMP JUMPDEST PUSH0 PUSH1 0x40 MLOAD SWAP1 POP SWAP1 JUMP JUMPDEST PUSH0 DUP1 REVERT JUMPDEST PUSH0 DUP1 REVERT JUMPDEST PUSH0 DUP2 SWAP1 POP SWAP2 SWAP1 POP JUMP JUMPDEST PUSH2 0xB80 DUP2 PUSH2 0xB6E JUMP JUMPDEST DUP2 EQ PUSH2 0xB8A JUMPI PUSH0 DUP1 REVERT JUMPDEST POP JUMP JUMPDEST PUSH0 DUP2 CALLDATALOAD SWAP1 POP PUSH2 0xB9B DUP2 PUSH2 0xB77 JUMP JUMPDEST SWAP3 SWAP2 POP POP JUMP JUMPDEST PUSH0 PUSH1 0x20 DUP3 DUP5 SUB SLT ISZERO PUSH2 0xBB6 JUMPI PUSH2 0xBB5 PUSH2 0xB66 JUMP JUMPDEST JUMPDEST PUSH0 PUSH2 0xBC3 DUP5 DUP3 DUP6 ADD PUSH2 0xB8D JUMP JUMPDEST SWAP2 POP POP SWAP3 SWAP2 POP POP JUMP JUMPDEST PUSH0 DUP2 ISZERO ISZERO SWAP1 POP SWAP2 SWAP1 POP JUMP JUMPDEST PUSH2 0xBE0 DUP2 PUSH2 0xBCC JUMP JUMPDEST DUP3 MSTORE POP POP JUMP JUMPDEST PUSH0 PUSH1 0x20 DUP3 ADD SWAP1 POP PUSH2 0xBF9 PUSH0 DUP4 ADD DUP5 PUSH2 0xBD7 JUMP JUMPDEST SWAP3 SWAP2 POP POP JUMP JUMPDEST PUSH2 0xC08 DUP2 PUSH2 0xB6E JUMP JUMPDEST DUP3 MSTORE POP POP JUMP JUMPDEST PUSH0 PUSH1 0x20 DUP3 ADD SWAP1 POP PUSH2 0xC21 PUSH0 DUP4 ADD DUP5 PUSH2 0xBFF JUMP JUMPDEST SWAP3 SWAP2 POP POP JUMP JUMPDEST PUSH0 DUP1 REVERT JUMPDEST PUSH0 PUSH1 0x1F NOT PUSH1 0x1F DUP4 ADD AND SWAP1 POP SWAP2 SWAP1 POP JUMP JUMPDEST PUSH32 0x4E487B7100000000000000000000000000000000000000000000000000000000 PUSH0 MSTORE PUSH1 0x41 PUSH1 0x4 MSTORE PUSH1 0x24 PUSH0 REVERT JUMPDEST PUSH2 0xC71 DUP3 PUSH2 0xC2B JUMP JUMPDEST DUP2 ADD DUP2 DUP2 LT PUSH8 0xFFFFFFFFFFFFFFFF DUP3 GT OR ISZERO PUSH2 0xC90 JUMPI PUSH2 0xC8F PUSH2 0xC3B JUMP JUMPDEST JUMPDEST DUP1 PUSH1 0x40 MSTORE POP POP POP JUMP JUMPDEST PUSH0 PUSH2 0xCA2 PUSH2 0xB5D JUMP JUMPDEST SWAP1 POP PUSH2 0xCAE DUP3 DUP3 PUSH2 0xC68 JUMP JUMPDEST SWAP2 SWAP1 POP JUMP JUMPDEST PUSH0 PUSH8 0xFFFFFFFFFFFFFFFF DUP3 GT ISZERO PUSH2 0xCCD JUMPI PUSH2 0xCCC PUSH2 0xC3B JUMP JUMPDEST JUMPDEST PUSH1 0x20 DUP3 MUL SWAP1 POP PUSH1 0x20 DUP2 ADD SWAP1 POP SWAP2 SWAP1 POP JUMP JUMPDEST PUSH0 DUP1 REVERT JUMPDEST PUSH0 DUP1 REVERT JUMPDEST PUSH0 PUSH8 0xFFFFFFFFFFFFFFFF DUP3 GT ISZERO PUSH2 0xD00 JUMPI PUSH2 0xCFF PUSH2 0xC3B JUMP JUMPDEST JUMPDEST PUSH2 0xD09 DUP3 PUSH2 0xC2B JUMP JUMPDEST SWAP1 POP PUSH1 0x20 DUP2 ADD SWAP1 POP SWAP2 SWAP1 POP JUMP JUMPDEST DUP3 DUP2 DUP4 CALLDATACOPY PUSH0 DUP4 DUP4 ADD MSTORE POP POP POP JUMP JUMPDEST PUSH0 PUSH2 0xD36 PUSH2 0xD31 DUP5 PUSH2 0xCE6 JUMP JUMPDEST PUSH2 0xC99 JUMP JUMPDEST SWAP1 POP DUP3 DUP2 MSTORE PUSH1 0x20 DUP2 ADD DUP5 DUP5 DUP5 ADD GT ISZERO PUSH2 0xD52 JUMPI PUSH2 0xD51 PUSH2 0xCE2 JUMP JUMPDEST JUMPDEST PUSH2 0xD5D DUP5 DUP3 DUP6 PUSH2 0xD16 JUMP JUMPDEST POP SWAP4 SWAP3 POP POP POP JUMP JUMPDEST PUSH0 DUP3 PUSH1 0x1F DUP4 ADD SLT PUSH2 0xD79 JUMPI PUSH2 0xD78 PUSH2 0xC27 JUMP JUMPDEST JUMPDEST DUP2 CALLDATALOAD PUSH2 0xD89 DUP5 DUP3 PUSH1 0x20 DUP7 ADD PUSH2 0xD24 JUMP JUMPDEST SWAP2 POP POP SWAP3 SWAP2 POP POP JUMP JUMPDEST PUSH0 PUSH2 0xDA4 PUSH2 0xD9F DUP5 PUSH2 0xCB3 JUMP JUMPDEST PUSH2 0xC99 JUMP JUMPDEST SWAP1 POP DUP1 DUP4 DUP3 MSTORE PUSH1 0x20 DUP3 ADD SWAP1 POP PUSH1 0x20 DUP5 MUL DUP4 ADD DUP6 DUP2 GT ISZERO PUSH2 0xDC7 JUMPI PUSH2 0xDC6 PUSH2 0xCDE JUMP JUMPDEST JUMPDEST DUP4 JUMPDEST DUP2 DUP2 LT ISZERO PUSH2 0xE0E JUMPI DUP1 CALLDATALOAD PUSH8 0xFFFFFFFFFFFFFFFF DUP2 GT ISZERO PUSH2 0xDEC JUMPI PUSH2 0xDEB PUSH2 0xC27 JUMP JUMPDEST JUMPDEST DUP1 DUP7 ADD PUSH2 0xDF9 DUP10 DUP3 PUSH2 0xD65 JUMP JUMPDEST DUP6 MSTORE PUSH1 0x20 DUP6 ADD SWAP5 POP POP POP PUSH1 0x20 DUP2 ADD SWAP1 POP PUSH2 0xDC9 JUMP JUMPDEST POP POP POP SWAP4 SWAP3 POP POP POP JUMP JUMPDEST PUSH0 DUP3 PUSH1 0x1F DUP4 ADD SLT PUSH2 0xE2C JUMPI PUSH2 0xE2B PUSH2 0xC27 JUMP JUMPDEST JUMPDEST DUP2 CALLDATALOAD PUSH2 0xE3C DUP5 DUP3 PUSH1 0x20 DUP7 ADD PUSH2 0xD92 JUMP JUMPDEST SWAP2 POP POP SWAP3 SWAP2 POP POP JUMP JUMPDEST PUSH0 PUSH1 0x20 DUP3 DUP5 SUB SLT ISZERO PUSH2 0xE5A JUMPI PUSH2 0xE59 PUSH2 0xB66 JUMP JUMPDEST JUMPDEST PUSH0 DUP3 ADD CALLDATALOAD PUSH8 0xFFFFFFFFFFFFFFFF DUP2 GT ISZERO PUSH2 0xE77 JUMPI PUSH2 0xE76 PUSH2 0xB6A JUMP JUMPDEST JUMPDEST PUSH2 0xE83 DUP5 DUP3 DUP6 ADD PUSH2 0xE18 JUMP JUMPDEST SWAP2 POP POP SWAP3 SWAP2 POP POP JUMP JUMPDEST PUSH32 0x4E487B7100000000000000000000000000000000000000000000000000000000 PUSH0 MSTORE PUSH1 0x32 PUSH1 0x4 MSTORE PUSH1 0x24 PUSH0 REVERT JUMPDEST PUSH32 0x4E487B7100000000000000000000000000000000000000000000000000000000 PUSH0 MSTORE PUSH1 0x11 PUSH1 0x4 MSTORE PUSH1 0x24 PUSH0 REVERT JUMPDEST PUSH0 PUSH2 0xEF0 DUP3 PUSH2 0xB6E JUMP JUMPDEST SWAP2 POP PUSH32 0xFFFFFFFFFFFFFFFFFFFFFFFFFFFFFFFFFFFFFFFFFFFFFFFFFFFFFFFFFFFFFFFF DUP3 SUB PUSH2 0xF22 JUMPI PUSH2 0xF21 PUSH2 0xEB9 JUMP JUMPDEST JUMPDEST PUSH1 0x1 DUP3 ADD SWAP1 POP SWAP2 SWAP1 POP JUMP JUMPDEST PUSH32 0x4E487B7100000000000000000000000000000000000000000000000000000000 PUSH0 MSTORE PUSH1 0x12 PUSH1 0x4 MSTORE PUSH1 0x24 PUSH0 REVERT JUMPDEST PUSH0 PUSH2 0xF64 DUP3 PUSH2 0xB6E JUMP JUMPDEST SWAP2 POP PUSH2 0xF6F DUP4 PUSH2 0xB6E JUMP JUMPDEST SWAP3 POP DUP3 PUSH2 0xF7F JUMPI PUSH2 0xF7E PUSH2 0xF2D JUMP JUMPDEST JUMPDEST DUP3 DUP3 DIV SWAP1 POP SWAP3 SWAP2 POP POP JUMP JUMPDEST PUSH0 DUP3 DUP3 MSTORE PUSH1 0x20 DUP3 ADD SWAP1 POP SWAP3 SWAP2 POP POP JUMP JUMPDEST PUSH32 0x426567696E206465636F64652E2E2E0000000000000000000000000000000000 PUSH0 DUP3 ADD MSTORE POP JUMP JUMPDEST PUSH0 PUSH2 0xFCE PUSH1 0xF DUP4 PUSH2 0xF8A JUMP JUMPDEST SWAP2 POP PUSH2 0xFD9 DUP3 PUSH2 0xF9A JUMP JUMPDEST PUSH1 0x20 DUP3 ADD SWAP1 POP SWAP2 SWAP1 POP JUMP JUMPDEST PUSH0 PUSH1 0x20 DUP3 ADD SWAP1 POP DUP2 DUP2 SUB PUSH0 DUP4 ADD MSTORE PUSH2 0xFFB DUP2 PUSH2 0xFC2 JUMP JUMPDEST SWAP1 POP SWAP2 SWAP1 POP JUMP JUMPDEST PUSH0 DUP2 MLOAD SWAP1 POP SWAP2 SWAP1 POP JUMP JUMPDEST PUSH0 DUP3 DUP3 MSTORE PUSH1 0x20 DUP3 ADD SWAP1 POP SWAP3 SWAP2 POP POP JUMP JUMPDEST PUSH0 JUMPDEST DUP4 DUP2 LT ISZERO PUSH2 0x1039 JUMPI DUP1 DUP3 ADD MLOAD DUP2 DUP5 ADD MSTORE PUSH1 0x20 DUP2 ADD SWAP1 POP PUSH2 0x101E JUMP JUMPDEST PUSH0 DUP5 DUP5 ADD MSTORE POP POP POP POP JUMP JUMPDEST PUSH0 PUSH2 0x104E DUP3 PUSH2 0x1002 JUMP JUMPDEST PUSH2 0x1058 DUP2 DUP6 PUSH2 0x100C JUMP JUMPDEST SWAP4 POP PUSH2 0x1068 DUP2 DUP6 PUSH1 0x20 DUP7 ADD PUSH2 0x101C JUMP JUMPDEST PUSH2 0x1071 DUP2 PUSH2 0xC2B JUMP JUMPDEST DUP5 ADD SWAP2 POP POP SWAP3 SWAP2 POP POP JUMP JUMPDEST PUSH0 PUSH1 0x20 DUP3 ADD SWAP1 POP DUP2 DUP2 SUB PUSH0 DUP4 ADD MSTORE PUSH2 0x1094 DUP2 DUP5 PUSH2 0x1044 JUMP JUMPDEST SWAP1 POP SWAP3 SWAP2 POP POP JUMP JUMPDEST PUSH0 DUP2 MLOAD SWAP1 POP SWAP2 SWAP1 POP JUMP JUMPDEST PUSH0 PUSH2 0x10B0 DUP3 PUSH2 0x109C JUMP JUMPDEST PUSH2 0x10BA DUP2 DUP6 PUSH2 0xF8A JUMP JUMPDEST SWAP4 POP PUSH2 0x10CA DUP2 DUP6 PUSH1 0x20 DUP7 ADD PUSH2 0x101C JUMP JUMPDEST PUSH2 0x10D3 DUP2 PUSH2 0xC2B JUMP JUMPDEST DUP5 ADD SWAP2 POP POP SWAP3 SWAP2 POP POP JUMP JUMPDEST PUSH0 PUSH1 0x20 DUP3 ADD SWAP1 POP DUP2 DUP2 SUB PUSH0 DUP4 ADD MSTORE PUSH2 0x10F6 DUP2 DUP5 PUSH2 0x10A6 JUMP JUMPDEST SWAP1 POP SWAP3 SWAP2 POP POP JUMP JUMPDEST PUSH32 0x7472616E73666572206576656E74000000000000000000000000000000000000 PUSH0 DUP3 ADD MSTORE POP JUMP JUMPDEST PUSH0 PUSH2 0x1132 PUSH1 0xE DUP4 PUSH2 0xF8A JUMP JUMPDEST SWAP2 POP PUSH2 0x113D DUP3 PUSH2 0x10FE JUMP JUMPDEST PUSH1 0x20 DUP3 ADD SWAP1 POP SWAP2 SWAP1 POP JUMP JUMPDEST PUSH0 PUSH1 0x20 DUP3 ADD SWAP1 POP DUP2 DUP2 SUB PUSH0 DUP4 ADD MSTORE PUSH2 0x115F DUP2 PUSH2 0x1126 JUMP JUMPDEST SWAP1 POP SWAP2 SWAP1 POP JUMP JUMPDEST PUSH0 PUSH20 0xFFFFFFFFFFFFFFFFFFFFFFFFFFFFFFFFFFFFFFFF DUP3 AND SWAP1 POP SWAP2 SWAP1 POP JUMP JUMPDEST PUSH0 PUSH2 0x118F DUP3 PUSH2 0x1166 JUMP JUMPDEST SWAP1 POP SWAP2 SWAP1 POP JUMP JUMPDEST PUSH2 0x119F DUP2 PUSH2 0x1185 JUMP JUMPDEST DUP3 MSTORE POP POP JUMP JUMPDEST PUSH0 PUSH1 0x20 DUP3 ADD SWAP1 POP PUSH2 0x11B8 PUSH0 DUP4 ADD DUP5 PUSH2 0x1196 JUMP JUMPDEST SWAP3 SWAP2 POP POP JUMP JUMPDEST PUSH32 0x6576656E74746F6B656E206576656E7400000000000000000000000000000000 PUSH0 DUP3 ADD MSTORE POP JUMP JUMPDEST PUSH0 PUSH2 0x11F2 PUSH1 0x10 DUP4 PUSH2 0xF8A JUMP JUMPDEST SWAP2 POP PUSH2 0x11FD DUP3 PUSH2 0x11BE JUMP JUMPDEST PUSH1 0x20 DUP3 ADD SWAP1 POP SWAP2 SWAP1 POP JUMP JUMPDEST PUSH0 PUSH1 0x20 DUP3 ADD SWAP1 POP DUP2 DUP2 SUB PUSH0 DUP4 ADD MSTORE PUSH2 0x121F DUP2 PUSH2 0x11E6 JUMP JUMPDEST SWAP1 POP SWAP2 SWAP1 POP JUMP JUMPDEST PUSH32 0x546F6B656E4964206D69736D6174636800000000000000000000000000000000 PUSH0 DUP3 ADD MSTORE POP JUMP JUMPDEST PUSH0 PUSH2 0x125A PUSH1 0x10 DUP4 PUSH2 0xF8A JUMP JUMPDEST SWAP2 POP PUSH2 0x1265 DUP3 PUSH2 0x1226 JUMP JUMPDEST PUSH1 0x20 DUP3 ADD SWAP1 POP SWAP2 SWAP1 POP JUMP JUMPDEST PUSH0 PUSH1 0x20 DUP3 ADD SWAP1 POP DUP2 DUP2 SUB PUSH0 DUP4 ADD MSTORE PUSH2 0x1287 DUP2 PUSH2 0x124E JUMP JUMPDEST SWAP1 POP SWAP2 SWAP1 POP JUMP JUMPDEST PUSH32 0x6E6F206D61746368696E67206576656E745369676E6174757265000000000000 PUSH0 DUP3 ADD MSTORE POP JUMP JUMPDEST PUSH0 PUSH2 0x12C2 PUSH1 0x1A DUP4 PUSH2 0xF8A JUMP JUMPDEST SWAP2 POP PUSH2 0x12CD DUP3 PUSH2 0x128E JUMP JUMPDEST PUSH1 0x20 DUP3 ADD SWAP1 POP SWAP2 SWAP1 POP JUMP JUMPDEST PUSH0 PUSH1 0x20 DUP3 ADD SWAP1 POP DUP2 DUP2 SUB PUSH0 DUP4 ADD MSTORE PUSH2 0x12EF DUP2 PUSH2 0x12B6 JUMP JUMPDEST SWAP1 POP SWAP2 SWAP1 POP JUMP JUMPDEST PUSH0 PUSH1 0x40 DUP3 ADD SWAP1 POP PUSH2 0x1309 PUSH0 DUP4 ADD DUP6 PUSH2 0xBFF JUMP JUMPDEST PUSH2 0x1316 PUSH1 0x20 DUP4 ADD DUP5 PUSH2 0xBFF JUMP JUMPDEST SWAP4 SWAP3 POP POP POP JUMP JUMPDEST PUSH0 PUSH2 0x1327 DUP3 PUSH2 0xB6E JUMP JUMPDEST SWAP2 POP PUSH2 0x1332 DUP4 PUSH2 0xB6E JUMP JUMPDEST SWAP3 POP DUP3 DUP3 ADD SWAP1 POP DUP1 DUP3 GT ISZERO PUSH2 0x134A JUMPI PUSH2 0x1349 PUSH2 0xEB9 JUMP JUMPDEST JUMPDEST SWAP3 SWAP2 POP POP JUMP JUMPDEST PUSH32 0x736C6963655F6F75744F66426F756E6473000000000000000000000000000000 PUSH0 DUP3 ADD MSTORE POP JUMP JUMPDEST PUSH0 PUSH2 0x1384 PUSH1 0x11 DUP4 PUSH2 0xF8A JUMP JUMPDEST SWAP2 POP PUSH2 0x138F DUP3 PUSH2 0x1350 JUMP JUMPDEST PUSH1 0x20 DUP3 ADD SWAP1 POP SWAP2 SWAP1 POP JUMP JUMPDEST PUSH0 PUSH1 0x20 DUP3 ADD SWAP1 POP DUP2 DUP2 SUB PUSH0 DUP4 ADD MSTORE PUSH2 0x13B1 DUP2 PUSH2 0x1378 JUMP JUMPDEST SWAP1 POP SWAP2 SWAP1 POP JUMP JUMPDEST PUSH0 PUSH1 0xFF DUP3 AND SWAP1 POP SWAP2 SWAP1 POP JUMP JUMPDEST PUSH0 PUSH2 0x13CE DUP3 PUSH2 0x13B8 JUMP JUMPDEST SWAP2 POP PUSH1 0xFF DUP3 SUB PUSH2 0x13E1 JUMPI PUSH2 0x13E0 PUSH2 0xEB9 JUMP JUMPDEST JUMPDEST PUSH1 0x1 DUP3 ADD SWAP1 POP SWAP2 SWAP1 POP JUMP INVALID LOG2 PUSH5 0x6970667358 0x22 SLT KECCAK256 0xC5 0xCD GT EXTCODECOPY 0xC7 0xF7 0xDF PUSH32 0x61C878796D9810C233066D31B3D20C9794DC7A9EFB6B3C3764736F6C63430008 EQ STOP CALLER "
		},
		"gasEstimates": {
			"creation": {
				"codeDepositCost": "1030800",
				"executionCost": "1072",
				"totalCost": "1031872"
			},
			"external": {
				"TOKENS_PER_POAP()": "347",
				"processEvents(bytes[])": "infinite",
				"processedTokenIds(uint256)": "2763",
				"whitelistEventId(uint256)": "24787",
				"whitelistedEventIds(uint256)": "2784"
			},
			"internal": {
				"bytes32ToString(bytes32)": "infinite",
				"bytesToAddress(bytes memory)": "infinite",
				"bytesToBytes32(bytes memory)": "infinite",
				"bytesToUint256(bytes memory)": "infinite",
				"decodeEventLogs(bytes memory[] memory)": "infinite",
				"handleTargetEvent(address,uint256,uint256)": "infinite",
				"slice(bytes memory,uint256,uint256)": "infinite"
			}
		},
		"methodIdentifiers": {
			"TOKENS_PER_POAP()": "84d36eb8",
			"processEvents(bytes[])": "cf3845a6",
			"processedTokenIds(uint256)": "0a8595b0",
			"whitelistEventId(uint256)": "8f0a4e79",
			"whitelistedEventIds(uint256)": "7d526123"
		}
	},
	"abi": [
		{
			"anonymous": false,
			"inputs": [
				{
					"indexed": false,
					"internalType": "string",
					"name": "message",
					"type": "string"
				}
			],
			"name": "DebugLog",
			"type": "event"
		},
		{
			"anonymous": false,
			"inputs": [
				{
					"indexed": false,
					"internalType": "address",
					"name": "data",
					"type": "address"
				}
			],
			"name": "DebugLogAddress",
			"type": "event"
		},
		{
			"anonymous": false,
			"inputs": [
				{
					"indexed": false,
					"internalType": "bytes",
					"name": "data",
					"type": "bytes"
				}
			],
			"name": "DebugLogBytes",
			"type": "event"
		},
		{
			"anonymous": false,
			"inputs": [
				{
					"indexed": false,
					"internalType": "string",
					"name": "data",
					"type": "string"
				}
			],
			"name": "DebugLogString",
			"type": "event"
		},
		{
			"anonymous": false,
			"inputs": [
				{
					"indexed": false,
					"internalType": "uint256",
					"name": "data",
					"type": "uint256"
				}
			],
			"name": "DebugLogUint256",
			"type": "event"
		},
		{
			"anonymous": false,
			"inputs": [
				{
					"indexed": false,
					"internalType": "address",
					"name": "user",
					"type": "address"
				},
				{
					"indexed": false,
					"internalType": "uint256",
					"name": "eventId",
					"type": "uint256"
				},
				{
					"indexed": false,
					"internalType": "uint256",
					"name": "tokenId",
					"type": "uint256"
				}
			],
			"name": "EventDataLog",
			"type": "event"
		},
		{
			"anonymous": false,
			"inputs": [
				{
					"indexed": false,
					"internalType": "bytes",
					"name": "logData",
					"type": "bytes"
				}
			],
			"name": "RawLogData",
			"type": "event"
		},
		{
			"anonymous": false,
			"inputs": [
				{
					"indexed": true,
					"internalType": "address",
					"name": "user",
					"type": "address"
				},
				{
					"indexed": false,
					"internalType": "uint256",
					"name": "eventId",
					"type": "uint256"
				},
				{
					"indexed": false,
					"internalType": "uint256",
					"name": "tokenId",
					"type": "uint256"
				}
			],
			"name": "TargetEventReceived",
			"type": "event"
		},
		{
			"inputs": [],
			"name": "TOKENS_PER_POAP",
			"outputs": [
				{
					"internalType": "uint256",
					"name": "",
					"type": "uint256"
				}
			],
			"stateMutability": "view",
			"type": "function"
		},
		{
			"inputs": [
				{
					"internalType": "bytes[]",
					"name": "logs",
					"type": "bytes[]"
				}
			],
			"name": "processEvents",
			"outputs": [
				{
					"internalType": "uint256",
					"name": "",
					"type": "uint256"
				}
			],
			"stateMutability": "nonpayable",
			"type": "function"
		},
		{
			"inputs": [
				{
					"internalType": "uint256",
					"name": "",
					"type": "uint256"
				}
			],
			"name": "processedTokenIds",
			"outputs": [
				{
					"internalType": "bool",
					"name": "",
					"type": "bool"
				}
			],
			"stateMutability": "view",
			"type": "function"
		},
		{
			"inputs": [
				{
					"internalType": "uint256",
					"name": "eventId",
					"type": "uint256"
				}
			],
			"name": "whitelistEventId",
			"outputs": [],
			"stateMutability": "nonpayable",
			"type": "function"
		},
		{
			"inputs": [
				{
					"internalType": "uint256",
					"name": "",
					"type": "uint256"
				}
			],
			"name": "whitelistedEventIds",
			"outputs": [
				{
					"internalType": "bool",
					"name": "",
					"type": "bool"
				}
			],
			"stateMutability": "view",
			"type": "function"
		}
	]
}